{
	"ERC20stake&reward_flat.sol": {
		"Vintagecrypto": {
			"abi": [
				{
					"inputs": [],
					"stateMutability": "nonpayable",
					"type": "constructor"
				},
				{
					"anonymous": false,
					"inputs": [
						{
							"indexed": true,
							"internalType": "address",
							"name": "owner",
							"type": "address"
						},
						{
							"indexed": true,
							"internalType": "address",
							"name": "spender",
							"type": "address"
						},
						{
							"indexed": false,
							"internalType": "uint256",
							"name": "value",
							"type": "uint256"
						}
					],
					"name": "Approval",
					"type": "event"
				},
				{
					"anonymous": false,
					"inputs": [
						{
							"indexed": true,
							"internalType": "address",
							"name": "previousOwner",
							"type": "address"
						},
						{
							"indexed": true,
							"internalType": "address",
							"name": "newOwner",
							"type": "address"
						}
					],
					"name": "OwnershipTransferred",
					"type": "event"
				},
				{
					"anonymous": false,
					"inputs": [
						{
							"indexed": true,
							"internalType": "address",
							"name": "owner",
							"type": "address"
						},
						{
							"indexed": true,
							"internalType": "address",
							"name": "staker",
							"type": "address"
						},
						{
							"indexed": false,
							"internalType": "uint256",
							"name": "amount",
							"type": "uint256"
						},
						{
							"indexed": false,
							"internalType": "uint256",
							"name": "timestamp",
							"type": "uint256"
						}
					],
					"name": "Transfer",
					"type": "event"
				},
				{
					"anonymous": false,
					"inputs": [
						{
							"indexed": true,
							"internalType": "address",
							"name": "from",
							"type": "address"
						},
						{
							"indexed": true,
							"internalType": "address",
							"name": "to",
							"type": "address"
						},
						{
							"indexed": false,
							"internalType": "uint256",
							"name": "value",
							"type": "uint256"
						}
					],
					"name": "Transfer",
					"type": "event"
				},
				{
					"inputs": [],
					"name": "_numberofTokensStaked",
					"outputs": [
						{
							"internalType": "uint256",
							"name": "",
							"type": "uint256"
						}
					],
					"stateMutability": "view",
					"type": "function"
				},
				{
					"inputs": [
						{
							"internalType": "address",
							"name": "owner",
							"type": "address"
						},
						{
							"internalType": "address",
							"name": "spender",
							"type": "address"
						}
					],
					"name": "allowance",
					"outputs": [
						{
							"internalType": "uint256",
							"name": "",
							"type": "uint256"
						}
					],
					"stateMutability": "view",
					"type": "function"
				},
				{
					"inputs": [
						{
							"internalType": "address",
							"name": "spender",
							"type": "address"
						},
						{
							"internalType": "uint256",
							"name": "amount",
							"type": "uint256"
						}
					],
					"name": "approve",
					"outputs": [
						{
							"internalType": "bool",
							"name": "",
							"type": "bool"
						}
					],
					"stateMutability": "nonpayable",
					"type": "function"
				},
				{
					"inputs": [
						{
							"internalType": "address",
							"name": "account",
							"type": "address"
						}
					],
					"name": "balanceOf",
					"outputs": [
						{
							"internalType": "uint256",
							"name": "",
							"type": "uint256"
						}
					],
					"stateMutability": "view",
					"type": "function"
				},
				{
					"inputs": [
						{
							"internalType": "address",
							"name": "to",
							"type": "address"
						},
						{
							"internalType": "uint256",
							"name": "amount",
							"type": "uint256"
						}
					],
					"name": "buyToken",
					"outputs": [],
					"stateMutability": "nonpayable",
					"type": "function"
				},
				{
					"inputs": [
						{
							"internalType": "address payable",
							"name": "staker",
							"type": "address"
						},
						{
							"internalType": "uint256",
							"name": "amountStaked",
							"type": "uint256"
						}
					],
					"name": "claimReward",
					"outputs": [],
					"stateMutability": "nonpayable",
					"type": "function"
				},
				{
					"inputs": [],
					"name": "decimals",
					"outputs": [
						{
							"internalType": "uint8",
							"name": "",
							"type": "uint8"
						}
					],
					"stateMutability": "view",
					"type": "function"
				},
				{
					"inputs": [
						{
							"internalType": "address",
							"name": "spender",
							"type": "address"
						},
						{
							"internalType": "uint256",
							"name": "subtractedValue",
							"type": "uint256"
						}
					],
					"name": "decreaseAllowance",
					"outputs": [
						{
							"internalType": "bool",
							"name": "",
							"type": "bool"
						}
					],
					"stateMutability": "nonpayable",
					"type": "function"
				},
				{
					"inputs": [],
					"name": "getAllTransactions",
					"outputs": [
						{
							"components": [
								{
									"internalType": "address",
									"name": "owner",
									"type": "address"
								},
								{
									"internalType": "address",
									"name": "staker",
									"type": "address"
								},
								{
									"internalType": "uint256",
									"name": "amount",
									"type": "uint256"
								},
								{
									"internalType": "uint256",
									"name": "timestamp",
									"type": "uint256"
								}
							],
							"internalType": "struct Vintagecrypto.stakedToken[]",
							"name": "",
							"type": "tuple[]"
						}
					],
					"stateMutability": "view",
					"type": "function"
				},
				{
					"inputs": [
						{
							"internalType": "address",
							"name": "",
							"type": "address"
						}
					],
					"name": "hasStaked",
					"outputs": [
						{
							"internalType": "bool",
							"name": "",
							"type": "bool"
						}
					],
					"stateMutability": "view",
					"type": "function"
				},
				{
					"inputs": [
						{
							"internalType": "address",
							"name": "spender",
							"type": "address"
						},
						{
							"internalType": "uint256",
							"name": "addedValue",
							"type": "uint256"
						}
					],
					"name": "increaseAllowance",
					"outputs": [
						{
							"internalType": "bool",
							"name": "",
							"type": "bool"
						}
					],
					"stateMutability": "nonpayable",
					"type": "function"
				},
				{
					"inputs": [],
					"name": "name",
					"outputs": [
						{
							"internalType": "string",
							"name": "",
							"type": "string"
						}
					],
					"stateMutability": "view",
					"type": "function"
				},
				{
					"inputs": [],
					"name": "numberofTokensStaked",
					"outputs": [
						{
							"internalType": "uint256",
							"name": "",
							"type": "uint256"
						}
					],
					"stateMutability": "view",
					"type": "function"
				},
				{
					"inputs": [],
					"name": "owner",
					"outputs": [
						{
							"internalType": "address",
							"name": "",
							"type": "address"
						}
					],
					"stateMutability": "view",
					"type": "function"
				},
				{
					"inputs": [],
					"name": "renounceOwnership",
					"outputs": [],
					"stateMutability": "nonpayable",
					"type": "function"
				},
				{
					"inputs": [
						{
							"internalType": "address",
							"name": "",
							"type": "address"
						}
					],
					"name": "rewards",
					"outputs": [
						{
							"internalType": "uint256",
							"name": "",
							"type": "uint256"
						}
					],
					"stateMutability": "view",
					"type": "function"
				},
				{
					"inputs": [
						{
							"internalType": "address",
							"name": "staker",
							"type": "address"
						},
						{
							"internalType": "uint256",
							"name": "amount",
							"type": "uint256"
						}
					],
					"name": "stakeToken",
					"outputs": [],
					"stateMutability": "nonpayable",
					"type": "function"
				},
				{
					"inputs": [],
					"name": "symbol",
					"outputs": [
						{
							"internalType": "string",
							"name": "",
							"type": "string"
						}
					],
					"stateMutability": "view",
					"type": "function"
				},
				{
					"inputs": [],
					"name": "tokenBuyPrice",
					"outputs": [
						{
							"internalType": "uint256",
							"name": "",
							"type": "uint256"
						}
					],
					"stateMutability": "view",
					"type": "function"
				},
				{
					"inputs": [],
					"name": "totalSupply",
					"outputs": [
						{
							"internalType": "uint256",
							"name": "",
							"type": "uint256"
						}
					],
					"stateMutability": "view",
					"type": "function"
				},
				{
					"inputs": [
						{
							"internalType": "address",
							"name": "to",
							"type": "address"
						},
						{
							"internalType": "uint256",
							"name": "amount",
							"type": "uint256"
						}
					],
					"name": "transfer",
					"outputs": [
						{
							"internalType": "bool",
							"name": "",
							"type": "bool"
						}
					],
					"stateMutability": "nonpayable",
					"type": "function"
				},
				{
					"inputs": [
						{
							"internalType": "address",
							"name": "from",
							"type": "address"
						},
						{
							"internalType": "address",
							"name": "to",
							"type": "address"
						},
						{
							"internalType": "uint256",
							"name": "amount",
							"type": "uint256"
						}
					],
					"name": "transferFrom",
					"outputs": [
						{
							"internalType": "bool",
							"name": "",
							"type": "bool"
						}
					],
					"stateMutability": "nonpayable",
					"type": "function"
				},
				{
					"inputs": [
						{
							"internalType": "address",
							"name": "newOwner",
							"type": "address"
						}
					],
					"name": "transferOwnership",
					"outputs": [],
					"stateMutability": "nonpayable",
					"type": "function"
				},
				{
					"inputs": [
						{
							"internalType": "address",
							"name": "staker",
							"type": "address"
						}
					],
					"name": "viewTokenBalance",
					"outputs": [
						{
							"internalType": "uint256",
							"name": "",
							"type": "uint256"
						}
					],
					"stateMutability": "view",
					"type": "function"
				}
			],
			"devdoc": {
				"kind": "dev",
				"methods": {
					"allowance(address,address)": {
						"details": "See {IERC20-allowance}."
					},
					"approve(address,uint256)": {
						"details": "See {IERC20-approve}. NOTE: If `amount` is the maximum `uint256`, the allowance is not updated on `transferFrom`. This is semantically equivalent to an infinite approval. Requirements: - `spender` cannot be the zero address."
					},
					"balanceOf(address)": {
						"details": "See {IERC20-balanceOf}."
					},
					"decimals()": {
						"details": "Returns the number of decimals used to get its user representation. For example, if `decimals` equals `2`, a balance of `505` tokens should be displayed to a user as `5.05` (`505 / 10 ** 2`). Tokens usually opt for a value of 18, imitating the relationship between Ether and Wei. This is the value {ERC20} uses, unless this function is overridden; NOTE: This information is only used for _display_ purposes: it in no way affects any of the arithmetic of the contract, including {IERC20-balanceOf} and {IERC20-transfer}."
					},
					"decreaseAllowance(address,uint256)": {
						"details": "Atomically decreases the allowance granted to `spender` by the caller. This is an alternative to {approve} that can be used as a mitigation for problems described in {IERC20-approve}. Emits an {Approval} event indicating the updated allowance. Requirements: - `spender` cannot be the zero address. - `spender` must have allowance for the caller of at least `subtractedValue`."
					},
					"increaseAllowance(address,uint256)": {
						"details": "Atomically increases the allowance granted to `spender` by the caller. This is an alternative to {approve} that can be used as a mitigation for problems described in {IERC20-approve}. Emits an {Approval} event indicating the updated allowance. Requirements: - `spender` cannot be the zero address."
					},
					"name()": {
						"details": "Returns the name of the token."
					},
					"owner()": {
						"details": "Returns the address of the current owner."
					},
					"renounceOwnership()": {
						"details": "Leaves the contract without owner. It will not be possible to call `onlyOwner` functions anymore. Can only be called by the current owner. NOTE: Renouncing ownership will leave the contract without an owner, thereby removing any functionality that is only available to the owner."
					},
					"symbol()": {
						"details": "Returns the symbol of the token, usually a shorter version of the name."
					},
					"totalSupply()": {
						"details": "See {IERC20-totalSupply}."
					},
					"transfer(address,uint256)": {
						"details": "See {IERC20-transfer}. Requirements: - `to` cannot be the zero address. - the caller must have a balance of at least `amount`."
					},
					"transferFrom(address,address,uint256)": {
						"details": "See {IERC20-transferFrom}. Emits an {Approval} event indicating the updated allowance. This is not required by the EIP. See the note at the beginning of {ERC20}. NOTE: Does not update the allowance if the current allowance is the maximum `uint256`. Requirements: - `from` and `to` cannot be the zero address. - `from` must have a balance of at least `amount`. - the caller must have allowance for ``from``'s tokens of at least `amount`."
					},
					"transferOwnership(address)": {
						"details": "Transfers ownership of the contract to a new account (`newOwner`). Can only be called by the current owner."
					}
				},
				"version": 1
			},
			"evm": {
				"assembly": "    /* \"ERC20stake&reward_flat.sol\":19475:21288  contract Vintagecrypto is ERC20, Ownable {... */\n  mstore(0x40, 0x80)\n    /* \"ERC20stake&reward_flat.sol\":19551:19559  1*10**17 */\n  0x016345785d8a0000\n    /* \"ERC20stake&reward_flat.sol\":19523:19559  uint public tokenBuyPrice = 1*10**17 */\n  0x06\n  sstore\n    /* \"ERC20stake&reward_flat.sol\":19998:20103  constructor() ERC20(\"Vintage-crypto\", \"$VIT\") {... */\n  callvalue\n  dup1\n  iszero\n  tag_1\n  jumpi\n  0x00\n  dup1\n  revert\ntag_1:\n  pop\n    /* \"ERC20stake&reward_flat.sol\":8754:8867  constructor(string memory name_, string memory symbol_) {... */\n  mload(0x40)\n  dup1\n  0x40\n  add\n  0x40\n  mstore\n  dup1\n  0x0e\n  dup2\n  mstore\n  0x20\n  add\n  0x56696e746167652d63727970746f000000000000000000000000000000000000\n  dup2\n  mstore\n  pop\n  mload(0x40)\n  dup1\n  0x40\n  add\n  0x40\n  mstore\n  dup1\n  0x04\n  dup2\n  mstore\n  0x20\n  add\n  0x2456495400000000000000000000000000000000000000000000000000000000\n  dup2\n  mstore\n  pop\n    /* \"ERC20stake&reward_flat.sol\":8828:8833  name_ */\n  dup2\n    /* \"ERC20stake&reward_flat.sol\":8820:8825  _name */\n  0x03\n    /* \"ERC20stake&reward_flat.sol\":8820:8833  _name = name_ */\n  swap1\n  dup1\n  mload\n  swap1\n  0x20\n  add\n  swap1\n  tag_6\n  swap3\n  swap2\n  swap1\n  tag_7\n  jump\t// in\ntag_6:\n  pop\n    /* \"ERC20stake&reward_flat.sol\":8853:8860  symbol_ */\n  dup1\n    /* \"ERC20stake&reward_flat.sol\":8843:8850  _symbol */\n  0x04\n    /* \"ERC20stake&reward_flat.sol\":8843:8860  _symbol = symbol_ */\n  swap1\n  dup1\n  mload\n  swap1\n  0x20\n  add\n  swap1\n  tag_8\n  swap3\n  swap2\n  swap1\n  tag_7\n  jump\t// in\ntag_8:\n  pop\n    /* \"ERC20stake&reward_flat.sol\":8754:8867  constructor(string memory name_, string memory symbol_) {... */\n  pop\n  pop\n    /* \"ERC20stake&reward_flat.sol\":1809:1841  _transferOwnership(_msgSender()) */\n  tag_10\n    /* \"ERC20stake&reward_flat.sol\":1828:1840  _msgSender() */\n  tag_11\n    /* \"ERC20stake&reward_flat.sol\":1828:1838  _msgSender */\n  shl(0x20, tag_12)\n    /* \"ERC20stake&reward_flat.sol\":1828:1840  _msgSender() */\n  0x20\n  shr\n  jump\t// in\ntag_11:\n    /* \"ERC20stake&reward_flat.sol\":1809:1827  _transferOwnership */\n  shl(0x20, tag_13)\n    /* \"ERC20stake&reward_flat.sol\":1809:1841  _transferOwnership(_msgSender()) */\n  0x20\n  shr\n  jump\t// in\ntag_10:\n    /* \"ERC20stake&reward_flat.sol\":20054:20096  _mint(msg.sender, 1000 * 10 ** decimals()) */\n  tag_15\n    /* \"ERC20stake&reward_flat.sol\":20060:20070  msg.sender */\n  caller\n    /* \"ERC20stake&reward_flat.sol\":20085:20095  decimals() */\n  tag_16\n    /* \"ERC20stake&reward_flat.sol\":20085:20093  decimals */\n  shl(0x20, tag_17)\n    /* \"ERC20stake&reward_flat.sol\":20085:20095  decimals() */\n  0x20\n  shr\n  jump\t// in\ntag_16:\n    /* \"ERC20stake&reward_flat.sol\":20079:20081  10 */\n  0x0a\n    /* \"ERC20stake&reward_flat.sol\":20079:20095  10 ** decimals() */\n  tag_18\n  swap2\n  swap1\n  tag_19\n  jump\t// in\ntag_18:\n    /* \"ERC20stake&reward_flat.sol\":20072:20076  1000 */\n  0x03e8\n    /* \"ERC20stake&reward_flat.sol\":20072:20095  1000 * 10 ** decimals() */\n  tag_20\n  swap2\n  swap1\n  tag_21\n  jump\t// in\ntag_20:\n    /* \"ERC20stake&reward_flat.sol\":20054:20059  _mint */\n  shl(0x20, tag_22)\n    /* \"ERC20stake&reward_flat.sol\":20054:20096  _mint(msg.sender, 1000 * 10 ** decimals()) */\n  0x20\n  shr\n  jump\t// in\ntag_15:\n    /* \"ERC20stake&reward_flat.sol\":19475:21288  contract Vintagecrypto is ERC20, Ownable {... */\n  jump(tag_23)\n    /* \"ERC20stake&reward_flat.sol\":692:788  function _msgSender() internal view virtual returns (address) {... */\ntag_12:\n    /* \"ERC20stake&reward_flat.sol\":745:752  address */\n  0x00\n    /* \"ERC20stake&reward_flat.sol\":771:781  msg.sender */\n  caller\n    /* \"ERC20stake&reward_flat.sol\":764:781  return msg.sender */\n  swap1\n  pop\n    /* \"ERC20stake&reward_flat.sol\":692:788  function _msgSender() internal view virtual returns (address) {... */\n  swap1\n  jump\t// out\n    /* \"ERC20stake&reward_flat.sol\":3158:3345  function _transferOwnership(address newOwner) internal virtual {... */\ntag_13:\n    /* \"ERC20stake&reward_flat.sol\":3231:3247  address oldOwner */\n  0x00\n    /* \"ERC20stake&reward_flat.sol\":3250:3256  _owner */\n  0x05\n  0x00\n  swap1\n  sload\n  swap1\n  0x0100\n  exp\n  swap1\n  div\n  0xffffffffffffffffffffffffffffffffffffffff\n  and\n    /* \"ERC20stake&reward_flat.sol\":3231:3256  address oldOwner = _owner */\n  swap1\n  pop\n    /* \"ERC20stake&reward_flat.sol\":3275:3283  newOwner */\n  dup2\n    /* \"ERC20stake&reward_flat.sol\":3266:3272  _owner */\n  0x05\n  0x00\n    /* \"ERC20stake&reward_flat.sol\":3266:3283  _owner = newOwner */\n  0x0100\n  exp\n  dup2\n  sload\n  dup2\n  0xffffffffffffffffffffffffffffffffffffffff\n  mul\n  not\n  and\n  swap1\n  dup4\n  0xffffffffffffffffffffffffffffffffffffffff\n  and\n  mul\n  or\n  swap1\n  sstore\n  pop\n    /* \"ERC20stake&reward_flat.sol\":3329:3337  newOwner */\n  dup2\n    /* \"ERC20stake&reward_flat.sol\":3298:3338  OwnershipTransferred(oldOwner, newOwner) */\n  0xffffffffffffffffffffffffffffffffffffffff\n  and\n    /* \"ERC20stake&reward_flat.sol\":3319:3327  oldOwner */\n  dup2\n    /* \"ERC20stake&reward_flat.sol\":3298:3338  OwnershipTransferred(oldOwner, newOwner) */\n  0xffffffffffffffffffffffffffffffffffffffff\n  and\n  0x8be0079c531659141344cd1fd0a4f28419497f9722a3daafe3b4186f6b6457e0\n  mload(0x40)\n  mload(0x40)\n  dup1\n  swap2\n  sub\n  swap1\n  log3\n    /* \"ERC20stake&reward_flat.sol\":3221:3345  {... */\n  pop\n    /* \"ERC20stake&reward_flat.sol\":3158:3345  function _transferOwnership(address newOwner) internal virtual {... */\n  pop\n  jump\t// out\n    /* \"ERC20stake&reward_flat.sol\":9869:9960  function decimals() public view virtual override returns (uint8) {... */\ntag_17:\n    /* \"ERC20stake&reward_flat.sol\":9927:9932  uint8 */\n  0x00\n    /* \"ERC20stake&reward_flat.sol\":9951:9953  18 */\n  0x12\n    /* \"ERC20stake&reward_flat.sol\":9944:9953  return 18 */\n  swap1\n  pop\n    /* \"ERC20stake&reward_flat.sol\":9869:9960  function decimals() public view virtual override returns (uint8) {... */\n  swap1\n  jump\t// out\n    /* \"ERC20stake&reward_flat.sol\":15191:15580  function _mint(address account, uint256 amount) internal virtual {... */\ntag_22:\n    /* \"ERC20stake&reward_flat.sol\":15293:15294  0 */\n  0x00\n    /* \"ERC20stake&reward_flat.sol\":15274:15295  account != address(0) */\n  0xffffffffffffffffffffffffffffffffffffffff\n  and\n    /* \"ERC20stake&reward_flat.sol\":15274:15281  account */\n  dup3\n    /* \"ERC20stake&reward_flat.sol\":15274:15295  account != address(0) */\n  0xffffffffffffffffffffffffffffffffffffffff\n  and\n  eq\n  iszero\n    /* \"ERC20stake&reward_flat.sol\":15266:15331  require(account != address(0), \"ERC20: mint to the zero address\") */\n  tag_28\n  jumpi\n  mload(0x40)\n  0x08c379a000000000000000000000000000000000000000000000000000000000\n  dup2\n  mstore\n  0x04\n  add\n  tag_29\n  swap1\n  tag_30\n  jump\t// in\ntag_29:\n  mload(0x40)\n  dup1\n  swap2\n  sub\n  swap1\n  revert\ntag_28:\n    /* \"ERC20stake&reward_flat.sol\":15342:15391  _beforeTokenTransfer(address(0), account, amount) */\n  tag_31\n    /* \"ERC20stake&reward_flat.sol\":15371:15372  0 */\n  0x00\n    /* \"ERC20stake&reward_flat.sol\":15375:15382  account */\n  dup4\n    /* \"ERC20stake&reward_flat.sol\":15384:15390  amount */\n  dup4\n    /* \"ERC20stake&reward_flat.sol\":15342:15362  _beforeTokenTransfer */\n  shl(0x20, tag_32)\n    /* \"ERC20stake&reward_flat.sol\":15342:15391  _beforeTokenTransfer(address(0), account, amount) */\n  0x20\n  shr\n  jump\t// in\ntag_31:\n    /* \"ERC20stake&reward_flat.sol\":15418:15424  amount */\n  dup1\n    /* \"ERC20stake&reward_flat.sol\":15402:15414  _totalSupply */\n  0x02\n  0x00\n    /* \"ERC20stake&reward_flat.sol\":15402:15424  _totalSupply += amount */\n  dup3\n  dup3\n  sload\n  tag_33\n  swap2\n  swap1\n  tag_34\n  jump\t// in\ntag_33:\n  swap3\n  pop\n  pop\n  dup2\n  swap1\n  sstore\n  pop\n    /* \"ERC20stake&reward_flat.sol\":15456:15462  amount */\n  dup1\n    /* \"ERC20stake&reward_flat.sol\":15434:15443  _balances */\n  0x00\n    /* \"ERC20stake&reward_flat.sol\":15434:15452  _balances[account] */\n  dup1\n    /* \"ERC20stake&reward_flat.sol\":15444:15451  account */\n  dup5\n    /* \"ERC20stake&reward_flat.sol\":15434:15452  _balances[account] */\n  0xffffffffffffffffffffffffffffffffffffffff\n  and\n  0xffffffffffffffffffffffffffffffffffffffff\n  and\n  dup2\n  mstore\n  0x20\n  add\n  swap1\n  dup2\n  mstore\n  0x20\n  add\n  0x00\n  keccak256\n  0x00\n    /* \"ERC20stake&reward_flat.sol\":15434:15462  _balances[account] += amount */\n  dup3\n  dup3\n  sload\n  tag_35\n  swap2\n  swap1\n  tag_34\n  jump\t// in\ntag_35:\n  swap3\n  pop\n  pop\n  dup2\n  swap1\n  sstore\n  pop\n    /* \"ERC20stake&reward_flat.sol\":15498:15505  account */\n  dup2\n    /* \"ERC20stake&reward_flat.sol\":15477:15514  Transfer(address(0), account, amount) */\n  0xffffffffffffffffffffffffffffffffffffffff\n  and\n    /* \"ERC20stake&reward_flat.sol\":15494:15495  0 */\n  0x00\n    /* \"ERC20stake&reward_flat.sol\":15477:15514  Transfer(address(0), account, amount) */\n  0xffffffffffffffffffffffffffffffffffffffff\n  and\n  0xddf252ad1be2c89b69c2b068fc378daa952ba7f163c4a11628f55a4df523b3ef\n    /* \"ERC20stake&reward_flat.sol\":15507:15513  amount */\n  dup4\n    /* \"ERC20stake&reward_flat.sol\":15477:15514  Transfer(address(0), account, amount) */\n  mload(0x40)\n  tag_36\n  swap2\n  swap1\n  tag_37\n  jump\t// in\ntag_36:\n  mload(0x40)\n  dup1\n  swap2\n  sub\n  swap1\n  log3\n    /* \"ERC20stake&reward_flat.sol\":15525:15573  _afterTokenTransfer(address(0), account, amount) */\n  tag_38\n    /* \"ERC20stake&reward_flat.sol\":15553:15554  0 */\n  0x00\n    /* \"ERC20stake&reward_flat.sol\":15557:15564  account */\n  dup4\n    /* \"ERC20stake&reward_flat.sol\":15566:15572  amount */\n  dup4\n    /* \"ERC20stake&reward_flat.sol\":15525:15544  _afterTokenTransfer */\n  shl(0x20, tag_39)\n    /* \"ERC20stake&reward_flat.sol\":15525:15573  _afterTokenTransfer(address(0), account, amount) */\n  0x20\n  shr\n  jump\t// in\ntag_38:\n    /* \"ERC20stake&reward_flat.sol\":15191:15580  function _mint(address account, uint256 amount) internal virtual {... */\n  pop\n  pop\n  jump\t// out\n    /* \"ERC20stake&reward_flat.sol\":18571:18692  function _beforeTokenTransfer(... */\ntag_32:\n  pop\n  pop\n  pop\n  jump\t// out\n    /* \"ERC20stake&reward_flat.sol\":19280:19400  function _afterTokenTransfer(... */\ntag_39:\n  pop\n  pop\n  pop\n  jump\t// out\n    /* \"ERC20stake&reward_flat.sol\":19475:21288  contract Vintagecrypto is ERC20, Ownable {... */\ntag_7:\n  dup3\n  dup1\n  sload\n  tag_42\n  swap1\n  tag_43\n  jump\t// in\ntag_42:\n  swap1\n  0x00\n  mstore\n  keccak256(0x00, 0x20)\n  swap1\n  0x1f\n  add\n  0x20\n  swap1\n  div\n  dup2\n  add\n  swap3\n  dup3\n  tag_45\n  jumpi\n  0x00\n  dup6\n  sstore\n  jump(tag_44)\ntag_45:\n  dup3\n  0x1f\n  lt\n  tag_46\n  jumpi\n  dup1\n  mload\n  not(0xff)\n  and\n  dup4\n  dup1\n  add\n  or\n  dup6\n  sstore\n  jump(tag_44)\ntag_46:\n  dup3\n  dup1\n  add\n  0x01\n  add\n  dup6\n  sstore\n  dup3\n  iszero\n  tag_44\n  jumpi\n  swap2\n  dup3\n  add\ntag_47:\n  dup3\n  dup2\n  gt\n  iszero\n  tag_48\n  jumpi\n  dup3\n  mload\n  dup3\n  sstore\n  swap2\n  0x20\n  add\n  swap2\n  swap1\n  0x01\n  add\n  swap1\n  jump(tag_47)\ntag_48:\ntag_44:\n  pop\n  swap1\n  pop\n  tag_49\n  swap2\n  swap1\n  tag_50\n  jump\t// in\ntag_49:\n  pop\n  swap1\n  jump\t// out\ntag_50:\ntag_51:\n  dup1\n  dup3\n  gt\n  iszero\n  tag_52\n  jumpi\n  0x00\n  dup2\n  0x00\n  swap1\n  sstore\n  pop\n  0x01\n  add\n  jump(tag_51)\ntag_52:\n  pop\n  swap1\n  jump\t// out\n    /* \"#utility.yul\":7:373   */\ntag_54:\n    /* \"#utility.yul\":149:152   */\n  0x00\n    /* \"#utility.yul\":170:237   */\n  tag_56\n    /* \"#utility.yul\":234:236   */\n  0x1f\n    /* \"#utility.yul\":229:232   */\n  dup4\n    /* \"#utility.yul\":170:237   */\n  tag_57\n  jump\t// in\ntag_56:\n    /* \"#utility.yul\":163:237   */\n  swap2\n  pop\n    /* \"#utility.yul\":246:339   */\n  tag_58\n    /* \"#utility.yul\":335:338   */\n  dup3\n    /* \"#utility.yul\":246:339   */\n  tag_59\n  jump\t// in\ntag_58:\n    /* \"#utility.yul\":364:366   */\n  0x20\n    /* \"#utility.yul\":359:362   */\n  dup3\n    /* \"#utility.yul\":355:367   */\n  add\n    /* \"#utility.yul\":348:367   */\n  swap1\n  pop\n    /* \"#utility.yul\":7:373   */\n  swap2\n  swap1\n  pop\n  jump\t// out\n    /* \"#utility.yul\":379:497   */\ntag_60:\n    /* \"#utility.yul\":466:490   */\n  tag_62\n    /* \"#utility.yul\":484:489   */\n  dup2\n    /* \"#utility.yul\":466:490   */\n  tag_63\n  jump\t// in\ntag_62:\n    /* \"#utility.yul\":461:464   */\n  dup3\n    /* \"#utility.yul\":454:491   */\n  mstore\n    /* \"#utility.yul\":379:497   */\n  pop\n  pop\n  jump\t// out\n    /* \"#utility.yul\":503:922   */\ntag_30:\n    /* \"#utility.yul\":669:673   */\n  0x00\n    /* \"#utility.yul\":707:709   */\n  0x20\n    /* \"#utility.yul\":696:705   */\n  dup3\n    /* \"#utility.yul\":692:710   */\n  add\n    /* \"#utility.yul\":684:710   */\n  swap1\n  pop\n    /* \"#utility.yul\":756:765   */\n  dup2\n    /* \"#utility.yul\":750:754   */\n  dup2\n    /* \"#utility.yul\":746:766   */\n  sub\n    /* \"#utility.yul\":742:743   */\n  0x00\n    /* \"#utility.yul\":731:740   */\n  dup4\n    /* \"#utility.yul\":727:744   */\n  add\n    /* \"#utility.yul\":720:767   */\n  mstore\n    /* \"#utility.yul\":784:915   */\n  tag_65\n    /* \"#utility.yul\":910:914   */\n  dup2\n    /* \"#utility.yul\":784:915   */\n  tag_54\n  jump\t// in\ntag_65:\n    /* \"#utility.yul\":776:915   */\n  swap1\n  pop\n    /* \"#utility.yul\":503:922   */\n  swap2\n  swap1\n  pop\n  jump\t// out\n    /* \"#utility.yul\":928:1150   */\ntag_37:\n    /* \"#utility.yul\":1021:1025   */\n  0x00\n    /* \"#utility.yul\":1059:1061   */\n  0x20\n    /* \"#utility.yul\":1048:1057   */\n  dup3\n    /* \"#utility.yul\":1044:1062   */\n  add\n    /* \"#utility.yul\":1036:1062   */\n  swap1\n  pop\n    /* \"#utility.yul\":1072:1143   */\n  tag_67\n    /* \"#utility.yul\":1140:1141   */\n  0x00\n    /* \"#utility.yul\":1129:1138   */\n  dup4\n    /* \"#utility.yul\":1125:1142   */\n  add\n    /* \"#utility.yul\":1116:1122   */\n  dup5\n    /* \"#utility.yul\":1072:1143   */\n  tag_60\n  jump\t// in\ntag_67:\n    /* \"#utility.yul\":928:1150   */\n  swap3\n  swap2\n  pop\n  pop\n  jump\t// out\n    /* \"#utility.yul\":1156:1325   */\ntag_57:\n    /* \"#utility.yul\":1240:1251   */\n  0x00\n    /* \"#utility.yul\":1274:1280   */\n  dup3\n    /* \"#utility.yul\":1269:1272   */\n  dup3\n    /* \"#utility.yul\":1262:1281   */\n  mstore\n    /* \"#utility.yul\":1314:1318   */\n  0x20\n    /* \"#utility.yul\":1309:1312   */\n  dup3\n    /* \"#utility.yul\":1305:1319   */\n  add\n    /* \"#utility.yul\":1290:1319   */\n  swap1\n  pop\n    /* \"#utility.yul\":1156:1325   */\n  swap3\n  swap2\n  pop\n  pop\n  jump\t// out\n    /* \"#utility.yul\":1331:1636   */\ntag_34:\n    /* \"#utility.yul\":1371:1374   */\n  0x00\n    /* \"#utility.yul\":1390:1410   */\n  tag_70\n    /* \"#utility.yul\":1408:1409   */\n  dup3\n    /* \"#utility.yul\":1390:1410   */\n  tag_63\n  jump\t// in\ntag_70:\n    /* \"#utility.yul\":1385:1410   */\n  swap2\n  pop\n    /* \"#utility.yul\":1424:1444   */\n  tag_71\n    /* \"#utility.yul\":1442:1443   */\n  dup4\n    /* \"#utility.yul\":1424:1444   */\n  tag_63\n  jump\t// in\ntag_71:\n    /* \"#utility.yul\":1419:1444   */\n  swap3\n  pop\n    /* \"#utility.yul\":1578:1579   */\n  dup3\n    /* \"#utility.yul\":1510:1576   */\n  0xffffffffffffffffffffffffffffffffffffffffffffffffffffffffffffffff\n    /* \"#utility.yul\":1506:1580   */\n  sub\n    /* \"#utility.yul\":1503:1504   */\n  dup3\n    /* \"#utility.yul\":1500:1581   */\n  gt\n    /* \"#utility.yul\":1497:1604   */\n  iszero\n  tag_72\n  jumpi\n    /* \"#utility.yul\":1584:1602   */\n  tag_73\n  tag_74\n  jump\t// in\ntag_73:\n    /* \"#utility.yul\":1497:1604   */\ntag_72:\n    /* \"#utility.yul\":1628:1629   */\n  dup3\n    /* \"#utility.yul\":1625:1626   */\n  dup3\n    /* \"#utility.yul\":1621:1630   */\n  add\n    /* \"#utility.yul\":1614:1630   */\n  swap1\n  pop\n    /* \"#utility.yul\":1331:1636   */\n  swap3\n  swap2\n  pop\n  pop\n  jump\t// out\n    /* \"#utility.yul\":1642:2490   */\ntag_75:\n    /* \"#utility.yul\":1703:1708   */\n  0x00\n    /* \"#utility.yul\":1710:1714   */\n  dup1\n    /* \"#utility.yul\":1734:1740   */\n  dup3\n    /* \"#utility.yul\":1725:1740   */\n  swap2\n  pop\n    /* \"#utility.yul\":1758:1763   */\n  dup4\n    /* \"#utility.yul\":1749:1763   */\n  swap1\n  pop\n    /* \"#utility.yul\":1772:2484   */\ntag_77:\n    /* \"#utility.yul\":1793:1794   */\n  0x01\n    /* \"#utility.yul\":1783:1791   */\n  dup6\n    /* \"#utility.yul\":1780:1795   */\n  gt\n    /* \"#utility.yul\":1772:2484   */\n  iszero\n  tag_79\n  jumpi\n    /* \"#utility.yul\":1888:1892   */\n  dup1\n    /* \"#utility.yul\":1883:1886   */\n  dup7\n    /* \"#utility.yul\":1879:1893   */\n  div\n    /* \"#utility.yul\":1873:1877   */\n  dup2\n    /* \"#utility.yul\":1870:1894   */\n  gt\n    /* \"#utility.yul\":1867:1917   */\n  iszero\n  tag_80\n  jumpi\n    /* \"#utility.yul\":1897:1915   */\n  tag_81\n  tag_74\n  jump\t// in\ntag_81:\n    /* \"#utility.yul\":1867:1917   */\ntag_80:\n    /* \"#utility.yul\":1947:1948   */\n  0x01\n    /* \"#utility.yul\":1937:1945   */\n  dup6\n    /* \"#utility.yul\":1933:1949   */\n  and\n    /* \"#utility.yul\":1930:2381   */\n  iszero\n  tag_82\n  jumpi\n    /* \"#utility.yul\":2362:2366   */\n  dup1\n    /* \"#utility.yul\":2355:2360   */\n  dup3\n    /* \"#utility.yul\":2351:2367   */\n  mul\n    /* \"#utility.yul\":2342:2367   */\n  swap2\n  pop\n    /* \"#utility.yul\":1930:2381   */\ntag_82:\n    /* \"#utility.yul\":2412:2416   */\n  dup1\n    /* \"#utility.yul\":2406:2410   */\n  dup2\n    /* \"#utility.yul\":2402:2417   */\n  mul\n    /* \"#utility.yul\":2394:2417   */\n  swap1\n  pop\n    /* \"#utility.yul\":2442:2474   */\n  tag_83\n    /* \"#utility.yul\":2465:2473   */\n  dup6\n    /* \"#utility.yul\":2442:2474   */\n  tag_84\n  jump\t// in\ntag_83:\n    /* \"#utility.yul\":2430:2474   */\n  swap5\n  pop\n    /* \"#utility.yul\":1772:2484   */\n  jump(tag_77)\ntag_79:\n    /* \"#utility.yul\":1642:2490   */\n  swap5\n  pop\n  swap5\n  swap3\n  pop\n  pop\n  pop\n  jump\t// out\n    /* \"#utility.yul\":2496:2777   */\ntag_19:\n    /* \"#utility.yul\":2554:2559   */\n  0x00\n    /* \"#utility.yul\":2578:2601   */\n  tag_86\n    /* \"#utility.yul\":2596:2600   */\n  dup3\n    /* \"#utility.yul\":2578:2601   */\n  tag_63\n  jump\t// in\ntag_86:\n    /* \"#utility.yul\":2570:2601   */\n  swap2\n  pop\n    /* \"#utility.yul\":2622:2647   */\n  tag_87\n    /* \"#utility.yul\":2638:2646   */\n  dup4\n    /* \"#utility.yul\":2622:2647   */\n  tag_88\n  jump\t// in\ntag_87:\n    /* \"#utility.yul\":2610:2647   */\n  swap3\n  pop\n    /* \"#utility.yul\":2666:2770   */\n  tag_89\n    /* \"#utility.yul\":2703:2769   */\n  0xffffffffffffffffffffffffffffffffffffffffffffffffffffffffffffffff\n    /* \"#utility.yul\":2693:2701   */\n  dup5\n    /* \"#utility.yul\":2687:2691   */\n  dup5\n    /* \"#utility.yul\":2666:2770   */\n  tag_90\n  jump\t// in\ntag_89:\n    /* \"#utility.yul\":2657:2770   */\n  swap1\n  pop\n    /* \"#utility.yul\":2496:2777   */\n  swap3\n  swap2\n  pop\n  pop\n  jump\t// out\n    /* \"#utility.yul\":2783:3856   */\ntag_90:\n    /* \"#utility.yul\":2837:2842   */\n  0x00\n    /* \"#utility.yul\":3028:3036   */\n  dup3\n    /* \"#utility.yul\":3018:3058   */\n  tag_92\n  jumpi\n    /* \"#utility.yul\":3049:3050   */\n  0x01\n    /* \"#utility.yul\":3040:3050   */\n  swap1\n  pop\n    /* \"#utility.yul\":3051:3056   */\n  jump(tag_91)\n    /* \"#utility.yul\":3018:3058   */\ntag_92:\n    /* \"#utility.yul\":3077:3081   */\n  dup2\n    /* \"#utility.yul\":3067:3103   */\n  tag_93\n  jumpi\n    /* \"#utility.yul\":3094:3095   */\n  0x00\n    /* \"#utility.yul\":3085:3095   */\n  swap1\n  pop\n    /* \"#utility.yul\":3096:3101   */\n  jump(tag_91)\n    /* \"#utility.yul\":3067:3103   */\ntag_93:\n    /* \"#utility.yul\":3163:3167   */\n  dup2\n    /* \"#utility.yul\":3211:3212   */\n  0x01\n    /* \"#utility.yul\":3206:3233   */\n  dup2\n  eq\n  tag_95\n  jumpi\n    /* \"#utility.yul\":3247:3248   */\n  0x02\n    /* \"#utility.yul\":3242:3433   */\n  dup2\n  eq\n  tag_96\n  jumpi\n    /* \"#utility.yul\":3156:3433   */\n  jump(tag_94)\n    /* \"#utility.yul\":3206:3233   */\ntag_95:\n    /* \"#utility.yul\":3224:3225   */\n  0x01\n    /* \"#utility.yul\":3215:3225   */\n  swap2\n  pop\n    /* \"#utility.yul\":3226:3231   */\n  pop\n  jump(tag_91)\n    /* \"#utility.yul\":3242:3433   */\ntag_96:\n    /* \"#utility.yul\":3287:3290   */\n  0xff\n    /* \"#utility.yul\":3277:3285   */\n  dup5\n    /* \"#utility.yul\":3274:3291   */\n  gt\n    /* \"#utility.yul\":3271:3314   */\n  iszero\n  tag_97\n  jumpi\n    /* \"#utility.yul\":3294:3312   */\n  tag_98\n  tag_74\n  jump\t// in\ntag_98:\n    /* \"#utility.yul\":3271:3314   */\ntag_97:\n    /* \"#utility.yul\":3343:3351   */\n  dup4\n    /* \"#utility.yul\":3340:3341   */\n  0x02\n    /* \"#utility.yul\":3336:3352   */\n  exp\n    /* \"#utility.yul\":3327:3352   */\n  swap2\n  pop\n    /* \"#utility.yul\":3378:3381   */\n  dup5\n    /* \"#utility.yul\":3371:3376   */\n  dup3\n    /* \"#utility.yul\":3368:3382   */\n  gt\n    /* \"#utility.yul\":3365:3405   */\n  iszero\n  tag_99\n  jumpi\n    /* \"#utility.yul\":3385:3403   */\n  tag_100\n  tag_74\n  jump\t// in\ntag_100:\n    /* \"#utility.yul\":3365:3405   */\ntag_99:\n    /* \"#utility.yul\":3418:3423   */\n  pop\n  jump(tag_91)\n    /* \"#utility.yul\":3156:3433   */\ntag_94:\n  pop\n    /* \"#utility.yul\":3542:3544   */\n  0x20\n    /* \"#utility.yul\":3532:3540   */\n  dup4\n    /* \"#utility.yul\":3529:3545   */\n  lt\n    /* \"#utility.yul\":3523:3526   */\n  0x0133\n    /* \"#utility.yul\":3517:3521   */\n  dup4\n    /* \"#utility.yul\":3514:3527   */\n  lt\n    /* \"#utility.yul\":3510:3546   */\n  and\n    /* \"#utility.yul\":3492:3494   */\n  0x4e\n    /* \"#utility.yul\":3482:3490   */\n  dup5\n    /* \"#utility.yul\":3479:3495   */\n  lt\n    /* \"#utility.yul\":3474:3476   */\n  0x0b\n    /* \"#utility.yul\":3468:3472   */\n  dup5\n    /* \"#utility.yul\":3465:3477   */\n  lt\n    /* \"#utility.yul\":3461:3496   */\n  and\n    /* \"#utility.yul\":3445:3556   */\n  or\n    /* \"#utility.yul\":3442:3688   */\n  iszero\n  tag_101\n  jumpi\n    /* \"#utility.yul\":3598:3606   */\n  dup3\n    /* \"#utility.yul\":3592:3596   */\n  dup3\n    /* \"#utility.yul\":3588:3607   */\n  exp\n    /* \"#utility.yul\":3579:3607   */\n  swap1\n  pop\n    /* \"#utility.yul\":3633:3636   */\n  dup4\n    /* \"#utility.yul\":3626:3631   */\n  dup2\n    /* \"#utility.yul\":3623:3637   */\n  gt\n    /* \"#utility.yul\":3620:3660   */\n  iszero\n  tag_102\n  jumpi\n    /* \"#utility.yul\":3640:3658   */\n  tag_103\n  tag_74\n  jump\t// in\ntag_103:\n    /* \"#utility.yul\":3620:3660   */\ntag_102:\n    /* \"#utility.yul\":3673:3678   */\n  jump(tag_91)\n    /* \"#utility.yul\":3442:3688   */\ntag_101:\n    /* \"#utility.yul\":3713:3755   */\n  tag_104\n    /* \"#utility.yul\":3751:3754   */\n  dup5\n    /* \"#utility.yul\":3741:3749   */\n  dup5\n    /* \"#utility.yul\":3735:3739   */\n  dup5\n    /* \"#utility.yul\":3732:3733   */\n  0x01\n    /* \"#utility.yul\":3713:3755   */\n  tag_75\n  jump\t// in\ntag_104:\n    /* \"#utility.yul\":3698:3755   */\n  swap3\n  pop\n  swap1\n  pop\n    /* \"#utility.yul\":3787:3791   */\n  dup2\n    /* \"#utility.yul\":3782:3785   */\n  dup5\n    /* \"#utility.yul\":3778:3792   */\n  div\n    /* \"#utility.yul\":3771:3776   */\n  dup2\n    /* \"#utility.yul\":3768:3793   */\n  gt\n    /* \"#utility.yul\":3765:3816   */\n  iszero\n  tag_105\n  jumpi\n    /* \"#utility.yul\":3796:3814   */\n  tag_106\n  tag_74\n  jump\t// in\ntag_106:\n    /* \"#utility.yul\":3765:3816   */\ntag_105:\n    /* \"#utility.yul\":3845:3849   */\n  dup2\n    /* \"#utility.yul\":3838:3843   */\n  dup2\n    /* \"#utility.yul\":3834:3850   */\n  mul\n    /* \"#utility.yul\":3825:3850   */\n  swap1\n  pop\n    /* \"#utility.yul\":2783:3856   */\ntag_91:\n  swap4\n  swap3\n  pop\n  pop\n  pop\n  jump\t// out\n    /* \"#utility.yul\":3862:4210   */\ntag_21:\n    /* \"#utility.yul\":3902:3909   */\n  0x00\n    /* \"#utility.yul\":3925:3945   */\n  tag_108\n    /* \"#utility.yul\":3943:3944   */\n  dup3\n    /* \"#utility.yul\":3925:3945   */\n  tag_63\n  jump\t// in\ntag_108:\n    /* \"#utility.yul\":3920:3945   */\n  swap2\n  pop\n    /* \"#utility.yul\":3959:3979   */\n  tag_109\n    /* \"#utility.yul\":3977:3978   */\n  dup4\n    /* \"#utility.yul\":3959:3979   */\n  tag_63\n  jump\t// in\ntag_109:\n    /* \"#utility.yul\":3954:3979   */\n  swap3\n  pop\n    /* \"#utility.yul\":4147:4148   */\n  dup2\n    /* \"#utility.yul\":4079:4145   */\n  0xffffffffffffffffffffffffffffffffffffffffffffffffffffffffffffffff\n    /* \"#utility.yul\":4075:4149   */\n  div\n    /* \"#utility.yul\":4072:4073   */\n  dup4\n    /* \"#utility.yul\":4069:4150   */\n  gt\n    /* \"#utility.yul\":4064:4065   */\n  dup3\n    /* \"#utility.yul\":4057:4066   */\n  iszero\n    /* \"#utility.yul\":4050:4067   */\n  iszero\n    /* \"#utility.yul\":4046:4151   */\n  and\n    /* \"#utility.yul\":4043:4174   */\n  iszero\n  tag_110\n  jumpi\n    /* \"#utility.yul\":4154:4172   */\n  tag_111\n  tag_74\n  jump\t// in\ntag_111:\n    /* \"#utility.yul\":4043:4174   */\ntag_110:\n    /* \"#utility.yul\":4202:4203   */\n  dup3\n    /* \"#utility.yul\":4199:4200   */\n  dup3\n    /* \"#utility.yul\":4195:4204   */\n  mul\n    /* \"#utility.yul\":4184:4204   */\n  swap1\n  pop\n    /* \"#utility.yul\":3862:4210   */\n  swap3\n  swap2\n  pop\n  pop\n  jump\t// out\n    /* \"#utility.yul\":4216:4293   */\ntag_63:\n    /* \"#utility.yul\":4253:4260   */\n  0x00\n    /* \"#utility.yul\":4282:4287   */\n  dup2\n    /* \"#utility.yul\":4271:4287   */\n  swap1\n  pop\n    /* \"#utility.yul\":4216:4293   */\n  swap2\n  swap1\n  pop\n  jump\t// out\n    /* \"#utility.yul\":4299:4385   */\ntag_88:\n    /* \"#utility.yul\":4334:4341   */\n  0x00\n    /* \"#utility.yul\":4374:4378   */\n  0xff\n    /* \"#utility.yul\":4367:4372   */\n  dup3\n    /* \"#utility.yul\":4363:4379   */\n  and\n    /* \"#utility.yul\":4352:4379   */\n  swap1\n  pop\n    /* \"#utility.yul\":4299:4385   */\n  swap2\n  swap1\n  pop\n  jump\t// out\n    /* \"#utility.yul\":4391:4711   */\ntag_43:\n    /* \"#utility.yul\":4435:4441   */\n  0x00\n    /* \"#utility.yul\":4472:4473   */\n  0x02\n    /* \"#utility.yul\":4466:4470   */\n  dup3\n    /* \"#utility.yul\":4462:4474   */\n  div\n    /* \"#utility.yul\":4452:4474   */\n  swap1\n  pop\n    /* \"#utility.yul\":4519:4520   */\n  0x01\n    /* \"#utility.yul\":4513:4517   */\n  dup3\n    /* \"#utility.yul\":4509:4521   */\n  and\n    /* \"#utility.yul\":4540:4558   */\n  dup1\n    /* \"#utility.yul\":4530:4611   */\n  tag_115\n  jumpi\n    /* \"#utility.yul\":4596:4600   */\n  0x7f\n    /* \"#utility.yul\":4588:4594   */\n  dup3\n    /* \"#utility.yul\":4584:4601   */\n  and\n    /* \"#utility.yul\":4574:4601   */\n  swap2\n  pop\n    /* \"#utility.yul\":4530:4611   */\ntag_115:\n    /* \"#utility.yul\":4658:4660   */\n  0x20\n    /* \"#utility.yul\":4650:4656   */\n  dup3\n    /* \"#utility.yul\":4647:4661   */\n  lt\n    /* \"#utility.yul\":4627:4645   */\n  dup2\n    /* \"#utility.yul\":4624:4662   */\n  eq\n    /* \"#utility.yul\":4621:4705   */\n  iszero\n  tag_116\n  jumpi\n    /* \"#utility.yul\":4677:4695   */\n  tag_117\n  tag_118\n  jump\t// in\ntag_117:\n    /* \"#utility.yul\":4621:4705   */\ntag_116:\n    /* \"#utility.yul\":4442:4711   */\n  pop\n    /* \"#utility.yul\":4391:4711   */\n  swap2\n  swap1\n  pop\n  jump\t// out\n    /* \"#utility.yul\":4717:4897   */\ntag_74:\n    /* \"#utility.yul\":4765:4842   */\n  0x4e487b7100000000000000000000000000000000000000000000000000000000\n    /* \"#utility.yul\":4762:4763   */\n  0x00\n    /* \"#utility.yul\":4755:4843   */\n  mstore\n    /* \"#utility.yul\":4862:4866   */\n  0x11\n    /* \"#utility.yul\":4859:4860   */\n  0x04\n    /* \"#utility.yul\":4852:4867   */\n  mstore\n    /* \"#utility.yul\":4886:4890   */\n  0x24\n    /* \"#utility.yul\":4883:4884   */\n  0x00\n    /* \"#utility.yul\":4876:4891   */\n  revert\n    /* \"#utility.yul\":4903:5083   */\ntag_118:\n    /* \"#utility.yul\":4951:5028   */\n  0x4e487b7100000000000000000000000000000000000000000000000000000000\n    /* \"#utility.yul\":4948:4949   */\n  0x00\n    /* \"#utility.yul\":4941:5029   */\n  mstore\n    /* \"#utility.yul\":5048:5052   */\n  0x22\n    /* \"#utility.yul\":5045:5046   */\n  0x04\n    /* \"#utility.yul\":5038:5053   */\n  mstore\n    /* \"#utility.yul\":5072:5076   */\n  0x24\n    /* \"#utility.yul\":5069:5070   */\n  0x00\n    /* \"#utility.yul\":5062:5077   */\n  revert\n    /* \"#utility.yul\":5089:5191   */\ntag_84:\n    /* \"#utility.yul\":5131:5139   */\n  0x00\n    /* \"#utility.yul\":5178:5183   */\n  dup2\n    /* \"#utility.yul\":5175:5176   */\n  0x01\n    /* \"#utility.yul\":5171:5184   */\n  shr\n    /* \"#utility.yul\":5150:5184   */\n  swap1\n  pop\n    /* \"#utility.yul\":5089:5191   */\n  swap2\n  swap1\n  pop\n  jump\t// out\n    /* \"#utility.yul\":5197:5378   */\ntag_59:\n    /* \"#utility.yul\":5337:5370   */\n  0x45524332303a206d696e7420746f20746865207a65726f206164647265737300\n    /* \"#utility.yul\":5333:5334   */\n  0x00\n    /* \"#utility.yul\":5325:5331   */\n  dup3\n    /* \"#utility.yul\":5321:5335   */\n  add\n    /* \"#utility.yul\":5314:5371   */\n  mstore\n    /* \"#utility.yul\":5197:5378   */\n  pop\n  jump\t// out\n    /* \"ERC20stake&reward_flat.sol\":19475:21288  contract Vintagecrypto is ERC20, Ownable {... */\ntag_23:\n  dataSize(sub_0)\n  dup1\n  dataOffset(sub_0)\n  0x00\n  codecopy\n  0x00\n  return\nstop\n\nsub_0: assembly {\n        /* \"ERC20stake&reward_flat.sol\":19475:21288  contract Vintagecrypto is ERC20, Ownable {... */\n      mstore(0x40, 0x80)\n      callvalue\n      dup1\n      iszero\n      tag_1\n      jumpi\n      0x00\n      dup1\n      revert\n    tag_1:\n      pop\n      jumpi(tag_2, lt(calldatasize, 0x04))\n      shr(0xe0, calldataload(0x00))\n      dup1\n      0x789706ae\n      gt\n      tag_27\n      jumpi\n      dup1\n      0xa9059cbb\n      gt\n      tag_28\n      jumpi\n      dup1\n      0xa9059cbb\n      eq\n      tag_21\n      jumpi\n      dup1\n      0xc93c8f34\n      eq\n      tag_22\n      jumpi\n      dup1\n      0xdbf9f652\n      eq\n      tag_23\n      jumpi\n      dup1\n      0xdd62ed3e\n      eq\n      tag_24\n      jumpi\n      dup1\n      0xf2fde38b\n      eq\n      tag_25\n      jumpi\n      dup1\n      0xf739ed9e\n      eq\n      tag_26\n      jumpi\n      jump(tag_2)\n    tag_28:\n      dup1\n      0x789706ae\n      eq\n      tag_15\n      jumpi\n      dup1\n      0x8da5cb5b\n      eq\n      tag_16\n      jumpi\n      dup1\n      0x95d89b41\n      eq\n      tag_17\n      jumpi\n      dup1\n      0xa4101788\n      eq\n      tag_18\n      jumpi\n      dup1\n      0xa457c2d7\n      eq\n      tag_19\n      jumpi\n      dup1\n      0xa6c75797\n      eq\n      tag_20\n      jumpi\n      jump(tag_2)\n    tag_27:\n      dup1\n      0x27506f53\n      gt\n      tag_29\n      jumpi\n      dup1\n      0x27506f53\n      eq\n      tag_9\n      jumpi\n      dup1\n      0x313ce567\n      eq\n      tag_10\n      jumpi\n      dup1\n      0x39509351\n      eq\n      tag_11\n      jumpi\n      dup1\n      0x68f8fc10\n      eq\n      tag_12\n      jumpi\n      dup1\n      0x70a08231\n      eq\n      tag_13\n      jumpi\n      dup1\n      0x715018a6\n      eq\n      tag_14\n      jumpi\n      jump(tag_2)\n    tag_29:\n      dup1\n      0x06fdde03\n      eq\n      tag_3\n      jumpi\n      dup1\n      0x0700037d\n      eq\n      tag_4\n      jumpi\n      dup1\n      0x095ea7b3\n      eq\n      tag_5\n      jumpi\n      dup1\n      0x174e31c4\n      eq\n      tag_6\n      jumpi\n      dup1\n      0x18160ddd\n      eq\n      tag_7\n      jumpi\n      dup1\n      0x23b872dd\n      eq\n      tag_8\n      jumpi\n    tag_2:\n      0x00\n      dup1\n      revert\n        /* \"ERC20stake&reward_flat.sol\":8932:9030  function name() public view virtual override returns (string memory) {... */\n    tag_3:\n      tag_30\n      tag_31\n      jump\t// in\n    tag_30:\n      mload(0x40)\n      tag_32\n      swap2\n      swap1\n      tag_33\n      jump\t// in\n    tag_32:\n      mload(0x40)\n      dup1\n      swap2\n      sub\n      swap1\n      return\n        /* \"ERC20stake&reward_flat.sol\":19697:19737  mapping (address => uint) public rewards */\n    tag_4:\n      tag_34\n      0x04\n      dup1\n      calldatasize\n      sub\n      dup2\n      add\n      swap1\n      tag_35\n      swap2\n      swap1\n      tag_36\n      jump\t// in\n    tag_35:\n      tag_37\n      jump\t// in\n    tag_34:\n      mload(0x40)\n      tag_38\n      swap2\n      swap1\n      tag_39\n      jump\t// in\n    tag_38:\n      mload(0x40)\n      dup1\n      swap2\n      sub\n      swap1\n      return\n        /* \"ERC20stake&reward_flat.sol\":11209:11406  function approve(address spender, uint256 amount) public virtual override returns (bool) {... */\n    tag_5:\n      tag_40\n      0x04\n      dup1\n      calldatasize\n      sub\n      dup2\n      add\n      swap1\n      tag_41\n      swap2\n      swap1\n      tag_42\n      jump\t// in\n    tag_41:\n      tag_43\n      jump\t// in\n    tag_40:\n      mload(0x40)\n      tag_44\n      swap2\n      swap1\n      tag_45\n      jump\t// in\n    tag_44:\n      mload(0x40)\n      dup1\n      swap2\n      sub\n      swap1\n      return\n        /* \"ERC20stake&reward_flat.sol\":20688:20934  function claimReward (address payable staker, uint amountStaked) public {... */\n    tag_6:\n      tag_46\n      0x04\n      dup1\n      calldatasize\n      sub\n      dup2\n      add\n      swap1\n      tag_47\n      swap2\n      swap1\n      tag_48\n      jump\t// in\n    tag_47:\n      tag_49\n      jump\t// in\n    tag_46:\n      stop\n        /* \"ERC20stake&reward_flat.sol\":10020:10126  function totalSupply() public view virtual override returns (uint256) {... */\n    tag_7:\n      tag_50\n      tag_51\n      jump\t// in\n    tag_50:\n      mload(0x40)\n      tag_52\n      swap2\n      swap1\n      tag_39\n      jump\t// in\n    tag_52:\n      mload(0x40)\n      dup1\n      swap2\n      sub\n      swap1\n      return\n        /* \"ERC20stake&reward_flat.sol\":11968:12254  function transferFrom(... */\n    tag_8:\n      tag_53\n      0x04\n      dup1\n      calldatasize\n      sub\n      dup2\n      add\n      swap1\n      tag_54\n      swap2\n      swap1\n      tag_55\n      jump\t// in\n    tag_54:\n      tag_56\n      jump\t// in\n    tag_53:\n      mload(0x40)\n      tag_57\n      swap2\n      swap1\n      tag_45\n      jump\t// in\n    tag_57:\n      mload(0x40)\n      dup1\n      swap2\n      sub\n      swap1\n      return\n        /* \"ERC20stake&reward_flat.sol\":20940:21051  function getAllTransactions () public view returns (stakedToken[] memory) {... */\n    tag_9:\n      tag_58\n      tag_59\n      jump\t// in\n    tag_58:\n      mload(0x40)\n      tag_60\n      swap2\n      swap1\n      tag_61\n      jump\t// in\n    tag_60:\n      mload(0x40)\n      dup1\n      swap2\n      sub\n      swap1\n      return\n        /* \"ERC20stake&reward_flat.sol\":9869:9960  function decimals() public view virtual override returns (uint8) {... */\n    tag_10:\n      tag_62\n      tag_63\n      jump\t// in\n    tag_62:\n      mload(0x40)\n      tag_64\n      swap2\n      swap1\n      tag_65\n      jump\t// in\n    tag_64:\n      mload(0x40)\n      dup1\n      swap2\n      sub\n      swap1\n      return\n        /* \"ERC20stake&reward_flat.sol\":12649:12885  function increaseAllowance(address spender, uint256 addedValue) public virtual returns (bool) {... */\n    tag_11:\n      tag_66\n      0x04\n      dup1\n      calldatasize\n      sub\n      dup2\n      add\n      swap1\n      tag_67\n      swap2\n      swap1\n      tag_42\n      jump\t// in\n    tag_67:\n      tag_68\n      jump\t// in\n    tag_66:\n      mload(0x40)\n      tag_69\n      swap2\n      swap1\n      tag_45\n      jump\t// in\n    tag_69:\n      mload(0x40)\n      dup1\n      swap2\n      sub\n      swap1\n      return\n        /* \"ERC20stake&reward_flat.sol\":20109:20206  function buyToken(address to, uint256 amount) public onlyOwner {... */\n    tag_12:\n      tag_70\n      0x04\n      dup1\n      calldatasize\n      sub\n      dup2\n      add\n      swap1\n      tag_71\n      swap2\n      swap1\n      tag_42\n      jump\t// in\n    tag_71:\n      tag_72\n      jump\t// in\n    tag_70:\n      stop\n        /* \"ERC20stake&reward_flat.sol\":10184:10309  function balanceOf(address account) public view virtual override returns (uint256) {... */\n    tag_13:\n      tag_73\n      0x04\n      dup1\n      calldatasize\n      sub\n      dup2\n      add\n      swap1\n      tag_74\n      swap2\n      swap1\n      tag_36\n      jump\t// in\n    tag_74:\n      tag_75\n      jump\t// in\n    tag_73:\n      mload(0x40)\n      tag_76\n      swap2\n      swap1\n      tag_39\n      jump\t// in\n    tag_76:\n      mload(0x40)\n      dup1\n      swap2\n      sub\n      swap1\n      return\n        /* \"ERC20stake&reward_flat.sol\":2556:2657  function renounceOwnership() public virtual onlyOwner {... */\n    tag_14:\n      tag_77\n      tag_78\n      jump\t// in\n    tag_77:\n      stop\n        /* \"ERC20stake&reward_flat.sol\":21057:21162  function _numberofTokensStaked () public view returns (uint) {... */\n    tag_15:\n      tag_79\n      tag_80\n      jump\t// in\n    tag_79:\n      mload(0x40)\n      tag_81\n      swap2\n      swap1\n      tag_39\n      jump\t// in\n    tag_81:\n      mload(0x40)\n      dup1\n      swap2\n      sub\n      swap1\n      return\n        /* \"ERC20stake&reward_flat.sol\":1924:2009  function owner() public view virtual returns (address) {... */\n    tag_16:\n      tag_82\n      tag_83\n      jump\t// in\n    tag_82:\n      mload(0x40)\n      tag_84\n      swap2\n      swap1\n      tag_85\n      jump\t// in\n    tag_84:\n      mload(0x40)\n      dup1\n      swap2\n      sub\n      swap1\n      return\n        /* \"ERC20stake&reward_flat.sol\":9143:9245  function symbol() public view virtual override returns (string memory) {... */\n    tag_17:\n      tag_86\n      tag_87\n      jump\t// in\n    tag_86:\n      mload(0x40)\n      tag_88\n      swap2\n      swap1\n      tag_33\n      jump\t// in\n    tag_88:\n      mload(0x40)\n      dup1\n      swap2\n      sub\n      swap1\n      return\n        /* \"ERC20stake&reward_flat.sol\":21168:21284  function viewTokenBalance (address staker) public view returns (uint) {... */\n    tag_18:\n      tag_89\n      0x04\n      dup1\n      calldatasize\n      sub\n      dup2\n      add\n      swap1\n      tag_90\n      swap2\n      swap1\n      tag_36\n      jump\t// in\n    tag_90:\n      tag_91\n      jump\t// in\n    tag_89:\n      mload(0x40)\n      tag_92\n      swap2\n      swap1\n      tag_39\n      jump\t// in\n    tag_92:\n      mload(0x40)\n      dup1\n      swap2\n      sub\n      swap1\n      return\n        /* \"ERC20stake&reward_flat.sol\":13372:13801  function decreaseAllowance(address spender, uint256 subtractedValue) public virtual returns (bool) {... */\n    tag_19:\n      tag_93\n      0x04\n      dup1\n      calldatasize\n      sub\n      dup2\n      add\n      swap1\n      tag_94\n      swap2\n      swap1\n      tag_42\n      jump\t// in\n    tag_94:\n      tag_95\n      jump\t// in\n    tag_93:\n      mload(0x40)\n      tag_96\n      swap2\n      swap1\n      tag_45\n      jump\t// in\n    tag_96:\n      mload(0x40)\n      dup1\n      swap2\n      sub\n      swap1\n      return\n        /* \"ERC20stake&reward_flat.sol\":19565:19597  uint public numberofTokensStaked */\n    tag_20:\n      tag_97\n      tag_98\n      jump\t// in\n    tag_97:\n      mload(0x40)\n      tag_99\n      swap2\n      swap1\n      tag_39\n      jump\t// in\n    tag_99:\n      mload(0x40)\n      dup1\n      swap2\n      sub\n      swap1\n      return\n        /* \"ERC20stake&reward_flat.sol\":10505:10694  function transfer(address to, uint256 amount) public virtual override returns (bool) {... */\n    tag_21:\n      tag_100\n      0x04\n      dup1\n      calldatasize\n      sub\n      dup2\n      add\n      swap1\n      tag_101\n      swap2\n      swap1\n      tag_42\n      jump\t// in\n    tag_101:\n      tag_102\n      jump\t// in\n    tag_100:\n      mload(0x40)\n      tag_103\n      swap2\n      swap1\n      tag_45\n      jump\t// in\n    tag_103:\n      mload(0x40)\n      dup1\n      swap2\n      sub\n      swap1\n      return\n        /* \"ERC20stake&reward_flat.sol\":19603:19645  mapping (address => bool) public hasStaked */\n    tag_22:\n      tag_104\n      0x04\n      dup1\n      calldatasize\n      sub\n      dup2\n      add\n      swap1\n      tag_105\n      swap2\n      swap1\n      tag_36\n      jump\t// in\n    tag_105:\n      tag_106\n      jump\t// in\n    tag_104:\n      mload(0x40)\n      tag_107\n      swap2\n      swap1\n      tag_45\n      jump\t// in\n    tag_107:\n      mload(0x40)\n      dup1\n      swap2\n      sub\n      swap1\n      return\n        /* \"ERC20stake&reward_flat.sol\":19523:19559  uint public tokenBuyPrice = 1*10**17 */\n    tag_23:\n      tag_108\n      tag_109\n      jump\t// in\n    tag_108:\n      mload(0x40)\n      tag_110\n      swap2\n      swap1\n      tag_39\n      jump\t// in\n    tag_110:\n      mload(0x40)\n      dup1\n      swap2\n      sub\n      swap1\n      return\n        /* \"ERC20stake&reward_flat.sol\":10752:10901  function allowance(address owner, address spender) public view virtual override returns (uint256) {... */\n    tag_24:\n      tag_111\n      0x04\n      dup1\n      calldatasize\n      sub\n      dup2\n      add\n      swap1\n      tag_112\n      swap2\n      swap1\n      tag_113\n      jump\t// in\n    tag_112:\n      tag_114\n      jump\t// in\n    tag_111:\n      mload(0x40)\n      tag_115\n      swap2\n      swap1\n      tag_39\n      jump\t// in\n    tag_115:\n      mload(0x40)\n      dup1\n      swap2\n      sub\n      swap1\n      return\n        /* \"ERC20stake&reward_flat.sol\":2806:3004  function transferOwnership(address newOwner) public virtual onlyOwner {... */\n    tag_25:\n      tag_116\n      0x04\n      dup1\n      calldatasize\n      sub\n      dup2\n      add\n      swap1\n      tag_117\n      swap2\n      swap1\n      tag_36\n      jump\t// in\n    tag_117:\n      tag_118\n      jump\t// in\n    tag_116:\n      stop\n        /* \"ERC20stake&reward_flat.sol\":20339:20682  function stakeToken (address staker, uint amount) public {... */\n    tag_26:\n      tag_119\n      0x04\n      dup1\n      calldatasize\n      sub\n      dup2\n      add\n      swap1\n      tag_120\n      swap2\n      swap1\n      tag_42\n      jump\t// in\n    tag_120:\n      tag_121\n      jump\t// in\n    tag_119:\n      stop\n        /* \"ERC20stake&reward_flat.sol\":8932:9030  function name() public view virtual override returns (string memory) {... */\n    tag_31:\n        /* \"ERC20stake&reward_flat.sol\":8986:8999  string memory */\n      0x60\n        /* \"ERC20stake&reward_flat.sol\":9018:9023  _name */\n      0x03\n        /* \"ERC20stake&reward_flat.sol\":9011:9023  return _name */\n      dup1\n      sload\n      tag_123\n      swap1\n      tag_124\n      jump\t// in\n    tag_123:\n      dup1\n      0x1f\n      add\n      0x20\n      dup1\n      swap2\n      div\n      mul\n      0x20\n      add\n      mload(0x40)\n      swap1\n      dup2\n      add\n      0x40\n      mstore\n      dup1\n      swap3\n      swap2\n      swap1\n      dup2\n      dup2\n      mstore\n      0x20\n      add\n      dup3\n      dup1\n      sload\n      tag_125\n      swap1\n      tag_124\n      jump\t// in\n    tag_125:\n      dup1\n      iszero\n      tag_126\n      jumpi\n      dup1\n      0x1f\n      lt\n      tag_127\n      jumpi\n      0x0100\n      dup1\n      dup4\n      sload\n      div\n      mul\n      dup4\n      mstore\n      swap2\n      0x20\n      add\n      swap2\n      jump(tag_126)\n    tag_127:\n      dup3\n      add\n      swap2\n      swap1\n      0x00\n      mstore\n      keccak256(0x00, 0x20)\n      swap1\n    tag_128:\n      dup2\n      sload\n      dup2\n      mstore\n      swap1\n      0x01\n      add\n      swap1\n      0x20\n      add\n      dup1\n      dup4\n      gt\n      tag_128\n      jumpi\n      dup3\n      swap1\n      sub\n      0x1f\n      and\n      dup3\n      add\n      swap2\n    tag_126:\n      pop\n      pop\n      pop\n      pop\n      pop\n      swap1\n      pop\n        /* \"ERC20stake&reward_flat.sol\":8932:9030  function name() public view virtual override returns (string memory) {... */\n      swap1\n      jump\t// out\n        /* \"ERC20stake&reward_flat.sol\":19697:19737  mapping (address => uint) public rewards */\n    tag_37:\n      mstore(0x20, 0x0a)\n      dup1\n      0x00\n      mstore\n      keccak256(0x00, 0x40)\n      0x00\n      swap2\n      pop\n      swap1\n      pop\n      sload\n      dup2\n      jump\t// out\n        /* \"ERC20stake&reward_flat.sol\":11209:11406  function approve(address spender, uint256 amount) public virtual override returns (bool) {... */\n    tag_43:\n        /* \"ERC20stake&reward_flat.sol\":11292:11296  bool */\n      0x00\n        /* \"ERC20stake&reward_flat.sol\":11308:11321  address owner */\n      dup1\n        /* \"ERC20stake&reward_flat.sol\":11324:11336  _msgSender() */\n      tag_130\n        /* \"ERC20stake&reward_flat.sol\":11324:11334  _msgSender */\n      tag_131\n        /* \"ERC20stake&reward_flat.sol\":11324:11336  _msgSender() */\n      jump\t// in\n    tag_130:\n        /* \"ERC20stake&reward_flat.sol\":11308:11336  address owner = _msgSender() */\n      swap1\n      pop\n        /* \"ERC20stake&reward_flat.sol\":11346:11378  _approve(owner, spender, amount) */\n      tag_132\n        /* \"ERC20stake&reward_flat.sol\":11355:11360  owner */\n      dup2\n        /* \"ERC20stake&reward_flat.sol\":11362:11369  spender */\n      dup6\n        /* \"ERC20stake&reward_flat.sol\":11371:11377  amount */\n      dup6\n        /* \"ERC20stake&reward_flat.sol\":11346:11354  _approve */\n      tag_133\n        /* \"ERC20stake&reward_flat.sol\":11346:11378  _approve(owner, spender, amount) */\n      jump\t// in\n    tag_132:\n        /* \"ERC20stake&reward_flat.sol\":11395:11399  true */\n      0x01\n        /* \"ERC20stake&reward_flat.sol\":11388:11399  return true */\n      swap2\n      pop\n      pop\n        /* \"ERC20stake&reward_flat.sol\":11209:11406  function approve(address spender, uint256 amount) public virtual override returns (bool) {... */\n      swap3\n      swap2\n      pop\n      pop\n      jump\t// out\n        /* \"ERC20stake&reward_flat.sol\":20688:20934  function claimReward (address payable staker, uint amountStaked) public {... */\n    tag_49:\n        /* \"ERC20stake&reward_flat.sol\":20798:20804  24 * 7 */\n      0xa8\n        /* \"ERC20stake&reward_flat.sol\":20779:20794  block.timestamp */\n      timestamp\n        /* \"ERC20stake&reward_flat.sol\":20779:20804  block.timestamp == 24 * 7 */\n      eq\n        /* \"ERC20stake&reward_flat.sol\":20770:20805  require (block.timestamp == 24 * 7) */\n      tag_135\n      jumpi\n      0x00\n      dup1\n      revert\n    tag_135:\n        /* \"ERC20stake&reward_flat.sol\":20815:20826  uint reward */\n      0x00\n        /* \"ERC20stake&reward_flat.sol\":20829:20836  rewards */\n      0x0a\n        /* \"ERC20stake&reward_flat.sol\":20829:20844  rewards[staker] */\n      0x00\n        /* \"ERC20stake&reward_flat.sol\":20837:20843  staker */\n      dup5\n        /* \"ERC20stake&reward_flat.sol\":20829:20844  rewards[staker] */\n      0xffffffffffffffffffffffffffffffffffffffff\n      and\n      0xffffffffffffffffffffffffffffffffffffffff\n      and\n      dup2\n      mstore\n      0x20\n      add\n      swap1\n      dup2\n      mstore\n      0x20\n      add\n      0x00\n      keccak256\n      sload\n        /* \"ERC20stake&reward_flat.sol\":20815:20844  uint reward = rewards[staker] */\n      swap1\n      pop\n        /* \"ERC20stake&reward_flat.sol\":20885:20888  100 */\n      0x64\n        /* \"ERC20stake&reward_flat.sol\":20872:20884  amountStaked */\n      dup3\n        /* \"ERC20stake&reward_flat.sol\":20872:20888  amountStaked/100 */\n      tag_136\n      swap2\n      swap1\n      tag_137\n      jump\t// in\n    tag_136:\n        /* \"ERC20stake&reward_flat.sol\":20854:20861  rewards */\n      0x0a\n        /* \"ERC20stake&reward_flat.sol\":20854:20869  rewards[staker] */\n      0x00\n        /* \"ERC20stake&reward_flat.sol\":20862:20868  staker */\n      dup6\n        /* \"ERC20stake&reward_flat.sol\":20854:20869  rewards[staker] */\n      0xffffffffffffffffffffffffffffffffffffffff\n      and\n      0xffffffffffffffffffffffffffffffffffffffff\n      and\n      dup2\n      mstore\n      0x20\n      add\n      swap1\n      dup2\n      mstore\n      0x20\n      add\n      0x00\n      keccak256\n        /* \"ERC20stake&reward_flat.sol\":20854:20888  rewards[staker] = amountStaked/100 */\n      dup2\n      swap1\n      sstore\n      pop\n        /* \"ERC20stake&reward_flat.sol\":20902:20926  transfer(staker, reward) */\n      tag_138\n        /* \"ERC20stake&reward_flat.sol\":20911:20917  staker */\n      dup4\n        /* \"ERC20stake&reward_flat.sol\":20919:20925  reward */\n      dup3\n        /* \"ERC20stake&reward_flat.sol\":20902:20910  transfer */\n      tag_102\n        /* \"ERC20stake&reward_flat.sol\":20902:20926  transfer(staker, reward) */\n      jump\t// in\n    tag_138:\n      pop\n        /* \"ERC20stake&reward_flat.sol\":20760:20934  {... */\n      pop\n        /* \"ERC20stake&reward_flat.sol\":20688:20934  function claimReward (address payable staker, uint amountStaked) public {... */\n      pop\n      pop\n      jump\t// out\n        /* \"ERC20stake&reward_flat.sol\":10020:10126  function totalSupply() public view virtual override returns (uint256) {... */\n    tag_51:\n        /* \"ERC20stake&reward_flat.sol\":10081:10088  uint256 */\n      0x00\n        /* \"ERC20stake&reward_flat.sol\":10107:10119  _totalSupply */\n      sload(0x02)\n        /* \"ERC20stake&reward_flat.sol\":10100:10119  return _totalSupply */\n      swap1\n      pop\n        /* \"ERC20stake&reward_flat.sol\":10020:10126  function totalSupply() public view virtual override returns (uint256) {... */\n      swap1\n      jump\t// out\n        /* \"ERC20stake&reward_flat.sol\":11968:12254  function transferFrom(... */\n    tag_56:\n        /* \"ERC20stake&reward_flat.sol\":12095:12099  bool */\n      0x00\n        /* \"ERC20stake&reward_flat.sol\":12111:12126  address spender */\n      dup1\n        /* \"ERC20stake&reward_flat.sol\":12129:12141  _msgSender() */\n      tag_141\n        /* \"ERC20stake&reward_flat.sol\":12129:12139  _msgSender */\n      tag_131\n        /* \"ERC20stake&reward_flat.sol\":12129:12141  _msgSender() */\n      jump\t// in\n    tag_141:\n        /* \"ERC20stake&reward_flat.sol\":12111:12141  address spender = _msgSender() */\n      swap1\n      pop\n        /* \"ERC20stake&reward_flat.sol\":12151:12189  _spendAllowance(from, spender, amount) */\n      tag_142\n        /* \"ERC20stake&reward_flat.sol\":12167:12171  from */\n      dup6\n        /* \"ERC20stake&reward_flat.sol\":12173:12180  spender */\n      dup3\n        /* \"ERC20stake&reward_flat.sol\":12182:12188  amount */\n      dup6\n        /* \"ERC20stake&reward_flat.sol\":12151:12166  _spendAllowance */\n      tag_143\n        /* \"ERC20stake&reward_flat.sol\":12151:12189  _spendAllowance(from, spender, amount) */\n      jump\t// in\n    tag_142:\n        /* \"ERC20stake&reward_flat.sol\":12199:12226  _transfer(from, to, amount) */\n      tag_144\n        /* \"ERC20stake&reward_flat.sol\":12209:12213  from */\n      dup6\n        /* \"ERC20stake&reward_flat.sol\":12215:12217  to */\n      dup6\n        /* \"ERC20stake&reward_flat.sol\":12219:12225  amount */\n      dup6\n        /* \"ERC20stake&reward_flat.sol\":12199:12208  _transfer */\n      tag_145\n        /* \"ERC20stake&reward_flat.sol\":12199:12226  _transfer(from, to, amount) */\n      jump\t// in\n    tag_144:\n        /* \"ERC20stake&reward_flat.sol\":12243:12247  true */\n      0x01\n        /* \"ERC20stake&reward_flat.sol\":12236:12247  return true */\n      swap2\n      pop\n      pop\n        /* \"ERC20stake&reward_flat.sol\":11968:12254  function transferFrom(... */\n      swap4\n      swap3\n      pop\n      pop\n      pop\n      jump\t// out\n        /* \"ERC20stake&reward_flat.sol\":20940:21051  function getAllTransactions () public view returns (stakedToken[] memory) {... */\n    tag_59:\n        /* \"ERC20stake&reward_flat.sol\":20992:21012  stakedToken[] memory */\n      0x60\n        /* \"ERC20stake&reward_flat.sol\":21031:21044  vintageTokens */\n      0x0b\n        /* \"ERC20stake&reward_flat.sol\":21024:21044  return vintageTokens */\n      dup1\n      sload\n      dup1\n      0x20\n      mul\n      0x20\n      add\n      mload(0x40)\n      swap1\n      dup2\n      add\n      0x40\n      mstore\n      dup1\n      swap3\n      swap2\n      swap1\n      dup2\n      dup2\n      mstore\n      0x20\n      add\n      0x00\n      swap1\n    tag_147:\n      dup3\n      dup3\n      lt\n      iszero\n      tag_148\n      jumpi\n      dup4\n      dup3\n      swap1\n      0x00\n      mstore\n      keccak256(0x00, 0x20)\n      swap1\n      0x04\n      mul\n      add\n      mload(0x40)\n      dup1\n      0x80\n      add\n      0x40\n      mstore\n      swap1\n      dup2\n      0x00\n      dup3\n      add\n      0x00\n      swap1\n      sload\n      swap1\n      0x0100\n      exp\n      swap1\n      div\n      0xffffffffffffffffffffffffffffffffffffffff\n      and\n      0xffffffffffffffffffffffffffffffffffffffff\n      and\n      0xffffffffffffffffffffffffffffffffffffffff\n      and\n      dup2\n      mstore\n      0x20\n      add\n      0x01\n      dup3\n      add\n      0x00\n      swap1\n      sload\n      swap1\n      0x0100\n      exp\n      swap1\n      div\n      0xffffffffffffffffffffffffffffffffffffffff\n      and\n      0xffffffffffffffffffffffffffffffffffffffff\n      and\n      0xffffffffffffffffffffffffffffffffffffffff\n      and\n      dup2\n      mstore\n      0x20\n      add\n      0x02\n      dup3\n      add\n      sload\n      dup2\n      mstore\n      0x20\n      add\n      0x03\n      dup3\n      add\n      sload\n      dup2\n      mstore\n      pop\n      pop\n      dup2\n      mstore\n      0x20\n      add\n      swap1\n      0x01\n      add\n      swap1\n      jump(tag_147)\n    tag_148:\n      pop\n      pop\n      pop\n      pop\n      swap1\n      pop\n        /* \"ERC20stake&reward_flat.sol\":20940:21051  function getAllTransactions () public view returns (stakedToken[] memory) {... */\n      swap1\n      jump\t// out\n        /* \"ERC20stake&reward_flat.sol\":9869:9960  function decimals() public view virtual override returns (uint8) {... */\n    tag_63:\n        /* \"ERC20stake&reward_flat.sol\":9927:9932  uint8 */\n      0x00\n        /* \"ERC20stake&reward_flat.sol\":9951:9953  18 */\n      0x12\n        /* \"ERC20stake&reward_flat.sol\":9944:9953  return 18 */\n      swap1\n      pop\n        /* \"ERC20stake&reward_flat.sol\":9869:9960  function decimals() public view virtual override returns (uint8) {... */\n      swap1\n      jump\t// out\n        /* \"ERC20stake&reward_flat.sol\":12649:12885  function increaseAllowance(address spender, uint256 addedValue) public virtual returns (bool) {... */\n    tag_68:\n        /* \"ERC20stake&reward_flat.sol\":12737:12741  bool */\n      0x00\n        /* \"ERC20stake&reward_flat.sol\":12753:12766  address owner */\n      dup1\n        /* \"ERC20stake&reward_flat.sol\":12769:12781  _msgSender() */\n      tag_152\n        /* \"ERC20stake&reward_flat.sol\":12769:12779  _msgSender */\n      tag_131\n        /* \"ERC20stake&reward_flat.sol\":12769:12781  _msgSender() */\n      jump\t// in\n    tag_152:\n        /* \"ERC20stake&reward_flat.sol\":12753:12781  address owner = _msgSender() */\n      swap1\n      pop\n        /* \"ERC20stake&reward_flat.sol\":12791:12857  _approve(owner, spender, _allowances[owner][spender] + addedValue) */\n      tag_153\n        /* \"ERC20stake&reward_flat.sol\":12800:12805  owner */\n      dup2\n        /* \"ERC20stake&reward_flat.sol\":12807:12814  spender */\n      dup6\n        /* \"ERC20stake&reward_flat.sol\":12846:12856  addedValue */\n      dup6\n        /* \"ERC20stake&reward_flat.sol\":12816:12827  _allowances */\n      0x01\n        /* \"ERC20stake&reward_flat.sol\":12816:12834  _allowances[owner] */\n      0x00\n        /* \"ERC20stake&reward_flat.sol\":12828:12833  owner */\n      dup7\n        /* \"ERC20stake&reward_flat.sol\":12816:12834  _allowances[owner] */\n      0xffffffffffffffffffffffffffffffffffffffff\n      and\n      0xffffffffffffffffffffffffffffffffffffffff\n      and\n      dup2\n      mstore\n      0x20\n      add\n      swap1\n      dup2\n      mstore\n      0x20\n      add\n      0x00\n      keccak256\n        /* \"ERC20stake&reward_flat.sol\":12816:12843  _allowances[owner][spender] */\n      0x00\n        /* \"ERC20stake&reward_flat.sol\":12835:12842  spender */\n      dup10\n        /* \"ERC20stake&reward_flat.sol\":12816:12843  _allowances[owner][spender] */\n      0xffffffffffffffffffffffffffffffffffffffff\n      and\n      0xffffffffffffffffffffffffffffffffffffffff\n      and\n      dup2\n      mstore\n      0x20\n      add\n      swap1\n      dup2\n      mstore\n      0x20\n      add\n      0x00\n      keccak256\n      sload\n        /* \"ERC20stake&reward_flat.sol\":12816:12856  _allowances[owner][spender] + addedValue */\n      tag_154\n      swap2\n      swap1\n      tag_155\n      jump\t// in\n    tag_154:\n        /* \"ERC20stake&reward_flat.sol\":12791:12799  _approve */\n      tag_133\n        /* \"ERC20stake&reward_flat.sol\":12791:12857  _approve(owner, spender, _allowances[owner][spender] + addedValue) */\n      jump\t// in\n    tag_153:\n        /* \"ERC20stake&reward_flat.sol\":12874:12878  true */\n      0x01\n        /* \"ERC20stake&reward_flat.sol\":12867:12878  return true */\n      swap2\n      pop\n      pop\n        /* \"ERC20stake&reward_flat.sol\":12649:12885  function increaseAllowance(address spender, uint256 addedValue) public virtual returns (bool) {... */\n      swap3\n      swap2\n      pop\n      pop\n      jump\t// out\n        /* \"ERC20stake&reward_flat.sol\":20109:20206  function buyToken(address to, uint256 amount) public onlyOwner {... */\n    tag_72:\n        /* \"ERC20stake&reward_flat.sol\":2147:2159  _msgSender() */\n      tag_157\n        /* \"ERC20stake&reward_flat.sol\":2147:2157  _msgSender */\n      tag_131\n        /* \"ERC20stake&reward_flat.sol\":2147:2159  _msgSender() */\n      jump\t// in\n    tag_157:\n        /* \"ERC20stake&reward_flat.sol\":2136:2159  owner() == _msgSender() */\n      0xffffffffffffffffffffffffffffffffffffffff\n      and\n        /* \"ERC20stake&reward_flat.sol\":2136:2143  owner() */\n      tag_158\n        /* \"ERC20stake&reward_flat.sol\":2136:2141  owner */\n      tag_83\n        /* \"ERC20stake&reward_flat.sol\":2136:2143  owner() */\n      jump\t// in\n    tag_158:\n        /* \"ERC20stake&reward_flat.sol\":2136:2159  owner() == _msgSender() */\n      0xffffffffffffffffffffffffffffffffffffffff\n      and\n      eq\n        /* \"ERC20stake&reward_flat.sol\":2128:2196  require(owner() == _msgSender(), \"Ownable: caller is not the owner\") */\n      tag_159\n      jumpi\n      mload(0x40)\n      0x08c379a000000000000000000000000000000000000000000000000000000000\n      dup2\n      mstore\n      0x04\n      add\n      tag_160\n      swap1\n      tag_161\n      jump\t// in\n    tag_160:\n      mload(0x40)\n      dup1\n      swap2\n      sub\n      swap1\n      revert\n    tag_159:\n        /* \"ERC20stake&reward_flat.sol\":20182:20199  _mint(to, amount) */\n      tag_163\n        /* \"ERC20stake&reward_flat.sol\":20188:20190  to */\n      dup3\n        /* \"ERC20stake&reward_flat.sol\":20192:20198  amount */\n      dup3\n        /* \"ERC20stake&reward_flat.sol\":20182:20187  _mint */\n      tag_164\n        /* \"ERC20stake&reward_flat.sol\":20182:20199  _mint(to, amount) */\n      jump\t// in\n    tag_163:\n        /* \"ERC20stake&reward_flat.sol\":20109:20206  function buyToken(address to, uint256 amount) public onlyOwner {... */\n      pop\n      pop\n      jump\t// out\n        /* \"ERC20stake&reward_flat.sol\":10184:10309  function balanceOf(address account) public view virtual override returns (uint256) {... */\n    tag_75:\n        /* \"ERC20stake&reward_flat.sol\":10258:10265  uint256 */\n      0x00\n        /* \"ERC20stake&reward_flat.sol\":10284:10293  _balances */\n      dup1\n        /* \"ERC20stake&reward_flat.sol\":10284:10302  _balances[account] */\n      0x00\n        /* \"ERC20stake&reward_flat.sol\":10294:10301  account */\n      dup4\n        /* \"ERC20stake&reward_flat.sol\":10284:10302  _balances[account] */\n      0xffffffffffffffffffffffffffffffffffffffff\n      and\n      0xffffffffffffffffffffffffffffffffffffffff\n      and\n      dup2\n      mstore\n      0x20\n      add\n      swap1\n      dup2\n      mstore\n      0x20\n      add\n      0x00\n      keccak256\n      sload\n        /* \"ERC20stake&reward_flat.sol\":10277:10302  return _balances[account] */\n      swap1\n      pop\n        /* \"ERC20stake&reward_flat.sol\":10184:10309  function balanceOf(address account) public view virtual override returns (uint256) {... */\n      swap2\n      swap1\n      pop\n      jump\t// out\n        /* \"ERC20stake&reward_flat.sol\":2556:2657  function renounceOwnership() public virtual onlyOwner {... */\n    tag_78:\n        /* \"ERC20stake&reward_flat.sol\":2147:2159  _msgSender() */\n      tag_167\n        /* \"ERC20stake&reward_flat.sol\":2147:2157  _msgSender */\n      tag_131\n        /* \"ERC20stake&reward_flat.sol\":2147:2159  _msgSender() */\n      jump\t// in\n    tag_167:\n        /* \"ERC20stake&reward_flat.sol\":2136:2159  owner() == _msgSender() */\n      0xffffffffffffffffffffffffffffffffffffffff\n      and\n        /* \"ERC20stake&reward_flat.sol\":2136:2143  owner() */\n      tag_168\n        /* \"ERC20stake&reward_flat.sol\":2136:2141  owner */\n      tag_83\n        /* \"ERC20stake&reward_flat.sol\":2136:2143  owner() */\n      jump\t// in\n    tag_168:\n        /* \"ERC20stake&reward_flat.sol\":2136:2159  owner() == _msgSender() */\n      0xffffffffffffffffffffffffffffffffffffffff\n      and\n      eq\n        /* \"ERC20stake&reward_flat.sol\":2128:2196  require(owner() == _msgSender(), \"Ownable: caller is not the owner\") */\n      tag_169\n      jumpi\n      mload(0x40)\n      0x08c379a000000000000000000000000000000000000000000000000000000000\n      dup2\n      mstore\n      0x04\n      add\n      tag_170\n      swap1\n      tag_161\n      jump\t// in\n    tag_170:\n      mload(0x40)\n      dup1\n      swap2\n      sub\n      swap1\n      revert\n    tag_169:\n        /* \"ERC20stake&reward_flat.sol\":2620:2650  _transferOwnership(address(0)) */\n      tag_172\n        /* \"ERC20stake&reward_flat.sol\":2647:2648  0 */\n      0x00\n        /* \"ERC20stake&reward_flat.sol\":2620:2638  _transferOwnership */\n      tag_173\n        /* \"ERC20stake&reward_flat.sol\":2620:2650  _transferOwnership(address(0)) */\n      jump\t// in\n    tag_172:\n        /* \"ERC20stake&reward_flat.sol\":2556:2657  function renounceOwnership() public virtual onlyOwner {... */\n      jump\t// out\n        /* \"ERC20stake&reward_flat.sol\":21057:21162  function _numberofTokensStaked () public view returns (uint) {... */\n    tag_80:\n        /* \"ERC20stake&reward_flat.sol\":21112:21116  uint */\n      0x00\n        /* \"ERC20stake&reward_flat.sol\":21135:21155  numberofTokensStaked */\n      sload(0x07)\n        /* \"ERC20stake&reward_flat.sol\":21128:21155  return numberofTokensStaked */\n      swap1\n      pop\n        /* \"ERC20stake&reward_flat.sol\":21057:21162  function _numberofTokensStaked () public view returns (uint) {... */\n      swap1\n      jump\t// out\n        /* \"ERC20stake&reward_flat.sol\":1924:2009  function owner() public view virtual returns (address) {... */\n    tag_83:\n        /* \"ERC20stake&reward_flat.sol\":1970:1977  address */\n      0x00\n        /* \"ERC20stake&reward_flat.sol\":1996:2002  _owner */\n      0x05\n      0x00\n      swap1\n      sload\n      swap1\n      0x0100\n      exp\n      swap1\n      div\n      0xffffffffffffffffffffffffffffffffffffffff\n      and\n        /* \"ERC20stake&reward_flat.sol\":1989:2002  return _owner */\n      swap1\n      pop\n        /* \"ERC20stake&reward_flat.sol\":1924:2009  function owner() public view virtual returns (address) {... */\n      swap1\n      jump\t// out\n        /* \"ERC20stake&reward_flat.sol\":9143:9245  function symbol() public view virtual override returns (string memory) {... */\n    tag_87:\n        /* \"ERC20stake&reward_flat.sol\":9199:9212  string memory */\n      0x60\n        /* \"ERC20stake&reward_flat.sol\":9231:9238  _symbol */\n      0x04\n        /* \"ERC20stake&reward_flat.sol\":9224:9238  return _symbol */\n      dup1\n      sload\n      tag_177\n      swap1\n      tag_124\n      jump\t// in\n    tag_177:\n      dup1\n      0x1f\n      add\n      0x20\n      dup1\n      swap2\n      div\n      mul\n      0x20\n      add\n      mload(0x40)\n      swap1\n      dup2\n      add\n      0x40\n      mstore\n      dup1\n      swap3\n      swap2\n      swap1\n      dup2\n      dup2\n      mstore\n      0x20\n      add\n      dup3\n      dup1\n      sload\n      tag_178\n      swap1\n      tag_124\n      jump\t// in\n    tag_178:\n      dup1\n      iszero\n      tag_179\n      jumpi\n      dup1\n      0x1f\n      lt\n      tag_180\n      jumpi\n      0x0100\n      dup1\n      dup4\n      sload\n      div\n      mul\n      dup4\n      mstore\n      swap2\n      0x20\n      add\n      swap2\n      jump(tag_179)\n    tag_180:\n      dup3\n      add\n      swap2\n      swap1\n      0x00\n      mstore\n      keccak256(0x00, 0x20)\n      swap1\n    tag_181:\n      dup2\n      sload\n      dup2\n      mstore\n      swap1\n      0x01\n      add\n      swap1\n      0x20\n      add\n      dup1\n      dup4\n      gt\n      tag_181\n      jumpi\n      dup3\n      swap1\n      sub\n      0x1f\n      and\n      dup3\n      add\n      swap2\n    tag_179:\n      pop\n      pop\n      pop\n      pop\n      pop\n      swap1\n      pop\n        /* \"ERC20stake&reward_flat.sol\":9143:9245  function symbol() public view virtual override returns (string memory) {... */\n      swap1\n      jump\t// out\n        /* \"ERC20stake&reward_flat.sol\":21168:21284  function viewTokenBalance (address staker) public view returns (uint) {... */\n    tag_91:\n        /* \"ERC20stake&reward_flat.sol\":21232:21236  uint */\n      0x00\n        /* \"ERC20stake&reward_flat.sol\":21255:21269  stakingBalance */\n      0x09\n        /* \"ERC20stake&reward_flat.sol\":21255:21277  stakingBalance[staker] */\n      0x00\n        /* \"ERC20stake&reward_flat.sol\":21270:21276  staker */\n      dup4\n        /* \"ERC20stake&reward_flat.sol\":21255:21277  stakingBalance[staker] */\n      0xffffffffffffffffffffffffffffffffffffffff\n      and\n      0xffffffffffffffffffffffffffffffffffffffff\n      and\n      dup2\n      mstore\n      0x20\n      add\n      swap1\n      dup2\n      mstore\n      0x20\n      add\n      0x00\n      keccak256\n      sload\n        /* \"ERC20stake&reward_flat.sol\":21248:21277  return stakingBalance[staker] */\n      swap1\n      pop\n        /* \"ERC20stake&reward_flat.sol\":21168:21284  function viewTokenBalance (address staker) public view returns (uint) {... */\n      swap2\n      swap1\n      pop\n      jump\t// out\n        /* \"ERC20stake&reward_flat.sol\":13372:13801  function decreaseAllowance(address spender, uint256 subtractedValue) public virtual returns (bool) {... */\n    tag_95:\n        /* \"ERC20stake&reward_flat.sol\":13465:13469  bool */\n      0x00\n        /* \"ERC20stake&reward_flat.sol\":13481:13494  address owner */\n      dup1\n        /* \"ERC20stake&reward_flat.sol\":13497:13509  _msgSender() */\n      tag_184\n        /* \"ERC20stake&reward_flat.sol\":13497:13507  _msgSender */\n      tag_131\n        /* \"ERC20stake&reward_flat.sol\":13497:13509  _msgSender() */\n      jump\t// in\n    tag_184:\n        /* \"ERC20stake&reward_flat.sol\":13481:13509  address owner = _msgSender() */\n      swap1\n      pop\n        /* \"ERC20stake&reward_flat.sol\":13519:13543  uint256 currentAllowance */\n      0x00\n        /* \"ERC20stake&reward_flat.sol\":13546:13557  _allowances */\n      0x01\n        /* \"ERC20stake&reward_flat.sol\":13546:13564  _allowances[owner] */\n      0x00\n        /* \"ERC20stake&reward_flat.sol\":13558:13563  owner */\n      dup4\n        /* \"ERC20stake&reward_flat.sol\":13546:13564  _allowances[owner] */\n      0xffffffffffffffffffffffffffffffffffffffff\n      and\n      0xffffffffffffffffffffffffffffffffffffffff\n      and\n      dup2\n      mstore\n      0x20\n      add\n      swap1\n      dup2\n      mstore\n      0x20\n      add\n      0x00\n      keccak256\n        /* \"ERC20stake&reward_flat.sol\":13546:13573  _allowances[owner][spender] */\n      0x00\n        /* \"ERC20stake&reward_flat.sol\":13565:13572  spender */\n      dup7\n        /* \"ERC20stake&reward_flat.sol\":13546:13573  _allowances[owner][spender] */\n      0xffffffffffffffffffffffffffffffffffffffff\n      and\n      0xffffffffffffffffffffffffffffffffffffffff\n      and\n      dup2\n      mstore\n      0x20\n      add\n      swap1\n      dup2\n      mstore\n      0x20\n      add\n      0x00\n      keccak256\n      sload\n        /* \"ERC20stake&reward_flat.sol\":13519:13573  uint256 currentAllowance = _allowances[owner][spender] */\n      swap1\n      pop\n        /* \"ERC20stake&reward_flat.sol\":13611:13626  subtractedValue */\n      dup4\n        /* \"ERC20stake&reward_flat.sol\":13591:13607  currentAllowance */\n      dup2\n        /* \"ERC20stake&reward_flat.sol\":13591:13626  currentAllowance >= subtractedValue */\n      lt\n      iszero\n        /* \"ERC20stake&reward_flat.sol\":13583:13668  require(currentAllowance >= subtractedValue, \"ERC20: decreased allowance below zero\") */\n      tag_185\n      jumpi\n      mload(0x40)\n      0x08c379a000000000000000000000000000000000000000000000000000000000\n      dup2\n      mstore\n      0x04\n      add\n      tag_186\n      swap1\n      tag_187\n      jump\t// in\n    tag_186:\n      mload(0x40)\n      dup1\n      swap2\n      sub\n      swap1\n      revert\n    tag_185:\n        /* \"ERC20stake&reward_flat.sol\":13702:13762  _approve(owner, spender, currentAllowance - subtractedValue) */\n      tag_188\n        /* \"ERC20stake&reward_flat.sol\":13711:13716  owner */\n      dup3\n        /* \"ERC20stake&reward_flat.sol\":13718:13725  spender */\n      dup7\n        /* \"ERC20stake&reward_flat.sol\":13746:13761  subtractedValue */\n      dup7\n        /* \"ERC20stake&reward_flat.sol\":13727:13743  currentAllowance */\n      dup5\n        /* \"ERC20stake&reward_flat.sol\":13727:13761  currentAllowance - subtractedValue */\n      sub\n        /* \"ERC20stake&reward_flat.sol\":13702:13710  _approve */\n      tag_133\n        /* \"ERC20stake&reward_flat.sol\":13702:13762  _approve(owner, spender, currentAllowance - subtractedValue) */\n      jump\t// in\n    tag_188:\n        /* \"ERC20stake&reward_flat.sol\":13790:13794  true */\n      0x01\n        /* \"ERC20stake&reward_flat.sol\":13783:13794  return true */\n      swap3\n      pop\n      pop\n      pop\n        /* \"ERC20stake&reward_flat.sol\":13372:13801  function decreaseAllowance(address spender, uint256 subtractedValue) public virtual returns (bool) {... */\n      swap3\n      swap2\n      pop\n      pop\n      jump\t// out\n        /* \"ERC20stake&reward_flat.sol\":19565:19597  uint public numberofTokensStaked */\n    tag_98:\n      sload(0x07)\n      dup2\n      jump\t// out\n        /* \"ERC20stake&reward_flat.sol\":10505:10694  function transfer(address to, uint256 amount) public virtual override returns (bool) {... */\n    tag_102:\n        /* \"ERC20stake&reward_flat.sol\":10584:10588  bool */\n      0x00\n        /* \"ERC20stake&reward_flat.sol\":10600:10613  address owner */\n      dup1\n        /* \"ERC20stake&reward_flat.sol\":10616:10628  _msgSender() */\n      tag_190\n        /* \"ERC20stake&reward_flat.sol\":10616:10626  _msgSender */\n      tag_131\n        /* \"ERC20stake&reward_flat.sol\":10616:10628  _msgSender() */\n      jump\t// in\n    tag_190:\n        /* \"ERC20stake&reward_flat.sol\":10600:10628  address owner = _msgSender() */\n      swap1\n      pop\n        /* \"ERC20stake&reward_flat.sol\":10638:10666  _transfer(owner, to, amount) */\n      tag_191\n        /* \"ERC20stake&reward_flat.sol\":10648:10653  owner */\n      dup2\n        /* \"ERC20stake&reward_flat.sol\":10655:10657  to */\n      dup6\n        /* \"ERC20stake&reward_flat.sol\":10659:10665  amount */\n      dup6\n        /* \"ERC20stake&reward_flat.sol\":10638:10647  _transfer */\n      tag_145\n        /* \"ERC20stake&reward_flat.sol\":10638:10666  _transfer(owner, to, amount) */\n      jump\t// in\n    tag_191:\n        /* \"ERC20stake&reward_flat.sol\":10683:10687  true */\n      0x01\n        /* \"ERC20stake&reward_flat.sol\":10676:10687  return true */\n      swap2\n      pop\n      pop\n        /* \"ERC20stake&reward_flat.sol\":10505:10694  function transfer(address to, uint256 amount) public virtual override returns (bool) {... */\n      swap3\n      swap2\n      pop\n      pop\n      jump\t// out\n        /* \"ERC20stake&reward_flat.sol\":19603:19645  mapping (address => bool) public hasStaked */\n    tag_106:\n      mstore(0x20, 0x08)\n      dup1\n      0x00\n      mstore\n      keccak256(0x00, 0x40)\n      0x00\n      swap2\n      pop\n      sload\n      swap1\n      0x0100\n      exp\n      swap1\n      div\n      0xff\n      and\n      dup2\n      jump\t// out\n        /* \"ERC20stake&reward_flat.sol\":19523:19559  uint public tokenBuyPrice = 1*10**17 */\n    tag_109:\n      sload(0x06)\n      dup2\n      jump\t// out\n        /* \"ERC20stake&reward_flat.sol\":10752:10901  function allowance(address owner, address spender) public view virtual override returns (uint256) {... */\n    tag_114:\n        /* \"ERC20stake&reward_flat.sol\":10841:10848  uint256 */\n      0x00\n        /* \"ERC20stake&reward_flat.sol\":10867:10878  _allowances */\n      0x01\n        /* \"ERC20stake&reward_flat.sol\":10867:10885  _allowances[owner] */\n      0x00\n        /* \"ERC20stake&reward_flat.sol\":10879:10884  owner */\n      dup5\n        /* \"ERC20stake&reward_flat.sol\":10867:10885  _allowances[owner] */\n      0xffffffffffffffffffffffffffffffffffffffff\n      and\n      0xffffffffffffffffffffffffffffffffffffffff\n      and\n      dup2\n      mstore\n      0x20\n      add\n      swap1\n      dup2\n      mstore\n      0x20\n      add\n      0x00\n      keccak256\n        /* \"ERC20stake&reward_flat.sol\":10867:10894  _allowances[owner][spender] */\n      0x00\n        /* \"ERC20stake&reward_flat.sol\":10886:10893  spender */\n      dup4\n        /* \"ERC20stake&reward_flat.sol\":10867:10894  _allowances[owner][spender] */\n      0xffffffffffffffffffffffffffffffffffffffff\n      and\n      0xffffffffffffffffffffffffffffffffffffffff\n      and\n      dup2\n      mstore\n      0x20\n      add\n      swap1\n      dup2\n      mstore\n      0x20\n      add\n      0x00\n      keccak256\n      sload\n        /* \"ERC20stake&reward_flat.sol\":10860:10894  return _allowances[owner][spender] */\n      swap1\n      pop\n        /* \"ERC20stake&reward_flat.sol\":10752:10901  function allowance(address owner, address spender) public view virtual override returns (uint256) {... */\n      swap3\n      swap2\n      pop\n      pop\n      jump\t// out\n        /* \"ERC20stake&reward_flat.sol\":2806:3004  function transferOwnership(address newOwner) public virtual onlyOwner {... */\n    tag_118:\n        /* \"ERC20stake&reward_flat.sol\":2147:2159  _msgSender() */\n      tag_194\n        /* \"ERC20stake&reward_flat.sol\":2147:2157  _msgSender */\n      tag_131\n        /* \"ERC20stake&reward_flat.sol\":2147:2159  _msgSender() */\n      jump\t// in\n    tag_194:\n        /* \"ERC20stake&reward_flat.sol\":2136:2159  owner() == _msgSender() */\n      0xffffffffffffffffffffffffffffffffffffffff\n      and\n        /* \"ERC20stake&reward_flat.sol\":2136:2143  owner() */\n      tag_195\n        /* \"ERC20stake&reward_flat.sol\":2136:2141  owner */\n      tag_83\n        /* \"ERC20stake&reward_flat.sol\":2136:2143  owner() */\n      jump\t// in\n    tag_195:\n        /* \"ERC20stake&reward_flat.sol\":2136:2159  owner() == _msgSender() */\n      0xffffffffffffffffffffffffffffffffffffffff\n      and\n      eq\n        /* \"ERC20stake&reward_flat.sol\":2128:2196  require(owner() == _msgSender(), \"Ownable: caller is not the owner\") */\n      tag_196\n      jumpi\n      mload(0x40)\n      0x08c379a000000000000000000000000000000000000000000000000000000000\n      dup2\n      mstore\n      0x04\n      add\n      tag_197\n      swap1\n      tag_161\n      jump\t// in\n    tag_197:\n      mload(0x40)\n      dup1\n      swap2\n      sub\n      swap1\n      revert\n    tag_196:\n        /* \"ERC20stake&reward_flat.sol\":2914:2915  0 */\n      0x00\n        /* \"ERC20stake&reward_flat.sol\":2894:2916  newOwner != address(0) */\n      0xffffffffffffffffffffffffffffffffffffffff\n      and\n        /* \"ERC20stake&reward_flat.sol\":2894:2902  newOwner */\n      dup2\n        /* \"ERC20stake&reward_flat.sol\":2894:2916  newOwner != address(0) */\n      0xffffffffffffffffffffffffffffffffffffffff\n      and\n      eq\n      iszero\n        /* \"ERC20stake&reward_flat.sol\":2886:2959  require(newOwner != address(0), \"Ownable: new owner is the zero address\") */\n      tag_199\n      jumpi\n      mload(0x40)\n      0x08c379a000000000000000000000000000000000000000000000000000000000\n      dup2\n      mstore\n      0x04\n      add\n      tag_200\n      swap1\n      tag_201\n      jump\t// in\n    tag_200:\n      mload(0x40)\n      dup1\n      swap2\n      sub\n      swap1\n      revert\n    tag_199:\n        /* \"ERC20stake&reward_flat.sol\":2969:2997  _transferOwnership(newOwner) */\n      tag_202\n        /* \"ERC20stake&reward_flat.sol\":2988:2996  newOwner */\n      dup2\n        /* \"ERC20stake&reward_flat.sol\":2969:2987  _transferOwnership */\n      tag_173\n        /* \"ERC20stake&reward_flat.sol\":2969:2997  _transferOwnership(newOwner) */\n      jump\t// in\n    tag_202:\n        /* \"ERC20stake&reward_flat.sol\":2806:3004  function transferOwnership(address newOwner) public virtual onlyOwner {... */\n      pop\n      jump\t// out\n        /* \"ERC20stake&reward_flat.sol\":20339:20682  function stakeToken (address staker, uint amount) public {... */\n    tag_121:\n        /* \"ERC20stake&reward_flat.sol\":20458:20502  transferFrom (staker, address(this), amount) */\n      tag_204\n        /* \"ERC20stake&reward_flat.sol\":20472:20478  staker */\n      dup3\n        /* \"ERC20stake&reward_flat.sol\":20488:20492  this */\n      address\n        /* \"ERC20stake&reward_flat.sol\":20495:20501  amount */\n      dup4\n        /* \"ERC20stake&reward_flat.sol\":20458:20470  transferFrom */\n      tag_56\n        /* \"ERC20stake&reward_flat.sol\":20458:20502  transferFrom (staker, address(this), amount) */\n      jump\t// in\n    tag_204:\n      pop\n        /* \"ERC20stake&reward_flat.sol\":20532:20536  true */\n      0x01\n        /* \"ERC20stake&reward_flat.sol\":20512:20521  hasStaked */\n      0x08\n        /* \"ERC20stake&reward_flat.sol\":20512:20529  hasStaked[staker] */\n      0x00\n        /* \"ERC20stake&reward_flat.sol\":20522:20528  staker */\n      dup5\n        /* \"ERC20stake&reward_flat.sol\":20512:20529  hasStaked[staker] */\n      0xffffffffffffffffffffffffffffffffffffffff\n      and\n      0xffffffffffffffffffffffffffffffffffffffff\n      and\n      dup2\n      mstore\n      0x20\n      add\n      swap1\n      dup2\n      mstore\n      0x20\n      add\n      0x00\n      keccak256\n      0x00\n        /* \"ERC20stake&reward_flat.sol\":20512:20536  hasStaked[staker] = true */\n      0x0100\n      exp\n      dup2\n      sload\n      dup2\n      0xff\n      mul\n      not\n      and\n      swap1\n      dup4\n      iszero\n      iszero\n      mul\n      or\n      swap1\n      sstore\n      pop\n        /* \"ERC20stake&reward_flat.sol\":20546:20559  vintageTokens */\n      0x0b\n        /* \"ERC20stake&reward_flat.sol\":20566:20622  stakedToken(msg.sender, staker, amount, block.timestamp) */\n      mload(0x40)\n      dup1\n      0x80\n      add\n      0x40\n      mstore\n      dup1\n        /* \"ERC20stake&reward_flat.sol\":20578:20588  msg.sender */\n      caller\n        /* \"ERC20stake&reward_flat.sol\":20566:20622  stakedToken(msg.sender, staker, amount, block.timestamp) */\n      0xffffffffffffffffffffffffffffffffffffffff\n      and\n      dup2\n      mstore\n      0x20\n      add\n        /* \"ERC20stake&reward_flat.sol\":20590:20596  staker */\n      dup5\n        /* \"ERC20stake&reward_flat.sol\":20566:20622  stakedToken(msg.sender, staker, amount, block.timestamp) */\n      0xffffffffffffffffffffffffffffffffffffffff\n      and\n      dup2\n      mstore\n      0x20\n      add\n        /* \"ERC20stake&reward_flat.sol\":20598:20604  amount */\n      dup4\n        /* \"ERC20stake&reward_flat.sol\":20566:20622  stakedToken(msg.sender, staker, amount, block.timestamp) */\n      dup2\n      mstore\n      0x20\n      add\n        /* \"ERC20stake&reward_flat.sol\":20606:20621  block.timestamp */\n      timestamp\n        /* \"ERC20stake&reward_flat.sol\":20566:20622  stakedToken(msg.sender, staker, amount, block.timestamp) */\n      dup2\n      mstore\n      pop\n        /* \"ERC20stake&reward_flat.sol\":20546:20623  vintageTokens.push (stakedToken(msg.sender, staker, amount, block.timestamp)) */\n      swap1\n      dup1\n      0x01\n      dup2\n      sload\n      add\n      dup1\n      dup3\n      sstore\n      dup1\n      swap2\n      pop\n      pop\n      0x01\n      swap1\n      sub\n      swap1\n      0x00\n      mstore\n      keccak256(0x00, 0x20)\n      swap1\n      0x04\n      mul\n      add\n      0x00\n      swap1\n      swap2\n      swap1\n      swap2\n      swap1\n      swap2\n      pop\n      0x00\n      dup3\n      add\n      mload\n      dup2\n      0x00\n      add\n      exp(0x0100, 0x00)\n      dup2\n      sload\n      dup2\n      0xffffffffffffffffffffffffffffffffffffffff\n      mul\n      not\n      and\n      swap1\n      dup4\n      0xffffffffffffffffffffffffffffffffffffffff\n      and\n      mul\n      or\n      swap1\n      sstore\n      pop\n      0x20\n      dup3\n      add\n      mload\n      dup2\n      0x01\n      add\n      exp(0x0100, 0x00)\n      dup2\n      sload\n      dup2\n      0xffffffffffffffffffffffffffffffffffffffff\n      mul\n      not\n      and\n      swap1\n      dup4\n      0xffffffffffffffffffffffffffffffffffffffff\n      and\n      mul\n      or\n      swap1\n      sstore\n      pop\n      0x40\n      dup3\n      add\n      mload\n      dup2\n      0x02\n      add\n      sstore\n      0x60\n      dup3\n      add\n      mload\n      dup2\n      0x03\n      add\n      sstore\n      pop\n      pop\n        /* \"ERC20stake&reward_flat.sol\":20660:20666  staker */\n      dup2\n        /* \"ERC20stake&reward_flat.sol\":20638:20675  Transfer (msg.sender, staker, amount) */\n      0xffffffffffffffffffffffffffffffffffffffff\n      and\n        /* \"ERC20stake&reward_flat.sol\":20648:20658  msg.sender */\n      caller\n        /* \"ERC20stake&reward_flat.sol\":20638:20675  Transfer (msg.sender, staker, amount) */\n      0xffffffffffffffffffffffffffffffffffffffff\n      and\n      0xddf252ad1be2c89b69c2b068fc378daa952ba7f163c4a11628f55a4df523b3ef\n        /* \"ERC20stake&reward_flat.sol\":20668:20674  amount */\n      dup4\n        /* \"ERC20stake&reward_flat.sol\":20638:20675  Transfer (msg.sender, staker, amount) */\n      mload(0x40)\n      tag_206\n      swap2\n      swap1\n      tag_39\n      jump\t// in\n    tag_206:\n      mload(0x40)\n      dup1\n      swap2\n      sub\n      swap1\n      log3\n        /* \"ERC20stake&reward_flat.sol\":20339:20682  function stakeToken (address staker, uint amount) public {... */\n      pop\n      pop\n      jump\t// out\n        /* \"ERC20stake&reward_flat.sol\":692:788  function _msgSender() internal view virtual returns (address) {... */\n    tag_131:\n        /* \"ERC20stake&reward_flat.sol\":745:752  address */\n      0x00\n        /* \"ERC20stake&reward_flat.sol\":771:781  msg.sender */\n      caller\n        /* \"ERC20stake&reward_flat.sol\":764:781  return msg.sender */\n      swap1\n      pop\n        /* \"ERC20stake&reward_flat.sol\":692:788  function _msgSender() internal view virtual returns (address) {... */\n      swap1\n      jump\t// out\n        /* \"ERC20stake&reward_flat.sol\":16899:17269  function _approve(... */\n    tag_133:\n        /* \"ERC20stake&reward_flat.sol\":17047:17048  0 */\n      0x00\n        /* \"ERC20stake&reward_flat.sol\":17030:17049  owner != address(0) */\n      0xffffffffffffffffffffffffffffffffffffffff\n      and\n        /* \"ERC20stake&reward_flat.sol\":17030:17035  owner */\n      dup4\n        /* \"ERC20stake&reward_flat.sol\":17030:17049  owner != address(0) */\n      0xffffffffffffffffffffffffffffffffffffffff\n      and\n      eq\n      iszero\n        /* \"ERC20stake&reward_flat.sol\":17022:17090  require(owner != address(0), \"ERC20: approve from the zero address\") */\n      tag_209\n      jumpi\n      mload(0x40)\n      0x08c379a000000000000000000000000000000000000000000000000000000000\n      dup2\n      mstore\n      0x04\n      add\n      tag_210\n      swap1\n      tag_211\n      jump\t// in\n    tag_210:\n      mload(0x40)\n      dup1\n      swap2\n      sub\n      swap1\n      revert\n    tag_209:\n        /* \"ERC20stake&reward_flat.sol\":17127:17128  0 */\n      0x00\n        /* \"ERC20stake&reward_flat.sol\":17108:17129  spender != address(0) */\n      0xffffffffffffffffffffffffffffffffffffffff\n      and\n        /* \"ERC20stake&reward_flat.sol\":17108:17115  spender */\n      dup3\n        /* \"ERC20stake&reward_flat.sol\":17108:17129  spender != address(0) */\n      0xffffffffffffffffffffffffffffffffffffffff\n      and\n      eq\n      iszero\n        /* \"ERC20stake&reward_flat.sol\":17100:17168  require(spender != address(0), \"ERC20: approve to the zero address\") */\n      tag_212\n      jumpi\n      mload(0x40)\n      0x08c379a000000000000000000000000000000000000000000000000000000000\n      dup2\n      mstore\n      0x04\n      add\n      tag_213\n      swap1\n      tag_214\n      jump\t// in\n    tag_213:\n      mload(0x40)\n      dup1\n      swap2\n      sub\n      swap1\n      revert\n    tag_212:\n        /* \"ERC20stake&reward_flat.sol\":17209:17215  amount */\n      dup1\n        /* \"ERC20stake&reward_flat.sol\":17179:17190  _allowances */\n      0x01\n        /* \"ERC20stake&reward_flat.sol\":17179:17197  _allowances[owner] */\n      0x00\n        /* \"ERC20stake&reward_flat.sol\":17191:17196  owner */\n      dup6\n        /* \"ERC20stake&reward_flat.sol\":17179:17197  _allowances[owner] */\n      0xffffffffffffffffffffffffffffffffffffffff\n      and\n      0xffffffffffffffffffffffffffffffffffffffff\n      and\n      dup2\n      mstore\n      0x20\n      add\n      swap1\n      dup2\n      mstore\n      0x20\n      add\n      0x00\n      keccak256\n        /* \"ERC20stake&reward_flat.sol\":17179:17206  _allowances[owner][spender] */\n      0x00\n        /* \"ERC20stake&reward_flat.sol\":17198:17205  spender */\n      dup5\n        /* \"ERC20stake&reward_flat.sol\":17179:17206  _allowances[owner][spender] */\n      0xffffffffffffffffffffffffffffffffffffffff\n      and\n      0xffffffffffffffffffffffffffffffffffffffff\n      and\n      dup2\n      mstore\n      0x20\n      add\n      swap1\n      dup2\n      mstore\n      0x20\n      add\n      0x00\n      keccak256\n        /* \"ERC20stake&reward_flat.sol\":17179:17215  _allowances[owner][spender] = amount */\n      dup2\n      swap1\n      sstore\n      pop\n        /* \"ERC20stake&reward_flat.sol\":17246:17253  spender */\n      dup2\n        /* \"ERC20stake&reward_flat.sol\":17230:17262  Approval(owner, spender, amount) */\n      0xffffffffffffffffffffffffffffffffffffffff\n      and\n        /* \"ERC20stake&reward_flat.sol\":17239:17244  owner */\n      dup4\n        /* \"ERC20stake&reward_flat.sol\":17230:17262  Approval(owner, spender, amount) */\n      0xffffffffffffffffffffffffffffffffffffffff\n      and\n      0x8c5be1e5ebec7d5bd14f71427d1e84f3dd0314c0f7b2291e5b200ac8c7c3b925\n        /* \"ERC20stake&reward_flat.sol\":17255:17261  amount */\n      dup4\n        /* \"ERC20stake&reward_flat.sol\":17230:17262  Approval(owner, spender, amount) */\n      mload(0x40)\n      tag_215\n      swap2\n      swap1\n      tag_39\n      jump\t// in\n    tag_215:\n      mload(0x40)\n      dup1\n      swap2\n      sub\n      swap1\n      log3\n        /* \"ERC20stake&reward_flat.sol\":16899:17269  function _approve(... */\n      pop\n      pop\n      pop\n      jump\t// out\n        /* \"ERC20stake&reward_flat.sol\":17546:17987  function _spendAllowance(... */\n    tag_143:\n        /* \"ERC20stake&reward_flat.sol\":17676:17700  uint256 currentAllowance */\n      0x00\n        /* \"ERC20stake&reward_flat.sol\":17703:17728  allowance(owner, spender) */\n      tag_217\n        /* \"ERC20stake&reward_flat.sol\":17713:17718  owner */\n      dup5\n        /* \"ERC20stake&reward_flat.sol\":17720:17727  spender */\n      dup5\n        /* \"ERC20stake&reward_flat.sol\":17703:17712  allowance */\n      tag_114\n        /* \"ERC20stake&reward_flat.sol\":17703:17728  allowance(owner, spender) */\n      jump\t// in\n    tag_217:\n        /* \"ERC20stake&reward_flat.sol\":17676:17728  uint256 currentAllowance = allowance(owner, spender) */\n      swap1\n      pop\n        /* \"ERC20stake&reward_flat.sol\":17762:17779  type(uint256).max */\n      0xffffffffffffffffffffffffffffffffffffffffffffffffffffffffffffffff\n        /* \"ERC20stake&reward_flat.sol\":17742:17758  currentAllowance */\n      dup2\n        /* \"ERC20stake&reward_flat.sol\":17742:17779  currentAllowance != type(uint256).max */\n      eq\n        /* \"ERC20stake&reward_flat.sol\":17738:17981  if (currentAllowance != type(uint256).max) {... */\n      tag_218\n      jumpi\n        /* \"ERC20stake&reward_flat.sol\":17823:17829  amount */\n      dup2\n        /* \"ERC20stake&reward_flat.sol\":17803:17819  currentAllowance */\n      dup2\n        /* \"ERC20stake&reward_flat.sol\":17803:17829  currentAllowance >= amount */\n      lt\n      iszero\n        /* \"ERC20stake&reward_flat.sol\":17795:17863  require(currentAllowance >= amount, \"ERC20: insufficient allowance\") */\n      tag_219\n      jumpi\n      mload(0x40)\n      0x08c379a000000000000000000000000000000000000000000000000000000000\n      dup2\n      mstore\n      0x04\n      add\n      tag_220\n      swap1\n      tag_221\n      jump\t// in\n    tag_220:\n      mload(0x40)\n      dup1\n      swap2\n      sub\n      swap1\n      revert\n    tag_219:\n        /* \"ERC20stake&reward_flat.sol\":17905:17956  _approve(owner, spender, currentAllowance - amount) */\n      tag_222\n        /* \"ERC20stake&reward_flat.sol\":17914:17919  owner */\n      dup5\n        /* \"ERC20stake&reward_flat.sol\":17921:17928  spender */\n      dup5\n        /* \"ERC20stake&reward_flat.sol\":17949:17955  amount */\n      dup5\n        /* \"ERC20stake&reward_flat.sol\":17930:17946  currentAllowance */\n      dup5\n        /* \"ERC20stake&reward_flat.sol\":17930:17955  currentAllowance - amount */\n      sub\n        /* \"ERC20stake&reward_flat.sol\":17905:17913  _approve */\n      tag_133\n        /* \"ERC20stake&reward_flat.sol\":17905:17956  _approve(owner, spender, currentAllowance - amount) */\n      jump\t// in\n    tag_222:\n        /* \"ERC20stake&reward_flat.sol\":17738:17981  if (currentAllowance != type(uint256).max) {... */\n    tag_218:\n        /* \"ERC20stake&reward_flat.sol\":17666:17987  {... */\n      pop\n        /* \"ERC20stake&reward_flat.sol\":17546:17987  function _spendAllowance(... */\n      pop\n      pop\n      pop\n      jump\t// out\n        /* \"ERC20stake&reward_flat.sol\":14264:14915  function _transfer(... */\n    tag_145:\n        /* \"ERC20stake&reward_flat.sol\":14406:14407  0 */\n      0x00\n        /* \"ERC20stake&reward_flat.sol\":14390:14408  from != address(0) */\n      0xffffffffffffffffffffffffffffffffffffffff\n      and\n        /* \"ERC20stake&reward_flat.sol\":14390:14394  from */\n      dup4\n        /* \"ERC20stake&reward_flat.sol\":14390:14408  from != address(0) */\n      0xffffffffffffffffffffffffffffffffffffffff\n      and\n      eq\n      iszero\n        /* \"ERC20stake&reward_flat.sol\":14382:14450  require(from != address(0), \"ERC20: transfer from the zero address\") */\n      tag_224\n      jumpi\n      mload(0x40)\n      0x08c379a000000000000000000000000000000000000000000000000000000000\n      dup2\n      mstore\n      0x04\n      add\n      tag_225\n      swap1\n      tag_226\n      jump\t// in\n    tag_225:\n      mload(0x40)\n      dup1\n      swap2\n      sub\n      swap1\n      revert\n    tag_224:\n        /* \"ERC20stake&reward_flat.sol\":14482:14483  0 */\n      0x00\n        /* \"ERC20stake&reward_flat.sol\":14468:14484  to != address(0) */\n      0xffffffffffffffffffffffffffffffffffffffff\n      and\n        /* \"ERC20stake&reward_flat.sol\":14468:14470  to */\n      dup3\n        /* \"ERC20stake&reward_flat.sol\":14468:14484  to != address(0) */\n      0xffffffffffffffffffffffffffffffffffffffff\n      and\n      eq\n      iszero\n        /* \"ERC20stake&reward_flat.sol\":14460:14524  require(to != address(0), \"ERC20: transfer to the zero address\") */\n      tag_227\n      jumpi\n      mload(0x40)\n      0x08c379a000000000000000000000000000000000000000000000000000000000\n      dup2\n      mstore\n      0x04\n      add\n      tag_228\n      swap1\n      tag_229\n      jump\t// in\n    tag_228:\n      mload(0x40)\n      dup1\n      swap2\n      sub\n      swap1\n      revert\n    tag_227:\n        /* \"ERC20stake&reward_flat.sol\":14535:14573  _beforeTokenTransfer(from, to, amount) */\n      tag_230\n        /* \"ERC20stake&reward_flat.sol\":14556:14560  from */\n      dup4\n        /* \"ERC20stake&reward_flat.sol\":14562:14564  to */\n      dup4\n        /* \"ERC20stake&reward_flat.sol\":14566:14572  amount */\n      dup4\n        /* \"ERC20stake&reward_flat.sol\":14535:14555  _beforeTokenTransfer */\n      tag_231\n        /* \"ERC20stake&reward_flat.sol\":14535:14573  _beforeTokenTransfer(from, to, amount) */\n      jump\t// in\n    tag_230:\n        /* \"ERC20stake&reward_flat.sol\":14584:14603  uint256 fromBalance */\n      0x00\n        /* \"ERC20stake&reward_flat.sol\":14606:14615  _balances */\n      dup1\n        /* \"ERC20stake&reward_flat.sol\":14606:14621  _balances[from] */\n      0x00\n        /* \"ERC20stake&reward_flat.sol\":14616:14620  from */\n      dup6\n        /* \"ERC20stake&reward_flat.sol\":14606:14621  _balances[from] */\n      0xffffffffffffffffffffffffffffffffffffffff\n      and\n      0xffffffffffffffffffffffffffffffffffffffff\n      and\n      dup2\n      mstore\n      0x20\n      add\n      swap1\n      dup2\n      mstore\n      0x20\n      add\n      0x00\n      keccak256\n      sload\n        /* \"ERC20stake&reward_flat.sol\":14584:14621  uint256 fromBalance = _balances[from] */\n      swap1\n      pop\n        /* \"ERC20stake&reward_flat.sol\":14654:14660  amount */\n      dup2\n        /* \"ERC20stake&reward_flat.sol\":14639:14650  fromBalance */\n      dup2\n        /* \"ERC20stake&reward_flat.sol\":14639:14660  fromBalance >= amount */\n      lt\n      iszero\n        /* \"ERC20stake&reward_flat.sol\":14631:14703  require(fromBalance >= amount, \"ERC20: transfer amount exceeds balance\") */\n      tag_232\n      jumpi\n      mload(0x40)\n      0x08c379a000000000000000000000000000000000000000000000000000000000\n      dup2\n      mstore\n      0x04\n      add\n      tag_233\n      swap1\n      tag_234\n      jump\t// in\n    tag_233:\n      mload(0x40)\n      dup1\n      swap2\n      sub\n      swap1\n      revert\n    tag_232:\n        /* \"ERC20stake&reward_flat.sol\":14769:14775  amount */\n      dup2\n        /* \"ERC20stake&reward_flat.sol\":14755:14766  fromBalance */\n      dup2\n        /* \"ERC20stake&reward_flat.sol\":14755:14775  fromBalance - amount */\n      sub\n        /* \"ERC20stake&reward_flat.sol\":14737:14746  _balances */\n      0x00\n        /* \"ERC20stake&reward_flat.sol\":14737:14752  _balances[from] */\n      dup1\n        /* \"ERC20stake&reward_flat.sol\":14747:14751  from */\n      dup7\n        /* \"ERC20stake&reward_flat.sol\":14737:14752  _balances[from] */\n      0xffffffffffffffffffffffffffffffffffffffff\n      and\n      0xffffffffffffffffffffffffffffffffffffffff\n      and\n      dup2\n      mstore\n      0x20\n      add\n      swap1\n      dup2\n      mstore\n      0x20\n      add\n      0x00\n      keccak256\n        /* \"ERC20stake&reward_flat.sol\":14737:14775  _balances[from] = fromBalance - amount */\n      dup2\n      swap1\n      sstore\n      pop\n        /* \"ERC20stake&reward_flat.sol\":14812:14818  amount */\n      dup2\n        /* \"ERC20stake&reward_flat.sol\":14795:14804  _balances */\n      0x00\n        /* \"ERC20stake&reward_flat.sol\":14795:14808  _balances[to] */\n      dup1\n        /* \"ERC20stake&reward_flat.sol\":14805:14807  to */\n      dup6\n        /* \"ERC20stake&reward_flat.sol\":14795:14808  _balances[to] */\n      0xffffffffffffffffffffffffffffffffffffffff\n      and\n      0xffffffffffffffffffffffffffffffffffffffff\n      and\n      dup2\n      mstore\n      0x20\n      add\n      swap1\n      dup2\n      mstore\n      0x20\n      add\n      0x00\n      keccak256\n      0x00\n        /* \"ERC20stake&reward_flat.sol\":14795:14818  _balances[to] += amount */\n      dup3\n      dup3\n      sload\n      tag_235\n      swap2\n      swap1\n      tag_155\n      jump\t// in\n    tag_235:\n      swap3\n      pop\n      pop\n      dup2\n      swap1\n      sstore\n      pop\n        /* \"ERC20stake&reward_flat.sol\":14849:14851  to */\n      dup3\n        /* \"ERC20stake&reward_flat.sol\":14834:14860  Transfer(from, to, amount) */\n      0xffffffffffffffffffffffffffffffffffffffff\n      and\n        /* \"ERC20stake&reward_flat.sol\":14843:14847  from */\n      dup5\n        /* \"ERC20stake&reward_flat.sol\":14834:14860  Transfer(from, to, amount) */\n      0xffffffffffffffffffffffffffffffffffffffff\n      and\n      0xddf252ad1be2c89b69c2b068fc378daa952ba7f163c4a11628f55a4df523b3ef\n        /* \"ERC20stake&reward_flat.sol\":14853:14859  amount */\n      dup5\n        /* \"ERC20stake&reward_flat.sol\":14834:14860  Transfer(from, to, amount) */\n      mload(0x40)\n      tag_236\n      swap2\n      swap1\n      tag_39\n      jump\t// in\n    tag_236:\n      mload(0x40)\n      dup1\n      swap2\n      sub\n      swap1\n      log3\n        /* \"ERC20stake&reward_flat.sol\":14871:14908  _afterTokenTransfer(from, to, amount) */\n      tag_237\n        /* \"ERC20stake&reward_flat.sol\":14891:14895  from */\n      dup5\n        /* \"ERC20stake&reward_flat.sol\":14897:14899  to */\n      dup5\n        /* \"ERC20stake&reward_flat.sol\":14901:14907  amount */\n      dup5\n        /* \"ERC20stake&reward_flat.sol\":14871:14890  _afterTokenTransfer */\n      tag_238\n        /* \"ERC20stake&reward_flat.sol\":14871:14908  _afterTokenTransfer(from, to, amount) */\n      jump\t// in\n    tag_237:\n        /* \"ERC20stake&reward_flat.sol\":14372:14915  {... */\n      pop\n        /* \"ERC20stake&reward_flat.sol\":14264:14915  function _transfer(... */\n      pop\n      pop\n      pop\n      jump\t// out\n        /* \"ERC20stake&reward_flat.sol\":15191:15580  function _mint(address account, uint256 amount) internal virtual {... */\n    tag_164:\n        /* \"ERC20stake&reward_flat.sol\":15293:15294  0 */\n      0x00\n        /* \"ERC20stake&reward_flat.sol\":15274:15295  account != address(0) */\n      0xffffffffffffffffffffffffffffffffffffffff\n      and\n        /* \"ERC20stake&reward_flat.sol\":15274:15281  account */\n      dup3\n        /* \"ERC20stake&reward_flat.sol\":15274:15295  account != address(0) */\n      0xffffffffffffffffffffffffffffffffffffffff\n      and\n      eq\n      iszero\n        /* \"ERC20stake&reward_flat.sol\":15266:15331  require(account != address(0), \"ERC20: mint to the zero address\") */\n      tag_240\n      jumpi\n      mload(0x40)\n      0x08c379a000000000000000000000000000000000000000000000000000000000\n      dup2\n      mstore\n      0x04\n      add\n      tag_241\n      swap1\n      tag_242\n      jump\t// in\n    tag_241:\n      mload(0x40)\n      dup1\n      swap2\n      sub\n      swap1\n      revert\n    tag_240:\n        /* \"ERC20stake&reward_flat.sol\":15342:15391  _beforeTokenTransfer(address(0), account, amount) */\n      tag_243\n        /* \"ERC20stake&reward_flat.sol\":15371:15372  0 */\n      0x00\n        /* \"ERC20stake&reward_flat.sol\":15375:15382  account */\n      dup4\n        /* \"ERC20stake&reward_flat.sol\":15384:15390  amount */\n      dup4\n        /* \"ERC20stake&reward_flat.sol\":15342:15362  _beforeTokenTransfer */\n      tag_231\n        /* \"ERC20stake&reward_flat.sol\":15342:15391  _beforeTokenTransfer(address(0), account, amount) */\n      jump\t// in\n    tag_243:\n        /* \"ERC20stake&reward_flat.sol\":15418:15424  amount */\n      dup1\n        /* \"ERC20stake&reward_flat.sol\":15402:15414  _totalSupply */\n      0x02\n      0x00\n        /* \"ERC20stake&reward_flat.sol\":15402:15424  _totalSupply += amount */\n      dup3\n      dup3\n      sload\n      tag_244\n      swap2\n      swap1\n      tag_155\n      jump\t// in\n    tag_244:\n      swap3\n      pop\n      pop\n      dup2\n      swap1\n      sstore\n      pop\n        /* \"ERC20stake&reward_flat.sol\":15456:15462  amount */\n      dup1\n        /* \"ERC20stake&reward_flat.sol\":15434:15443  _balances */\n      0x00\n        /* \"ERC20stake&reward_flat.sol\":15434:15452  _balances[account] */\n      dup1\n        /* \"ERC20stake&reward_flat.sol\":15444:15451  account */\n      dup5\n        /* \"ERC20stake&reward_flat.sol\":15434:15452  _balances[account] */\n      0xffffffffffffffffffffffffffffffffffffffff\n      and\n      0xffffffffffffffffffffffffffffffffffffffff\n      and\n      dup2\n      mstore\n      0x20\n      add\n      swap1\n      dup2\n      mstore\n      0x20\n      add\n      0x00\n      keccak256\n      0x00\n        /* \"ERC20stake&reward_flat.sol\":15434:15462  _balances[account] += amount */\n      dup3\n      dup3\n      sload\n      tag_245\n      swap2\n      swap1\n      tag_155\n      jump\t// in\n    tag_245:\n      swap3\n      pop\n      pop\n      dup2\n      swap1\n      sstore\n      pop\n        /* \"ERC20stake&reward_flat.sol\":15498:15505  account */\n      dup2\n        /* \"ERC20stake&reward_flat.sol\":15477:15514  Transfer(address(0), account, amount) */\n      0xffffffffffffffffffffffffffffffffffffffff\n      and\n        /* \"ERC20stake&reward_flat.sol\":15494:15495  0 */\n      0x00\n        /* \"ERC20stake&reward_flat.sol\":15477:15514  Transfer(address(0), account, amount) */\n      0xffffffffffffffffffffffffffffffffffffffff\n      and\n      0xddf252ad1be2c89b69c2b068fc378daa952ba7f163c4a11628f55a4df523b3ef\n        /* \"ERC20stake&reward_flat.sol\":15507:15513  amount */\n      dup4\n        /* \"ERC20stake&reward_flat.sol\":15477:15514  Transfer(address(0), account, amount) */\n      mload(0x40)\n      tag_246\n      swap2\n      swap1\n      tag_39\n      jump\t// in\n    tag_246:\n      mload(0x40)\n      dup1\n      swap2\n      sub\n      swap1\n      log3\n        /* \"ERC20stake&reward_flat.sol\":15525:15573  _afterTokenTransfer(address(0), account, amount) */\n      tag_247\n        /* \"ERC20stake&reward_flat.sol\":15553:15554  0 */\n      0x00\n        /* \"ERC20stake&reward_flat.sol\":15557:15564  account */\n      dup4\n        /* \"ERC20stake&reward_flat.sol\":15566:15572  amount */\n      dup4\n        /* \"ERC20stake&reward_flat.sol\":15525:15544  _afterTokenTransfer */\n      tag_238\n        /* \"ERC20stake&reward_flat.sol\":15525:15573  _afterTokenTransfer(address(0), account, amount) */\n      jump\t// in\n    tag_247:\n        /* \"ERC20stake&reward_flat.sol\":15191:15580  function _mint(address account, uint256 amount) internal virtual {... */\n      pop\n      pop\n      jump\t// out\n        /* \"ERC20stake&reward_flat.sol\":3158:3345  function _transferOwnership(address newOwner) internal virtual {... */\n    tag_173:\n        /* \"ERC20stake&reward_flat.sol\":3231:3247  address oldOwner */\n      0x00\n        /* \"ERC20stake&reward_flat.sol\":3250:3256  _owner */\n      0x05\n      0x00\n      swap1\n      sload\n      swap1\n      0x0100\n      exp\n      swap1\n      div\n      0xffffffffffffffffffffffffffffffffffffffff\n      and\n        /* \"ERC20stake&reward_flat.sol\":3231:3256  address oldOwner = _owner */\n      swap1\n      pop\n        /* \"ERC20stake&reward_flat.sol\":3275:3283  newOwner */\n      dup2\n        /* \"ERC20stake&reward_flat.sol\":3266:3272  _owner */\n      0x05\n      0x00\n        /* \"ERC20stake&reward_flat.sol\":3266:3283  _owner = newOwner */\n      0x0100\n      exp\n      dup2\n      sload\n      dup2\n      0xffffffffffffffffffffffffffffffffffffffff\n      mul\n      not\n      and\n      swap1\n      dup4\n      0xffffffffffffffffffffffffffffffffffffffff\n      and\n      mul\n      or\n      swap1\n      sstore\n      pop\n        /* \"ERC20stake&reward_flat.sol\":3329:3337  newOwner */\n      dup2\n        /* \"ERC20stake&reward_flat.sol\":3298:3338  OwnershipTransferred(oldOwner, newOwner) */\n      0xffffffffffffffffffffffffffffffffffffffff\n      and\n        /* \"ERC20stake&reward_flat.sol\":3319:3327  oldOwner */\n      dup2\n        /* \"ERC20stake&reward_flat.sol\":3298:3338  OwnershipTransferred(oldOwner, newOwner) */\n      0xffffffffffffffffffffffffffffffffffffffff\n      and\n      0x8be0079c531659141344cd1fd0a4f28419497f9722a3daafe3b4186f6b6457e0\n      mload(0x40)\n      mload(0x40)\n      dup1\n      swap2\n      sub\n      swap1\n      log3\n        /* \"ERC20stake&reward_flat.sol\":3221:3345  {... */\n      pop\n        /* \"ERC20stake&reward_flat.sol\":3158:3345  function _transferOwnership(address newOwner) internal virtual {... */\n      pop\n      jump\t// out\n        /* \"ERC20stake&reward_flat.sol\":18571:18692  function _beforeTokenTransfer(... */\n    tag_231:\n      pop\n      pop\n      pop\n      jump\t// out\n        /* \"ERC20stake&reward_flat.sol\":19280:19400  function _afterTokenTransfer(... */\n    tag_238:\n      pop\n      pop\n      pop\n      jump\t// out\n        /* \"#utility.yul\":7:146   */\n    tag_252:\n        /* \"#utility.yul\":53:58   */\n      0x00\n        /* \"#utility.yul\":91:97   */\n      dup2\n        /* \"#utility.yul\":78:98   */\n      calldataload\n        /* \"#utility.yul\":69:98   */\n      swap1\n      pop\n        /* \"#utility.yul\":107:140   */\n      tag_254\n        /* \"#utility.yul\":134:139   */\n      dup2\n        /* \"#utility.yul\":107:140   */\n      tag_255\n      jump\t// in\n    tag_254:\n        /* \"#utility.yul\":7:146   */\n      swap3\n      swap2\n      pop\n      pop\n      jump\t// out\n        /* \"#utility.yul\":152:307   */\n    tag_256:\n        /* \"#utility.yul\":206:211   */\n      0x00\n        /* \"#utility.yul\":244:250   */\n      dup2\n        /* \"#utility.yul\":231:251   */\n      calldataload\n        /* \"#utility.yul\":222:251   */\n      swap1\n      pop\n        /* \"#utility.yul\":260:301   */\n      tag_258\n        /* \"#utility.yul\":295:300   */\n      dup2\n        /* \"#utility.yul\":260:301   */\n      tag_259\n      jump\t// in\n    tag_258:\n        /* \"#utility.yul\":152:307   */\n      swap3\n      swap2\n      pop\n      pop\n      jump\t// out\n        /* \"#utility.yul\":313:452   */\n    tag_260:\n        /* \"#utility.yul\":359:364   */\n      0x00\n        /* \"#utility.yul\":397:403   */\n      dup2\n        /* \"#utility.yul\":384:404   */\n      calldataload\n        /* \"#utility.yul\":375:404   */\n      swap1\n      pop\n        /* \"#utility.yul\":413:446   */\n      tag_262\n        /* \"#utility.yul\":440:445   */\n      dup2\n        /* \"#utility.yul\":413:446   */\n      tag_263\n      jump\t// in\n    tag_262:\n        /* \"#utility.yul\":313:452   */\n      swap3\n      swap2\n      pop\n      pop\n      jump\t// out\n        /* \"#utility.yul\":458:787   */\n    tag_36:\n        /* \"#utility.yul\":517:523   */\n      0x00\n        /* \"#utility.yul\":566:568   */\n      0x20\n        /* \"#utility.yul\":554:563   */\n      dup3\n        /* \"#utility.yul\":545:552   */\n      dup5\n        /* \"#utility.yul\":541:564   */\n      sub\n        /* \"#utility.yul\":537:569   */\n      slt\n        /* \"#utility.yul\":534:653   */\n      iszero\n      tag_265\n      jumpi\n        /* \"#utility.yul\":572:651   */\n      tag_266\n      tag_267\n      jump\t// in\n    tag_266:\n        /* \"#utility.yul\":534:653   */\n    tag_265:\n        /* \"#utility.yul\":692:693   */\n      0x00\n        /* \"#utility.yul\":717:770   */\n      tag_268\n        /* \"#utility.yul\":762:769   */\n      dup5\n        /* \"#utility.yul\":753:759   */\n      dup3\n        /* \"#utility.yul\":742:751   */\n      dup6\n        /* \"#utility.yul\":738:760   */\n      add\n        /* \"#utility.yul\":717:770   */\n      tag_252\n      jump\t// in\n    tag_268:\n        /* \"#utility.yul\":707:770   */\n      swap2\n      pop\n        /* \"#utility.yul\":663:780   */\n      pop\n        /* \"#utility.yul\":458:787   */\n      swap3\n      swap2\n      pop\n      pop\n      jump\t// out\n        /* \"#utility.yul\":793:1283   */\n    tag_48:\n        /* \"#utility.yul\":869:875   */\n      0x00\n        /* \"#utility.yul\":877:883   */\n      dup1\n        /* \"#utility.yul\":926:928   */\n      0x40\n        /* \"#utility.yul\":914:923   */\n      dup4\n        /* \"#utility.yul\":905:912   */\n      dup6\n        /* \"#utility.yul\":901:924   */\n      sub\n        /* \"#utility.yul\":897:929   */\n      slt\n        /* \"#utility.yul\":894:1013   */\n      iszero\n      tag_270\n      jumpi\n        /* \"#utility.yul\":932:1011   */\n      tag_271\n      tag_267\n      jump\t// in\n    tag_271:\n        /* \"#utility.yul\":894:1013   */\n    tag_270:\n        /* \"#utility.yul\":1052:1053   */\n      0x00\n        /* \"#utility.yul\":1077:1138   */\n      tag_272\n        /* \"#utility.yul\":1130:1137   */\n      dup6\n        /* \"#utility.yul\":1121:1127   */\n      dup3\n        /* \"#utility.yul\":1110:1119   */\n      dup7\n        /* \"#utility.yul\":1106:1128   */\n      add\n        /* \"#utility.yul\":1077:1138   */\n      tag_256\n      jump\t// in\n    tag_272:\n        /* \"#utility.yul\":1067:1138   */\n      swap3\n      pop\n        /* \"#utility.yul\":1023:1148   */\n      pop\n        /* \"#utility.yul\":1187:1189   */\n      0x20\n        /* \"#utility.yul\":1213:1266   */\n      tag_273\n        /* \"#utility.yul\":1258:1265   */\n      dup6\n        /* \"#utility.yul\":1249:1255   */\n      dup3\n        /* \"#utility.yul\":1238:1247   */\n      dup7\n        /* \"#utility.yul\":1234:1256   */\n      add\n        /* \"#utility.yul\":1213:1266   */\n      tag_260\n      jump\t// in\n    tag_273:\n        /* \"#utility.yul\":1203:1266   */\n      swap2\n      pop\n        /* \"#utility.yul\":1158:1276   */\n      pop\n        /* \"#utility.yul\":793:1283   */\n      swap3\n      pop\n      swap3\n      swap1\n      pop\n      jump\t// out\n        /* \"#utility.yul\":1289:1763   */\n    tag_113:\n        /* \"#utility.yul\":1357:1363   */\n      0x00\n        /* \"#utility.yul\":1365:1371   */\n      dup1\n        /* \"#utility.yul\":1414:1416   */\n      0x40\n        /* \"#utility.yul\":1402:1411   */\n      dup4\n        /* \"#utility.yul\":1393:1400   */\n      dup6\n        /* \"#utility.yul\":1389:1412   */\n      sub\n        /* \"#utility.yul\":1385:1417   */\n      slt\n        /* \"#utility.yul\":1382:1501   */\n      iszero\n      tag_275\n      jumpi\n        /* \"#utility.yul\":1420:1499   */\n      tag_276\n      tag_267\n      jump\t// in\n    tag_276:\n        /* \"#utility.yul\":1382:1501   */\n    tag_275:\n        /* \"#utility.yul\":1540:1541   */\n      0x00\n        /* \"#utility.yul\":1565:1618   */\n      tag_277\n        /* \"#utility.yul\":1610:1617   */\n      dup6\n        /* \"#utility.yul\":1601:1607   */\n      dup3\n        /* \"#utility.yul\":1590:1599   */\n      dup7\n        /* \"#utility.yul\":1586:1608   */\n      add\n        /* \"#utility.yul\":1565:1618   */\n      tag_252\n      jump\t// in\n    tag_277:\n        /* \"#utility.yul\":1555:1618   */\n      swap3\n      pop\n        /* \"#utility.yul\":1511:1628   */\n      pop\n        /* \"#utility.yul\":1667:1669   */\n      0x20\n        /* \"#utility.yul\":1693:1746   */\n      tag_278\n        /* \"#utility.yul\":1738:1745   */\n      dup6\n        /* \"#utility.yul\":1729:1735   */\n      dup3\n        /* \"#utility.yul\":1718:1727   */\n      dup7\n        /* \"#utility.yul\":1714:1736   */\n      add\n        /* \"#utility.yul\":1693:1746   */\n      tag_252\n      jump\t// in\n    tag_278:\n        /* \"#utility.yul\":1683:1746   */\n      swap2\n      pop\n        /* \"#utility.yul\":1638:1756   */\n      pop\n        /* \"#utility.yul\":1289:1763   */\n      swap3\n      pop\n      swap3\n      swap1\n      pop\n      jump\t// out\n        /* \"#utility.yul\":1769:2388   */\n    tag_55:\n        /* \"#utility.yul\":1846:1852   */\n      0x00\n        /* \"#utility.yul\":1854:1860   */\n      dup1\n        /* \"#utility.yul\":1862:1868   */\n      0x00\n        /* \"#utility.yul\":1911:1913   */\n      0x60\n        /* \"#utility.yul\":1899:1908   */\n      dup5\n        /* \"#utility.yul\":1890:1897   */\n      dup7\n        /* \"#utility.yul\":1886:1909   */\n      sub\n        /* \"#utility.yul\":1882:1914   */\n      slt\n        /* \"#utility.yul\":1879:1998   */\n      iszero\n      tag_280\n      jumpi\n        /* \"#utility.yul\":1917:1996   */\n      tag_281\n      tag_267\n      jump\t// in\n    tag_281:\n        /* \"#utility.yul\":1879:1998   */\n    tag_280:\n        /* \"#utility.yul\":2037:2038   */\n      0x00\n        /* \"#utility.yul\":2062:2115   */\n      tag_282\n        /* \"#utility.yul\":2107:2114   */\n      dup7\n        /* \"#utility.yul\":2098:2104   */\n      dup3\n        /* \"#utility.yul\":2087:2096   */\n      dup8\n        /* \"#utility.yul\":2083:2105   */\n      add\n        /* \"#utility.yul\":2062:2115   */\n      tag_252\n      jump\t// in\n    tag_282:\n        /* \"#utility.yul\":2052:2115   */\n      swap4\n      pop\n        /* \"#utility.yul\":2008:2125   */\n      pop\n        /* \"#utility.yul\":2164:2166   */\n      0x20\n        /* \"#utility.yul\":2190:2243   */\n      tag_283\n        /* \"#utility.yul\":2235:2242   */\n      dup7\n        /* \"#utility.yul\":2226:2232   */\n      dup3\n        /* \"#utility.yul\":2215:2224   */\n      dup8\n        /* \"#utility.yul\":2211:2233   */\n      add\n        /* \"#utility.yul\":2190:2243   */\n      tag_252\n      jump\t// in\n    tag_283:\n        /* \"#utility.yul\":2180:2243   */\n      swap3\n      pop\n        /* \"#utility.yul\":2135:2253   */\n      pop\n        /* \"#utility.yul\":2292:2294   */\n      0x40\n        /* \"#utility.yul\":2318:2371   */\n      tag_284\n        /* \"#utility.yul\":2363:2370   */\n      dup7\n        /* \"#utility.yul\":2354:2360   */\n      dup3\n        /* \"#utility.yul\":2343:2352   */\n      dup8\n        /* \"#utility.yul\":2339:2361   */\n      add\n        /* \"#utility.yul\":2318:2371   */\n      tag_260\n      jump\t// in\n    tag_284:\n        /* \"#utility.yul\":2308:2371   */\n      swap2\n      pop\n        /* \"#utility.yul\":2263:2381   */\n      pop\n        /* \"#utility.yul\":1769:2388   */\n      swap3\n      pop\n      swap3\n      pop\n      swap3\n      jump\t// out\n        /* \"#utility.yul\":2394:2868   */\n    tag_42:\n        /* \"#utility.yul\":2462:2468   */\n      0x00\n        /* \"#utility.yul\":2470:2476   */\n      dup1\n        /* \"#utility.yul\":2519:2521   */\n      0x40\n        /* \"#utility.yul\":2507:2516   */\n      dup4\n        /* \"#utility.yul\":2498:2505   */\n      dup6\n        /* \"#utility.yul\":2494:2517   */\n      sub\n        /* \"#utility.yul\":2490:2522   */\n      slt\n        /* \"#utility.yul\":2487:2606   */\n      iszero\n      tag_286\n      jumpi\n        /* \"#utility.yul\":2525:2604   */\n      tag_287\n      tag_267\n      jump\t// in\n    tag_287:\n        /* \"#utility.yul\":2487:2606   */\n    tag_286:\n        /* \"#utility.yul\":2645:2646   */\n      0x00\n        /* \"#utility.yul\":2670:2723   */\n      tag_288\n        /* \"#utility.yul\":2715:2722   */\n      dup6\n        /* \"#utility.yul\":2706:2712   */\n      dup3\n        /* \"#utility.yul\":2695:2704   */\n      dup7\n        /* \"#utility.yul\":2691:2713   */\n      add\n        /* \"#utility.yul\":2670:2723   */\n      tag_252\n      jump\t// in\n    tag_288:\n        /* \"#utility.yul\":2660:2723   */\n      swap3\n      pop\n        /* \"#utility.yul\":2616:2733   */\n      pop\n        /* \"#utility.yul\":2772:2774   */\n      0x20\n        /* \"#utility.yul\":2798:2851   */\n      tag_289\n        /* \"#utility.yul\":2843:2850   */\n      dup6\n        /* \"#utility.yul\":2834:2840   */\n      dup3\n        /* \"#utility.yul\":2823:2832   */\n      dup7\n        /* \"#utility.yul\":2819:2841   */\n      add\n        /* \"#utility.yul\":2798:2851   */\n      tag_260\n      jump\t// in\n    tag_289:\n        /* \"#utility.yul\":2788:2851   */\n      swap2\n      pop\n        /* \"#utility.yul\":2743:2861   */\n      pop\n        /* \"#utility.yul\":2394:2868   */\n      swap3\n      pop\n      swap3\n      swap1\n      pop\n      jump\t// out\n        /* \"#utility.yul\":2874:3165   */\n    tag_290:\n        /* \"#utility.yul\":2999:3009   */\n      0x00\n        /* \"#utility.yul\":3020:3122   */\n      tag_292\n        /* \"#utility.yul\":3118:3121   */\n      dup4\n        /* \"#utility.yul\":3110:3116   */\n      dup4\n        /* \"#utility.yul\":3020:3122   */\n      tag_293\n      jump\t// in\n    tag_292:\n        /* \"#utility.yul\":3154:3158   */\n      0x80\n        /* \"#utility.yul\":3149:3152   */\n      dup4\n        /* \"#utility.yul\":3145:3159   */\n      add\n        /* \"#utility.yul\":3131:3159   */\n      swap1\n      pop\n        /* \"#utility.yul\":2874:3165   */\n      swap3\n      swap2\n      pop\n      pop\n      jump\t// out\n        /* \"#utility.yul\":3171:3279   */\n    tag_294:\n        /* \"#utility.yul\":3248:3272   */\n      tag_296\n        /* \"#utility.yul\":3266:3271   */\n      dup2\n        /* \"#utility.yul\":3248:3272   */\n      tag_297\n      jump\t// in\n    tag_296:\n        /* \"#utility.yul\":3243:3246   */\n      dup3\n        /* \"#utility.yul\":3236:3273   */\n      mstore\n        /* \"#utility.yul\":3171:3279   */\n      pop\n      pop\n      jump\t// out\n        /* \"#utility.yul\":3285:3403   */\n    tag_298:\n        /* \"#utility.yul\":3372:3396   */\n      tag_300\n        /* \"#utility.yul\":3390:3395   */\n      dup2\n        /* \"#utility.yul\":3372:3396   */\n      tag_297\n      jump\t// in\n    tag_300:\n        /* \"#utility.yul\":3367:3370   */\n      dup3\n        /* \"#utility.yul\":3360:3397   */\n      mstore\n        /* \"#utility.yul\":3285:3403   */\n      pop\n      pop\n      jump\t// out\n        /* \"#utility.yul\":3489:4445   */\n    tag_301:\n        /* \"#utility.yul\":3664:3667   */\n      0x00\n        /* \"#utility.yul\":3693:3775   */\n      tag_303\n        /* \"#utility.yul\":3769:3774   */\n      dup3\n        /* \"#utility.yul\":3693:3775   */\n      tag_304\n      jump\t// in\n    tag_303:\n        /* \"#utility.yul\":3791:3905   */\n      tag_305\n        /* \"#utility.yul\":3898:3904   */\n      dup2\n        /* \"#utility.yul\":3893:3896   */\n      dup6\n        /* \"#utility.yul\":3791:3905   */\n      tag_306\n      jump\t// in\n    tag_305:\n        /* \"#utility.yul\":3784:3905   */\n      swap4\n      pop\n        /* \"#utility.yul\":3929:4013   */\n      tag_307\n        /* \"#utility.yul\":4007:4012   */\n      dup4\n        /* \"#utility.yul\":3929:4013   */\n      tag_308\n      jump\t// in\n    tag_307:\n        /* \"#utility.yul\":4036:4043   */\n      dup1\n        /* \"#utility.yul\":4067:4068   */\n      0x00\n        /* \"#utility.yul\":4052:4420   */\n    tag_309:\n        /* \"#utility.yul\":4077:4083   */\n      dup4\n        /* \"#utility.yul\":4074:4075   */\n      dup2\n        /* \"#utility.yul\":4071:4084   */\n      lt\n        /* \"#utility.yul\":4052:4420   */\n      iszero\n      tag_311\n      jumpi\n        /* \"#utility.yul\":4153:4159   */\n      dup2\n        /* \"#utility.yul\":4147:4160   */\n      mload\n        /* \"#utility.yul\":4180:4299   */\n      tag_312\n        /* \"#utility.yul\":4295:4298   */\n      dup9\n        /* \"#utility.yul\":4280:4293   */\n      dup3\n        /* \"#utility.yul\":4180:4299   */\n      tag_290\n      jump\t// in\n    tag_312:\n        /* \"#utility.yul\":4173:4299   */\n      swap8\n      pop\n        /* \"#utility.yul\":4322:4410   */\n      tag_313\n        /* \"#utility.yul\":4403:4409   */\n      dup4\n        /* \"#utility.yul\":4322:4410   */\n      tag_314\n      jump\t// in\n    tag_313:\n        /* \"#utility.yul\":4312:4410   */\n      swap3\n      pop\n        /* \"#utility.yul\":4112:4420   */\n      pop\n        /* \"#utility.yul\":4099:4100   */\n      0x01\n        /* \"#utility.yul\":4096:4097   */\n      dup2\n        /* \"#utility.yul\":4092:4101   */\n      add\n        /* \"#utility.yul\":4087:4101   */\n      swap1\n      pop\n        /* \"#utility.yul\":4052:4420   */\n      jump(tag_309)\n    tag_311:\n        /* \"#utility.yul\":4056:4070   */\n      pop\n        /* \"#utility.yul\":4436:4439   */\n      dup6\n        /* \"#utility.yul\":4429:4439   */\n      swap4\n      pop\n        /* \"#utility.yul\":3669:4445   */\n      pop\n      pop\n      pop\n        /* \"#utility.yul\":3489:4445   */\n      swap3\n      swap2\n      pop\n      pop\n      jump\t// out\n        /* \"#utility.yul\":4451:4560   */\n    tag_315:\n        /* \"#utility.yul\":4532:4553   */\n      tag_317\n        /* \"#utility.yul\":4547:4552   */\n      dup2\n        /* \"#utility.yul\":4532:4553   */\n      tag_318\n      jump\t// in\n    tag_317:\n        /* \"#utility.yul\":4527:4530   */\n      dup3\n        /* \"#utility.yul\":4520:4554   */\n      mstore\n        /* \"#utility.yul\":4451:4560   */\n      pop\n      pop\n      jump\t// out\n        /* \"#utility.yul\":4566:4930   */\n    tag_319:\n        /* \"#utility.yul\":4654:4657   */\n      0x00\n        /* \"#utility.yul\":4682:4721   */\n      tag_321\n        /* \"#utility.yul\":4715:4720   */\n      dup3\n        /* \"#utility.yul\":4682:4721   */\n      tag_322\n      jump\t// in\n    tag_321:\n        /* \"#utility.yul\":4737:4808   */\n      tag_323\n        /* \"#utility.yul\":4801:4807   */\n      dup2\n        /* \"#utility.yul\":4796:4799   */\n      dup6\n        /* \"#utility.yul\":4737:4808   */\n      tag_324\n      jump\t// in\n    tag_323:\n        /* \"#utility.yul\":4730:4808   */\n      swap4\n      pop\n        /* \"#utility.yul\":4817:4869   */\n      tag_325\n        /* \"#utility.yul\":4862:4868   */\n      dup2\n        /* \"#utility.yul\":4857:4860   */\n      dup6\n        /* \"#utility.yul\":4850:4854   */\n      0x20\n        /* \"#utility.yul\":4843:4848   */\n      dup7\n        /* \"#utility.yul\":4839:4855   */\n      add\n        /* \"#utility.yul\":4817:4869   */\n      tag_326\n      jump\t// in\n    tag_325:\n        /* \"#utility.yul\":4894:4923   */\n      tag_327\n        /* \"#utility.yul\":4916:4922   */\n      dup2\n        /* \"#utility.yul\":4894:4923   */\n      tag_328\n      jump\t// in\n    tag_327:\n        /* \"#utility.yul\":4889:4892   */\n      dup5\n        /* \"#utility.yul\":4885:4924   */\n      add\n        /* \"#utility.yul\":4878:4924   */\n      swap2\n      pop\n        /* \"#utility.yul\":4658:4930   */\n      pop\n        /* \"#utility.yul\":4566:4930   */\n      swap3\n      swap2\n      pop\n      pop\n      jump\t// out\n        /* \"#utility.yul\":4936:5302   */\n    tag_329:\n        /* \"#utility.yul\":5078:5081   */\n      0x00\n        /* \"#utility.yul\":5099:5166   */\n      tag_331\n        /* \"#utility.yul\":5163:5165   */\n      0x23\n        /* \"#utility.yul\":5158:5161   */\n      dup4\n        /* \"#utility.yul\":5099:5166   */\n      tag_324\n      jump\t// in\n    tag_331:\n        /* \"#utility.yul\":5092:5166   */\n      swap2\n      pop\n        /* \"#utility.yul\":5175:5268   */\n      tag_332\n        /* \"#utility.yul\":5264:5267   */\n      dup3\n        /* \"#utility.yul\":5175:5268   */\n      tag_333\n      jump\t// in\n    tag_332:\n        /* \"#utility.yul\":5293:5295   */\n      0x40\n        /* \"#utility.yul\":5288:5291   */\n      dup3\n        /* \"#utility.yul\":5284:5296   */\n      add\n        /* \"#utility.yul\":5277:5296   */\n      swap1\n      pop\n        /* \"#utility.yul\":4936:5302   */\n      swap2\n      swap1\n      pop\n      jump\t// out\n        /* \"#utility.yul\":5308:5674   */\n    tag_334:\n        /* \"#utility.yul\":5450:5453   */\n      0x00\n        /* \"#utility.yul\":5471:5538   */\n      tag_336\n        /* \"#utility.yul\":5535:5537   */\n      0x26\n        /* \"#utility.yul\":5530:5533   */\n      dup4\n        /* \"#utility.yul\":5471:5538   */\n      tag_324\n      jump\t// in\n    tag_336:\n        /* \"#utility.yul\":5464:5538   */\n      swap2\n      pop\n        /* \"#utility.yul\":5547:5640   */\n      tag_337\n        /* \"#utility.yul\":5636:5639   */\n      dup3\n        /* \"#utility.yul\":5547:5640   */\n      tag_338\n      jump\t// in\n    tag_337:\n        /* \"#utility.yul\":5665:5667   */\n      0x40\n        /* \"#utility.yul\":5660:5663   */\n      dup3\n        /* \"#utility.yul\":5656:5668   */\n      add\n        /* \"#utility.yul\":5649:5668   */\n      swap1\n      pop\n        /* \"#utility.yul\":5308:5674   */\n      swap2\n      swap1\n      pop\n      jump\t// out\n        /* \"#utility.yul\":5680:6046   */\n    tag_339:\n        /* \"#utility.yul\":5822:5825   */\n      0x00\n        /* \"#utility.yul\":5843:5910   */\n      tag_341\n        /* \"#utility.yul\":5907:5909   */\n      0x22\n        /* \"#utility.yul\":5902:5905   */\n      dup4\n        /* \"#utility.yul\":5843:5910   */\n      tag_324\n      jump\t// in\n    tag_341:\n        /* \"#utility.yul\":5836:5910   */\n      swap2\n      pop\n        /* \"#utility.yul\":5919:6012   */\n      tag_342\n        /* \"#utility.yul\":6008:6011   */\n      dup3\n        /* \"#utility.yul\":5919:6012   */\n      tag_343\n      jump\t// in\n    tag_342:\n        /* \"#utility.yul\":6037:6039   */\n      0x40\n        /* \"#utility.yul\":6032:6035   */\n      dup3\n        /* \"#utility.yul\":6028:6040   */\n      add\n        /* \"#utility.yul\":6021:6040   */\n      swap1\n      pop\n        /* \"#utility.yul\":5680:6046   */\n      swap2\n      swap1\n      pop\n      jump\t// out\n        /* \"#utility.yul\":6052:6418   */\n    tag_344:\n        /* \"#utility.yul\":6194:6197   */\n      0x00\n        /* \"#utility.yul\":6215:6282   */\n      tag_346\n        /* \"#utility.yul\":6279:6281   */\n      0x1d\n        /* \"#utility.yul\":6274:6277   */\n      dup4\n        /* \"#utility.yul\":6215:6282   */\n      tag_324\n      jump\t// in\n    tag_346:\n        /* \"#utility.yul\":6208:6282   */\n      swap2\n      pop\n        /* \"#utility.yul\":6291:6384   */\n      tag_347\n        /* \"#utility.yul\":6380:6383   */\n      dup3\n        /* \"#utility.yul\":6291:6384   */\n      tag_348\n      jump\t// in\n    tag_347:\n        /* \"#utility.yul\":6409:6411   */\n      0x20\n        /* \"#utility.yul\":6404:6407   */\n      dup3\n        /* \"#utility.yul\":6400:6412   */\n      add\n        /* \"#utility.yul\":6393:6412   */\n      swap1\n      pop\n        /* \"#utility.yul\":6052:6418   */\n      swap2\n      swap1\n      pop\n      jump\t// out\n        /* \"#utility.yul\":6424:6790   */\n    tag_349:\n        /* \"#utility.yul\":6566:6569   */\n      0x00\n        /* \"#utility.yul\":6587:6654   */\n      tag_351\n        /* \"#utility.yul\":6651:6653   */\n      0x26\n        /* \"#utility.yul\":6646:6649   */\n      dup4\n        /* \"#utility.yul\":6587:6654   */\n      tag_324\n      jump\t// in\n    tag_351:\n        /* \"#utility.yul\":6580:6654   */\n      swap2\n      pop\n        /* \"#utility.yul\":6663:6756   */\n      tag_352\n        /* \"#utility.yul\":6752:6755   */\n      dup3\n        /* \"#utility.yul\":6663:6756   */\n      tag_353\n      jump\t// in\n    tag_352:\n        /* \"#utility.yul\":6781:6783   */\n      0x40\n        /* \"#utility.yul\":6776:6779   */\n      dup3\n        /* \"#utility.yul\":6772:6784   */\n      add\n        /* \"#utility.yul\":6765:6784   */\n      swap1\n      pop\n        /* \"#utility.yul\":6424:6790   */\n      swap2\n      swap1\n      pop\n      jump\t// out\n        /* \"#utility.yul\":6796:7162   */\n    tag_354:\n        /* \"#utility.yul\":6938:6941   */\n      0x00\n        /* \"#utility.yul\":6959:7026   */\n      tag_356\n        /* \"#utility.yul\":7023:7025   */\n      0x20\n        /* \"#utility.yul\":7018:7021   */\n      dup4\n        /* \"#utility.yul\":6959:7026   */\n      tag_324\n      jump\t// in\n    tag_356:\n        /* \"#utility.yul\":6952:7026   */\n      swap2\n      pop\n        /* \"#utility.yul\":7035:7128   */\n      tag_357\n        /* \"#utility.yul\":7124:7127   */\n      dup3\n        /* \"#utility.yul\":7035:7128   */\n      tag_358\n      jump\t// in\n    tag_357:\n        /* \"#utility.yul\":7153:7155   */\n      0x20\n        /* \"#utility.yul\":7148:7151   */\n      dup3\n        /* \"#utility.yul\":7144:7156   */\n      add\n        /* \"#utility.yul\":7137:7156   */\n      swap1\n      pop\n        /* \"#utility.yul\":6796:7162   */\n      swap2\n      swap1\n      pop\n      jump\t// out\n        /* \"#utility.yul\":7168:7534   */\n    tag_359:\n        /* \"#utility.yul\":7310:7313   */\n      0x00\n        /* \"#utility.yul\":7331:7398   */\n      tag_361\n        /* \"#utility.yul\":7395:7397   */\n      0x25\n        /* \"#utility.yul\":7390:7393   */\n      dup4\n        /* \"#utility.yul\":7331:7398   */\n      tag_324\n      jump\t// in\n    tag_361:\n        /* \"#utility.yul\":7324:7398   */\n      swap2\n      pop\n        /* \"#utility.yul\":7407:7500   */\n      tag_362\n        /* \"#utility.yul\":7496:7499   */\n      dup3\n        /* \"#utility.yul\":7407:7500   */\n      tag_363\n      jump\t// in\n    tag_362:\n        /* \"#utility.yul\":7525:7527   */\n      0x40\n        /* \"#utility.yul\":7520:7523   */\n      dup3\n        /* \"#utility.yul\":7516:7528   */\n      add\n        /* \"#utility.yul\":7509:7528   */\n      swap1\n      pop\n        /* \"#utility.yul\":7168:7534   */\n      swap2\n      swap1\n      pop\n      jump\t// out\n        /* \"#utility.yul\":7540:7906   */\n    tag_364:\n        /* \"#utility.yul\":7682:7685   */\n      0x00\n        /* \"#utility.yul\":7703:7770   */\n      tag_366\n        /* \"#utility.yul\":7767:7769   */\n      0x24\n        /* \"#utility.yul\":7762:7765   */\n      dup4\n        /* \"#utility.yul\":7703:7770   */\n      tag_324\n      jump\t// in\n    tag_366:\n        /* \"#utility.yul\":7696:7770   */\n      swap2\n      pop\n        /* \"#utility.yul\":7779:7872   */\n      tag_367\n        /* \"#utility.yul\":7868:7871   */\n      dup3\n        /* \"#utility.yul\":7779:7872   */\n      tag_368\n      jump\t// in\n    tag_367:\n        /* \"#utility.yul\":7897:7899   */\n      0x40\n        /* \"#utility.yul\":7892:7895   */\n      dup3\n        /* \"#utility.yul\":7888:7900   */\n      add\n        /* \"#utility.yul\":7881:7900   */\n      swap1\n      pop\n        /* \"#utility.yul\":7540:7906   */\n      swap2\n      swap1\n      pop\n      jump\t// out\n        /* \"#utility.yul\":7912:8278   */\n    tag_369:\n        /* \"#utility.yul\":8054:8057   */\n      0x00\n        /* \"#utility.yul\":8075:8142   */\n      tag_371\n        /* \"#utility.yul\":8139:8141   */\n      0x25\n        /* \"#utility.yul\":8134:8137   */\n      dup4\n        /* \"#utility.yul\":8075:8142   */\n      tag_324\n      jump\t// in\n    tag_371:\n        /* \"#utility.yul\":8068:8142   */\n      swap2\n      pop\n        /* \"#utility.yul\":8151:8244   */\n      tag_372\n        /* \"#utility.yul\":8240:8243   */\n      dup3\n        /* \"#utility.yul\":8151:8244   */\n      tag_373\n      jump\t// in\n    tag_372:\n        /* \"#utility.yul\":8269:8271   */\n      0x40\n        /* \"#utility.yul\":8264:8267   */\n      dup3\n        /* \"#utility.yul\":8260:8272   */\n      add\n        /* \"#utility.yul\":8253:8272   */\n      swap1\n      pop\n        /* \"#utility.yul\":7912:8278   */\n      swap2\n      swap1\n      pop\n      jump\t// out\n        /* \"#utility.yul\":8284:8650   */\n    tag_374:\n        /* \"#utility.yul\":8426:8429   */\n      0x00\n        /* \"#utility.yul\":8447:8514   */\n      tag_376\n        /* \"#utility.yul\":8511:8513   */\n      0x1f\n        /* \"#utility.yul\":8506:8509   */\n      dup4\n        /* \"#utility.yul\":8447:8514   */\n      tag_324\n      jump\t// in\n    tag_376:\n        /* \"#utility.yul\":8440:8514   */\n      swap2\n      pop\n        /* \"#utility.yul\":8523:8616   */\n      tag_377\n        /* \"#utility.yul\":8612:8615   */\n      dup3\n        /* \"#utility.yul\":8523:8616   */\n      tag_378\n      jump\t// in\n    tag_377:\n        /* \"#utility.yul\":8641:8643   */\n      0x20\n        /* \"#utility.yul\":8636:8639   */\n      dup3\n        /* \"#utility.yul\":8632:8644   */\n      add\n        /* \"#utility.yul\":8625:8644   */\n      swap1\n      pop\n        /* \"#utility.yul\":8284:8650   */\n      swap2\n      swap1\n      pop\n      jump\t// out\n        /* \"#utility.yul\":8732:9593   */\n    tag_293:\n        /* \"#utility.yul\":8875:8879   */\n      0x80\n        /* \"#utility.yul\":8870:8873   */\n      dup3\n        /* \"#utility.yul\":8866:8880   */\n      add\n        /* \"#utility.yul\":8963:8967   */\n      0x00\n        /* \"#utility.yul\":8956:8961   */\n      dup3\n        /* \"#utility.yul\":8952:8968   */\n      add\n        /* \"#utility.yul\":8946:8969   */\n      mload\n        /* \"#utility.yul\":8982:9045   */\n      tag_380\n        /* \"#utility.yul\":9039:9043   */\n      0x00\n        /* \"#utility.yul\":9034:9037   */\n      dup6\n        /* \"#utility.yul\":9030:9044   */\n      add\n        /* \"#utility.yul\":9016:9028   */\n      dup3\n        /* \"#utility.yul\":8982:9045   */\n      tag_294\n      jump\t// in\n    tag_380:\n        /* \"#utility.yul\":8890:9055   */\n      pop\n        /* \"#utility.yul\":9139:9143   */\n      0x20\n        /* \"#utility.yul\":9132:9137   */\n      dup3\n        /* \"#utility.yul\":9128:9144   */\n      add\n        /* \"#utility.yul\":9122:9145   */\n      mload\n        /* \"#utility.yul\":9158:9221   */\n      tag_381\n        /* \"#utility.yul\":9215:9219   */\n      0x20\n        /* \"#utility.yul\":9210:9213   */\n      dup6\n        /* \"#utility.yul\":9206:9220   */\n      add\n        /* \"#utility.yul\":9192:9204   */\n      dup3\n        /* \"#utility.yul\":9158:9221   */\n      tag_294\n      jump\t// in\n    tag_381:\n        /* \"#utility.yul\":9065:9231   */\n      pop\n        /* \"#utility.yul\":9315:9319   */\n      0x40\n        /* \"#utility.yul\":9308:9313   */\n      dup3\n        /* \"#utility.yul\":9304:9320   */\n      add\n        /* \"#utility.yul\":9298:9321   */\n      mload\n        /* \"#utility.yul\":9334:9397   */\n      tag_382\n        /* \"#utility.yul\":9391:9395   */\n      0x40\n        /* \"#utility.yul\":9386:9389   */\n      dup6\n        /* \"#utility.yul\":9382:9396   */\n      add\n        /* \"#utility.yul\":9368:9380   */\n      dup3\n        /* \"#utility.yul\":9334:9397   */\n      tag_383\n      jump\t// in\n    tag_382:\n        /* \"#utility.yul\":9241:9407   */\n      pop\n        /* \"#utility.yul\":9494:9498   */\n      0x60\n        /* \"#utility.yul\":9487:9492   */\n      dup3\n        /* \"#utility.yul\":9483:9499   */\n      add\n        /* \"#utility.yul\":9477:9500   */\n      mload\n        /* \"#utility.yul\":9513:9576   */\n      tag_384\n        /* \"#utility.yul\":9570:9574   */\n      0x60\n        /* \"#utility.yul\":9565:9568   */\n      dup6\n        /* \"#utility.yul\":9561:9575   */\n      add\n        /* \"#utility.yul\":9547:9559   */\n      dup3\n        /* \"#utility.yul\":9513:9576   */\n      tag_383\n      jump\t// in\n    tag_384:\n        /* \"#utility.yul\":9417:9586   */\n      pop\n        /* \"#utility.yul\":8844:9593   */\n      pop\n        /* \"#utility.yul\":8732:9593   */\n      pop\n      pop\n      jump\t// out\n        /* \"#utility.yul\":9599:9707   */\n    tag_383:\n        /* \"#utility.yul\":9676:9700   */\n      tag_386\n        /* \"#utility.yul\":9694:9699   */\n      dup2\n        /* \"#utility.yul\":9676:9700   */\n      tag_387\n      jump\t// in\n    tag_386:\n        /* \"#utility.yul\":9671:9674   */\n      dup3\n        /* \"#utility.yul\":9664:9701   */\n      mstore\n        /* \"#utility.yul\":9599:9707   */\n      pop\n      pop\n      jump\t// out\n        /* \"#utility.yul\":9713:9831   */\n    tag_388:\n        /* \"#utility.yul\":9800:9824   */\n      tag_390\n        /* \"#utility.yul\":9818:9823   */\n      dup2\n        /* \"#utility.yul\":9800:9824   */\n      tag_387\n      jump\t// in\n    tag_390:\n        /* \"#utility.yul\":9795:9798   */\n      dup3\n        /* \"#utility.yul\":9788:9825   */\n      mstore\n        /* \"#utility.yul\":9713:9831   */\n      pop\n      pop\n      jump\t// out\n        /* \"#utility.yul\":9837:9949   */\n    tag_391:\n        /* \"#utility.yul\":9920:9942   */\n      tag_393\n        /* \"#utility.yul\":9936:9941   */\n      dup2\n        /* \"#utility.yul\":9920:9942   */\n      tag_394\n      jump\t// in\n    tag_393:\n        /* \"#utility.yul\":9915:9918   */\n      dup3\n        /* \"#utility.yul\":9908:9943   */\n      mstore\n        /* \"#utility.yul\":9837:9949   */\n      pop\n      pop\n      jump\t// out\n        /* \"#utility.yul\":9955:10177   */\n    tag_85:\n        /* \"#utility.yul\":10048:10052   */\n      0x00\n        /* \"#utility.yul\":10086:10088   */\n      0x20\n        /* \"#utility.yul\":10075:10084   */\n      dup3\n        /* \"#utility.yul\":10071:10089   */\n      add\n        /* \"#utility.yul\":10063:10089   */\n      swap1\n      pop\n        /* \"#utility.yul\":10099:10170   */\n      tag_396\n        /* \"#utility.yul\":10167:10168   */\n      0x00\n        /* \"#utility.yul\":10156:10165   */\n      dup4\n        /* \"#utility.yul\":10152:10169   */\n      add\n        /* \"#utility.yul\":10143:10149   */\n      dup5\n        /* \"#utility.yul\":10099:10170   */\n      tag_298\n      jump\t// in\n    tag_396:\n        /* \"#utility.yul\":9955:10177   */\n      swap3\n      swap2\n      pop\n      pop\n      jump\t// out\n        /* \"#utility.yul\":10183:10668   */\n    tag_61:\n        /* \"#utility.yul\":10382:10386   */\n      0x00\n        /* \"#utility.yul\":10420:10422   */\n      0x20\n        /* \"#utility.yul\":10409:10418   */\n      dup3\n        /* \"#utility.yul\":10405:10423   */\n      add\n        /* \"#utility.yul\":10397:10423   */\n      swap1\n      pop\n        /* \"#utility.yul\":10469:10478   */\n      dup2\n        /* \"#utility.yul\":10463:10467   */\n      dup2\n        /* \"#utility.yul\":10459:10479   */\n      sub\n        /* \"#utility.yul\":10455:10456   */\n      0x00\n        /* \"#utility.yul\":10444:10453   */\n      dup4\n        /* \"#utility.yul\":10440:10457   */\n      add\n        /* \"#utility.yul\":10433:10480   */\n      mstore\n        /* \"#utility.yul\":10497:10661   */\n      tag_398\n        /* \"#utility.yul\":10656:10660   */\n      dup2\n        /* \"#utility.yul\":10647:10653   */\n      dup5\n        /* \"#utility.yul\":10497:10661   */\n      tag_301\n      jump\t// in\n    tag_398:\n        /* \"#utility.yul\":10489:10661   */\n      swap1\n      pop\n        /* \"#utility.yul\":10183:10668   */\n      swap3\n      swap2\n      pop\n      pop\n      jump\t// out\n        /* \"#utility.yul\":10674:10884   */\n    tag_45:\n        /* \"#utility.yul\":10761:10765   */\n      0x00\n        /* \"#utility.yul\":10799:10801   */\n      0x20\n        /* \"#utility.yul\":10788:10797   */\n      dup3\n        /* \"#utility.yul\":10784:10802   */\n      add\n        /* \"#utility.yul\":10776:10802   */\n      swap1\n      pop\n        /* \"#utility.yul\":10812:10877   */\n      tag_400\n        /* \"#utility.yul\":10874:10875   */\n      0x00\n        /* \"#utility.yul\":10863:10872   */\n      dup4\n        /* \"#utility.yul\":10859:10876   */\n      add\n        /* \"#utility.yul\":10850:10856   */\n      dup5\n        /* \"#utility.yul\":10812:10877   */\n      tag_315\n      jump\t// in\n    tag_400:\n        /* \"#utility.yul\":10674:10884   */\n      swap3\n      swap2\n      pop\n      pop\n      jump\t// out\n        /* \"#utility.yul\":10890:11203   */\n    tag_33:\n        /* \"#utility.yul\":11003:11007   */\n      0x00\n        /* \"#utility.yul\":11041:11043   */\n      0x20\n        /* \"#utility.yul\":11030:11039   */\n      dup3\n        /* \"#utility.yul\":11026:11044   */\n      add\n        /* \"#utility.yul\":11018:11044   */\n      swap1\n      pop\n        /* \"#utility.yul\":11090:11099   */\n      dup2\n        /* \"#utility.yul\":11084:11088   */\n      dup2\n        /* \"#utility.yul\":11080:11100   */\n      sub\n        /* \"#utility.yul\":11076:11077   */\n      0x00\n        /* \"#utility.yul\":11065:11074   */\n      dup4\n        /* \"#utility.yul\":11061:11078   */\n      add\n        /* \"#utility.yul\":11054:11101   */\n      mstore\n        /* \"#utility.yul\":11118:11196   */\n      tag_402\n        /* \"#utility.yul\":11191:11195   */\n      dup2\n        /* \"#utility.yul\":11182:11188   */\n      dup5\n        /* \"#utility.yul\":11118:11196   */\n      tag_319\n      jump\t// in\n    tag_402:\n        /* \"#utility.yul\":11110:11196   */\n      swap1\n      pop\n        /* \"#utility.yul\":10890:11203   */\n      swap3\n      swap2\n      pop\n      pop\n      jump\t// out\n        /* \"#utility.yul\":11209:11628   */\n    tag_229:\n        /* \"#utility.yul\":11375:11379   */\n      0x00\n        /* \"#utility.yul\":11413:11415   */\n      0x20\n        /* \"#utility.yul\":11402:11411   */\n      dup3\n        /* \"#utility.yul\":11398:11416   */\n      add\n        /* \"#utility.yul\":11390:11416   */\n      swap1\n      pop\n        /* \"#utility.yul\":11462:11471   */\n      dup2\n        /* \"#utility.yul\":11456:11460   */\n      dup2\n        /* \"#utility.yul\":11452:11472   */\n      sub\n        /* \"#utility.yul\":11448:11449   */\n      0x00\n        /* \"#utility.yul\":11437:11446   */\n      dup4\n        /* \"#utility.yul\":11433:11450   */\n      add\n        /* \"#utility.yul\":11426:11473   */\n      mstore\n        /* \"#utility.yul\":11490:11621   */\n      tag_404\n        /* \"#utility.yul\":11616:11620   */\n      dup2\n        /* \"#utility.yul\":11490:11621   */\n      tag_329\n      jump\t// in\n    tag_404:\n        /* \"#utility.yul\":11482:11621   */\n      swap1\n      pop\n        /* \"#utility.yul\":11209:11628   */\n      swap2\n      swap1\n      pop\n      jump\t// out\n        /* \"#utility.yul\":11634:12053   */\n    tag_201:\n        /* \"#utility.yul\":11800:11804   */\n      0x00\n        /* \"#utility.yul\":11838:11840   */\n      0x20\n        /* \"#utility.yul\":11827:11836   */\n      dup3\n        /* \"#utility.yul\":11823:11841   */\n      add\n        /* \"#utility.yul\":11815:11841   */\n      swap1\n      pop\n        /* \"#utility.yul\":11887:11896   */\n      dup2\n        /* \"#utility.yul\":11881:11885   */\n      dup2\n        /* \"#utility.yul\":11877:11897   */\n      sub\n        /* \"#utility.yul\":11873:11874   */\n      0x00\n        /* \"#utility.yul\":11862:11871   */\n      dup4\n        /* \"#utility.yul\":11858:11875   */\n      add\n        /* \"#utility.yul\":11851:11898   */\n      mstore\n        /* \"#utility.yul\":11915:12046   */\n      tag_406\n        /* \"#utility.yul\":12041:12045   */\n      dup2\n        /* \"#utility.yul\":11915:12046   */\n      tag_334\n      jump\t// in\n    tag_406:\n        /* \"#utility.yul\":11907:12046   */\n      swap1\n      pop\n        /* \"#utility.yul\":11634:12053   */\n      swap2\n      swap1\n      pop\n      jump\t// out\n        /* \"#utility.yul\":12059:12478   */\n    tag_214:\n        /* \"#utility.yul\":12225:12229   */\n      0x00\n        /* \"#utility.yul\":12263:12265   */\n      0x20\n        /* \"#utility.yul\":12252:12261   */\n      dup3\n        /* \"#utility.yul\":12248:12266   */\n      add\n        /* \"#utility.yul\":12240:12266   */\n      swap1\n      pop\n        /* \"#utility.yul\":12312:12321   */\n      dup2\n        /* \"#utility.yul\":12306:12310   */\n      dup2\n        /* \"#utility.yul\":12302:12322   */\n      sub\n        /* \"#utility.yul\":12298:12299   */\n      0x00\n        /* \"#utility.yul\":12287:12296   */\n      dup4\n        /* \"#utility.yul\":12283:12300   */\n      add\n        /* \"#utility.yul\":12276:12323   */\n      mstore\n        /* \"#utility.yul\":12340:12471   */\n      tag_408\n        /* \"#utility.yul\":12466:12470   */\n      dup2\n        /* \"#utility.yul\":12340:12471   */\n      tag_339\n      jump\t// in\n    tag_408:\n        /* \"#utility.yul\":12332:12471   */\n      swap1\n      pop\n        /* \"#utility.yul\":12059:12478   */\n      swap2\n      swap1\n      pop\n      jump\t// out\n        /* \"#utility.yul\":12484:12903   */\n    tag_221:\n        /* \"#utility.yul\":12650:12654   */\n      0x00\n        /* \"#utility.yul\":12688:12690   */\n      0x20\n        /* \"#utility.yul\":12677:12686   */\n      dup3\n        /* \"#utility.yul\":12673:12691   */\n      add\n        /* \"#utility.yul\":12665:12691   */\n      swap1\n      pop\n        /* \"#utility.yul\":12737:12746   */\n      dup2\n        /* \"#utility.yul\":12731:12735   */\n      dup2\n        /* \"#utility.yul\":12727:12747   */\n      sub\n        /* \"#utility.yul\":12723:12724   */\n      0x00\n        /* \"#utility.yul\":12712:12721   */\n      dup4\n        /* \"#utility.yul\":12708:12725   */\n      add\n        /* \"#utility.yul\":12701:12748   */\n      mstore\n        /* \"#utility.yul\":12765:12896   */\n      tag_410\n        /* \"#utility.yul\":12891:12895   */\n      dup2\n        /* \"#utility.yul\":12765:12896   */\n      tag_344\n      jump\t// in\n    tag_410:\n        /* \"#utility.yul\":12757:12896   */\n      swap1\n      pop\n        /* \"#utility.yul\":12484:12903   */\n      swap2\n      swap1\n      pop\n      jump\t// out\n        /* \"#utility.yul\":12909:13328   */\n    tag_234:\n        /* \"#utility.yul\":13075:13079   */\n      0x00\n        /* \"#utility.yul\":13113:13115   */\n      0x20\n        /* \"#utility.yul\":13102:13111   */\n      dup3\n        /* \"#utility.yul\":13098:13116   */\n      add\n        /* \"#utility.yul\":13090:13116   */\n      swap1\n      pop\n        /* \"#utility.yul\":13162:13171   */\n      dup2\n        /* \"#utility.yul\":13156:13160   */\n      dup2\n        /* \"#utility.yul\":13152:13172   */\n      sub\n        /* \"#utility.yul\":13148:13149   */\n      0x00\n        /* \"#utility.yul\":13137:13146   */\n      dup4\n        /* \"#utility.yul\":13133:13150   */\n      add\n        /* \"#utility.yul\":13126:13173   */\n      mstore\n        /* \"#utility.yul\":13190:13321   */\n      tag_412\n        /* \"#utility.yul\":13316:13320   */\n      dup2\n        /* \"#utility.yul\":13190:13321   */\n      tag_349\n      jump\t// in\n    tag_412:\n        /* \"#utility.yul\":13182:13321   */\n      swap1\n      pop\n        /* \"#utility.yul\":12909:13328   */\n      swap2\n      swap1\n      pop\n      jump\t// out\n        /* \"#utility.yul\":13334:13753   */\n    tag_161:\n        /* \"#utility.yul\":13500:13504   */\n      0x00\n        /* \"#utility.yul\":13538:13540   */\n      0x20\n        /* \"#utility.yul\":13527:13536   */\n      dup3\n        /* \"#utility.yul\":13523:13541   */\n      add\n        /* \"#utility.yul\":13515:13541   */\n      swap1\n      pop\n        /* \"#utility.yul\":13587:13596   */\n      dup2\n        /* \"#utility.yul\":13581:13585   */\n      dup2\n        /* \"#utility.yul\":13577:13597   */\n      sub\n        /* \"#utility.yul\":13573:13574   */\n      0x00\n        /* \"#utility.yul\":13562:13571   */\n      dup4\n        /* \"#utility.yul\":13558:13575   */\n      add\n        /* \"#utility.yul\":13551:13598   */\n      mstore\n        /* \"#utility.yul\":13615:13746   */\n      tag_414\n        /* \"#utility.yul\":13741:13745   */\n      dup2\n        /* \"#utility.yul\":13615:13746   */\n      tag_354\n      jump\t// in\n    tag_414:\n        /* \"#utility.yul\":13607:13746   */\n      swap1\n      pop\n        /* \"#utility.yul\":13334:13753   */\n      swap2\n      swap1\n      pop\n      jump\t// out\n        /* \"#utility.yul\":13759:14178   */\n    tag_226:\n        /* \"#utility.yul\":13925:13929   */\n      0x00\n        /* \"#utility.yul\":13963:13965   */\n      0x20\n        /* \"#utility.yul\":13952:13961   */\n      dup3\n        /* \"#utility.yul\":13948:13966   */\n      add\n        /* \"#utility.yul\":13940:13966   */\n      swap1\n      pop\n        /* \"#utility.yul\":14012:14021   */\n      dup2\n        /* \"#utility.yul\":14006:14010   */\n      dup2\n        /* \"#utility.yul\":14002:14022   */\n      sub\n        /* \"#utility.yul\":13998:13999   */\n      0x00\n        /* \"#utility.yul\":13987:13996   */\n      dup4\n        /* \"#utility.yul\":13983:14000   */\n      add\n        /* \"#utility.yul\":13976:14023   */\n      mstore\n        /* \"#utility.yul\":14040:14171   */\n      tag_416\n        /* \"#utility.yul\":14166:14170   */\n      dup2\n        /* \"#utility.yul\":14040:14171   */\n      tag_359\n      jump\t// in\n    tag_416:\n        /* \"#utility.yul\":14032:14171   */\n      swap1\n      pop\n        /* \"#utility.yul\":13759:14178   */\n      swap2\n      swap1\n      pop\n      jump\t// out\n        /* \"#utility.yul\":14184:14603   */\n    tag_211:\n        /* \"#utility.yul\":14350:14354   */\n      0x00\n        /* \"#utility.yul\":14388:14390   */\n      0x20\n        /* \"#utility.yul\":14377:14386   */\n      dup3\n        /* \"#utility.yul\":14373:14391   */\n      add\n        /* \"#utility.yul\":14365:14391   */\n      swap1\n      pop\n        /* \"#utility.yul\":14437:14446   */\n      dup2\n        /* \"#utility.yul\":14431:14435   */\n      dup2\n        /* \"#utility.yul\":14427:14447   */\n      sub\n        /* \"#utility.yul\":14423:14424   */\n      0x00\n        /* \"#utility.yul\":14412:14421   */\n      dup4\n        /* \"#utility.yul\":14408:14425   */\n      add\n        /* \"#utility.yul\":14401:14448   */\n      mstore\n        /* \"#utility.yul\":14465:14596   */\n      tag_418\n        /* \"#utility.yul\":14591:14595   */\n      dup2\n        /* \"#utility.yul\":14465:14596   */\n      tag_364\n      jump\t// in\n    tag_418:\n        /* \"#utility.yul\":14457:14596   */\n      swap1\n      pop\n        /* \"#utility.yul\":14184:14603   */\n      swap2\n      swap1\n      pop\n      jump\t// out\n        /* \"#utility.yul\":14609:15028   */\n    tag_187:\n        /* \"#utility.yul\":14775:14779   */\n      0x00\n        /* \"#utility.yul\":14813:14815   */\n      0x20\n        /* \"#utility.yul\":14802:14811   */\n      dup3\n        /* \"#utility.yul\":14798:14816   */\n      add\n        /* \"#utility.yul\":14790:14816   */\n      swap1\n      pop\n        /* \"#utility.yul\":14862:14871   */\n      dup2\n        /* \"#utility.yul\":14856:14860   */\n      dup2\n        /* \"#utility.yul\":14852:14872   */\n      sub\n        /* \"#utility.yul\":14848:14849   */\n      0x00\n        /* \"#utility.yul\":14837:14846   */\n      dup4\n        /* \"#utility.yul\":14833:14850   */\n      add\n        /* \"#utility.yul\":14826:14873   */\n      mstore\n        /* \"#utility.yul\":14890:15021   */\n      tag_420\n        /* \"#utility.yul\":15016:15020   */\n      dup2\n        /* \"#utility.yul\":14890:15021   */\n      tag_369\n      jump\t// in\n    tag_420:\n        /* \"#utility.yul\":14882:15021   */\n      swap1\n      pop\n        /* \"#utility.yul\":14609:15028   */\n      swap2\n      swap1\n      pop\n      jump\t// out\n        /* \"#utility.yul\":15034:15453   */\n    tag_242:\n        /* \"#utility.yul\":15200:15204   */\n      0x00\n        /* \"#utility.yul\":15238:15240   */\n      0x20\n        /* \"#utility.yul\":15227:15236   */\n      dup3\n        /* \"#utility.yul\":15223:15241   */\n      add\n        /* \"#utility.yul\":15215:15241   */\n      swap1\n      pop\n        /* \"#utility.yul\":15287:15296   */\n      dup2\n        /* \"#utility.yul\":15281:15285   */\n      dup2\n        /* \"#utility.yul\":15277:15297   */\n      sub\n        /* \"#utility.yul\":15273:15274   */\n      0x00\n        /* \"#utility.yul\":15262:15271   */\n      dup4\n        /* \"#utility.yul\":15258:15275   */\n      add\n        /* \"#utility.yul\":15251:15298   */\n      mstore\n        /* \"#utility.yul\":15315:15446   */\n      tag_422\n        /* \"#utility.yul\":15441:15445   */\n      dup2\n        /* \"#utility.yul\":15315:15446   */\n      tag_374\n      jump\t// in\n    tag_422:\n        /* \"#utility.yul\":15307:15446   */\n      swap1\n      pop\n        /* \"#utility.yul\":15034:15453   */\n      swap2\n      swap1\n      pop\n      jump\t// out\n        /* \"#utility.yul\":15459:15681   */\n    tag_39:\n        /* \"#utility.yul\":15552:15556   */\n      0x00\n        /* \"#utility.yul\":15590:15592   */\n      0x20\n        /* \"#utility.yul\":15579:15588   */\n      dup3\n        /* \"#utility.yul\":15575:15593   */\n      add\n        /* \"#utility.yul\":15567:15593   */\n      swap1\n      pop\n        /* \"#utility.yul\":15603:15674   */\n      tag_424\n        /* \"#utility.yul\":15671:15672   */\n      0x00\n        /* \"#utility.yul\":15660:15669   */\n      dup4\n        /* \"#utility.yul\":15656:15673   */\n      add\n        /* \"#utility.yul\":15647:15653   */\n      dup5\n        /* \"#utility.yul\":15603:15674   */\n      tag_388\n      jump\t// in\n    tag_424:\n        /* \"#utility.yul\":15459:15681   */\n      swap3\n      swap2\n      pop\n      pop\n      jump\t// out\n        /* \"#utility.yul\":15687:15901   */\n    tag_65:\n        /* \"#utility.yul\":15776:15780   */\n      0x00\n        /* \"#utility.yul\":15814:15816   */\n      0x20\n        /* \"#utility.yul\":15803:15812   */\n      dup3\n        /* \"#utility.yul\":15799:15817   */\n      add\n        /* \"#utility.yul\":15791:15817   */\n      swap1\n      pop\n        /* \"#utility.yul\":15827:15894   */\n      tag_426\n        /* \"#utility.yul\":15891:15892   */\n      0x00\n        /* \"#utility.yul\":15880:15889   */\n      dup4\n        /* \"#utility.yul\":15876:15893   */\n      add\n        /* \"#utility.yul\":15867:15873   */\n      dup5\n        /* \"#utility.yul\":15827:15894   */\n      tag_391\n      jump\t// in\n    tag_426:\n        /* \"#utility.yul\":15687:15901   */\n      swap3\n      swap2\n      pop\n      pop\n      jump\t// out\n        /* \"#utility.yul\":15988:16148   */\n    tag_308:\n        /* \"#utility.yul\":16083:16087   */\n      0x00\n        /* \"#utility.yul\":16106:16109   */\n      dup2\n        /* \"#utility.yul\":16098:16109   */\n      swap1\n      pop\n        /* \"#utility.yul\":16136:16140   */\n      0x20\n        /* \"#utility.yul\":16131:16134   */\n      dup3\n        /* \"#utility.yul\":16127:16141   */\n      add\n        /* \"#utility.yul\":16119:16141   */\n      swap1\n      pop\n        /* \"#utility.yul\":15988:16148   */\n      swap2\n      swap1\n      pop\n      jump\t// out\n        /* \"#utility.yul\":16154:16296   */\n    tag_304:\n        /* \"#utility.yul\":16249:16255   */\n      0x00\n        /* \"#utility.yul\":16283:16288   */\n      dup2\n        /* \"#utility.yul\":16277:16289   */\n      mload\n        /* \"#utility.yul\":16267:16289   */\n      swap1\n      pop\n        /* \"#utility.yul\":16154:16296   */\n      swap2\n      swap1\n      pop\n      jump\t// out\n        /* \"#utility.yul\":16302:16401   */\n    tag_322:\n        /* \"#utility.yul\":16354:16360   */\n      0x00\n        /* \"#utility.yul\":16388:16393   */\n      dup2\n        /* \"#utility.yul\":16382:16394   */\n      mload\n        /* \"#utility.yul\":16372:16394   */\n      swap1\n      pop\n        /* \"#utility.yul\":16302:16401   */\n      swap2\n      swap1\n      pop\n      jump\t// out\n        /* \"#utility.yul\":16407:16548   */\n    tag_314:\n        /* \"#utility.yul\":16505:16509   */\n      0x00\n        /* \"#utility.yul\":16537:16541   */\n      0x20\n        /* \"#utility.yul\":16532:16535   */\n      dup3\n        /* \"#utility.yul\":16528:16542   */\n      add\n        /* \"#utility.yul\":16520:16542   */\n      swap1\n      pop\n        /* \"#utility.yul\":16407:16548   */\n      swap2\n      swap1\n      pop\n      jump\t// out\n        /* \"#utility.yul\":16554:16766   */\n    tag_306:\n        /* \"#utility.yul\":16681:16692   */\n      0x00\n        /* \"#utility.yul\":16715:16721   */\n      dup3\n        /* \"#utility.yul\":16710:16713   */\n      dup3\n        /* \"#utility.yul\":16703:16722   */\n      mstore\n        /* \"#utility.yul\":16755:16759   */\n      0x20\n        /* \"#utility.yul\":16750:16753   */\n      dup3\n        /* \"#utility.yul\":16746:16760   */\n      add\n        /* \"#utility.yul\":16731:16760   */\n      swap1\n      pop\n        /* \"#utility.yul\":16554:16766   */\n      swap3\n      swap2\n      pop\n      pop\n      jump\t// out\n        /* \"#utility.yul\":16772:16941   */\n    tag_324:\n        /* \"#utility.yul\":16856:16867   */\n      0x00\n        /* \"#utility.yul\":16890:16896   */\n      dup3\n        /* \"#utility.yul\":16885:16888   */\n      dup3\n        /* \"#utility.yul\":16878:16897   */\n      mstore\n        /* \"#utility.yul\":16930:16934   */\n      0x20\n        /* \"#utility.yul\":16925:16928   */\n      dup3\n        /* \"#utility.yul\":16921:16935   */\n      add\n        /* \"#utility.yul\":16906:16935   */\n      swap1\n      pop\n        /* \"#utility.yul\":16772:16941   */\n      swap3\n      swap2\n      pop\n      pop\n      jump\t// out\n        /* \"#utility.yul\":16947:17252   */\n    tag_155:\n        /* \"#utility.yul\":16987:16990   */\n      0x00\n        /* \"#utility.yul\":17006:17026   */\n      tag_436\n        /* \"#utility.yul\":17024:17025   */\n      dup3\n        /* \"#utility.yul\":17006:17026   */\n      tag_387\n      jump\t// in\n    tag_436:\n        /* \"#utility.yul\":17001:17026   */\n      swap2\n      pop\n        /* \"#utility.yul\":17040:17060   */\n      tag_437\n        /* \"#utility.yul\":17058:17059   */\n      dup4\n        /* \"#utility.yul\":17040:17060   */\n      tag_387\n      jump\t// in\n    tag_437:\n        /* \"#utility.yul\":17035:17060   */\n      swap3\n      pop\n        /* \"#utility.yul\":17194:17195   */\n      dup3\n        /* \"#utility.yul\":17126:17192   */\n      0xffffffffffffffffffffffffffffffffffffffffffffffffffffffffffffffff\n        /* \"#utility.yul\":17122:17196   */\n      sub\n        /* \"#utility.yul\":17119:17120   */\n      dup3\n        /* \"#utility.yul\":17116:17197   */\n      gt\n        /* \"#utility.yul\":17113:17220   */\n      iszero\n      tag_438\n      jumpi\n        /* \"#utility.yul\":17200:17218   */\n      tag_439\n      tag_440\n      jump\t// in\n    tag_439:\n        /* \"#utility.yul\":17113:17220   */\n    tag_438:\n        /* \"#utility.yul\":17244:17245   */\n      dup3\n        /* \"#utility.yul\":17241:17242   */\n      dup3\n        /* \"#utility.yul\":17237:17246   */\n      add\n        /* \"#utility.yul\":17230:17246   */\n      swap1\n      pop\n        /* \"#utility.yul\":16947:17252   */\n      swap3\n      swap2\n      pop\n      pop\n      jump\t// out\n        /* \"#utility.yul\":17258:17443   */\n    tag_137:\n        /* \"#utility.yul\":17298:17299   */\n      0x00\n        /* \"#utility.yul\":17315:17335   */\n      tag_442\n        /* \"#utility.yul\":17333:17334   */\n      dup3\n        /* \"#utility.yul\":17315:17335   */\n      tag_387\n      jump\t// in\n    tag_442:\n        /* \"#utility.yul\":17310:17335   */\n      swap2\n      pop\n        /* \"#utility.yul\":17349:17369   */\n      tag_443\n        /* \"#utility.yul\":17367:17368   */\n      dup4\n        /* \"#utility.yul\":17349:17369   */\n      tag_387\n      jump\t// in\n    tag_443:\n        /* \"#utility.yul\":17344:17369   */\n      swap3\n      pop\n        /* \"#utility.yul\":17388:17389   */\n      dup3\n        /* \"#utility.yul\":17378:17413   */\n      tag_444\n      jumpi\n        /* \"#utility.yul\":17393:17411   */\n      tag_445\n      tag_446\n      jump\t// in\n    tag_445:\n        /* \"#utility.yul\":17378:17413   */\n    tag_444:\n        /* \"#utility.yul\":17435:17436   */\n      dup3\n        /* \"#utility.yul\":17432:17433   */\n      dup3\n        /* \"#utility.yul\":17428:17437   */\n      div\n        /* \"#utility.yul\":17423:17437   */\n      swap1\n      pop\n        /* \"#utility.yul\":17258:17443   */\n      swap3\n      swap2\n      pop\n      pop\n      jump\t// out\n        /* \"#utility.yul\":17449:17545   */\n    tag_297:\n        /* \"#utility.yul\":17486:17493   */\n      0x00\n        /* \"#utility.yul\":17515:17539   */\n      tag_448\n        /* \"#utility.yul\":17533:17538   */\n      dup3\n        /* \"#utility.yul\":17515:17539   */\n      tag_449\n      jump\t// in\n    tag_448:\n        /* \"#utility.yul\":17504:17539   */\n      swap1\n      pop\n        /* \"#utility.yul\":17449:17545   */\n      swap2\n      swap1\n      pop\n      jump\t// out\n        /* \"#utility.yul\":17551:17655   */\n    tag_450:\n        /* \"#utility.yul\":17596:17603   */\n      0x00\n        /* \"#utility.yul\":17625:17649   */\n      tag_452\n        /* \"#utility.yul\":17643:17648   */\n      dup3\n        /* \"#utility.yul\":17625:17649   */\n      tag_449\n      jump\t// in\n    tag_452:\n        /* \"#utility.yul\":17614:17649   */\n      swap1\n      pop\n        /* \"#utility.yul\":17551:17655   */\n      swap2\n      swap1\n      pop\n      jump\t// out\n        /* \"#utility.yul\":17661:17751   */\n    tag_318:\n        /* \"#utility.yul\":17695:17702   */\n      0x00\n        /* \"#utility.yul\":17738:17743   */\n      dup2\n        /* \"#utility.yul\":17731:17744   */\n      iszero\n        /* \"#utility.yul\":17724:17745   */\n      iszero\n        /* \"#utility.yul\":17713:17745   */\n      swap1\n      pop\n        /* \"#utility.yul\":17661:17751   */\n      swap2\n      swap1\n      pop\n      jump\t// out\n        /* \"#utility.yul\":17757:17883   */\n    tag_449:\n        /* \"#utility.yul\":17794:17801   */\n      0x00\n        /* \"#utility.yul\":17834:17876   */\n      0xffffffffffffffffffffffffffffffffffffffff\n        /* \"#utility.yul\":17827:17832   */\n      dup3\n        /* \"#utility.yul\":17823:17877   */\n      and\n        /* \"#utility.yul\":17812:17877   */\n      swap1\n      pop\n        /* \"#utility.yul\":17757:17883   */\n      swap2\n      swap1\n      pop\n      jump\t// out\n        /* \"#utility.yul\":17889:17966   */\n    tag_387:\n        /* \"#utility.yul\":17926:17933   */\n      0x00\n        /* \"#utility.yul\":17955:17960   */\n      dup2\n        /* \"#utility.yul\":17944:17960   */\n      swap1\n      pop\n        /* \"#utility.yul\":17889:17966   */\n      swap2\n      swap1\n      pop\n      jump\t// out\n        /* \"#utility.yul\":17972:18058   */\n    tag_394:\n        /* \"#utility.yul\":18007:18014   */\n      0x00\n        /* \"#utility.yul\":18047:18051   */\n      0xff\n        /* \"#utility.yul\":18040:18045   */\n      dup3\n        /* \"#utility.yul\":18036:18052   */\n      and\n        /* \"#utility.yul\":18025:18052   */\n      swap1\n      pop\n        /* \"#utility.yul\":17972:18058   */\n      swap2\n      swap1\n      pop\n      jump\t// out\n        /* \"#utility.yul\":18064:18371   */\n    tag_326:\n        /* \"#utility.yul\":18132:18133   */\n      0x00\n        /* \"#utility.yul\":18142:18255   */\n    tag_458:\n        /* \"#utility.yul\":18156:18162   */\n      dup4\n        /* \"#utility.yul\":18153:18154   */\n      dup2\n        /* \"#utility.yul\":18150:18163   */\n      lt\n        /* \"#utility.yul\":18142:18255   */\n      iszero\n      tag_460\n      jumpi\n        /* \"#utility.yul\":18241:18242   */\n      dup1\n        /* \"#utility.yul\":18236:18239   */\n      dup3\n        /* \"#utility.yul\":18232:18243   */\n      add\n        /* \"#utility.yul\":18226:18244   */\n      mload\n        /* \"#utility.yul\":18222:18223   */\n      dup2\n        /* \"#utility.yul\":18217:18220   */\n      dup5\n        /* \"#utility.yul\":18213:18224   */\n      add\n        /* \"#utility.yul\":18206:18245   */\n      mstore\n        /* \"#utility.yul\":18178:18180   */\n      0x20\n        /* \"#utility.yul\":18175:18176   */\n      dup2\n        /* \"#utility.yul\":18171:18181   */\n      add\n        /* \"#utility.yul\":18166:18181   */\n      swap1\n      pop\n        /* \"#utility.yul\":18142:18255   */\n      jump(tag_458)\n    tag_460:\n        /* \"#utility.yul\":18273:18279   */\n      dup4\n        /* \"#utility.yul\":18270:18271   */\n      dup2\n        /* \"#utility.yul\":18267:18280   */\n      gt\n        /* \"#utility.yul\":18264:18365   */\n      iszero\n      tag_461\n      jumpi\n        /* \"#utility.yul\":18353:18354   */\n      0x00\n        /* \"#utility.yul\":18344:18350   */\n      dup5\n        /* \"#utility.yul\":18339:18342   */\n      dup5\n        /* \"#utility.yul\":18335:18351   */\n      add\n        /* \"#utility.yul\":18328:18355   */\n      mstore\n        /* \"#utility.yul\":18264:18365   */\n    tag_461:\n        /* \"#utility.yul\":18113:18371   */\n      pop\n        /* \"#utility.yul\":18064:18371   */\n      pop\n      pop\n      pop\n      jump\t// out\n        /* \"#utility.yul\":18377:18697   */\n    tag_124:\n        /* \"#utility.yul\":18421:18427   */\n      0x00\n        /* \"#utility.yul\":18458:18459   */\n      0x02\n        /* \"#utility.yul\":18452:18456   */\n      dup3\n        /* \"#utility.yul\":18448:18460   */\n      div\n        /* \"#utility.yul\":18438:18460   */\n      swap1\n      pop\n        /* \"#utility.yul\":18505:18506   */\n      0x01\n        /* \"#utility.yul\":18499:18503   */\n      dup3\n        /* \"#utility.yul\":18495:18507   */\n      and\n        /* \"#utility.yul\":18526:18544   */\n      dup1\n        /* \"#utility.yul\":18516:18597   */\n      tag_463\n      jumpi\n        /* \"#utility.yul\":18582:18586   */\n      0x7f\n        /* \"#utility.yul\":18574:18580   */\n      dup3\n        /* \"#utility.yul\":18570:18587   */\n      and\n        /* \"#utility.yul\":18560:18587   */\n      swap2\n      pop\n        /* \"#utility.yul\":18516:18597   */\n    tag_463:\n        /* \"#utility.yul\":18644:18646   */\n      0x20\n        /* \"#utility.yul\":18636:18642   */\n      dup3\n        /* \"#utility.yul\":18633:18647   */\n      lt\n        /* \"#utility.yul\":18613:18631   */\n      dup2\n        /* \"#utility.yul\":18610:18648   */\n      eq\n        /* \"#utility.yul\":18607:18691   */\n      iszero\n      tag_464\n      jumpi\n        /* \"#utility.yul\":18663:18681   */\n      tag_465\n      tag_466\n      jump\t// in\n    tag_465:\n        /* \"#utility.yul\":18607:18691   */\n    tag_464:\n        /* \"#utility.yul\":18428:18697   */\n      pop\n        /* \"#utility.yul\":18377:18697   */\n      swap2\n      swap1\n      pop\n      jump\t// out\n        /* \"#utility.yul\":18703:18883   */\n    tag_440:\n        /* \"#utility.yul\":18751:18828   */\n      0x4e487b7100000000000000000000000000000000000000000000000000000000\n        /* \"#utility.yul\":18748:18749   */\n      0x00\n        /* \"#utility.yul\":18741:18829   */\n      mstore\n        /* \"#utility.yul\":18848:18852   */\n      0x11\n        /* \"#utility.yul\":18845:18846   */\n      0x04\n        /* \"#utility.yul\":18838:18853   */\n      mstore\n        /* \"#utility.yul\":18872:18876   */\n      0x24\n        /* \"#utility.yul\":18869:18870   */\n      0x00\n        /* \"#utility.yul\":18862:18877   */\n      revert\n        /* \"#utility.yul\":18889:19069   */\n    tag_446:\n        /* \"#utility.yul\":18937:19014   */\n      0x4e487b7100000000000000000000000000000000000000000000000000000000\n        /* \"#utility.yul\":18934:18935   */\n      0x00\n        /* \"#utility.yul\":18927:19015   */\n      mstore\n        /* \"#utility.yul\":19034:19038   */\n      0x12\n        /* \"#utility.yul\":19031:19032   */\n      0x04\n        /* \"#utility.yul\":19024:19039   */\n      mstore\n        /* \"#utility.yul\":19058:19062   */\n      0x24\n        /* \"#utility.yul\":19055:19056   */\n      0x00\n        /* \"#utility.yul\":19048:19063   */\n      revert\n        /* \"#utility.yul\":19075:19255   */\n    tag_466:\n        /* \"#utility.yul\":19123:19200   */\n      0x4e487b7100000000000000000000000000000000000000000000000000000000\n        /* \"#utility.yul\":19120:19121   */\n      0x00\n        /* \"#utility.yul\":19113:19201   */\n      mstore\n        /* \"#utility.yul\":19220:19224   */\n      0x22\n        /* \"#utility.yul\":19217:19218   */\n      0x04\n        /* \"#utility.yul\":19210:19225   */\n      mstore\n        /* \"#utility.yul\":19244:19248   */\n      0x24\n        /* \"#utility.yul\":19241:19242   */\n      0x00\n        /* \"#utility.yul\":19234:19249   */\n      revert\n        /* \"#utility.yul\":19384:19501   */\n    tag_267:\n        /* \"#utility.yul\":19493:19494   */\n      0x00\n        /* \"#utility.yul\":19490:19491   */\n      dup1\n        /* \"#utility.yul\":19483:19495   */\n      revert\n        /* \"#utility.yul\":19507:19609   */\n    tag_328:\n        /* \"#utility.yul\":19548:19554   */\n      0x00\n        /* \"#utility.yul\":19599:19601   */\n      0x1f\n        /* \"#utility.yul\":19595:19602   */\n      not\n        /* \"#utility.yul\":19590:19592   */\n      0x1f\n        /* \"#utility.yul\":19583:19588   */\n      dup4\n        /* \"#utility.yul\":19579:19593   */\n      add\n        /* \"#utility.yul\":19575:19603   */\n      and\n        /* \"#utility.yul\":19565:19603   */\n      swap1\n      pop\n        /* \"#utility.yul\":19507:19609   */\n      swap2\n      swap1\n      pop\n      jump\t// out\n        /* \"#utility.yul\":19615:19837   */\n    tag_333:\n        /* \"#utility.yul\":19755:19789   */\n      0x45524332303a207472616e7366657220746f20746865207a65726f2061646472\n        /* \"#utility.yul\":19751:19752   */\n      0x00\n        /* \"#utility.yul\":19743:19749   */\n      dup3\n        /* \"#utility.yul\":19739:19753   */\n      add\n        /* \"#utility.yul\":19732:19790   */\n      mstore\n        /* \"#utility.yul\":19824:19829   */\n      0x6573730000000000000000000000000000000000000000000000000000000000\n        /* \"#utility.yul\":19819:19821   */\n      0x20\n        /* \"#utility.yul\":19811:19817   */\n      dup3\n        /* \"#utility.yul\":19807:19822   */\n      add\n        /* \"#utility.yul\":19800:19830   */\n      mstore\n        /* \"#utility.yul\":19615:19837   */\n      pop\n      jump\t// out\n        /* \"#utility.yul\":19843:20068   */\n    tag_338:\n        /* \"#utility.yul\":19983:20017   */\n      0x4f776e61626c653a206e6577206f776e657220697320746865207a65726f2061\n        /* \"#utility.yul\":19979:19980   */\n      0x00\n        /* \"#utility.yul\":19971:19977   */\n      dup3\n        /* \"#utility.yul\":19967:19981   */\n      add\n        /* \"#utility.yul\":19960:20018   */\n      mstore\n        /* \"#utility.yul\":20052:20060   */\n      0x6464726573730000000000000000000000000000000000000000000000000000\n        /* \"#utility.yul\":20047:20049   */\n      0x20\n        /* \"#utility.yul\":20039:20045   */\n      dup3\n        /* \"#utility.yul\":20035:20050   */\n      add\n        /* \"#utility.yul\":20028:20061   */\n      mstore\n        /* \"#utility.yul\":19843:20068   */\n      pop\n      jump\t// out\n        /* \"#utility.yul\":20074:20295   */\n    tag_343:\n        /* \"#utility.yul\":20214:20248   */\n      0x45524332303a20617070726f766520746f20746865207a65726f206164647265\n        /* \"#utility.yul\":20210:20211   */\n      0x00\n        /* \"#utility.yul\":20202:20208   */\n      dup3\n        /* \"#utility.yul\":20198:20212   */\n      add\n        /* \"#utility.yul\":20191:20249   */\n      mstore\n        /* \"#utility.yul\":20283:20287   */\n      0x7373000000000000000000000000000000000000000000000000000000000000\n        /* \"#utility.yul\":20278:20280   */\n      0x20\n        /* \"#utility.yul\":20270:20276   */\n      dup3\n        /* \"#utility.yul\":20266:20281   */\n      add\n        /* \"#utility.yul\":20259:20288   */\n      mstore\n        /* \"#utility.yul\":20074:20295   */\n      pop\n      jump\t// out\n        /* \"#utility.yul\":20301:20480   */\n    tag_348:\n        /* \"#utility.yul\":20441:20472   */\n      0x45524332303a20696e73756666696369656e7420616c6c6f77616e6365000000\n        /* \"#utility.yul\":20437:20438   */\n      0x00\n        /* \"#utility.yul\":20429:20435   */\n      dup3\n        /* \"#utility.yul\":20425:20439   */\n      add\n        /* \"#utility.yul\":20418:20473   */\n      mstore\n        /* \"#utility.yul\":20301:20480   */\n      pop\n      jump\t// out\n        /* \"#utility.yul\":20486:20711   */\n    tag_353:\n        /* \"#utility.yul\":20626:20660   */\n      0x45524332303a207472616e7366657220616d6f756e7420657863656564732062\n        /* \"#utility.yul\":20622:20623   */\n      0x00\n        /* \"#utility.yul\":20614:20620   */\n      dup3\n        /* \"#utility.yul\":20610:20624   */\n      add\n        /* \"#utility.yul\":20603:20661   */\n      mstore\n        /* \"#utility.yul\":20695:20703   */\n      0x616c616e63650000000000000000000000000000000000000000000000000000\n        /* \"#utility.yul\":20690:20692   */\n      0x20\n        /* \"#utility.yul\":20682:20688   */\n      dup3\n        /* \"#utility.yul\":20678:20693   */\n      add\n        /* \"#utility.yul\":20671:20704   */\n      mstore\n        /* \"#utility.yul\":20486:20711   */\n      pop\n      jump\t// out\n        /* \"#utility.yul\":20717:20899   */\n    tag_358:\n        /* \"#utility.yul\":20857:20891   */\n      0x4f776e61626c653a2063616c6c6572206973206e6f7420746865206f776e6572\n        /* \"#utility.yul\":20853:20854   */\n      0x00\n        /* \"#utility.yul\":20845:20851   */\n      dup3\n        /* \"#utility.yul\":20841:20855   */\n      add\n        /* \"#utility.yul\":20834:20892   */\n      mstore\n        /* \"#utility.yul\":20717:20899   */\n      pop\n      jump\t// out\n        /* \"#utility.yul\":20905:21129   */\n    tag_363:\n        /* \"#utility.yul\":21045:21079   */\n      0x45524332303a207472616e736665722066726f6d20746865207a65726f206164\n        /* \"#utility.yul\":21041:21042   */\n      0x00\n        /* \"#utility.yul\":21033:21039   */\n      dup3\n        /* \"#utility.yul\":21029:21043   */\n      add\n        /* \"#utility.yul\":21022:21080   */\n      mstore\n        /* \"#utility.yul\":21114:21121   */\n      0x6472657373000000000000000000000000000000000000000000000000000000\n        /* \"#utility.yul\":21109:21111   */\n      0x20\n        /* \"#utility.yul\":21101:21107   */\n      dup3\n        /* \"#utility.yul\":21097:21112   */\n      add\n        /* \"#utility.yul\":21090:21122   */\n      mstore\n        /* \"#utility.yul\":20905:21129   */\n      pop\n      jump\t// out\n        /* \"#utility.yul\":21135:21358   */\n    tag_368:\n        /* \"#utility.yul\":21275:21309   */\n      0x45524332303a20617070726f76652066726f6d20746865207a65726f20616464\n        /* \"#utility.yul\":21271:21272   */\n      0x00\n        /* \"#utility.yul\":21263:21269   */\n      dup3\n        /* \"#utility.yul\":21259:21273   */\n      add\n        /* \"#utility.yul\":21252:21310   */\n      mstore\n        /* \"#utility.yul\":21344:21350   */\n      0x7265737300000000000000000000000000000000000000000000000000000000\n        /* \"#utility.yul\":21339:21341   */\n      0x20\n        /* \"#utility.yul\":21331:21337   */\n      dup3\n        /* \"#utility.yul\":21327:21342   */\n      add\n        /* \"#utility.yul\":21320:21351   */\n      mstore\n        /* \"#utility.yul\":21135:21358   */\n      pop\n      jump\t// out\n        /* \"#utility.yul\":21364:21588   */\n    tag_373:\n        /* \"#utility.yul\":21504:21538   */\n      0x45524332303a2064656372656173656420616c6c6f77616e63652062656c6f77\n        /* \"#utility.yul\":21500:21501   */\n      0x00\n        /* \"#utility.yul\":21492:21498   */\n      dup3\n        /* \"#utility.yul\":21488:21502   */\n      add\n        /* \"#utility.yul\":21481:21539   */\n      mstore\n        /* \"#utility.yul\":21573:21580   */\n      0x207a65726f000000000000000000000000000000000000000000000000000000\n        /* \"#utility.yul\":21568:21570   */\n      0x20\n        /* \"#utility.yul\":21560:21566   */\n      dup3\n        /* \"#utility.yul\":21556:21571   */\n      add\n        /* \"#utility.yul\":21549:21581   */\n      mstore\n        /* \"#utility.yul\":21364:21588   */\n      pop\n      jump\t// out\n        /* \"#utility.yul\":21594:21775   */\n    tag_378:\n        /* \"#utility.yul\":21734:21767   */\n      0x45524332303a206d696e7420746f20746865207a65726f206164647265737300\n        /* \"#utility.yul\":21730:21731   */\n      0x00\n        /* \"#utility.yul\":21722:21728   */\n      dup3\n        /* \"#utility.yul\":21718:21732   */\n      add\n        /* \"#utility.yul\":21711:21768   */\n      mstore\n        /* \"#utility.yul\":21594:21775   */\n      pop\n      jump\t// out\n        /* \"#utility.yul\":21781:21903   */\n    tag_255:\n        /* \"#utility.yul\":21854:21878   */\n      tag_485\n        /* \"#utility.yul\":21872:21877   */\n      dup2\n        /* \"#utility.yul\":21854:21878   */\n      tag_297\n      jump\t// in\n    tag_485:\n        /* \"#utility.yul\":21847:21852   */\n      dup2\n        /* \"#utility.yul\":21844:21879   */\n      eq\n        /* \"#utility.yul\":21834:21897   */\n      tag_486\n      jumpi\n        /* \"#utility.yul\":21893:21894   */\n      0x00\n        /* \"#utility.yul\":21890:21891   */\n      dup1\n        /* \"#utility.yul\":21883:21895   */\n      revert\n        /* \"#utility.yul\":21834:21897   */\n    tag_486:\n        /* \"#utility.yul\":21781:21903   */\n      pop\n      jump\t// out\n        /* \"#utility.yul\":21909:22047   */\n    tag_259:\n        /* \"#utility.yul\":21990:22022   */\n      tag_488\n        /* \"#utility.yul\":22016:22021   */\n      dup2\n        /* \"#utility.yul\":21990:22022   */\n      tag_450\n      jump\t// in\n    tag_488:\n        /* \"#utility.yul\":21983:21988   */\n      dup2\n        /* \"#utility.yul\":21980:22023   */\n      eq\n        /* \"#utility.yul\":21970:22041   */\n      tag_489\n      jumpi\n        /* \"#utility.yul\":22037:22038   */\n      0x00\n        /* \"#utility.yul\":22034:22035   */\n      dup1\n        /* \"#utility.yul\":22027:22039   */\n      revert\n        /* \"#utility.yul\":21970:22041   */\n    tag_489:\n        /* \"#utility.yul\":21909:22047   */\n      pop\n      jump\t// out\n        /* \"#utility.yul\":22053:22175   */\n    tag_263:\n        /* \"#utility.yul\":22126:22150   */\n      tag_491\n        /* \"#utility.yul\":22144:22149   */\n      dup2\n        /* \"#utility.yul\":22126:22150   */\n      tag_387\n      jump\t// in\n    tag_491:\n        /* \"#utility.yul\":22119:22124   */\n      dup2\n        /* \"#utility.yul\":22116:22151   */\n      eq\n        /* \"#utility.yul\":22106:22169   */\n      tag_492\n      jumpi\n        /* \"#utility.yul\":22165:22166   */\n      0x00\n        /* \"#utility.yul\":22162:22163   */\n      dup1\n        /* \"#utility.yul\":22155:22167   */\n      revert\n        /* \"#utility.yul\":22106:22169   */\n    tag_492:\n        /* \"#utility.yul\":22053:22175   */\n      pop\n      jump\t// out\n\n    auxdata: 0xa2646970667358221220e0ac621629d76065dfb87c5d31d654b43fcd9d69bd57c0e7c816a8a47892c65764736f6c63430008070033\n}\n",
				"bytecode": {
					"linkReferences": {},
					"object": "608060405267016345785d8a00006006553480156200001d57600080fd5b506040518060400160405280600e81526020017f56696e746167652d63727970746f0000000000000000000000000000000000008152506040518060400160405280600481526020017f24564954000000000000000000000000000000000000000000000000000000008152508160039080519060200190620000a29291906200037c565b508060049080519060200190620000bb9291906200037c565b505050620000de620000d26200012260201b60201c565b6200012a60201b60201c565b6200011c33620000f3620001f060201b60201c565b600a6200010191906200056c565b6103e8620001109190620006a9565b620001f960201b60201c565b620007eb565b600033905090565b6000600560009054906101000a900473ffffffffffffffffffffffffffffffffffffffff16905081600560006101000a81548173ffffffffffffffffffffffffffffffffffffffff021916908373ffffffffffffffffffffffffffffffffffffffff1602179055508173ffffffffffffffffffffffffffffffffffffffff168173ffffffffffffffffffffffffffffffffffffffff167f8be0079c531659141344cd1fd0a4f28419497f9722a3daafe3b4186f6b6457e060405160405180910390a35050565b60006012905090565b600073ffffffffffffffffffffffffffffffffffffffff168273ffffffffffffffffffffffffffffffffffffffff1614156200026c576040517f08c379a0000000000000000000000000000000000000000000000000000000008152600401620002639062000464565b60405180910390fd5b62000280600083836200037260201b60201c565b8060026000828254620002949190620004b4565b92505081905550806000808473ffffffffffffffffffffffffffffffffffffffff1673ffffffffffffffffffffffffffffffffffffffff1681526020019081526020016000206000828254620002eb9190620004b4565b925050819055508173ffffffffffffffffffffffffffffffffffffffff16600073ffffffffffffffffffffffffffffffffffffffff167fddf252ad1be2c89b69c2b068fc378daa952ba7f163c4a11628f55a4df523b3ef8360405162000352919062000486565b60405180910390a36200036e600083836200037760201b60201c565b5050565b505050565b505050565b8280546200038a9062000721565b90600052602060002090601f016020900481019282620003ae5760008555620003fa565b82601f10620003c957805160ff1916838001178555620003fa565b82800160010185558215620003fa579182015b82811115620003f9578251825591602001919060010190620003dc565b5b5090506200040991906200040d565b5090565b5b80821115620004285760008160009055506001016200040e565b5090565b60006200043b601f83620004a3565b91506200044882620007c2565b602082019050919050565b6200045e816200070a565b82525050565b600060208201905081810360008301526200047f816200042c565b9050919050565b60006020820190506200049d600083018462000453565b92915050565b600082825260208201905092915050565b6000620004c1826200070a565b9150620004ce836200070a565b9250827fffffffffffffffffffffffffffffffffffffffffffffffffffffffffffffffff0382111562000506576200050562000757565b5b828201905092915050565b6000808291508390505b600185111562000563578086048111156200053b576200053a62000757565b5b60018516156200054b5780820291505b80810290506200055b85620007b5565b94506200051b565b94509492505050565b600062000579826200070a565b9150620005868362000714565b9250620005b57fffffffffffffffffffffffffffffffffffffffffffffffffffffffffffffffff8484620005bd565b905092915050565b600082620005cf5760019050620006a2565b81620005df5760009050620006a2565b8160018114620005f85760028114620006035762000639565b6001915050620006a2565b60ff84111562000618576200061762000757565b5b8360020a91508482111562000632576200063162000757565b5b50620006a2565b5060208310610133831016604e8410600b8410161715620006735782820a9050838111156200066d576200066c62000757565b5b620006a2565b62000682848484600162000511565b925090508184048111156200069c576200069b62000757565b5b81810290505b9392505050565b6000620006b6826200070a565b9150620006c3836200070a565b9250817fffffffffffffffffffffffffffffffffffffffffffffffffffffffffffffffff0483118215151615620006ff57620006fe62000757565b5b828202905092915050565b6000819050919050565b600060ff82169050919050565b600060028204905060018216806200073a57607f821691505b6020821081141562000751576200075062000786565b5b50919050565b7f4e487b7100000000000000000000000000000000000000000000000000000000600052601160045260246000fd5b7f4e487b7100000000000000000000000000000000000000000000000000000000600052602260045260246000fd5b60008160011c9050919050565b7f45524332303a206d696e7420746f20746865207a65726f206164647265737300600082015250565b6121fd80620007fb6000396000f3fe608060405234801561001057600080fd5b50600436106101585760003560e01c8063789706ae116100c3578063a9059cbb1161007c578063a9059cbb146103df578063c93c8f341461040f578063dbf9f6521461043f578063dd62ed3e1461045d578063f2fde38b1461048d578063f739ed9e146104a957610158565b8063789706ae146103075780638da5cb5b1461032557806395d89b4114610343578063a410178814610361578063a457c2d714610391578063a6c75797146103c157610158565b806327506f531161011557806327506f5314610245578063313ce56714610263578063395093511461028157806368f8fc10146102b157806370a08231146102cd578063715018a6146102fd57610158565b806306fdde031461015d5780630700037d1461017b578063095ea7b3146101ab578063174e31c4146101db57806318160ddd146101f757806323b872dd14610215575b600080fd5b6101656104c5565b6040516101729190611afb565b60405180910390f35b610195600480360381019061019091906116a7565b610557565b6040516101a29190611c5d565b60405180910390f35b6101c560048036038101906101c091906117a7565b61056f565b6040516101d29190611ae0565b60405180910390f35b6101f560048036038101906101f091906116d4565b610592565b005b6101ff610643565b60405161020c9190611c5d565b60405180910390f35b61022f600480360381019061022a9190611754565b61064d565b60405161023c9190611ae0565b60405180910390f35b61024d61067c565b60405161025a9190611abe565b60405180910390f35b61026b61079b565b6040516102789190611c78565b60405180910390f35b61029b600480360381019061029691906117a7565b6107a4565b6040516102a89190611ae0565b60405180910390f35b6102cb60048036038101906102c691906117a7565b61084e565b005b6102e760048036038101906102e291906116a7565b6108d8565b6040516102f49190611c5d565b60405180910390f35b610305610920565b005b61030f6109a8565b60405161031c9190611c5d565b60405180910390f35b61032d6109b2565b60405161033a9190611aa3565b60405180910390f35b61034b6109dc565b6040516103589190611afb565b60405180910390f35b61037b600480360381019061037691906116a7565b610a6e565b6040516103889190611c5d565b60405180910390f35b6103ab60048036038101906103a691906117a7565b610ab7565b6040516103b89190611ae0565b60405180910390f35b6103c9610ba1565b6040516103d69190611c5d565b60405180910390f35b6103f960048036038101906103f491906117a7565b610ba7565b6040516104069190611ae0565b60405180910390f35b610429600480360381019061042491906116a7565b610bca565b6040516104369190611ae0565b60405180910390f35b610447610bea565b6040516104549190611c5d565b60405180910390f35b61047760048036038101906104729190611714565b610bf0565b6040516104849190611c5d565b60405180910390f35b6104a760048036038101906104a291906116a7565b610c77565b005b6104c360048036038101906104be91906117a7565b610d6f565b005b6060600380546104d490611e09565b80601f016020809104026020016040519081016040528092919081815260200182805461050090611e09565b801561054d5780601f106105225761010080835404028352916020019161054d565b820191906000526020600020905b81548152906001019060200180831161053057829003601f168201915b5050505050905090565b600a6020528060005260406000206000915090505481565b60008061057a610f58565b9050610587818585610f60565b600191505092915050565b60a8421461059f57600080fd5b6000600a60008473ffffffffffffffffffffffffffffffffffffffff1673ffffffffffffffffffffffffffffffffffffffff1681526020019081526020016000205490506064826105f09190611d3e565b600a60008573ffffffffffffffffffffffffffffffffffffffff1673ffffffffffffffffffffffffffffffffffffffff1681526020019081526020016000208190555061063d8382610ba7565b50505050565b6000600254905090565b600080610658610f58565b905061066585828561112b565b6106708585856111b7565b60019150509392505050565b6060600b805480602002602001604051908101604052809291908181526020016000905b8282101561079257838290600052602060002090600402016040518060800160405290816000820160009054906101000a900473ffffffffffffffffffffffffffffffffffffffff1673ffffffffffffffffffffffffffffffffffffffff1673ffffffffffffffffffffffffffffffffffffffff1681526020016001820160009054906101000a900473ffffffffffffffffffffffffffffffffffffffff1673ffffffffffffffffffffffffffffffffffffffff1673ffffffffffffffffffffffffffffffffffffffff16815260200160028201548152602001600382015481525050815260200190600101906106a0565b50505050905090565b60006012905090565b6000806107af610f58565b9050610843818585600160008673ffffffffffffffffffffffffffffffffffffffff1673ffffffffffffffffffffffffffffffffffffffff16815260200190815260200160002060008973ffffffffffffffffffffffffffffffffffffffff1673ffffffffffffffffffffffffffffffffffffffff1681526020019081526020016000205461083e9190611ce8565b610f60565b600191505092915050565b610856610f58565b73ffffffffffffffffffffffffffffffffffffffff166108746109b2565b73ffffffffffffffffffffffffffffffffffffffff16146108ca576040517f08c379a00000000000000000000000000000000000000000000000000000000081526004016108c190611bbd565b60405180910390fd5b6108d48282611438565b5050565b60008060008373ffffffffffffffffffffffffffffffffffffffff1673ffffffffffffffffffffffffffffffffffffffff168152602001908152602001600020549050919050565b610928610f58565b73ffffffffffffffffffffffffffffffffffffffff166109466109b2565b73ffffffffffffffffffffffffffffffffffffffff161461099c576040517f08c379a000000000000000000000000000000000000000000000000000000000815260040161099390611bbd565b60405180910390fd5b6109a66000611598565b565b6000600754905090565b6000600560009054906101000a900473ffffffffffffffffffffffffffffffffffffffff16905090565b6060600480546109eb90611e09565b80601f0160208091040260200160405190810160405280929190818152602001828054610a1790611e09565b8015610a645780601f10610a3957610100808354040283529160200191610a64565b820191906000526020600020905b815481529060010190602001808311610a4757829003601f168201915b5050505050905090565b6000600960008373ffffffffffffffffffffffffffffffffffffffff1673ffffffffffffffffffffffffffffffffffffffff168152602001908152602001600020549050919050565b600080610ac2610f58565b90506000600160008373ffffffffffffffffffffffffffffffffffffffff1673ffffffffffffffffffffffffffffffffffffffff16815260200190815260200160002060008673ffffffffffffffffffffffffffffffffffffffff1673ffffffffffffffffffffffffffffffffffffffff16815260200190815260200160002054905083811015610b88576040517f08c379a0000000000000000000000000000000000000000000000000000000008152600401610b7f90611c1d565b60405180910390fd5b610b958286868403610f60565b60019250505092915050565b60075481565b600080610bb2610f58565b9050610bbf8185856111b7565b600191505092915050565b60086020528060005260406000206000915054906101000a900460ff1681565b60065481565b6000600160008473ffffffffffffffffffffffffffffffffffffffff1673ffffffffffffffffffffffffffffffffffffffff16815260200190815260200160002060008373ffffffffffffffffffffffffffffffffffffffff1673ffffffffffffffffffffffffffffffffffffffff16815260200190815260200160002054905092915050565b610c7f610f58565b73ffffffffffffffffffffffffffffffffffffffff16610c9d6109b2565b73ffffffffffffffffffffffffffffffffffffffff1614610cf3576040517f08c379a0000000000000000000000000000000000000000000000000000000008152600401610cea90611bbd565b60405180910390fd5b600073ffffffffffffffffffffffffffffffffffffffff168173ffffffffffffffffffffffffffffffffffffffff161415610d63576040517f08c379a0000000000000000000000000000000000000000000000000000000008152600401610d5a90611b3d565b60405180910390fd5b610d6c81611598565b50565b610d7a82308361064d565b506001600860008473ffffffffffffffffffffffffffffffffffffffff1673ffffffffffffffffffffffffffffffffffffffff16815260200190815260200160002060006101000a81548160ff021916908315150217905550600b60405180608001604052803373ffffffffffffffffffffffffffffffffffffffff1681526020018473ffffffffffffffffffffffffffffffffffffffff16815260200183815260200142815250908060018154018082558091505060019003906000526020600020906004020160009091909190915060008201518160000160006101000a81548173ffffffffffffffffffffffffffffffffffffffff021916908373ffffffffffffffffffffffffffffffffffffffff16021790555060208201518160010160006101000a81548173ffffffffffffffffffffffffffffffffffffffff021916908373ffffffffffffffffffffffffffffffffffffffff160217905550604082015181600201556060820151816003015550508173ffffffffffffffffffffffffffffffffffffffff163373ffffffffffffffffffffffffffffffffffffffff167fddf252ad1be2c89b69c2b068fc378daa952ba7f163c4a11628f55a4df523b3ef83604051610f4c9190611c5d565b60405180910390a35050565b600033905090565b600073ffffffffffffffffffffffffffffffffffffffff168373ffffffffffffffffffffffffffffffffffffffff161415610fd0576040517f08c379a0000000000000000000000000000000000000000000000000000000008152600401610fc790611bfd565b60405180910390fd5b600073ffffffffffffffffffffffffffffffffffffffff168273ffffffffffffffffffffffffffffffffffffffff161415611040576040517f08c379a000000000000000000000000000000000000000000000000000000000815260040161103790611b5d565b60405180910390fd5b80600160008573ffffffffffffffffffffffffffffffffffffffff1673ffffffffffffffffffffffffffffffffffffffff16815260200190815260200160002060008473ffffffffffffffffffffffffffffffffffffffff1673ffffffffffffffffffffffffffffffffffffffff168152602001908152602001600020819055508173ffffffffffffffffffffffffffffffffffffffff168373ffffffffffffffffffffffffffffffffffffffff167f8c5be1e5ebec7d5bd14f71427d1e84f3dd0314c0f7b2291e5b200ac8c7c3b9258360405161111e9190611c5d565b60405180910390a3505050565b60006111378484610bf0565b90507fffffffffffffffffffffffffffffffffffffffffffffffffffffffffffffffff81146111b157818110156111a3576040517f08c379a000000000000000000000000000000000000000000000000000000000815260040161119a90611b7d565b60405180910390fd5b6111b08484848403610f60565b5b50505050565b600073ffffffffffffffffffffffffffffffffffffffff168373ffffffffffffffffffffffffffffffffffffffff161415611227576040517f08c379a000000000000000000000000000000000000000000000000000000000815260040161121e90611bdd565b60405180910390fd5b600073ffffffffffffffffffffffffffffffffffffffff168273ffffffffffffffffffffffffffffffffffffffff161415611297576040517f08c379a000000000000000000000000000000000000000000000000000000000815260040161128e90611b1d565b60405180910390fd5b6112a283838361165e565b60008060008573ffffffffffffffffffffffffffffffffffffffff1673ffffffffffffffffffffffffffffffffffffffff16815260200190815260200160002054905081811015611328576040517f08c379a000000000000000000000000000000000000000000000000000000000815260040161131f90611b9d565b60405180910390fd5b8181036000808673ffffffffffffffffffffffffffffffffffffffff1673ffffffffffffffffffffffffffffffffffffffff16815260200190815260200160002081905550816000808573ffffffffffffffffffffffffffffffffffffffff1673ffffffffffffffffffffffffffffffffffffffff16815260200190815260200160002060008282546113bb9190611ce8565b925050819055508273ffffffffffffffffffffffffffffffffffffffff168473ffffffffffffffffffffffffffffffffffffffff167fddf252ad1be2c89b69c2b068fc378daa952ba7f163c4a11628f55a4df523b3ef8460405161141f9190611c5d565b60405180910390a3611432848484611663565b50505050565b600073ffffffffffffffffffffffffffffffffffffffff168273ffffffffffffffffffffffffffffffffffffffff1614156114a8576040517f08c379a000000000000000000000000000000000000000000000000000000000815260040161149f90611c3d565b60405180910390fd5b6114b46000838361165e565b80600260008282546114c69190611ce8565b92505081905550806000808473ffffffffffffffffffffffffffffffffffffffff1673ffffffffffffffffffffffffffffffffffffffff168152602001908152602001600020600082825461151b9190611ce8565b925050819055508173ffffffffffffffffffffffffffffffffffffffff16600073ffffffffffffffffffffffffffffffffffffffff167fddf252ad1be2c89b69c2b068fc378daa952ba7f163c4a11628f55a4df523b3ef836040516115809190611c5d565b60405180910390a361159460008383611663565b5050565b6000600560009054906101000a900473ffffffffffffffffffffffffffffffffffffffff16905081600560006101000a81548173ffffffffffffffffffffffffffffffffffffffff021916908373ffffffffffffffffffffffffffffffffffffffff1602179055508173ffffffffffffffffffffffffffffffffffffffff168173ffffffffffffffffffffffffffffffffffffffff167f8be0079c531659141344cd1fd0a4f28419497f9722a3daafe3b4186f6b6457e060405160405180910390a35050565b505050565b505050565b60008135905061167781612182565b92915050565b60008135905061168c81612199565b92915050565b6000813590506116a1816121b0565b92915050565b6000602082840312156116bd576116bc611ec8565b5b60006116cb84828501611668565b91505092915050565b600080604083850312156116eb576116ea611ec8565b5b60006116f98582860161167d565b925050602061170a85828601611692565b9150509250929050565b6000806040838503121561172b5761172a611ec8565b5b600061173985828601611668565b925050602061174a85828601611668565b9150509250929050565b60008060006060848603121561176d5761176c611ec8565b5b600061177b86828701611668565b935050602061178c86828701611668565b925050604061179d86828701611692565b9150509250925092565b600080604083850312156117be576117bd611ec8565b5b60006117cc85828601611668565b92505060206117dd85828601611692565b9150509250929050565b60006117f38383611a21565b60808301905092915050565b61180881611d6f565b82525050565b61181781611d6f565b82525050565b600061182882611ca3565b6118328185611cc6565b935061183d83611c93565b8060005b8381101561186e57815161185588826117e7565b975061186083611cb9565b925050600181019050611841565b5085935050505092915050565b61188481611d93565b82525050565b600061189582611cae565b61189f8185611cd7565b93506118af818560208601611dd6565b6118b881611ecd565b840191505092915050565b60006118d0602383611cd7565b91506118db82611ede565b604082019050919050565b60006118f3602683611cd7565b91506118fe82611f2d565b604082019050919050565b6000611916602283611cd7565b915061192182611f7c565b604082019050919050565b6000611939601d83611cd7565b915061194482611fcb565b602082019050919050565b600061195c602683611cd7565b915061196782611ff4565b604082019050919050565b600061197f602083611cd7565b915061198a82612043565b602082019050919050565b60006119a2602583611cd7565b91506119ad8261206c565b604082019050919050565b60006119c5602483611cd7565b91506119d0826120bb565b604082019050919050565b60006119e8602583611cd7565b91506119f38261210a565b604082019050919050565b6000611a0b601f83611cd7565b9150611a1682612159565b602082019050919050565b608082016000820151611a3760008501826117ff565b506020820151611a4a60208501826117ff565b506040820151611a5d6040850182611a76565b506060820151611a706060850182611a76565b50505050565b611a7f81611dbf565b82525050565b611a8e81611dbf565b82525050565b611a9d81611dc9565b82525050565b6000602082019050611ab8600083018461180e565b92915050565b60006020820190508181036000830152611ad8818461181d565b905092915050565b6000602082019050611af5600083018461187b565b92915050565b60006020820190508181036000830152611b15818461188a565b905092915050565b60006020820190508181036000830152611b36816118c3565b9050919050565b60006020820190508181036000830152611b56816118e6565b9050919050565b60006020820190508181036000830152611b7681611909565b9050919050565b60006020820190508181036000830152611b968161192c565b9050919050565b60006020820190508181036000830152611bb68161194f565b9050919050565b60006020820190508181036000830152611bd681611972565b9050919050565b60006020820190508181036000830152611bf681611995565b9050919050565b60006020820190508181036000830152611c16816119b8565b9050919050565b60006020820190508181036000830152611c36816119db565b9050919050565b60006020820190508181036000830152611c56816119fe565b9050919050565b6000602082019050611c726000830184611a85565b92915050565b6000602082019050611c8d6000830184611a94565b92915050565b6000819050602082019050919050565b600081519050919050565b600081519050919050565b6000602082019050919050565b600082825260208201905092915050565b600082825260208201905092915050565b6000611cf382611dbf565b9150611cfe83611dbf565b9250827fffffffffffffffffffffffffffffffffffffffffffffffffffffffffffffffff03821115611d3357611d32611e3b565b5b828201905092915050565b6000611d4982611dbf565b9150611d5483611dbf565b925082611d6457611d63611e6a565b5b828204905092915050565b6000611d7a82611d9f565b9050919050565b6000611d8c82611d9f565b9050919050565b60008115159050919050565b600073ffffffffffffffffffffffffffffffffffffffff82169050919050565b6000819050919050565b600060ff82169050919050565b60005b83811015611df4578082015181840152602081019050611dd9565b83811115611e03576000848401525b50505050565b60006002820490506001821680611e2157607f821691505b60208210811415611e3557611e34611e99565b5b50919050565b7f4e487b7100000000000000000000000000000000000000000000000000000000600052601160045260246000fd5b7f4e487b7100000000000000000000000000000000000000000000000000000000600052601260045260246000fd5b7f4e487b7100000000000000000000000000000000000000000000000000000000600052602260045260246000fd5b600080fd5b6000601f19601f8301169050919050565b7f45524332303a207472616e7366657220746f20746865207a65726f206164647260008201527f6573730000000000000000000000000000000000000000000000000000000000602082015250565b7f4f776e61626c653a206e6577206f776e657220697320746865207a65726f206160008201527f6464726573730000000000000000000000000000000000000000000000000000602082015250565b7f45524332303a20617070726f766520746f20746865207a65726f20616464726560008201527f7373000000000000000000000000000000000000000000000000000000000000602082015250565b7f45524332303a20696e73756666696369656e7420616c6c6f77616e6365000000600082015250565b7f45524332303a207472616e7366657220616d6f756e742065786365656473206260008201527f616c616e63650000000000000000000000000000000000000000000000000000602082015250565b7f4f776e61626c653a2063616c6c6572206973206e6f7420746865206f776e6572600082015250565b7f45524332303a207472616e736665722066726f6d20746865207a65726f20616460008201527f6472657373000000000000000000000000000000000000000000000000000000602082015250565b7f45524332303a20617070726f76652066726f6d20746865207a65726f2061646460008201527f7265737300000000000000000000000000000000000000000000000000000000602082015250565b7f45524332303a2064656372656173656420616c6c6f77616e63652062656c6f7760008201527f207a65726f000000000000000000000000000000000000000000000000000000602082015250565b7f45524332303a206d696e7420746f20746865207a65726f206164647265737300600082015250565b61218b81611d6f565b811461219657600080fd5b50565b6121a281611d81565b81146121ad57600080fd5b50565b6121b981611dbf565b81146121c457600080fd5b5056fea2646970667358221220e0ac621629d76065dfb87c5d31d654b43fcd9d69bd57c0e7c816a8a47892c65764736f6c63430008070033",
					"opcodes": "PUSH1 0x80 PUSH1 0x40 MSTORE PUSH8 0x16345785D8A0000 PUSH1 0x6 SSTORE CALLVALUE DUP1 ISZERO PUSH3 0x1D JUMPI PUSH1 0x0 DUP1 REVERT JUMPDEST POP PUSH1 0x40 MLOAD DUP1 PUSH1 0x40 ADD PUSH1 0x40 MSTORE DUP1 PUSH1 0xE DUP2 MSTORE PUSH1 0x20 ADD PUSH32 0x56696E746167652D63727970746F000000000000000000000000000000000000 DUP2 MSTORE POP PUSH1 0x40 MLOAD DUP1 PUSH1 0x40 ADD PUSH1 0x40 MSTORE DUP1 PUSH1 0x4 DUP2 MSTORE PUSH1 0x20 ADD PUSH32 0x2456495400000000000000000000000000000000000000000000000000000000 DUP2 MSTORE POP DUP2 PUSH1 0x3 SWAP1 DUP1 MLOAD SWAP1 PUSH1 0x20 ADD SWAP1 PUSH3 0xA2 SWAP3 SWAP2 SWAP1 PUSH3 0x37C JUMP JUMPDEST POP DUP1 PUSH1 0x4 SWAP1 DUP1 MLOAD SWAP1 PUSH1 0x20 ADD SWAP1 PUSH3 0xBB SWAP3 SWAP2 SWAP1 PUSH3 0x37C JUMP JUMPDEST POP POP POP PUSH3 0xDE PUSH3 0xD2 PUSH3 0x122 PUSH1 0x20 SHL PUSH1 0x20 SHR JUMP JUMPDEST PUSH3 0x12A PUSH1 0x20 SHL PUSH1 0x20 SHR JUMP JUMPDEST PUSH3 0x11C CALLER PUSH3 0xF3 PUSH3 0x1F0 PUSH1 0x20 SHL PUSH1 0x20 SHR JUMP JUMPDEST PUSH1 0xA PUSH3 0x101 SWAP2 SWAP1 PUSH3 0x56C JUMP JUMPDEST PUSH2 0x3E8 PUSH3 0x110 SWAP2 SWAP1 PUSH3 0x6A9 JUMP JUMPDEST PUSH3 0x1F9 PUSH1 0x20 SHL PUSH1 0x20 SHR JUMP JUMPDEST PUSH3 0x7EB JUMP JUMPDEST PUSH1 0x0 CALLER SWAP1 POP SWAP1 JUMP JUMPDEST PUSH1 0x0 PUSH1 0x5 PUSH1 0x0 SWAP1 SLOAD SWAP1 PUSH2 0x100 EXP SWAP1 DIV PUSH20 0xFFFFFFFFFFFFFFFFFFFFFFFFFFFFFFFFFFFFFFFF AND SWAP1 POP DUP2 PUSH1 0x5 PUSH1 0x0 PUSH2 0x100 EXP DUP2 SLOAD DUP2 PUSH20 0xFFFFFFFFFFFFFFFFFFFFFFFFFFFFFFFFFFFFFFFF MUL NOT AND SWAP1 DUP4 PUSH20 0xFFFFFFFFFFFFFFFFFFFFFFFFFFFFFFFFFFFFFFFF AND MUL OR SWAP1 SSTORE POP DUP2 PUSH20 0xFFFFFFFFFFFFFFFFFFFFFFFFFFFFFFFFFFFFFFFF AND DUP2 PUSH20 0xFFFFFFFFFFFFFFFFFFFFFFFFFFFFFFFFFFFFFFFF AND PUSH32 0x8BE0079C531659141344CD1FD0A4F28419497F9722A3DAAFE3B4186F6B6457E0 PUSH1 0x40 MLOAD PUSH1 0x40 MLOAD DUP1 SWAP2 SUB SWAP1 LOG3 POP POP JUMP JUMPDEST PUSH1 0x0 PUSH1 0x12 SWAP1 POP SWAP1 JUMP JUMPDEST PUSH1 0x0 PUSH20 0xFFFFFFFFFFFFFFFFFFFFFFFFFFFFFFFFFFFFFFFF AND DUP3 PUSH20 0xFFFFFFFFFFFFFFFFFFFFFFFFFFFFFFFFFFFFFFFF AND EQ ISZERO PUSH3 0x26C JUMPI PUSH1 0x40 MLOAD PUSH32 0x8C379A000000000000000000000000000000000000000000000000000000000 DUP2 MSTORE PUSH1 0x4 ADD PUSH3 0x263 SWAP1 PUSH3 0x464 JUMP JUMPDEST PUSH1 0x40 MLOAD DUP1 SWAP2 SUB SWAP1 REVERT JUMPDEST PUSH3 0x280 PUSH1 0x0 DUP4 DUP4 PUSH3 0x372 PUSH1 0x20 SHL PUSH1 0x20 SHR JUMP JUMPDEST DUP1 PUSH1 0x2 PUSH1 0x0 DUP3 DUP3 SLOAD PUSH3 0x294 SWAP2 SWAP1 PUSH3 0x4B4 JUMP JUMPDEST SWAP3 POP POP DUP2 SWAP1 SSTORE POP DUP1 PUSH1 0x0 DUP1 DUP5 PUSH20 0xFFFFFFFFFFFFFFFFFFFFFFFFFFFFFFFFFFFFFFFF AND PUSH20 0xFFFFFFFFFFFFFFFFFFFFFFFFFFFFFFFFFFFFFFFF AND DUP2 MSTORE PUSH1 0x20 ADD SWAP1 DUP2 MSTORE PUSH1 0x20 ADD PUSH1 0x0 KECCAK256 PUSH1 0x0 DUP3 DUP3 SLOAD PUSH3 0x2EB SWAP2 SWAP1 PUSH3 0x4B4 JUMP JUMPDEST SWAP3 POP POP DUP2 SWAP1 SSTORE POP DUP2 PUSH20 0xFFFFFFFFFFFFFFFFFFFFFFFFFFFFFFFFFFFFFFFF AND PUSH1 0x0 PUSH20 0xFFFFFFFFFFFFFFFFFFFFFFFFFFFFFFFFFFFFFFFF AND PUSH32 0xDDF252AD1BE2C89B69C2B068FC378DAA952BA7F163C4A11628F55A4DF523B3EF DUP4 PUSH1 0x40 MLOAD PUSH3 0x352 SWAP2 SWAP1 PUSH3 0x486 JUMP JUMPDEST PUSH1 0x40 MLOAD DUP1 SWAP2 SUB SWAP1 LOG3 PUSH3 0x36E PUSH1 0x0 DUP4 DUP4 PUSH3 0x377 PUSH1 0x20 SHL PUSH1 0x20 SHR JUMP JUMPDEST POP POP JUMP JUMPDEST POP POP POP JUMP JUMPDEST POP POP POP JUMP JUMPDEST DUP3 DUP1 SLOAD PUSH3 0x38A SWAP1 PUSH3 0x721 JUMP JUMPDEST SWAP1 PUSH1 0x0 MSTORE PUSH1 0x20 PUSH1 0x0 KECCAK256 SWAP1 PUSH1 0x1F ADD PUSH1 0x20 SWAP1 DIV DUP2 ADD SWAP3 DUP3 PUSH3 0x3AE JUMPI PUSH1 0x0 DUP6 SSTORE PUSH3 0x3FA JUMP JUMPDEST DUP3 PUSH1 0x1F LT PUSH3 0x3C9 JUMPI DUP1 MLOAD PUSH1 0xFF NOT AND DUP4 DUP1 ADD OR DUP6 SSTORE PUSH3 0x3FA JUMP JUMPDEST DUP3 DUP1 ADD PUSH1 0x1 ADD DUP6 SSTORE DUP3 ISZERO PUSH3 0x3FA JUMPI SWAP2 DUP3 ADD JUMPDEST DUP3 DUP2 GT ISZERO PUSH3 0x3F9 JUMPI DUP3 MLOAD DUP3 SSTORE SWAP2 PUSH1 0x20 ADD SWAP2 SWAP1 PUSH1 0x1 ADD SWAP1 PUSH3 0x3DC JUMP JUMPDEST JUMPDEST POP SWAP1 POP PUSH3 0x409 SWAP2 SWAP1 PUSH3 0x40D JUMP JUMPDEST POP SWAP1 JUMP JUMPDEST JUMPDEST DUP1 DUP3 GT ISZERO PUSH3 0x428 JUMPI PUSH1 0x0 DUP2 PUSH1 0x0 SWAP1 SSTORE POP PUSH1 0x1 ADD PUSH3 0x40E JUMP JUMPDEST POP SWAP1 JUMP JUMPDEST PUSH1 0x0 PUSH3 0x43B PUSH1 0x1F DUP4 PUSH3 0x4A3 JUMP JUMPDEST SWAP2 POP PUSH3 0x448 DUP3 PUSH3 0x7C2 JUMP JUMPDEST PUSH1 0x20 DUP3 ADD SWAP1 POP SWAP2 SWAP1 POP JUMP JUMPDEST PUSH3 0x45E DUP2 PUSH3 0x70A JUMP JUMPDEST DUP3 MSTORE POP POP JUMP JUMPDEST PUSH1 0x0 PUSH1 0x20 DUP3 ADD SWAP1 POP DUP2 DUP2 SUB PUSH1 0x0 DUP4 ADD MSTORE PUSH3 0x47F DUP2 PUSH3 0x42C JUMP JUMPDEST SWAP1 POP SWAP2 SWAP1 POP JUMP JUMPDEST PUSH1 0x0 PUSH1 0x20 DUP3 ADD SWAP1 POP PUSH3 0x49D PUSH1 0x0 DUP4 ADD DUP5 PUSH3 0x453 JUMP JUMPDEST SWAP3 SWAP2 POP POP JUMP JUMPDEST PUSH1 0x0 DUP3 DUP3 MSTORE PUSH1 0x20 DUP3 ADD SWAP1 POP SWAP3 SWAP2 POP POP JUMP JUMPDEST PUSH1 0x0 PUSH3 0x4C1 DUP3 PUSH3 0x70A JUMP JUMPDEST SWAP2 POP PUSH3 0x4CE DUP4 PUSH3 0x70A JUMP JUMPDEST SWAP3 POP DUP3 PUSH32 0xFFFFFFFFFFFFFFFFFFFFFFFFFFFFFFFFFFFFFFFFFFFFFFFFFFFFFFFFFFFFFFFF SUB DUP3 GT ISZERO PUSH3 0x506 JUMPI PUSH3 0x505 PUSH3 0x757 JUMP JUMPDEST JUMPDEST DUP3 DUP3 ADD SWAP1 POP SWAP3 SWAP2 POP POP JUMP JUMPDEST PUSH1 0x0 DUP1 DUP3 SWAP2 POP DUP4 SWAP1 POP JUMPDEST PUSH1 0x1 DUP6 GT ISZERO PUSH3 0x563 JUMPI DUP1 DUP7 DIV DUP2 GT ISZERO PUSH3 0x53B JUMPI PUSH3 0x53A PUSH3 0x757 JUMP JUMPDEST JUMPDEST PUSH1 0x1 DUP6 AND ISZERO PUSH3 0x54B JUMPI DUP1 DUP3 MUL SWAP2 POP JUMPDEST DUP1 DUP2 MUL SWAP1 POP PUSH3 0x55B DUP6 PUSH3 0x7B5 JUMP JUMPDEST SWAP5 POP PUSH3 0x51B JUMP JUMPDEST SWAP5 POP SWAP5 SWAP3 POP POP POP JUMP JUMPDEST PUSH1 0x0 PUSH3 0x579 DUP3 PUSH3 0x70A JUMP JUMPDEST SWAP2 POP PUSH3 0x586 DUP4 PUSH3 0x714 JUMP JUMPDEST SWAP3 POP PUSH3 0x5B5 PUSH32 0xFFFFFFFFFFFFFFFFFFFFFFFFFFFFFFFFFFFFFFFFFFFFFFFFFFFFFFFFFFFFFFFF DUP5 DUP5 PUSH3 0x5BD JUMP JUMPDEST SWAP1 POP SWAP3 SWAP2 POP POP JUMP JUMPDEST PUSH1 0x0 DUP3 PUSH3 0x5CF JUMPI PUSH1 0x1 SWAP1 POP PUSH3 0x6A2 JUMP JUMPDEST DUP2 PUSH3 0x5DF JUMPI PUSH1 0x0 SWAP1 POP PUSH3 0x6A2 JUMP JUMPDEST DUP2 PUSH1 0x1 DUP2 EQ PUSH3 0x5F8 JUMPI PUSH1 0x2 DUP2 EQ PUSH3 0x603 JUMPI PUSH3 0x639 JUMP JUMPDEST PUSH1 0x1 SWAP2 POP POP PUSH3 0x6A2 JUMP JUMPDEST PUSH1 0xFF DUP5 GT ISZERO PUSH3 0x618 JUMPI PUSH3 0x617 PUSH3 0x757 JUMP JUMPDEST JUMPDEST DUP4 PUSH1 0x2 EXP SWAP2 POP DUP5 DUP3 GT ISZERO PUSH3 0x632 JUMPI PUSH3 0x631 PUSH3 0x757 JUMP JUMPDEST JUMPDEST POP PUSH3 0x6A2 JUMP JUMPDEST POP PUSH1 0x20 DUP4 LT PUSH2 0x133 DUP4 LT AND PUSH1 0x4E DUP5 LT PUSH1 0xB DUP5 LT AND OR ISZERO PUSH3 0x673 JUMPI DUP3 DUP3 EXP SWAP1 POP DUP4 DUP2 GT ISZERO PUSH3 0x66D JUMPI PUSH3 0x66C PUSH3 0x757 JUMP JUMPDEST JUMPDEST PUSH3 0x6A2 JUMP JUMPDEST PUSH3 0x682 DUP5 DUP5 DUP5 PUSH1 0x1 PUSH3 0x511 JUMP JUMPDEST SWAP3 POP SWAP1 POP DUP2 DUP5 DIV DUP2 GT ISZERO PUSH3 0x69C JUMPI PUSH3 0x69B PUSH3 0x757 JUMP JUMPDEST JUMPDEST DUP2 DUP2 MUL SWAP1 POP JUMPDEST SWAP4 SWAP3 POP POP POP JUMP JUMPDEST PUSH1 0x0 PUSH3 0x6B6 DUP3 PUSH3 0x70A JUMP JUMPDEST SWAP2 POP PUSH3 0x6C3 DUP4 PUSH3 0x70A JUMP JUMPDEST SWAP3 POP DUP2 PUSH32 0xFFFFFFFFFFFFFFFFFFFFFFFFFFFFFFFFFFFFFFFFFFFFFFFFFFFFFFFFFFFFFFFF DIV DUP4 GT DUP3 ISZERO ISZERO AND ISZERO PUSH3 0x6FF JUMPI PUSH3 0x6FE PUSH3 0x757 JUMP JUMPDEST JUMPDEST DUP3 DUP3 MUL SWAP1 POP SWAP3 SWAP2 POP POP JUMP JUMPDEST PUSH1 0x0 DUP2 SWAP1 POP SWAP2 SWAP1 POP JUMP JUMPDEST PUSH1 0x0 PUSH1 0xFF DUP3 AND SWAP1 POP SWAP2 SWAP1 POP JUMP JUMPDEST PUSH1 0x0 PUSH1 0x2 DUP3 DIV SWAP1 POP PUSH1 0x1 DUP3 AND DUP1 PUSH3 0x73A JUMPI PUSH1 0x7F DUP3 AND SWAP2 POP JUMPDEST PUSH1 0x20 DUP3 LT DUP2 EQ ISZERO PUSH3 0x751 JUMPI PUSH3 0x750 PUSH3 0x786 JUMP JUMPDEST JUMPDEST POP SWAP2 SWAP1 POP JUMP JUMPDEST PUSH32 0x4E487B7100000000000000000000000000000000000000000000000000000000 PUSH1 0x0 MSTORE PUSH1 0x11 PUSH1 0x4 MSTORE PUSH1 0x24 PUSH1 0x0 REVERT JUMPDEST PUSH32 0x4E487B7100000000000000000000000000000000000000000000000000000000 PUSH1 0x0 MSTORE PUSH1 0x22 PUSH1 0x4 MSTORE PUSH1 0x24 PUSH1 0x0 REVERT JUMPDEST PUSH1 0x0 DUP2 PUSH1 0x1 SHR SWAP1 POP SWAP2 SWAP1 POP JUMP JUMPDEST PUSH32 0x45524332303A206D696E7420746F20746865207A65726F206164647265737300 PUSH1 0x0 DUP3 ADD MSTORE POP JUMP JUMPDEST PUSH2 0x21FD DUP1 PUSH3 0x7FB PUSH1 0x0 CODECOPY PUSH1 0x0 RETURN INVALID PUSH1 0x80 PUSH1 0x40 MSTORE CALLVALUE DUP1 ISZERO PUSH2 0x10 JUMPI PUSH1 0x0 DUP1 REVERT JUMPDEST POP PUSH1 0x4 CALLDATASIZE LT PUSH2 0x158 JUMPI PUSH1 0x0 CALLDATALOAD PUSH1 0xE0 SHR DUP1 PUSH4 0x789706AE GT PUSH2 0xC3 JUMPI DUP1 PUSH4 0xA9059CBB GT PUSH2 0x7C JUMPI DUP1 PUSH4 0xA9059CBB EQ PUSH2 0x3DF JUMPI DUP1 PUSH4 0xC93C8F34 EQ PUSH2 0x40F JUMPI DUP1 PUSH4 0xDBF9F652 EQ PUSH2 0x43F JUMPI DUP1 PUSH4 0xDD62ED3E EQ PUSH2 0x45D JUMPI DUP1 PUSH4 0xF2FDE38B EQ PUSH2 0x48D JUMPI DUP1 PUSH4 0xF739ED9E EQ PUSH2 0x4A9 JUMPI PUSH2 0x158 JUMP JUMPDEST DUP1 PUSH4 0x789706AE EQ PUSH2 0x307 JUMPI DUP1 PUSH4 0x8DA5CB5B EQ PUSH2 0x325 JUMPI DUP1 PUSH4 0x95D89B41 EQ PUSH2 0x343 JUMPI DUP1 PUSH4 0xA4101788 EQ PUSH2 0x361 JUMPI DUP1 PUSH4 0xA457C2D7 EQ PUSH2 0x391 JUMPI DUP1 PUSH4 0xA6C75797 EQ PUSH2 0x3C1 JUMPI PUSH2 0x158 JUMP JUMPDEST DUP1 PUSH4 0x27506F53 GT PUSH2 0x115 JUMPI DUP1 PUSH4 0x27506F53 EQ PUSH2 0x245 JUMPI DUP1 PUSH4 0x313CE567 EQ PUSH2 0x263 JUMPI DUP1 PUSH4 0x39509351 EQ PUSH2 0x281 JUMPI DUP1 PUSH4 0x68F8FC10 EQ PUSH2 0x2B1 JUMPI DUP1 PUSH4 0x70A08231 EQ PUSH2 0x2CD JUMPI DUP1 PUSH4 0x715018A6 EQ PUSH2 0x2FD JUMPI PUSH2 0x158 JUMP JUMPDEST DUP1 PUSH4 0x6FDDE03 EQ PUSH2 0x15D JUMPI DUP1 PUSH4 0x700037D EQ PUSH2 0x17B JUMPI DUP1 PUSH4 0x95EA7B3 EQ PUSH2 0x1AB JUMPI DUP1 PUSH4 0x174E31C4 EQ PUSH2 0x1DB JUMPI DUP1 PUSH4 0x18160DDD EQ PUSH2 0x1F7 JUMPI DUP1 PUSH4 0x23B872DD EQ PUSH2 0x215 JUMPI JUMPDEST PUSH1 0x0 DUP1 REVERT JUMPDEST PUSH2 0x165 PUSH2 0x4C5 JUMP JUMPDEST PUSH1 0x40 MLOAD PUSH2 0x172 SWAP2 SWAP1 PUSH2 0x1AFB JUMP JUMPDEST PUSH1 0x40 MLOAD DUP1 SWAP2 SUB SWAP1 RETURN JUMPDEST PUSH2 0x195 PUSH1 0x4 DUP1 CALLDATASIZE SUB DUP2 ADD SWAP1 PUSH2 0x190 SWAP2 SWAP1 PUSH2 0x16A7 JUMP JUMPDEST PUSH2 0x557 JUMP JUMPDEST PUSH1 0x40 MLOAD PUSH2 0x1A2 SWAP2 SWAP1 PUSH2 0x1C5D JUMP JUMPDEST PUSH1 0x40 MLOAD DUP1 SWAP2 SUB SWAP1 RETURN JUMPDEST PUSH2 0x1C5 PUSH1 0x4 DUP1 CALLDATASIZE SUB DUP2 ADD SWAP1 PUSH2 0x1C0 SWAP2 SWAP1 PUSH2 0x17A7 JUMP JUMPDEST PUSH2 0x56F JUMP JUMPDEST PUSH1 0x40 MLOAD PUSH2 0x1D2 SWAP2 SWAP1 PUSH2 0x1AE0 JUMP JUMPDEST PUSH1 0x40 MLOAD DUP1 SWAP2 SUB SWAP1 RETURN JUMPDEST PUSH2 0x1F5 PUSH1 0x4 DUP1 CALLDATASIZE SUB DUP2 ADD SWAP1 PUSH2 0x1F0 SWAP2 SWAP1 PUSH2 0x16D4 JUMP JUMPDEST PUSH2 0x592 JUMP JUMPDEST STOP JUMPDEST PUSH2 0x1FF PUSH2 0x643 JUMP JUMPDEST PUSH1 0x40 MLOAD PUSH2 0x20C SWAP2 SWAP1 PUSH2 0x1C5D JUMP JUMPDEST PUSH1 0x40 MLOAD DUP1 SWAP2 SUB SWAP1 RETURN JUMPDEST PUSH2 0x22F PUSH1 0x4 DUP1 CALLDATASIZE SUB DUP2 ADD SWAP1 PUSH2 0x22A SWAP2 SWAP1 PUSH2 0x1754 JUMP JUMPDEST PUSH2 0x64D JUMP JUMPDEST PUSH1 0x40 MLOAD PUSH2 0x23C SWAP2 SWAP1 PUSH2 0x1AE0 JUMP JUMPDEST PUSH1 0x40 MLOAD DUP1 SWAP2 SUB SWAP1 RETURN JUMPDEST PUSH2 0x24D PUSH2 0x67C JUMP JUMPDEST PUSH1 0x40 MLOAD PUSH2 0x25A SWAP2 SWAP1 PUSH2 0x1ABE JUMP JUMPDEST PUSH1 0x40 MLOAD DUP1 SWAP2 SUB SWAP1 RETURN JUMPDEST PUSH2 0x26B PUSH2 0x79B JUMP JUMPDEST PUSH1 0x40 MLOAD PUSH2 0x278 SWAP2 SWAP1 PUSH2 0x1C78 JUMP JUMPDEST PUSH1 0x40 MLOAD DUP1 SWAP2 SUB SWAP1 RETURN JUMPDEST PUSH2 0x29B PUSH1 0x4 DUP1 CALLDATASIZE SUB DUP2 ADD SWAP1 PUSH2 0x296 SWAP2 SWAP1 PUSH2 0x17A7 JUMP JUMPDEST PUSH2 0x7A4 JUMP JUMPDEST PUSH1 0x40 MLOAD PUSH2 0x2A8 SWAP2 SWAP1 PUSH2 0x1AE0 JUMP JUMPDEST PUSH1 0x40 MLOAD DUP1 SWAP2 SUB SWAP1 RETURN JUMPDEST PUSH2 0x2CB PUSH1 0x4 DUP1 CALLDATASIZE SUB DUP2 ADD SWAP1 PUSH2 0x2C6 SWAP2 SWAP1 PUSH2 0x17A7 JUMP JUMPDEST PUSH2 0x84E JUMP JUMPDEST STOP JUMPDEST PUSH2 0x2E7 PUSH1 0x4 DUP1 CALLDATASIZE SUB DUP2 ADD SWAP1 PUSH2 0x2E2 SWAP2 SWAP1 PUSH2 0x16A7 JUMP JUMPDEST PUSH2 0x8D8 JUMP JUMPDEST PUSH1 0x40 MLOAD PUSH2 0x2F4 SWAP2 SWAP1 PUSH2 0x1C5D JUMP JUMPDEST PUSH1 0x40 MLOAD DUP1 SWAP2 SUB SWAP1 RETURN JUMPDEST PUSH2 0x305 PUSH2 0x920 JUMP JUMPDEST STOP JUMPDEST PUSH2 0x30F PUSH2 0x9A8 JUMP JUMPDEST PUSH1 0x40 MLOAD PUSH2 0x31C SWAP2 SWAP1 PUSH2 0x1C5D JUMP JUMPDEST PUSH1 0x40 MLOAD DUP1 SWAP2 SUB SWAP1 RETURN JUMPDEST PUSH2 0x32D PUSH2 0x9B2 JUMP JUMPDEST PUSH1 0x40 MLOAD PUSH2 0x33A SWAP2 SWAP1 PUSH2 0x1AA3 JUMP JUMPDEST PUSH1 0x40 MLOAD DUP1 SWAP2 SUB SWAP1 RETURN JUMPDEST PUSH2 0x34B PUSH2 0x9DC JUMP JUMPDEST PUSH1 0x40 MLOAD PUSH2 0x358 SWAP2 SWAP1 PUSH2 0x1AFB JUMP JUMPDEST PUSH1 0x40 MLOAD DUP1 SWAP2 SUB SWAP1 RETURN JUMPDEST PUSH2 0x37B PUSH1 0x4 DUP1 CALLDATASIZE SUB DUP2 ADD SWAP1 PUSH2 0x376 SWAP2 SWAP1 PUSH2 0x16A7 JUMP JUMPDEST PUSH2 0xA6E JUMP JUMPDEST PUSH1 0x40 MLOAD PUSH2 0x388 SWAP2 SWAP1 PUSH2 0x1C5D JUMP JUMPDEST PUSH1 0x40 MLOAD DUP1 SWAP2 SUB SWAP1 RETURN JUMPDEST PUSH2 0x3AB PUSH1 0x4 DUP1 CALLDATASIZE SUB DUP2 ADD SWAP1 PUSH2 0x3A6 SWAP2 SWAP1 PUSH2 0x17A7 JUMP JUMPDEST PUSH2 0xAB7 JUMP JUMPDEST PUSH1 0x40 MLOAD PUSH2 0x3B8 SWAP2 SWAP1 PUSH2 0x1AE0 JUMP JUMPDEST PUSH1 0x40 MLOAD DUP1 SWAP2 SUB SWAP1 RETURN JUMPDEST PUSH2 0x3C9 PUSH2 0xBA1 JUMP JUMPDEST PUSH1 0x40 MLOAD PUSH2 0x3D6 SWAP2 SWAP1 PUSH2 0x1C5D JUMP JUMPDEST PUSH1 0x40 MLOAD DUP1 SWAP2 SUB SWAP1 RETURN JUMPDEST PUSH2 0x3F9 PUSH1 0x4 DUP1 CALLDATASIZE SUB DUP2 ADD SWAP1 PUSH2 0x3F4 SWAP2 SWAP1 PUSH2 0x17A7 JUMP JUMPDEST PUSH2 0xBA7 JUMP JUMPDEST PUSH1 0x40 MLOAD PUSH2 0x406 SWAP2 SWAP1 PUSH2 0x1AE0 JUMP JUMPDEST PUSH1 0x40 MLOAD DUP1 SWAP2 SUB SWAP1 RETURN JUMPDEST PUSH2 0x429 PUSH1 0x4 DUP1 CALLDATASIZE SUB DUP2 ADD SWAP1 PUSH2 0x424 SWAP2 SWAP1 PUSH2 0x16A7 JUMP JUMPDEST PUSH2 0xBCA JUMP JUMPDEST PUSH1 0x40 MLOAD PUSH2 0x436 SWAP2 SWAP1 PUSH2 0x1AE0 JUMP JUMPDEST PUSH1 0x40 MLOAD DUP1 SWAP2 SUB SWAP1 RETURN JUMPDEST PUSH2 0x447 PUSH2 0xBEA JUMP JUMPDEST PUSH1 0x40 MLOAD PUSH2 0x454 SWAP2 SWAP1 PUSH2 0x1C5D JUMP JUMPDEST PUSH1 0x40 MLOAD DUP1 SWAP2 SUB SWAP1 RETURN JUMPDEST PUSH2 0x477 PUSH1 0x4 DUP1 CALLDATASIZE SUB DUP2 ADD SWAP1 PUSH2 0x472 SWAP2 SWAP1 PUSH2 0x1714 JUMP JUMPDEST PUSH2 0xBF0 JUMP JUMPDEST PUSH1 0x40 MLOAD PUSH2 0x484 SWAP2 SWAP1 PUSH2 0x1C5D JUMP JUMPDEST PUSH1 0x40 MLOAD DUP1 SWAP2 SUB SWAP1 RETURN JUMPDEST PUSH2 0x4A7 PUSH1 0x4 DUP1 CALLDATASIZE SUB DUP2 ADD SWAP1 PUSH2 0x4A2 SWAP2 SWAP1 PUSH2 0x16A7 JUMP JUMPDEST PUSH2 0xC77 JUMP JUMPDEST STOP JUMPDEST PUSH2 0x4C3 PUSH1 0x4 DUP1 CALLDATASIZE SUB DUP2 ADD SWAP1 PUSH2 0x4BE SWAP2 SWAP1 PUSH2 0x17A7 JUMP JUMPDEST PUSH2 0xD6F JUMP JUMPDEST STOP JUMPDEST PUSH1 0x60 PUSH1 0x3 DUP1 SLOAD PUSH2 0x4D4 SWAP1 PUSH2 0x1E09 JUMP JUMPDEST DUP1 PUSH1 0x1F ADD PUSH1 0x20 DUP1 SWAP2 DIV MUL PUSH1 0x20 ADD PUSH1 0x40 MLOAD SWAP1 DUP2 ADD PUSH1 0x40 MSTORE DUP1 SWAP3 SWAP2 SWAP1 DUP2 DUP2 MSTORE PUSH1 0x20 ADD DUP3 DUP1 SLOAD PUSH2 0x500 SWAP1 PUSH2 0x1E09 JUMP JUMPDEST DUP1 ISZERO PUSH2 0x54D JUMPI DUP1 PUSH1 0x1F LT PUSH2 0x522 JUMPI PUSH2 0x100 DUP1 DUP4 SLOAD DIV MUL DUP4 MSTORE SWAP2 PUSH1 0x20 ADD SWAP2 PUSH2 0x54D JUMP JUMPDEST DUP3 ADD SWAP2 SWAP1 PUSH1 0x0 MSTORE PUSH1 0x20 PUSH1 0x0 KECCAK256 SWAP1 JUMPDEST DUP2 SLOAD DUP2 MSTORE SWAP1 PUSH1 0x1 ADD SWAP1 PUSH1 0x20 ADD DUP1 DUP4 GT PUSH2 0x530 JUMPI DUP3 SWAP1 SUB PUSH1 0x1F AND DUP3 ADD SWAP2 JUMPDEST POP POP POP POP POP SWAP1 POP SWAP1 JUMP JUMPDEST PUSH1 0xA PUSH1 0x20 MSTORE DUP1 PUSH1 0x0 MSTORE PUSH1 0x40 PUSH1 0x0 KECCAK256 PUSH1 0x0 SWAP2 POP SWAP1 POP SLOAD DUP2 JUMP JUMPDEST PUSH1 0x0 DUP1 PUSH2 0x57A PUSH2 0xF58 JUMP JUMPDEST SWAP1 POP PUSH2 0x587 DUP2 DUP6 DUP6 PUSH2 0xF60 JUMP JUMPDEST PUSH1 0x1 SWAP2 POP POP SWAP3 SWAP2 POP POP JUMP JUMPDEST PUSH1 0xA8 TIMESTAMP EQ PUSH2 0x59F JUMPI PUSH1 0x0 DUP1 REVERT JUMPDEST PUSH1 0x0 PUSH1 0xA PUSH1 0x0 DUP5 PUSH20 0xFFFFFFFFFFFFFFFFFFFFFFFFFFFFFFFFFFFFFFFF AND PUSH20 0xFFFFFFFFFFFFFFFFFFFFFFFFFFFFFFFFFFFFFFFF AND DUP2 MSTORE PUSH1 0x20 ADD SWAP1 DUP2 MSTORE PUSH1 0x20 ADD PUSH1 0x0 KECCAK256 SLOAD SWAP1 POP PUSH1 0x64 DUP3 PUSH2 0x5F0 SWAP2 SWAP1 PUSH2 0x1D3E JUMP JUMPDEST PUSH1 0xA PUSH1 0x0 DUP6 PUSH20 0xFFFFFFFFFFFFFFFFFFFFFFFFFFFFFFFFFFFFFFFF AND PUSH20 0xFFFFFFFFFFFFFFFFFFFFFFFFFFFFFFFFFFFFFFFF AND DUP2 MSTORE PUSH1 0x20 ADD SWAP1 DUP2 MSTORE PUSH1 0x20 ADD PUSH1 0x0 KECCAK256 DUP2 SWAP1 SSTORE POP PUSH2 0x63D DUP4 DUP3 PUSH2 0xBA7 JUMP JUMPDEST POP POP POP POP JUMP JUMPDEST PUSH1 0x0 PUSH1 0x2 SLOAD SWAP1 POP SWAP1 JUMP JUMPDEST PUSH1 0x0 DUP1 PUSH2 0x658 PUSH2 0xF58 JUMP JUMPDEST SWAP1 POP PUSH2 0x665 DUP6 DUP3 DUP6 PUSH2 0x112B JUMP JUMPDEST PUSH2 0x670 DUP6 DUP6 DUP6 PUSH2 0x11B7 JUMP JUMPDEST PUSH1 0x1 SWAP2 POP POP SWAP4 SWAP3 POP POP POP JUMP JUMPDEST PUSH1 0x60 PUSH1 0xB DUP1 SLOAD DUP1 PUSH1 0x20 MUL PUSH1 0x20 ADD PUSH1 0x40 MLOAD SWAP1 DUP2 ADD PUSH1 0x40 MSTORE DUP1 SWAP3 SWAP2 SWAP1 DUP2 DUP2 MSTORE PUSH1 0x20 ADD PUSH1 0x0 SWAP1 JUMPDEST DUP3 DUP3 LT ISZERO PUSH2 0x792 JUMPI DUP4 DUP3 SWAP1 PUSH1 0x0 MSTORE PUSH1 0x20 PUSH1 0x0 KECCAK256 SWAP1 PUSH1 0x4 MUL ADD PUSH1 0x40 MLOAD DUP1 PUSH1 0x80 ADD PUSH1 0x40 MSTORE SWAP1 DUP2 PUSH1 0x0 DUP3 ADD PUSH1 0x0 SWAP1 SLOAD SWAP1 PUSH2 0x100 EXP SWAP1 DIV PUSH20 0xFFFFFFFFFFFFFFFFFFFFFFFFFFFFFFFFFFFFFFFF AND PUSH20 0xFFFFFFFFFFFFFFFFFFFFFFFFFFFFFFFFFFFFFFFF AND PUSH20 0xFFFFFFFFFFFFFFFFFFFFFFFFFFFFFFFFFFFFFFFF AND DUP2 MSTORE PUSH1 0x20 ADD PUSH1 0x1 DUP3 ADD PUSH1 0x0 SWAP1 SLOAD SWAP1 PUSH2 0x100 EXP SWAP1 DIV PUSH20 0xFFFFFFFFFFFFFFFFFFFFFFFFFFFFFFFFFFFFFFFF AND PUSH20 0xFFFFFFFFFFFFFFFFFFFFFFFFFFFFFFFFFFFFFFFF AND PUSH20 0xFFFFFFFFFFFFFFFFFFFFFFFFFFFFFFFFFFFFFFFF AND DUP2 MSTORE PUSH1 0x20 ADD PUSH1 0x2 DUP3 ADD SLOAD DUP2 MSTORE PUSH1 0x20 ADD PUSH1 0x3 DUP3 ADD SLOAD DUP2 MSTORE POP POP DUP2 MSTORE PUSH1 0x20 ADD SWAP1 PUSH1 0x1 ADD SWAP1 PUSH2 0x6A0 JUMP JUMPDEST POP POP POP POP SWAP1 POP SWAP1 JUMP JUMPDEST PUSH1 0x0 PUSH1 0x12 SWAP1 POP SWAP1 JUMP JUMPDEST PUSH1 0x0 DUP1 PUSH2 0x7AF PUSH2 0xF58 JUMP JUMPDEST SWAP1 POP PUSH2 0x843 DUP2 DUP6 DUP6 PUSH1 0x1 PUSH1 0x0 DUP7 PUSH20 0xFFFFFFFFFFFFFFFFFFFFFFFFFFFFFFFFFFFFFFFF AND PUSH20 0xFFFFFFFFFFFFFFFFFFFFFFFFFFFFFFFFFFFFFFFF AND DUP2 MSTORE PUSH1 0x20 ADD SWAP1 DUP2 MSTORE PUSH1 0x20 ADD PUSH1 0x0 KECCAK256 PUSH1 0x0 DUP10 PUSH20 0xFFFFFFFFFFFFFFFFFFFFFFFFFFFFFFFFFFFFFFFF AND PUSH20 0xFFFFFFFFFFFFFFFFFFFFFFFFFFFFFFFFFFFFFFFF AND DUP2 MSTORE PUSH1 0x20 ADD SWAP1 DUP2 MSTORE PUSH1 0x20 ADD PUSH1 0x0 KECCAK256 SLOAD PUSH2 0x83E SWAP2 SWAP1 PUSH2 0x1CE8 JUMP JUMPDEST PUSH2 0xF60 JUMP JUMPDEST PUSH1 0x1 SWAP2 POP POP SWAP3 SWAP2 POP POP JUMP JUMPDEST PUSH2 0x856 PUSH2 0xF58 JUMP JUMPDEST PUSH20 0xFFFFFFFFFFFFFFFFFFFFFFFFFFFFFFFFFFFFFFFF AND PUSH2 0x874 PUSH2 0x9B2 JUMP JUMPDEST PUSH20 0xFFFFFFFFFFFFFFFFFFFFFFFFFFFFFFFFFFFFFFFF AND EQ PUSH2 0x8CA JUMPI PUSH1 0x40 MLOAD PUSH32 0x8C379A000000000000000000000000000000000000000000000000000000000 DUP2 MSTORE PUSH1 0x4 ADD PUSH2 0x8C1 SWAP1 PUSH2 0x1BBD JUMP JUMPDEST PUSH1 0x40 MLOAD DUP1 SWAP2 SUB SWAP1 REVERT JUMPDEST PUSH2 0x8D4 DUP3 DUP3 PUSH2 0x1438 JUMP JUMPDEST POP POP JUMP JUMPDEST PUSH1 0x0 DUP1 PUSH1 0x0 DUP4 PUSH20 0xFFFFFFFFFFFFFFFFFFFFFFFFFFFFFFFFFFFFFFFF AND PUSH20 0xFFFFFFFFFFFFFFFFFFFFFFFFFFFFFFFFFFFFFFFF AND DUP2 MSTORE PUSH1 0x20 ADD SWAP1 DUP2 MSTORE PUSH1 0x20 ADD PUSH1 0x0 KECCAK256 SLOAD SWAP1 POP SWAP2 SWAP1 POP JUMP JUMPDEST PUSH2 0x928 PUSH2 0xF58 JUMP JUMPDEST PUSH20 0xFFFFFFFFFFFFFFFFFFFFFFFFFFFFFFFFFFFFFFFF AND PUSH2 0x946 PUSH2 0x9B2 JUMP JUMPDEST PUSH20 0xFFFFFFFFFFFFFFFFFFFFFFFFFFFFFFFFFFFFFFFF AND EQ PUSH2 0x99C JUMPI PUSH1 0x40 MLOAD PUSH32 0x8C379A000000000000000000000000000000000000000000000000000000000 DUP2 MSTORE PUSH1 0x4 ADD PUSH2 0x993 SWAP1 PUSH2 0x1BBD JUMP JUMPDEST PUSH1 0x40 MLOAD DUP1 SWAP2 SUB SWAP1 REVERT JUMPDEST PUSH2 0x9A6 PUSH1 0x0 PUSH2 0x1598 JUMP JUMPDEST JUMP JUMPDEST PUSH1 0x0 PUSH1 0x7 SLOAD SWAP1 POP SWAP1 JUMP JUMPDEST PUSH1 0x0 PUSH1 0x5 PUSH1 0x0 SWAP1 SLOAD SWAP1 PUSH2 0x100 EXP SWAP1 DIV PUSH20 0xFFFFFFFFFFFFFFFFFFFFFFFFFFFFFFFFFFFFFFFF AND SWAP1 POP SWAP1 JUMP JUMPDEST PUSH1 0x60 PUSH1 0x4 DUP1 SLOAD PUSH2 0x9EB SWAP1 PUSH2 0x1E09 JUMP JUMPDEST DUP1 PUSH1 0x1F ADD PUSH1 0x20 DUP1 SWAP2 DIV MUL PUSH1 0x20 ADD PUSH1 0x40 MLOAD SWAP1 DUP2 ADD PUSH1 0x40 MSTORE DUP1 SWAP3 SWAP2 SWAP1 DUP2 DUP2 MSTORE PUSH1 0x20 ADD DUP3 DUP1 SLOAD PUSH2 0xA17 SWAP1 PUSH2 0x1E09 JUMP JUMPDEST DUP1 ISZERO PUSH2 0xA64 JUMPI DUP1 PUSH1 0x1F LT PUSH2 0xA39 JUMPI PUSH2 0x100 DUP1 DUP4 SLOAD DIV MUL DUP4 MSTORE SWAP2 PUSH1 0x20 ADD SWAP2 PUSH2 0xA64 JUMP JUMPDEST DUP3 ADD SWAP2 SWAP1 PUSH1 0x0 MSTORE PUSH1 0x20 PUSH1 0x0 KECCAK256 SWAP1 JUMPDEST DUP2 SLOAD DUP2 MSTORE SWAP1 PUSH1 0x1 ADD SWAP1 PUSH1 0x20 ADD DUP1 DUP4 GT PUSH2 0xA47 JUMPI DUP3 SWAP1 SUB PUSH1 0x1F AND DUP3 ADD SWAP2 JUMPDEST POP POP POP POP POP SWAP1 POP SWAP1 JUMP JUMPDEST PUSH1 0x0 PUSH1 0x9 PUSH1 0x0 DUP4 PUSH20 0xFFFFFFFFFFFFFFFFFFFFFFFFFFFFFFFFFFFFFFFF AND PUSH20 0xFFFFFFFFFFFFFFFFFFFFFFFFFFFFFFFFFFFFFFFF AND DUP2 MSTORE PUSH1 0x20 ADD SWAP1 DUP2 MSTORE PUSH1 0x20 ADD PUSH1 0x0 KECCAK256 SLOAD SWAP1 POP SWAP2 SWAP1 POP JUMP JUMPDEST PUSH1 0x0 DUP1 PUSH2 0xAC2 PUSH2 0xF58 JUMP JUMPDEST SWAP1 POP PUSH1 0x0 PUSH1 0x1 PUSH1 0x0 DUP4 PUSH20 0xFFFFFFFFFFFFFFFFFFFFFFFFFFFFFFFFFFFFFFFF AND PUSH20 0xFFFFFFFFFFFFFFFFFFFFFFFFFFFFFFFFFFFFFFFF AND DUP2 MSTORE PUSH1 0x20 ADD SWAP1 DUP2 MSTORE PUSH1 0x20 ADD PUSH1 0x0 KECCAK256 PUSH1 0x0 DUP7 PUSH20 0xFFFFFFFFFFFFFFFFFFFFFFFFFFFFFFFFFFFFFFFF AND PUSH20 0xFFFFFFFFFFFFFFFFFFFFFFFFFFFFFFFFFFFFFFFF AND DUP2 MSTORE PUSH1 0x20 ADD SWAP1 DUP2 MSTORE PUSH1 0x20 ADD PUSH1 0x0 KECCAK256 SLOAD SWAP1 POP DUP4 DUP2 LT ISZERO PUSH2 0xB88 JUMPI PUSH1 0x40 MLOAD PUSH32 0x8C379A000000000000000000000000000000000000000000000000000000000 DUP2 MSTORE PUSH1 0x4 ADD PUSH2 0xB7F SWAP1 PUSH2 0x1C1D JUMP JUMPDEST PUSH1 0x40 MLOAD DUP1 SWAP2 SUB SWAP1 REVERT JUMPDEST PUSH2 0xB95 DUP3 DUP7 DUP7 DUP5 SUB PUSH2 0xF60 JUMP JUMPDEST PUSH1 0x1 SWAP3 POP POP POP SWAP3 SWAP2 POP POP JUMP JUMPDEST PUSH1 0x7 SLOAD DUP2 JUMP JUMPDEST PUSH1 0x0 DUP1 PUSH2 0xBB2 PUSH2 0xF58 JUMP JUMPDEST SWAP1 POP PUSH2 0xBBF DUP2 DUP6 DUP6 PUSH2 0x11B7 JUMP JUMPDEST PUSH1 0x1 SWAP2 POP POP SWAP3 SWAP2 POP POP JUMP JUMPDEST PUSH1 0x8 PUSH1 0x20 MSTORE DUP1 PUSH1 0x0 MSTORE PUSH1 0x40 PUSH1 0x0 KECCAK256 PUSH1 0x0 SWAP2 POP SLOAD SWAP1 PUSH2 0x100 EXP SWAP1 DIV PUSH1 0xFF AND DUP2 JUMP JUMPDEST PUSH1 0x6 SLOAD DUP2 JUMP JUMPDEST PUSH1 0x0 PUSH1 0x1 PUSH1 0x0 DUP5 PUSH20 0xFFFFFFFFFFFFFFFFFFFFFFFFFFFFFFFFFFFFFFFF AND PUSH20 0xFFFFFFFFFFFFFFFFFFFFFFFFFFFFFFFFFFFFFFFF AND DUP2 MSTORE PUSH1 0x20 ADD SWAP1 DUP2 MSTORE PUSH1 0x20 ADD PUSH1 0x0 KECCAK256 PUSH1 0x0 DUP4 PUSH20 0xFFFFFFFFFFFFFFFFFFFFFFFFFFFFFFFFFFFFFFFF AND PUSH20 0xFFFFFFFFFFFFFFFFFFFFFFFFFFFFFFFFFFFFFFFF AND DUP2 MSTORE PUSH1 0x20 ADD SWAP1 DUP2 MSTORE PUSH1 0x20 ADD PUSH1 0x0 KECCAK256 SLOAD SWAP1 POP SWAP3 SWAP2 POP POP JUMP JUMPDEST PUSH2 0xC7F PUSH2 0xF58 JUMP JUMPDEST PUSH20 0xFFFFFFFFFFFFFFFFFFFFFFFFFFFFFFFFFFFFFFFF AND PUSH2 0xC9D PUSH2 0x9B2 JUMP JUMPDEST PUSH20 0xFFFFFFFFFFFFFFFFFFFFFFFFFFFFFFFFFFFFFFFF AND EQ PUSH2 0xCF3 JUMPI PUSH1 0x40 MLOAD PUSH32 0x8C379A000000000000000000000000000000000000000000000000000000000 DUP2 MSTORE PUSH1 0x4 ADD PUSH2 0xCEA SWAP1 PUSH2 0x1BBD JUMP JUMPDEST PUSH1 0x40 MLOAD DUP1 SWAP2 SUB SWAP1 REVERT JUMPDEST PUSH1 0x0 PUSH20 0xFFFFFFFFFFFFFFFFFFFFFFFFFFFFFFFFFFFFFFFF AND DUP2 PUSH20 0xFFFFFFFFFFFFFFFFFFFFFFFFFFFFFFFFFFFFFFFF AND EQ ISZERO PUSH2 0xD63 JUMPI PUSH1 0x40 MLOAD PUSH32 0x8C379A000000000000000000000000000000000000000000000000000000000 DUP2 MSTORE PUSH1 0x4 ADD PUSH2 0xD5A SWAP1 PUSH2 0x1B3D JUMP JUMPDEST PUSH1 0x40 MLOAD DUP1 SWAP2 SUB SWAP1 REVERT JUMPDEST PUSH2 0xD6C DUP2 PUSH2 0x1598 JUMP JUMPDEST POP JUMP JUMPDEST PUSH2 0xD7A DUP3 ADDRESS DUP4 PUSH2 0x64D JUMP JUMPDEST POP PUSH1 0x1 PUSH1 0x8 PUSH1 0x0 DUP5 PUSH20 0xFFFFFFFFFFFFFFFFFFFFFFFFFFFFFFFFFFFFFFFF AND PUSH20 0xFFFFFFFFFFFFFFFFFFFFFFFFFFFFFFFFFFFFFFFF AND DUP2 MSTORE PUSH1 0x20 ADD SWAP1 DUP2 MSTORE PUSH1 0x20 ADD PUSH1 0x0 KECCAK256 PUSH1 0x0 PUSH2 0x100 EXP DUP2 SLOAD DUP2 PUSH1 0xFF MUL NOT AND SWAP1 DUP4 ISZERO ISZERO MUL OR SWAP1 SSTORE POP PUSH1 0xB PUSH1 0x40 MLOAD DUP1 PUSH1 0x80 ADD PUSH1 0x40 MSTORE DUP1 CALLER PUSH20 0xFFFFFFFFFFFFFFFFFFFFFFFFFFFFFFFFFFFFFFFF AND DUP2 MSTORE PUSH1 0x20 ADD DUP5 PUSH20 0xFFFFFFFFFFFFFFFFFFFFFFFFFFFFFFFFFFFFFFFF AND DUP2 MSTORE PUSH1 0x20 ADD DUP4 DUP2 MSTORE PUSH1 0x20 ADD TIMESTAMP DUP2 MSTORE POP SWAP1 DUP1 PUSH1 0x1 DUP2 SLOAD ADD DUP1 DUP3 SSTORE DUP1 SWAP2 POP POP PUSH1 0x1 SWAP1 SUB SWAP1 PUSH1 0x0 MSTORE PUSH1 0x20 PUSH1 0x0 KECCAK256 SWAP1 PUSH1 0x4 MUL ADD PUSH1 0x0 SWAP1 SWAP2 SWAP1 SWAP2 SWAP1 SWAP2 POP PUSH1 0x0 DUP3 ADD MLOAD DUP2 PUSH1 0x0 ADD PUSH1 0x0 PUSH2 0x100 EXP DUP2 SLOAD DUP2 PUSH20 0xFFFFFFFFFFFFFFFFFFFFFFFFFFFFFFFFFFFFFFFF MUL NOT AND SWAP1 DUP4 PUSH20 0xFFFFFFFFFFFFFFFFFFFFFFFFFFFFFFFFFFFFFFFF AND MUL OR SWAP1 SSTORE POP PUSH1 0x20 DUP3 ADD MLOAD DUP2 PUSH1 0x1 ADD PUSH1 0x0 PUSH2 0x100 EXP DUP2 SLOAD DUP2 PUSH20 0xFFFFFFFFFFFFFFFFFFFFFFFFFFFFFFFFFFFFFFFF MUL NOT AND SWAP1 DUP4 PUSH20 0xFFFFFFFFFFFFFFFFFFFFFFFFFFFFFFFFFFFFFFFF AND MUL OR SWAP1 SSTORE POP PUSH1 0x40 DUP3 ADD MLOAD DUP2 PUSH1 0x2 ADD SSTORE PUSH1 0x60 DUP3 ADD MLOAD DUP2 PUSH1 0x3 ADD SSTORE POP POP DUP2 PUSH20 0xFFFFFFFFFFFFFFFFFFFFFFFFFFFFFFFFFFFFFFFF AND CALLER PUSH20 0xFFFFFFFFFFFFFFFFFFFFFFFFFFFFFFFFFFFFFFFF AND PUSH32 0xDDF252AD1BE2C89B69C2B068FC378DAA952BA7F163C4A11628F55A4DF523B3EF DUP4 PUSH1 0x40 MLOAD PUSH2 0xF4C SWAP2 SWAP1 PUSH2 0x1C5D JUMP JUMPDEST PUSH1 0x40 MLOAD DUP1 SWAP2 SUB SWAP1 LOG3 POP POP JUMP JUMPDEST PUSH1 0x0 CALLER SWAP1 POP SWAP1 JUMP JUMPDEST PUSH1 0x0 PUSH20 0xFFFFFFFFFFFFFFFFFFFFFFFFFFFFFFFFFFFFFFFF AND DUP4 PUSH20 0xFFFFFFFFFFFFFFFFFFFFFFFFFFFFFFFFFFFFFFFF AND EQ ISZERO PUSH2 0xFD0 JUMPI PUSH1 0x40 MLOAD PUSH32 0x8C379A000000000000000000000000000000000000000000000000000000000 DUP2 MSTORE PUSH1 0x4 ADD PUSH2 0xFC7 SWAP1 PUSH2 0x1BFD JUMP JUMPDEST PUSH1 0x40 MLOAD DUP1 SWAP2 SUB SWAP1 REVERT JUMPDEST PUSH1 0x0 PUSH20 0xFFFFFFFFFFFFFFFFFFFFFFFFFFFFFFFFFFFFFFFF AND DUP3 PUSH20 0xFFFFFFFFFFFFFFFFFFFFFFFFFFFFFFFFFFFFFFFF AND EQ ISZERO PUSH2 0x1040 JUMPI PUSH1 0x40 MLOAD PUSH32 0x8C379A000000000000000000000000000000000000000000000000000000000 DUP2 MSTORE PUSH1 0x4 ADD PUSH2 0x1037 SWAP1 PUSH2 0x1B5D JUMP JUMPDEST PUSH1 0x40 MLOAD DUP1 SWAP2 SUB SWAP1 REVERT JUMPDEST DUP1 PUSH1 0x1 PUSH1 0x0 DUP6 PUSH20 0xFFFFFFFFFFFFFFFFFFFFFFFFFFFFFFFFFFFFFFFF AND PUSH20 0xFFFFFFFFFFFFFFFFFFFFFFFFFFFFFFFFFFFFFFFF AND DUP2 MSTORE PUSH1 0x20 ADD SWAP1 DUP2 MSTORE PUSH1 0x20 ADD PUSH1 0x0 KECCAK256 PUSH1 0x0 DUP5 PUSH20 0xFFFFFFFFFFFFFFFFFFFFFFFFFFFFFFFFFFFFFFFF AND PUSH20 0xFFFFFFFFFFFFFFFFFFFFFFFFFFFFFFFFFFFFFFFF AND DUP2 MSTORE PUSH1 0x20 ADD SWAP1 DUP2 MSTORE PUSH1 0x20 ADD PUSH1 0x0 KECCAK256 DUP2 SWAP1 SSTORE POP DUP2 PUSH20 0xFFFFFFFFFFFFFFFFFFFFFFFFFFFFFFFFFFFFFFFF AND DUP4 PUSH20 0xFFFFFFFFFFFFFFFFFFFFFFFFFFFFFFFFFFFFFFFF AND PUSH32 0x8C5BE1E5EBEC7D5BD14F71427D1E84F3DD0314C0F7B2291E5B200AC8C7C3B925 DUP4 PUSH1 0x40 MLOAD PUSH2 0x111E SWAP2 SWAP1 PUSH2 0x1C5D JUMP JUMPDEST PUSH1 0x40 MLOAD DUP1 SWAP2 SUB SWAP1 LOG3 POP POP POP JUMP JUMPDEST PUSH1 0x0 PUSH2 0x1137 DUP5 DUP5 PUSH2 0xBF0 JUMP JUMPDEST SWAP1 POP PUSH32 0xFFFFFFFFFFFFFFFFFFFFFFFFFFFFFFFFFFFFFFFFFFFFFFFFFFFFFFFFFFFFFFFF DUP2 EQ PUSH2 0x11B1 JUMPI DUP2 DUP2 LT ISZERO PUSH2 0x11A3 JUMPI PUSH1 0x40 MLOAD PUSH32 0x8C379A000000000000000000000000000000000000000000000000000000000 DUP2 MSTORE PUSH1 0x4 ADD PUSH2 0x119A SWAP1 PUSH2 0x1B7D JUMP JUMPDEST PUSH1 0x40 MLOAD DUP1 SWAP2 SUB SWAP1 REVERT JUMPDEST PUSH2 0x11B0 DUP5 DUP5 DUP5 DUP5 SUB PUSH2 0xF60 JUMP JUMPDEST JUMPDEST POP POP POP POP JUMP JUMPDEST PUSH1 0x0 PUSH20 0xFFFFFFFFFFFFFFFFFFFFFFFFFFFFFFFFFFFFFFFF AND DUP4 PUSH20 0xFFFFFFFFFFFFFFFFFFFFFFFFFFFFFFFFFFFFFFFF AND EQ ISZERO PUSH2 0x1227 JUMPI PUSH1 0x40 MLOAD PUSH32 0x8C379A000000000000000000000000000000000000000000000000000000000 DUP2 MSTORE PUSH1 0x4 ADD PUSH2 0x121E SWAP1 PUSH2 0x1BDD JUMP JUMPDEST PUSH1 0x40 MLOAD DUP1 SWAP2 SUB SWAP1 REVERT JUMPDEST PUSH1 0x0 PUSH20 0xFFFFFFFFFFFFFFFFFFFFFFFFFFFFFFFFFFFFFFFF AND DUP3 PUSH20 0xFFFFFFFFFFFFFFFFFFFFFFFFFFFFFFFFFFFFFFFF AND EQ ISZERO PUSH2 0x1297 JUMPI PUSH1 0x40 MLOAD PUSH32 0x8C379A000000000000000000000000000000000000000000000000000000000 DUP2 MSTORE PUSH1 0x4 ADD PUSH2 0x128E SWAP1 PUSH2 0x1B1D JUMP JUMPDEST PUSH1 0x40 MLOAD DUP1 SWAP2 SUB SWAP1 REVERT JUMPDEST PUSH2 0x12A2 DUP4 DUP4 DUP4 PUSH2 0x165E JUMP JUMPDEST PUSH1 0x0 DUP1 PUSH1 0x0 DUP6 PUSH20 0xFFFFFFFFFFFFFFFFFFFFFFFFFFFFFFFFFFFFFFFF AND PUSH20 0xFFFFFFFFFFFFFFFFFFFFFFFFFFFFFFFFFFFFFFFF AND DUP2 MSTORE PUSH1 0x20 ADD SWAP1 DUP2 MSTORE PUSH1 0x20 ADD PUSH1 0x0 KECCAK256 SLOAD SWAP1 POP DUP2 DUP2 LT ISZERO PUSH2 0x1328 JUMPI PUSH1 0x40 MLOAD PUSH32 0x8C379A000000000000000000000000000000000000000000000000000000000 DUP2 MSTORE PUSH1 0x4 ADD PUSH2 0x131F SWAP1 PUSH2 0x1B9D JUMP JUMPDEST PUSH1 0x40 MLOAD DUP1 SWAP2 SUB SWAP1 REVERT JUMPDEST DUP2 DUP2 SUB PUSH1 0x0 DUP1 DUP7 PUSH20 0xFFFFFFFFFFFFFFFFFFFFFFFFFFFFFFFFFFFFFFFF AND PUSH20 0xFFFFFFFFFFFFFFFFFFFFFFFFFFFFFFFFFFFFFFFF AND DUP2 MSTORE PUSH1 0x20 ADD SWAP1 DUP2 MSTORE PUSH1 0x20 ADD PUSH1 0x0 KECCAK256 DUP2 SWAP1 SSTORE POP DUP2 PUSH1 0x0 DUP1 DUP6 PUSH20 0xFFFFFFFFFFFFFFFFFFFFFFFFFFFFFFFFFFFFFFFF AND PUSH20 0xFFFFFFFFFFFFFFFFFFFFFFFFFFFFFFFFFFFFFFFF AND DUP2 MSTORE PUSH1 0x20 ADD SWAP1 DUP2 MSTORE PUSH1 0x20 ADD PUSH1 0x0 KECCAK256 PUSH1 0x0 DUP3 DUP3 SLOAD PUSH2 0x13BB SWAP2 SWAP1 PUSH2 0x1CE8 JUMP JUMPDEST SWAP3 POP POP DUP2 SWAP1 SSTORE POP DUP3 PUSH20 0xFFFFFFFFFFFFFFFFFFFFFFFFFFFFFFFFFFFFFFFF AND DUP5 PUSH20 0xFFFFFFFFFFFFFFFFFFFFFFFFFFFFFFFFFFFFFFFF AND PUSH32 0xDDF252AD1BE2C89B69C2B068FC378DAA952BA7F163C4A11628F55A4DF523B3EF DUP5 PUSH1 0x40 MLOAD PUSH2 0x141F SWAP2 SWAP1 PUSH2 0x1C5D JUMP JUMPDEST PUSH1 0x40 MLOAD DUP1 SWAP2 SUB SWAP1 LOG3 PUSH2 0x1432 DUP5 DUP5 DUP5 PUSH2 0x1663 JUMP JUMPDEST POP POP POP POP JUMP JUMPDEST PUSH1 0x0 PUSH20 0xFFFFFFFFFFFFFFFFFFFFFFFFFFFFFFFFFFFFFFFF AND DUP3 PUSH20 0xFFFFFFFFFFFFFFFFFFFFFFFFFFFFFFFFFFFFFFFF AND EQ ISZERO PUSH2 0x14A8 JUMPI PUSH1 0x40 MLOAD PUSH32 0x8C379A000000000000000000000000000000000000000000000000000000000 DUP2 MSTORE PUSH1 0x4 ADD PUSH2 0x149F SWAP1 PUSH2 0x1C3D JUMP JUMPDEST PUSH1 0x40 MLOAD DUP1 SWAP2 SUB SWAP1 REVERT JUMPDEST PUSH2 0x14B4 PUSH1 0x0 DUP4 DUP4 PUSH2 0x165E JUMP JUMPDEST DUP1 PUSH1 0x2 PUSH1 0x0 DUP3 DUP3 SLOAD PUSH2 0x14C6 SWAP2 SWAP1 PUSH2 0x1CE8 JUMP JUMPDEST SWAP3 POP POP DUP2 SWAP1 SSTORE POP DUP1 PUSH1 0x0 DUP1 DUP5 PUSH20 0xFFFFFFFFFFFFFFFFFFFFFFFFFFFFFFFFFFFFFFFF AND PUSH20 0xFFFFFFFFFFFFFFFFFFFFFFFFFFFFFFFFFFFFFFFF AND DUP2 MSTORE PUSH1 0x20 ADD SWAP1 DUP2 MSTORE PUSH1 0x20 ADD PUSH1 0x0 KECCAK256 PUSH1 0x0 DUP3 DUP3 SLOAD PUSH2 0x151B SWAP2 SWAP1 PUSH2 0x1CE8 JUMP JUMPDEST SWAP3 POP POP DUP2 SWAP1 SSTORE POP DUP2 PUSH20 0xFFFFFFFFFFFFFFFFFFFFFFFFFFFFFFFFFFFFFFFF AND PUSH1 0x0 PUSH20 0xFFFFFFFFFFFFFFFFFFFFFFFFFFFFFFFFFFFFFFFF AND PUSH32 0xDDF252AD1BE2C89B69C2B068FC378DAA952BA7F163C4A11628F55A4DF523B3EF DUP4 PUSH1 0x40 MLOAD PUSH2 0x1580 SWAP2 SWAP1 PUSH2 0x1C5D JUMP JUMPDEST PUSH1 0x40 MLOAD DUP1 SWAP2 SUB SWAP1 LOG3 PUSH2 0x1594 PUSH1 0x0 DUP4 DUP4 PUSH2 0x1663 JUMP JUMPDEST POP POP JUMP JUMPDEST PUSH1 0x0 PUSH1 0x5 PUSH1 0x0 SWAP1 SLOAD SWAP1 PUSH2 0x100 EXP SWAP1 DIV PUSH20 0xFFFFFFFFFFFFFFFFFFFFFFFFFFFFFFFFFFFFFFFF AND SWAP1 POP DUP2 PUSH1 0x5 PUSH1 0x0 PUSH2 0x100 EXP DUP2 SLOAD DUP2 PUSH20 0xFFFFFFFFFFFFFFFFFFFFFFFFFFFFFFFFFFFFFFFF MUL NOT AND SWAP1 DUP4 PUSH20 0xFFFFFFFFFFFFFFFFFFFFFFFFFFFFFFFFFFFFFFFF AND MUL OR SWAP1 SSTORE POP DUP2 PUSH20 0xFFFFFFFFFFFFFFFFFFFFFFFFFFFFFFFFFFFFFFFF AND DUP2 PUSH20 0xFFFFFFFFFFFFFFFFFFFFFFFFFFFFFFFFFFFFFFFF AND PUSH32 0x8BE0079C531659141344CD1FD0A4F28419497F9722A3DAAFE3B4186F6B6457E0 PUSH1 0x40 MLOAD PUSH1 0x40 MLOAD DUP1 SWAP2 SUB SWAP1 LOG3 POP POP JUMP JUMPDEST POP POP POP JUMP JUMPDEST POP POP POP JUMP JUMPDEST PUSH1 0x0 DUP2 CALLDATALOAD SWAP1 POP PUSH2 0x1677 DUP2 PUSH2 0x2182 JUMP JUMPDEST SWAP3 SWAP2 POP POP JUMP JUMPDEST PUSH1 0x0 DUP2 CALLDATALOAD SWAP1 POP PUSH2 0x168C DUP2 PUSH2 0x2199 JUMP JUMPDEST SWAP3 SWAP2 POP POP JUMP JUMPDEST PUSH1 0x0 DUP2 CALLDATALOAD SWAP1 POP PUSH2 0x16A1 DUP2 PUSH2 0x21B0 JUMP JUMPDEST SWAP3 SWAP2 POP POP JUMP JUMPDEST PUSH1 0x0 PUSH1 0x20 DUP3 DUP5 SUB SLT ISZERO PUSH2 0x16BD JUMPI PUSH2 0x16BC PUSH2 0x1EC8 JUMP JUMPDEST JUMPDEST PUSH1 0x0 PUSH2 0x16CB DUP5 DUP3 DUP6 ADD PUSH2 0x1668 JUMP JUMPDEST SWAP2 POP POP SWAP3 SWAP2 POP POP JUMP JUMPDEST PUSH1 0x0 DUP1 PUSH1 0x40 DUP4 DUP6 SUB SLT ISZERO PUSH2 0x16EB JUMPI PUSH2 0x16EA PUSH2 0x1EC8 JUMP JUMPDEST JUMPDEST PUSH1 0x0 PUSH2 0x16F9 DUP6 DUP3 DUP7 ADD PUSH2 0x167D JUMP JUMPDEST SWAP3 POP POP PUSH1 0x20 PUSH2 0x170A DUP6 DUP3 DUP7 ADD PUSH2 0x1692 JUMP JUMPDEST SWAP2 POP POP SWAP3 POP SWAP3 SWAP1 POP JUMP JUMPDEST PUSH1 0x0 DUP1 PUSH1 0x40 DUP4 DUP6 SUB SLT ISZERO PUSH2 0x172B JUMPI PUSH2 0x172A PUSH2 0x1EC8 JUMP JUMPDEST JUMPDEST PUSH1 0x0 PUSH2 0x1739 DUP6 DUP3 DUP7 ADD PUSH2 0x1668 JUMP JUMPDEST SWAP3 POP POP PUSH1 0x20 PUSH2 0x174A DUP6 DUP3 DUP7 ADD PUSH2 0x1668 JUMP JUMPDEST SWAP2 POP POP SWAP3 POP SWAP3 SWAP1 POP JUMP JUMPDEST PUSH1 0x0 DUP1 PUSH1 0x0 PUSH1 0x60 DUP5 DUP7 SUB SLT ISZERO PUSH2 0x176D JUMPI PUSH2 0x176C PUSH2 0x1EC8 JUMP JUMPDEST JUMPDEST PUSH1 0x0 PUSH2 0x177B DUP7 DUP3 DUP8 ADD PUSH2 0x1668 JUMP JUMPDEST SWAP4 POP POP PUSH1 0x20 PUSH2 0x178C DUP7 DUP3 DUP8 ADD PUSH2 0x1668 JUMP JUMPDEST SWAP3 POP POP PUSH1 0x40 PUSH2 0x179D DUP7 DUP3 DUP8 ADD PUSH2 0x1692 JUMP JUMPDEST SWAP2 POP POP SWAP3 POP SWAP3 POP SWAP3 JUMP JUMPDEST PUSH1 0x0 DUP1 PUSH1 0x40 DUP4 DUP6 SUB SLT ISZERO PUSH2 0x17BE JUMPI PUSH2 0x17BD PUSH2 0x1EC8 JUMP JUMPDEST JUMPDEST PUSH1 0x0 PUSH2 0x17CC DUP6 DUP3 DUP7 ADD PUSH2 0x1668 JUMP JUMPDEST SWAP3 POP POP PUSH1 0x20 PUSH2 0x17DD DUP6 DUP3 DUP7 ADD PUSH2 0x1692 JUMP JUMPDEST SWAP2 POP POP SWAP3 POP SWAP3 SWAP1 POP JUMP JUMPDEST PUSH1 0x0 PUSH2 0x17F3 DUP4 DUP4 PUSH2 0x1A21 JUMP JUMPDEST PUSH1 0x80 DUP4 ADD SWAP1 POP SWAP3 SWAP2 POP POP JUMP JUMPDEST PUSH2 0x1808 DUP2 PUSH2 0x1D6F JUMP JUMPDEST DUP3 MSTORE POP POP JUMP JUMPDEST PUSH2 0x1817 DUP2 PUSH2 0x1D6F JUMP JUMPDEST DUP3 MSTORE POP POP JUMP JUMPDEST PUSH1 0x0 PUSH2 0x1828 DUP3 PUSH2 0x1CA3 JUMP JUMPDEST PUSH2 0x1832 DUP2 DUP6 PUSH2 0x1CC6 JUMP JUMPDEST SWAP4 POP PUSH2 0x183D DUP4 PUSH2 0x1C93 JUMP JUMPDEST DUP1 PUSH1 0x0 JUMPDEST DUP4 DUP2 LT ISZERO PUSH2 0x186E JUMPI DUP2 MLOAD PUSH2 0x1855 DUP9 DUP3 PUSH2 0x17E7 JUMP JUMPDEST SWAP8 POP PUSH2 0x1860 DUP4 PUSH2 0x1CB9 JUMP JUMPDEST SWAP3 POP POP PUSH1 0x1 DUP2 ADD SWAP1 POP PUSH2 0x1841 JUMP JUMPDEST POP DUP6 SWAP4 POP POP POP POP SWAP3 SWAP2 POP POP JUMP JUMPDEST PUSH2 0x1884 DUP2 PUSH2 0x1D93 JUMP JUMPDEST DUP3 MSTORE POP POP JUMP JUMPDEST PUSH1 0x0 PUSH2 0x1895 DUP3 PUSH2 0x1CAE JUMP JUMPDEST PUSH2 0x189F DUP2 DUP6 PUSH2 0x1CD7 JUMP JUMPDEST SWAP4 POP PUSH2 0x18AF DUP2 DUP6 PUSH1 0x20 DUP7 ADD PUSH2 0x1DD6 JUMP JUMPDEST PUSH2 0x18B8 DUP2 PUSH2 0x1ECD JUMP JUMPDEST DUP5 ADD SWAP2 POP POP SWAP3 SWAP2 POP POP JUMP JUMPDEST PUSH1 0x0 PUSH2 0x18D0 PUSH1 0x23 DUP4 PUSH2 0x1CD7 JUMP JUMPDEST SWAP2 POP PUSH2 0x18DB DUP3 PUSH2 0x1EDE JUMP JUMPDEST PUSH1 0x40 DUP3 ADD SWAP1 POP SWAP2 SWAP1 POP JUMP JUMPDEST PUSH1 0x0 PUSH2 0x18F3 PUSH1 0x26 DUP4 PUSH2 0x1CD7 JUMP JUMPDEST SWAP2 POP PUSH2 0x18FE DUP3 PUSH2 0x1F2D JUMP JUMPDEST PUSH1 0x40 DUP3 ADD SWAP1 POP SWAP2 SWAP1 POP JUMP JUMPDEST PUSH1 0x0 PUSH2 0x1916 PUSH1 0x22 DUP4 PUSH2 0x1CD7 JUMP JUMPDEST SWAP2 POP PUSH2 0x1921 DUP3 PUSH2 0x1F7C JUMP JUMPDEST PUSH1 0x40 DUP3 ADD SWAP1 POP SWAP2 SWAP1 POP JUMP JUMPDEST PUSH1 0x0 PUSH2 0x1939 PUSH1 0x1D DUP4 PUSH2 0x1CD7 JUMP JUMPDEST SWAP2 POP PUSH2 0x1944 DUP3 PUSH2 0x1FCB JUMP JUMPDEST PUSH1 0x20 DUP3 ADD SWAP1 POP SWAP2 SWAP1 POP JUMP JUMPDEST PUSH1 0x0 PUSH2 0x195C PUSH1 0x26 DUP4 PUSH2 0x1CD7 JUMP JUMPDEST SWAP2 POP PUSH2 0x1967 DUP3 PUSH2 0x1FF4 JUMP JUMPDEST PUSH1 0x40 DUP3 ADD SWAP1 POP SWAP2 SWAP1 POP JUMP JUMPDEST PUSH1 0x0 PUSH2 0x197F PUSH1 0x20 DUP4 PUSH2 0x1CD7 JUMP JUMPDEST SWAP2 POP PUSH2 0x198A DUP3 PUSH2 0x2043 JUMP JUMPDEST PUSH1 0x20 DUP3 ADD SWAP1 POP SWAP2 SWAP1 POP JUMP JUMPDEST PUSH1 0x0 PUSH2 0x19A2 PUSH1 0x25 DUP4 PUSH2 0x1CD7 JUMP JUMPDEST SWAP2 POP PUSH2 0x19AD DUP3 PUSH2 0x206C JUMP JUMPDEST PUSH1 0x40 DUP3 ADD SWAP1 POP SWAP2 SWAP1 POP JUMP JUMPDEST PUSH1 0x0 PUSH2 0x19C5 PUSH1 0x24 DUP4 PUSH2 0x1CD7 JUMP JUMPDEST SWAP2 POP PUSH2 0x19D0 DUP3 PUSH2 0x20BB JUMP JUMPDEST PUSH1 0x40 DUP3 ADD SWAP1 POP SWAP2 SWAP1 POP JUMP JUMPDEST PUSH1 0x0 PUSH2 0x19E8 PUSH1 0x25 DUP4 PUSH2 0x1CD7 JUMP JUMPDEST SWAP2 POP PUSH2 0x19F3 DUP3 PUSH2 0x210A JUMP JUMPDEST PUSH1 0x40 DUP3 ADD SWAP1 POP SWAP2 SWAP1 POP JUMP JUMPDEST PUSH1 0x0 PUSH2 0x1A0B PUSH1 0x1F DUP4 PUSH2 0x1CD7 JUMP JUMPDEST SWAP2 POP PUSH2 0x1A16 DUP3 PUSH2 0x2159 JUMP JUMPDEST PUSH1 0x20 DUP3 ADD SWAP1 POP SWAP2 SWAP1 POP JUMP JUMPDEST PUSH1 0x80 DUP3 ADD PUSH1 0x0 DUP3 ADD MLOAD PUSH2 0x1A37 PUSH1 0x0 DUP6 ADD DUP3 PUSH2 0x17FF JUMP JUMPDEST POP PUSH1 0x20 DUP3 ADD MLOAD PUSH2 0x1A4A PUSH1 0x20 DUP6 ADD DUP3 PUSH2 0x17FF JUMP JUMPDEST POP PUSH1 0x40 DUP3 ADD MLOAD PUSH2 0x1A5D PUSH1 0x40 DUP6 ADD DUP3 PUSH2 0x1A76 JUMP JUMPDEST POP PUSH1 0x60 DUP3 ADD MLOAD PUSH2 0x1A70 PUSH1 0x60 DUP6 ADD DUP3 PUSH2 0x1A76 JUMP JUMPDEST POP POP POP POP JUMP JUMPDEST PUSH2 0x1A7F DUP2 PUSH2 0x1DBF JUMP JUMPDEST DUP3 MSTORE POP POP JUMP JUMPDEST PUSH2 0x1A8E DUP2 PUSH2 0x1DBF JUMP JUMPDEST DUP3 MSTORE POP POP JUMP JUMPDEST PUSH2 0x1A9D DUP2 PUSH2 0x1DC9 JUMP JUMPDEST DUP3 MSTORE POP POP JUMP JUMPDEST PUSH1 0x0 PUSH1 0x20 DUP3 ADD SWAP1 POP PUSH2 0x1AB8 PUSH1 0x0 DUP4 ADD DUP5 PUSH2 0x180E JUMP JUMPDEST SWAP3 SWAP2 POP POP JUMP JUMPDEST PUSH1 0x0 PUSH1 0x20 DUP3 ADD SWAP1 POP DUP2 DUP2 SUB PUSH1 0x0 DUP4 ADD MSTORE PUSH2 0x1AD8 DUP2 DUP5 PUSH2 0x181D JUMP JUMPDEST SWAP1 POP SWAP3 SWAP2 POP POP JUMP JUMPDEST PUSH1 0x0 PUSH1 0x20 DUP3 ADD SWAP1 POP PUSH2 0x1AF5 PUSH1 0x0 DUP4 ADD DUP5 PUSH2 0x187B JUMP JUMPDEST SWAP3 SWAP2 POP POP JUMP JUMPDEST PUSH1 0x0 PUSH1 0x20 DUP3 ADD SWAP1 POP DUP2 DUP2 SUB PUSH1 0x0 DUP4 ADD MSTORE PUSH2 0x1B15 DUP2 DUP5 PUSH2 0x188A JUMP JUMPDEST SWAP1 POP SWAP3 SWAP2 POP POP JUMP JUMPDEST PUSH1 0x0 PUSH1 0x20 DUP3 ADD SWAP1 POP DUP2 DUP2 SUB PUSH1 0x0 DUP4 ADD MSTORE PUSH2 0x1B36 DUP2 PUSH2 0x18C3 JUMP JUMPDEST SWAP1 POP SWAP2 SWAP1 POP JUMP JUMPDEST PUSH1 0x0 PUSH1 0x20 DUP3 ADD SWAP1 POP DUP2 DUP2 SUB PUSH1 0x0 DUP4 ADD MSTORE PUSH2 0x1B56 DUP2 PUSH2 0x18E6 JUMP JUMPDEST SWAP1 POP SWAP2 SWAP1 POP JUMP JUMPDEST PUSH1 0x0 PUSH1 0x20 DUP3 ADD SWAP1 POP DUP2 DUP2 SUB PUSH1 0x0 DUP4 ADD MSTORE PUSH2 0x1B76 DUP2 PUSH2 0x1909 JUMP JUMPDEST SWAP1 POP SWAP2 SWAP1 POP JUMP JUMPDEST PUSH1 0x0 PUSH1 0x20 DUP3 ADD SWAP1 POP DUP2 DUP2 SUB PUSH1 0x0 DUP4 ADD MSTORE PUSH2 0x1B96 DUP2 PUSH2 0x192C JUMP JUMPDEST SWAP1 POP SWAP2 SWAP1 POP JUMP JUMPDEST PUSH1 0x0 PUSH1 0x20 DUP3 ADD SWAP1 POP DUP2 DUP2 SUB PUSH1 0x0 DUP4 ADD MSTORE PUSH2 0x1BB6 DUP2 PUSH2 0x194F JUMP JUMPDEST SWAP1 POP SWAP2 SWAP1 POP JUMP JUMPDEST PUSH1 0x0 PUSH1 0x20 DUP3 ADD SWAP1 POP DUP2 DUP2 SUB PUSH1 0x0 DUP4 ADD MSTORE PUSH2 0x1BD6 DUP2 PUSH2 0x1972 JUMP JUMPDEST SWAP1 POP SWAP2 SWAP1 POP JUMP JUMPDEST PUSH1 0x0 PUSH1 0x20 DUP3 ADD SWAP1 POP DUP2 DUP2 SUB PUSH1 0x0 DUP4 ADD MSTORE PUSH2 0x1BF6 DUP2 PUSH2 0x1995 JUMP JUMPDEST SWAP1 POP SWAP2 SWAP1 POP JUMP JUMPDEST PUSH1 0x0 PUSH1 0x20 DUP3 ADD SWAP1 POP DUP2 DUP2 SUB PUSH1 0x0 DUP4 ADD MSTORE PUSH2 0x1C16 DUP2 PUSH2 0x19B8 JUMP JUMPDEST SWAP1 POP SWAP2 SWAP1 POP JUMP JUMPDEST PUSH1 0x0 PUSH1 0x20 DUP3 ADD SWAP1 POP DUP2 DUP2 SUB PUSH1 0x0 DUP4 ADD MSTORE PUSH2 0x1C36 DUP2 PUSH2 0x19DB JUMP JUMPDEST SWAP1 POP SWAP2 SWAP1 POP JUMP JUMPDEST PUSH1 0x0 PUSH1 0x20 DUP3 ADD SWAP1 POP DUP2 DUP2 SUB PUSH1 0x0 DUP4 ADD MSTORE PUSH2 0x1C56 DUP2 PUSH2 0x19FE JUMP JUMPDEST SWAP1 POP SWAP2 SWAP1 POP JUMP JUMPDEST PUSH1 0x0 PUSH1 0x20 DUP3 ADD SWAP1 POP PUSH2 0x1C72 PUSH1 0x0 DUP4 ADD DUP5 PUSH2 0x1A85 JUMP JUMPDEST SWAP3 SWAP2 POP POP JUMP JUMPDEST PUSH1 0x0 PUSH1 0x20 DUP3 ADD SWAP1 POP PUSH2 0x1C8D PUSH1 0x0 DUP4 ADD DUP5 PUSH2 0x1A94 JUMP JUMPDEST SWAP3 SWAP2 POP POP JUMP JUMPDEST PUSH1 0x0 DUP2 SWAP1 POP PUSH1 0x20 DUP3 ADD SWAP1 POP SWAP2 SWAP1 POP JUMP JUMPDEST PUSH1 0x0 DUP2 MLOAD SWAP1 POP SWAP2 SWAP1 POP JUMP JUMPDEST PUSH1 0x0 DUP2 MLOAD SWAP1 POP SWAP2 SWAP1 POP JUMP JUMPDEST PUSH1 0x0 PUSH1 0x20 DUP3 ADD SWAP1 POP SWAP2 SWAP1 POP JUMP JUMPDEST PUSH1 0x0 DUP3 DUP3 MSTORE PUSH1 0x20 DUP3 ADD SWAP1 POP SWAP3 SWAP2 POP POP JUMP JUMPDEST PUSH1 0x0 DUP3 DUP3 MSTORE PUSH1 0x20 DUP3 ADD SWAP1 POP SWAP3 SWAP2 POP POP JUMP JUMPDEST PUSH1 0x0 PUSH2 0x1CF3 DUP3 PUSH2 0x1DBF JUMP JUMPDEST SWAP2 POP PUSH2 0x1CFE DUP4 PUSH2 0x1DBF JUMP JUMPDEST SWAP3 POP DUP3 PUSH32 0xFFFFFFFFFFFFFFFFFFFFFFFFFFFFFFFFFFFFFFFFFFFFFFFFFFFFFFFFFFFFFFFF SUB DUP3 GT ISZERO PUSH2 0x1D33 JUMPI PUSH2 0x1D32 PUSH2 0x1E3B JUMP JUMPDEST JUMPDEST DUP3 DUP3 ADD SWAP1 POP SWAP3 SWAP2 POP POP JUMP JUMPDEST PUSH1 0x0 PUSH2 0x1D49 DUP3 PUSH2 0x1DBF JUMP JUMPDEST SWAP2 POP PUSH2 0x1D54 DUP4 PUSH2 0x1DBF JUMP JUMPDEST SWAP3 POP DUP3 PUSH2 0x1D64 JUMPI PUSH2 0x1D63 PUSH2 0x1E6A JUMP JUMPDEST JUMPDEST DUP3 DUP3 DIV SWAP1 POP SWAP3 SWAP2 POP POP JUMP JUMPDEST PUSH1 0x0 PUSH2 0x1D7A DUP3 PUSH2 0x1D9F JUMP JUMPDEST SWAP1 POP SWAP2 SWAP1 POP JUMP JUMPDEST PUSH1 0x0 PUSH2 0x1D8C DUP3 PUSH2 0x1D9F JUMP JUMPDEST SWAP1 POP SWAP2 SWAP1 POP JUMP JUMPDEST PUSH1 0x0 DUP2 ISZERO ISZERO SWAP1 POP SWAP2 SWAP1 POP JUMP JUMPDEST PUSH1 0x0 PUSH20 0xFFFFFFFFFFFFFFFFFFFFFFFFFFFFFFFFFFFFFFFF DUP3 AND SWAP1 POP SWAP2 SWAP1 POP JUMP JUMPDEST PUSH1 0x0 DUP2 SWAP1 POP SWAP2 SWAP1 POP JUMP JUMPDEST PUSH1 0x0 PUSH1 0xFF DUP3 AND SWAP1 POP SWAP2 SWAP1 POP JUMP JUMPDEST PUSH1 0x0 JUMPDEST DUP4 DUP2 LT ISZERO PUSH2 0x1DF4 JUMPI DUP1 DUP3 ADD MLOAD DUP2 DUP5 ADD MSTORE PUSH1 0x20 DUP2 ADD SWAP1 POP PUSH2 0x1DD9 JUMP JUMPDEST DUP4 DUP2 GT ISZERO PUSH2 0x1E03 JUMPI PUSH1 0x0 DUP5 DUP5 ADD MSTORE JUMPDEST POP POP POP POP JUMP JUMPDEST PUSH1 0x0 PUSH1 0x2 DUP3 DIV SWAP1 POP PUSH1 0x1 DUP3 AND DUP1 PUSH2 0x1E21 JUMPI PUSH1 0x7F DUP3 AND SWAP2 POP JUMPDEST PUSH1 0x20 DUP3 LT DUP2 EQ ISZERO PUSH2 0x1E35 JUMPI PUSH2 0x1E34 PUSH2 0x1E99 JUMP JUMPDEST JUMPDEST POP SWAP2 SWAP1 POP JUMP JUMPDEST PUSH32 0x4E487B7100000000000000000000000000000000000000000000000000000000 PUSH1 0x0 MSTORE PUSH1 0x11 PUSH1 0x4 MSTORE PUSH1 0x24 PUSH1 0x0 REVERT JUMPDEST PUSH32 0x4E487B7100000000000000000000000000000000000000000000000000000000 PUSH1 0x0 MSTORE PUSH1 0x12 PUSH1 0x4 MSTORE PUSH1 0x24 PUSH1 0x0 REVERT JUMPDEST PUSH32 0x4E487B7100000000000000000000000000000000000000000000000000000000 PUSH1 0x0 MSTORE PUSH1 0x22 PUSH1 0x4 MSTORE PUSH1 0x24 PUSH1 0x0 REVERT JUMPDEST PUSH1 0x0 DUP1 REVERT JUMPDEST PUSH1 0x0 PUSH1 0x1F NOT PUSH1 0x1F DUP4 ADD AND SWAP1 POP SWAP2 SWAP1 POP JUMP JUMPDEST PUSH32 0x45524332303A207472616E7366657220746F20746865207A65726F2061646472 PUSH1 0x0 DUP3 ADD MSTORE PUSH32 0x6573730000000000000000000000000000000000000000000000000000000000 PUSH1 0x20 DUP3 ADD MSTORE POP JUMP JUMPDEST PUSH32 0x4F776E61626C653A206E6577206F776E657220697320746865207A65726F2061 PUSH1 0x0 DUP3 ADD MSTORE PUSH32 0x6464726573730000000000000000000000000000000000000000000000000000 PUSH1 0x20 DUP3 ADD MSTORE POP JUMP JUMPDEST PUSH32 0x45524332303A20617070726F766520746F20746865207A65726F206164647265 PUSH1 0x0 DUP3 ADD MSTORE PUSH32 0x7373000000000000000000000000000000000000000000000000000000000000 PUSH1 0x20 DUP3 ADD MSTORE POP JUMP JUMPDEST PUSH32 0x45524332303A20696E73756666696369656E7420616C6C6F77616E6365000000 PUSH1 0x0 DUP3 ADD MSTORE POP JUMP JUMPDEST PUSH32 0x45524332303A207472616E7366657220616D6F756E7420657863656564732062 PUSH1 0x0 DUP3 ADD MSTORE PUSH32 0x616C616E63650000000000000000000000000000000000000000000000000000 PUSH1 0x20 DUP3 ADD MSTORE POP JUMP JUMPDEST PUSH32 0x4F776E61626C653A2063616C6C6572206973206E6F7420746865206F776E6572 PUSH1 0x0 DUP3 ADD MSTORE POP JUMP JUMPDEST PUSH32 0x45524332303A207472616E736665722066726F6D20746865207A65726F206164 PUSH1 0x0 DUP3 ADD MSTORE PUSH32 0x6472657373000000000000000000000000000000000000000000000000000000 PUSH1 0x20 DUP3 ADD MSTORE POP JUMP JUMPDEST PUSH32 0x45524332303A20617070726F76652066726F6D20746865207A65726F20616464 PUSH1 0x0 DUP3 ADD MSTORE PUSH32 0x7265737300000000000000000000000000000000000000000000000000000000 PUSH1 0x20 DUP3 ADD MSTORE POP JUMP JUMPDEST PUSH32 0x45524332303A2064656372656173656420616C6C6F77616E63652062656C6F77 PUSH1 0x0 DUP3 ADD MSTORE PUSH32 0x207A65726F000000000000000000000000000000000000000000000000000000 PUSH1 0x20 DUP3 ADD MSTORE POP JUMP JUMPDEST PUSH32 0x45524332303A206D696E7420746F20746865207A65726F206164647265737300 PUSH1 0x0 DUP3 ADD MSTORE POP JUMP JUMPDEST PUSH2 0x218B DUP2 PUSH2 0x1D6F JUMP JUMPDEST DUP2 EQ PUSH2 0x2196 JUMPI PUSH1 0x0 DUP1 REVERT JUMPDEST POP JUMP JUMPDEST PUSH2 0x21A2 DUP2 PUSH2 0x1D81 JUMP JUMPDEST DUP2 EQ PUSH2 0x21AD JUMPI PUSH1 0x0 DUP1 REVERT JUMPDEST POP JUMP JUMPDEST PUSH2 0x21B9 DUP2 PUSH2 0x1DBF JUMP JUMPDEST DUP2 EQ PUSH2 0x21C4 JUMPI PUSH1 0x0 DUP1 REVERT JUMPDEST POP JUMP INVALID LOG2 PUSH5 0x6970667358 0x22 SLT KECCAK256 0xE0 0xAC PUSH3 0x1629D7 PUSH1 0x65 0xDF 0xB8 PUSH29 0x5D31D654B43FCD9D69BD57C0E7C816A8A47892C65764736F6C63430008 SMOD STOP CALLER "
				},
				"gasEstimates": {
					"creation": {
						"codeDepositCost": "1740200",
						"executionCost": "infinite",
						"totalCost": "infinite"
					},
					"external": {
						"_numberofTokensStaked()": "2460",
						"allowance(address,address)": "infinite",
						"approve(address,uint256)": "infinite",
						"balanceOf(address)": "2952",
						"buyToken(address,uint256)": "infinite",
						"claimReward(address,uint256)": "infinite",
						"decimals()": "388",
						"decreaseAllowance(address,uint256)": "infinite",
						"getAllTransactions()": "infinite",
						"hasStaked(address)": "2889",
						"increaseAllowance(address,uint256)": "infinite",
						"name()": "infinite",
						"numberofTokensStaked()": "2562",
						"owner()": "2567",
						"renounceOwnership()": "30507",
						"rewards(address)": "2860",
						"stakeToken(address,uint256)": "infinite",
						"symbol()": "infinite",
						"tokenBuyPrice()": "2495",
						"totalSupply()": "2549",
						"transfer(address,uint256)": "infinite",
						"transferFrom(address,address,uint256)": "infinite",
						"transferOwnership(address)": "30833",
						"viewTokenBalance(address)": "2930"
					}
				},
				"methodIdentifiers": {
					"_numberofTokensStaked()": "789706ae",
					"allowance(address,address)": "dd62ed3e",
					"approve(address,uint256)": "095ea7b3",
					"balanceOf(address)": "70a08231",
					"buyToken(address,uint256)": "68f8fc10",
					"claimReward(address,uint256)": "174e31c4",
					"decimals()": "313ce567",
					"decreaseAllowance(address,uint256)": "a457c2d7",
					"getAllTransactions()": "27506f53",
					"hasStaked(address)": "c93c8f34",
					"increaseAllowance(address,uint256)": "39509351",
					"name()": "06fdde03",
					"numberofTokensStaked()": "a6c75797",
					"owner()": "8da5cb5b",
					"renounceOwnership()": "715018a6",
					"rewards(address)": "0700037d",
					"stakeToken(address,uint256)": "f739ed9e",
					"symbol()": "95d89b41",
					"tokenBuyPrice()": "dbf9f652",
					"totalSupply()": "18160ddd",
					"transfer(address,uint256)": "a9059cbb",
					"transferFrom(address,address,uint256)": "23b872dd",
					"transferOwnership(address)": "f2fde38b",
					"viewTokenBalance(address)": "a4101788"
				}
			},
			"userdoc": {
				"kind": "user",
				"methods": {},
				"version": 1
			}
		}
	}
}