{
	"contracts/ERC20stake&reward.sol": {
		"Vintagecrypto": {
			"abi": [
				{
					"inputs": [],
					"stateMutability": "nonpayable",
					"type": "constructor"
				},
				{
					"anonymous": false,
					"inputs": [
						{
							"indexed": true,
							"internalType": "address",
							"name": "owner",
							"type": "address"
						},
						{
							"indexed": true,
							"internalType": "address",
							"name": "spender",
							"type": "address"
						},
						{
							"indexed": false,
							"internalType": "uint256",
							"name": "value",
							"type": "uint256"
						}
					],
					"name": "Approval",
					"type": "event"
				},
				{
					"anonymous": false,
					"inputs": [
						{
							"indexed": true,
							"internalType": "address",
							"name": "previousOwner",
							"type": "address"
						},
						{
							"indexed": true,
							"internalType": "address",
							"name": "newOwner",
							"type": "address"
						}
					],
					"name": "OwnershipTransferred",
					"type": "event"
				},
				{
					"anonymous": false,
					"inputs": [
						{
							"indexed": true,
							"internalType": "address",
							"name": "owner",
							"type": "address"
						},
						{
							"indexed": true,
							"internalType": "address",
							"name": "staker",
							"type": "address"
						},
						{
							"indexed": false,
							"internalType": "uint256",
							"name": "amount",
							"type": "uint256"
						},
						{
							"indexed": false,
							"internalType": "uint256",
							"name": "timestamp",
							"type": "uint256"
						}
					],
					"name": "Transfer",
					"type": "event"
				},
				{
					"anonymous": false,
					"inputs": [
						{
							"indexed": true,
							"internalType": "address",
							"name": "from",
							"type": "address"
						},
						{
							"indexed": true,
							"internalType": "address",
							"name": "to",
							"type": "address"
						},
						{
							"indexed": false,
							"internalType": "uint256",
							"name": "value",
							"type": "uint256"
						}
					],
					"name": "Transfer",
					"type": "event"
				},
				{
					"inputs": [],
					"name": "_numberofTokensStaked",
					"outputs": [
						{
							"internalType": "uint256",
							"name": "",
							"type": "uint256"
						}
					],
					"stateMutability": "view",
					"type": "function"
				},
				{
					"inputs": [
						{
							"internalType": "address",
							"name": "owner",
							"type": "address"
						},
						{
							"internalType": "address",
							"name": "spender",
							"type": "address"
						}
					],
					"name": "allowance",
					"outputs": [
						{
							"internalType": "uint256",
							"name": "",
							"type": "uint256"
						}
					],
					"stateMutability": "view",
					"type": "function"
				},
				{
					"inputs": [
						{
							"internalType": "address",
							"name": "spender",
							"type": "address"
						},
						{
							"internalType": "uint256",
							"name": "amount",
							"type": "uint256"
						}
					],
					"name": "approve",
					"outputs": [
						{
							"internalType": "bool",
							"name": "",
							"type": "bool"
						}
					],
					"stateMutability": "nonpayable",
					"type": "function"
				},
				{
					"inputs": [
						{
							"internalType": "address",
							"name": "account",
							"type": "address"
						}
					],
					"name": "balanceOf",
					"outputs": [
						{
							"internalType": "uint256",
							"name": "",
							"type": "uint256"
						}
					],
					"stateMutability": "view",
					"type": "function"
				},
				{
					"inputs": [
						{
							"internalType": "address",
							"name": "to",
							"type": "address"
						},
						{
							"internalType": "uint256",
							"name": "amount",
							"type": "uint256"
						}
					],
					"name": "buyToken",
					"outputs": [],
					"stateMutability": "nonpayable",
					"type": "function"
				},
				{
					"inputs": [
						{
							"internalType": "address payable",
							"name": "staker",
							"type": "address"
						},
						{
							"internalType": "uint256",
							"name": "amountStaked",
							"type": "uint256"
						}
					],
					"name": "claimReward",
					"outputs": [],
					"stateMutability": "nonpayable",
					"type": "function"
				},
				{
					"inputs": [],
					"name": "decimals",
					"outputs": [
						{
							"internalType": "uint8",
							"name": "",
							"type": "uint8"
						}
					],
					"stateMutability": "view",
					"type": "function"
				},
				{
					"inputs": [
						{
							"internalType": "address",
							"name": "spender",
							"type": "address"
						},
						{
							"internalType": "uint256",
							"name": "subtractedValue",
							"type": "uint256"
						}
					],
					"name": "decreaseAllowance",
					"outputs": [
						{
							"internalType": "bool",
							"name": "",
							"type": "bool"
						}
					],
					"stateMutability": "nonpayable",
					"type": "function"
				},
				{
					"inputs": [],
					"name": "getAllTransactions",
					"outputs": [
						{
							"components": [
								{
									"internalType": "address",
									"name": "owner",
									"type": "address"
								},
								{
									"internalType": "address",
									"name": "staker",
									"type": "address"
								},
								{
									"internalType": "uint256",
									"name": "amount",
									"type": "uint256"
								},
								{
									"internalType": "uint256",
									"name": "timestamp",
									"type": "uint256"
								}
							],
							"internalType": "struct Vintagecrypto.stakedToken[]",
							"name": "",
							"type": "tuple[]"
						}
					],
					"stateMutability": "view",
					"type": "function"
				},
				{
					"inputs": [
						{
							"internalType": "address",
							"name": "",
							"type": "address"
						}
					],
					"name": "hasStaked",
					"outputs": [
						{
							"internalType": "bool",
							"name": "",
							"type": "bool"
						}
					],
					"stateMutability": "view",
					"type": "function"
				},
				{
					"inputs": [
						{
							"internalType": "address",
							"name": "spender",
							"type": "address"
						},
						{
							"internalType": "uint256",
							"name": "addedValue",
							"type": "uint256"
						}
					],
					"name": "increaseAllowance",
					"outputs": [
						{
							"internalType": "bool",
							"name": "",
							"type": "bool"
						}
					],
					"stateMutability": "nonpayable",
					"type": "function"
				},
				{
					"inputs": [],
					"name": "name",
					"outputs": [
						{
							"internalType": "string",
							"name": "",
							"type": "string"
						}
					],
					"stateMutability": "view",
					"type": "function"
				},
				{
					"inputs": [],
					"name": "numberofTokensStaked",
					"outputs": [
						{
							"internalType": "uint256",
							"name": "",
							"type": "uint256"
						}
					],
					"stateMutability": "view",
					"type": "function"
				},
				{
					"inputs": [],
					"name": "owner",
					"outputs": [
						{
							"internalType": "address",
							"name": "",
							"type": "address"
						}
					],
					"stateMutability": "view",
					"type": "function"
				},
				{
					"inputs": [],
					"name": "renounceOwnership",
					"outputs": [],
					"stateMutability": "nonpayable",
					"type": "function"
				},
				{
					"inputs": [
						{
							"internalType": "address",
							"name": "",
							"type": "address"
						}
					],
					"name": "rewards",
					"outputs": [
						{
							"internalType": "uint256",
							"name": "",
							"type": "uint256"
						}
					],
					"stateMutability": "view",
					"type": "function"
				},
				{
					"inputs": [
						{
							"internalType": "address",
							"name": "staker",
							"type": "address"
						},
						{
							"internalType": "uint256",
							"name": "amount",
							"type": "uint256"
						}
					],
					"name": "stakeToken",
					"outputs": [],
					"stateMutability": "nonpayable",
					"type": "function"
				},
				{
					"inputs": [],
					"name": "symbol",
					"outputs": [
						{
							"internalType": "string",
							"name": "",
							"type": "string"
						}
					],
					"stateMutability": "view",
					"type": "function"
				},
				{
					"inputs": [],
					"name": "tokenBuyPrice",
					"outputs": [
						{
							"internalType": "uint256",
							"name": "",
							"type": "uint256"
						}
					],
					"stateMutability": "view",
					"type": "function"
				},
				{
					"inputs": [],
					"name": "totalSupply",
					"outputs": [
						{
							"internalType": "uint256",
							"name": "",
							"type": "uint256"
						}
					],
					"stateMutability": "view",
					"type": "function"
				},
				{
					"inputs": [
						{
							"internalType": "address",
							"name": "to",
							"type": "address"
						},
						{
							"internalType": "uint256",
							"name": "amount",
							"type": "uint256"
						}
					],
					"name": "transfer",
					"outputs": [
						{
							"internalType": "bool",
							"name": "",
							"type": "bool"
						}
					],
					"stateMutability": "nonpayable",
					"type": "function"
				},
				{
					"inputs": [
						{
							"internalType": "address",
							"name": "from",
							"type": "address"
						},
						{
							"internalType": "address",
							"name": "to",
							"type": "address"
						},
						{
							"internalType": "uint256",
							"name": "amount",
							"type": "uint256"
						}
					],
					"name": "transferFrom",
					"outputs": [
						{
							"internalType": "bool",
							"name": "",
							"type": "bool"
						}
					],
					"stateMutability": "nonpayable",
					"type": "function"
				},
				{
					"inputs": [
						{
							"internalType": "address",
							"name": "newOwner",
							"type": "address"
						}
					],
					"name": "transferOwnership",
					"outputs": [],
					"stateMutability": "nonpayable",
					"type": "function"
				},
				{
					"inputs": [
						{
							"internalType": "address",
							"name": "staker",
							"type": "address"
						}
					],
					"name": "viewTokenBalance",
					"outputs": [
						{
							"internalType": "uint256",
							"name": "",
							"type": "uint256"
						}
					],
					"stateMutability": "view",
					"type": "function"
				}
			],
			"devdoc": {
				"kind": "dev",
				"methods": {
					"allowance(address,address)": {
						"details": "See {IERC20-allowance}."
					},
					"approve(address,uint256)": {
						"details": "See {IERC20-approve}. NOTE: If `amount` is the maximum `uint256`, the allowance is not updated on `transferFrom`. This is semantically equivalent to an infinite approval. Requirements: - `spender` cannot be the zero address."
					},
					"balanceOf(address)": {
						"details": "See {IERC20-balanceOf}."
					},
					"decimals()": {
						"details": "Returns the number of decimals used to get its user representation. For example, if `decimals` equals `2`, a balance of `505` tokens should be displayed to a user as `5.05` (`505 / 10 ** 2`). Tokens usually opt for a value of 18, imitating the relationship between Ether and Wei. This is the value {ERC20} uses, unless this function is overridden; NOTE: This information is only used for _display_ purposes: it in no way affects any of the arithmetic of the contract, including {IERC20-balanceOf} and {IERC20-transfer}."
					},
					"decreaseAllowance(address,uint256)": {
						"details": "Atomically decreases the allowance granted to `spender` by the caller. This is an alternative to {approve} that can be used as a mitigation for problems described in {IERC20-approve}. Emits an {Approval} event indicating the updated allowance. Requirements: - `spender` cannot be the zero address. - `spender` must have allowance for the caller of at least `subtractedValue`."
					},
					"increaseAllowance(address,uint256)": {
						"details": "Atomically increases the allowance granted to `spender` by the caller. This is an alternative to {approve} that can be used as a mitigation for problems described in {IERC20-approve}. Emits an {Approval} event indicating the updated allowance. Requirements: - `spender` cannot be the zero address."
					},
					"name()": {
						"details": "Returns the name of the token."
					},
					"owner()": {
						"details": "Returns the address of the current owner."
					},
					"renounceOwnership()": {
						"details": "Leaves the contract without owner. It will not be possible to call `onlyOwner` functions anymore. Can only be called by the current owner. NOTE: Renouncing ownership will leave the contract without an owner, thereby removing any functionality that is only available to the owner."
					},
					"symbol()": {
						"details": "Returns the symbol of the token, usually a shorter version of the name."
					},
					"totalSupply()": {
						"details": "See {IERC20-totalSupply}."
					},
					"transfer(address,uint256)": {
						"details": "See {IERC20-transfer}. Requirements: - `to` cannot be the zero address. - the caller must have a balance of at least `amount`."
					},
					"transferFrom(address,address,uint256)": {
						"details": "See {IERC20-transferFrom}. Emits an {Approval} event indicating the updated allowance. This is not required by the EIP. See the note at the beginning of {ERC20}. NOTE: Does not update the allowance if the current allowance is the maximum `uint256`. Requirements: - `from` and `to` cannot be the zero address. - `from` must have a balance of at least `amount`. - the caller must have allowance for ``from``'s tokens of at least `amount`."
					},
					"transferOwnership(address)": {
						"details": "Transfers ownership of the contract to a new account (`newOwner`). Can only be called by the current owner."
					}
				},
				"version": 1
			},
			"evm": {
				"assembly": "    /* \"contracts/ERC20stake&reward.sol\":168:1981  contract Vintagecrypto is ERC20, Ownable {... */\n  mstore(0x40, 0x80)\n    /* \"contracts/ERC20stake&reward.sol\":244:252  1*10**17 */\n  0x016345785d8a0000\n    /* \"contracts/ERC20stake&reward.sol\":216:252  uint public tokenBuyPrice = 1*10**17 */\n  0x06\n  sstore\n    /* \"contracts/ERC20stake&reward.sol\":691:796  constructor() ERC20(\"Vintage-crypto\", \"$VIT\") {... */\n  callvalue\n  dup1\n  iszero\n  tag_1\n  jumpi\n  0x00\n  dup1\n  revert\ntag_1:\n  pop\n    /* \"@openzeppelin/contracts/token/ERC20/ERC20.sol\":1978:2091  constructor(string memory name_, string memory symbol_) {... */\n  mload(0x40)\n  dup1\n  0x40\n  add\n  0x40\n  mstore\n  dup1\n  0x0e\n  dup2\n  mstore\n  0x20\n  add\n  0x56696e746167652d63727970746f000000000000000000000000000000000000\n  dup2\n  mstore\n  pop\n  mload(0x40)\n  dup1\n  0x40\n  add\n  0x40\n  mstore\n  dup1\n  0x04\n  dup2\n  mstore\n  0x20\n  add\n  0x2456495400000000000000000000000000000000000000000000000000000000\n  dup2\n  mstore\n  pop\n    /* \"@openzeppelin/contracts/token/ERC20/ERC20.sol\":2052:2057  name_ */\n  dup2\n    /* \"@openzeppelin/contracts/token/ERC20/ERC20.sol\":2044:2049  _name */\n  0x03\n    /* \"@openzeppelin/contracts/token/ERC20/ERC20.sol\":2044:2057  _name = name_ */\n  swap1\n  dup1\n  mload\n  swap1\n  0x20\n  add\n  swap1\n  tag_6\n  swap3\n  swap2\n  swap1\n  tag_7\n  jump\t// in\ntag_6:\n  pop\n    /* \"@openzeppelin/contracts/token/ERC20/ERC20.sol\":2077:2084  symbol_ */\n  dup1\n    /* \"@openzeppelin/contracts/token/ERC20/ERC20.sol\":2067:2074  _symbol */\n  0x04\n    /* \"@openzeppelin/contracts/token/ERC20/ERC20.sol\":2067:2084  _symbol = symbol_ */\n  swap1\n  dup1\n  mload\n  swap1\n  0x20\n  add\n  swap1\n  tag_8\n  swap3\n  swap2\n  swap1\n  tag_7\n  jump\t// in\ntag_8:\n  pop\n    /* \"@openzeppelin/contracts/token/ERC20/ERC20.sol\":1978:2091  constructor(string memory name_, string memory symbol_) {... */\n  pop\n  pop\n    /* \"@openzeppelin/contracts/access/Ownable.sol\":921:953  _transferOwnership(_msgSender()) */\n  tag_10\n    /* \"@openzeppelin/contracts/access/Ownable.sol\":940:952  _msgSender() */\n  tag_11\n    /* \"@openzeppelin/contracts/access/Ownable.sol\":940:950  _msgSender */\n  shl(0x20, tag_12)\n    /* \"@openzeppelin/contracts/access/Ownable.sol\":940:952  _msgSender() */\n  0x20\n  shr\n  jump\t// in\ntag_11:\n    /* \"@openzeppelin/contracts/access/Ownable.sol\":921:939  _transferOwnership */\n  shl(0x20, tag_13)\n    /* \"@openzeppelin/contracts/access/Ownable.sol\":921:953  _transferOwnership(_msgSender()) */\n  0x20\n  shr\n  jump\t// in\ntag_10:\n    /* \"contracts/ERC20stake&reward.sol\":747:789  _mint(msg.sender, 1000 * 10 ** decimals()) */\n  tag_15\n    /* \"contracts/ERC20stake&reward.sol\":753:763  msg.sender */\n  caller\n    /* \"contracts/ERC20stake&reward.sol\":778:788  decimals() */\n  tag_16\n    /* \"contracts/ERC20stake&reward.sol\":778:786  decimals */\n  shl(0x20, tag_17)\n    /* \"contracts/ERC20stake&reward.sol\":778:788  decimals() */\n  0x20\n  shr\n  jump\t// in\ntag_16:\n    /* \"contracts/ERC20stake&reward.sol\":772:774  10 */\n  0x0a\n    /* \"contracts/ERC20stake&reward.sol\":772:788  10 ** decimals() */\n  tag_18\n  swap2\n  swap1\n  tag_19\n  jump\t// in\ntag_18:\n    /* \"contracts/ERC20stake&reward.sol\":765:769  1000 */\n  0x03e8\n    /* \"contracts/ERC20stake&reward.sol\":765:788  1000 * 10 ** decimals() */\n  tag_20\n  swap2\n  swap1\n  tag_21\n  jump\t// in\ntag_20:\n    /* \"contracts/ERC20stake&reward.sol\":747:752  _mint */\n  shl(0x20, tag_22)\n    /* \"contracts/ERC20stake&reward.sol\":747:789  _mint(msg.sender, 1000 * 10 ** decimals()) */\n  0x20\n  shr\n  jump\t// in\ntag_15:\n    /* \"contracts/ERC20stake&reward.sol\":168:1981  contract Vintagecrypto is ERC20, Ownable {... */\n  jump(tag_23)\n    /* \"@openzeppelin/contracts/utils/Context.sol\":640:736  function _msgSender() internal view virtual returns (address) {... */\ntag_12:\n    /* \"@openzeppelin/contracts/utils/Context.sol\":693:700  address */\n  0x00\n    /* \"@openzeppelin/contracts/utils/Context.sol\":719:729  msg.sender */\n  caller\n    /* \"@openzeppelin/contracts/utils/Context.sol\":712:729  return msg.sender */\n  swap1\n  pop\n    /* \"@openzeppelin/contracts/utils/Context.sol\":640:736  function _msgSender() internal view virtual returns (address) {... */\n  swap1\n  jump\t// out\n    /* \"@openzeppelin/contracts/access/Ownable.sol\":2270:2457  function _transferOwnership(address newOwner) internal virtual {... */\ntag_13:\n    /* \"@openzeppelin/contracts/access/Ownable.sol\":2343:2359  address oldOwner */\n  0x00\n    /* \"@openzeppelin/contracts/access/Ownable.sol\":2362:2368  _owner */\n  0x05\n  0x00\n  swap1\n  sload\n  swap1\n  0x0100\n  exp\n  swap1\n  div\n  0xffffffffffffffffffffffffffffffffffffffff\n  and\n    /* \"@openzeppelin/contracts/access/Ownable.sol\":2343:2368  address oldOwner = _owner */\n  swap1\n  pop\n    /* \"@openzeppelin/contracts/access/Ownable.sol\":2387:2395  newOwner */\n  dup2\n    /* \"@openzeppelin/contracts/access/Ownable.sol\":2378:2384  _owner */\n  0x05\n  0x00\n    /* \"@openzeppelin/contracts/access/Ownable.sol\":2378:2395  _owner = newOwner */\n  0x0100\n  exp\n  dup2\n  sload\n  dup2\n  0xffffffffffffffffffffffffffffffffffffffff\n  mul\n  not\n  and\n  swap1\n  dup4\n  0xffffffffffffffffffffffffffffffffffffffff\n  and\n  mul\n  or\n  swap1\n  sstore\n  pop\n    /* \"@openzeppelin/contracts/access/Ownable.sol\":2441:2449  newOwner */\n  dup2\n    /* \"@openzeppelin/contracts/access/Ownable.sol\":2410:2450  OwnershipTransferred(oldOwner, newOwner) */\n  0xffffffffffffffffffffffffffffffffffffffff\n  and\n    /* \"@openzeppelin/contracts/access/Ownable.sol\":2431:2439  oldOwner */\n  dup2\n    /* \"@openzeppelin/contracts/access/Ownable.sol\":2410:2450  OwnershipTransferred(oldOwner, newOwner) */\n  0xffffffffffffffffffffffffffffffffffffffff\n  and\n  0x8be0079c531659141344cd1fd0a4f28419497f9722a3daafe3b4186f6b6457e0\n  mload(0x40)\n  mload(0x40)\n  dup1\n  swap2\n  sub\n  swap1\n  log3\n    /* \"@openzeppelin/contracts/access/Ownable.sol\":2270:2457  function _transferOwnership(address newOwner) internal virtual {... */\n  pop\n  pop\n  jump\t// out\n    /* \"@openzeppelin/contracts/token/ERC20/ERC20.sol\":3093:3184  function decimals() public view virtual override returns (uint8) {... */\ntag_17:\n    /* \"@openzeppelin/contracts/token/ERC20/ERC20.sol\":3151:3156  uint8 */\n  0x00\n    /* \"@openzeppelin/contracts/token/ERC20/ERC20.sol\":3175:3177  18 */\n  0x12\n    /* \"@openzeppelin/contracts/token/ERC20/ERC20.sol\":3168:3177  return 18 */\n  swap1\n  pop\n    /* \"@openzeppelin/contracts/token/ERC20/ERC20.sol\":3093:3184  function decimals() public view virtual override returns (uint8) {... */\n  swap1\n  jump\t// out\n    /* \"@openzeppelin/contracts/token/ERC20/ERC20.sol\":8415:8804  function _mint(address account, uint256 amount) internal virtual {... */\ntag_22:\n    /* \"@openzeppelin/contracts/token/ERC20/ERC20.sol\":8517:8518  0 */\n  0x00\n    /* \"@openzeppelin/contracts/token/ERC20/ERC20.sol\":8498:8519  account != address(0) */\n  0xffffffffffffffffffffffffffffffffffffffff\n  and\n    /* \"@openzeppelin/contracts/token/ERC20/ERC20.sol\":8498:8505  account */\n  dup3\n    /* \"@openzeppelin/contracts/token/ERC20/ERC20.sol\":8498:8519  account != address(0) */\n  0xffffffffffffffffffffffffffffffffffffffff\n  and\n  eq\n  iszero\n    /* \"@openzeppelin/contracts/token/ERC20/ERC20.sol\":8490:8555  require(account != address(0), \"ERC20: mint to the zero address\") */\n  tag_28\n  jumpi\n  mload(0x40)\n  0x08c379a000000000000000000000000000000000000000000000000000000000\n  dup2\n  mstore\n  0x04\n  add\n  tag_29\n  swap1\n  tag_30\n  jump\t// in\ntag_29:\n  mload(0x40)\n  dup1\n  swap2\n  sub\n  swap1\n  revert\ntag_28:\n    /* \"@openzeppelin/contracts/token/ERC20/ERC20.sol\":8566:8615  _beforeTokenTransfer(address(0), account, amount) */\n  tag_31\n    /* \"@openzeppelin/contracts/token/ERC20/ERC20.sol\":8595:8596  0 */\n  0x00\n    /* \"@openzeppelin/contracts/token/ERC20/ERC20.sol\":8599:8606  account */\n  dup4\n    /* \"@openzeppelin/contracts/token/ERC20/ERC20.sol\":8608:8614  amount */\n  dup4\n    /* \"@openzeppelin/contracts/token/ERC20/ERC20.sol\":8566:8586  _beforeTokenTransfer */\n  shl(0x20, tag_32)\n    /* \"@openzeppelin/contracts/token/ERC20/ERC20.sol\":8566:8615  _beforeTokenTransfer(address(0), account, amount) */\n  0x20\n  shr\n  jump\t// in\ntag_31:\n    /* \"@openzeppelin/contracts/token/ERC20/ERC20.sol\":8642:8648  amount */\n  dup1\n    /* \"@openzeppelin/contracts/token/ERC20/ERC20.sol\":8626:8638  _totalSupply */\n  0x02\n  0x00\n    /* \"@openzeppelin/contracts/token/ERC20/ERC20.sol\":8626:8648  _totalSupply += amount */\n  dup3\n  dup3\n  sload\n  tag_33\n  swap2\n  swap1\n  tag_34\n  jump\t// in\ntag_33:\n  swap3\n  pop\n  pop\n  dup2\n  swap1\n  sstore\n  pop\n    /* \"@openzeppelin/contracts/token/ERC20/ERC20.sol\":8680:8686  amount */\n  dup1\n    /* \"@openzeppelin/contracts/token/ERC20/ERC20.sol\":8658:8667  _balances */\n  0x00\n    /* \"@openzeppelin/contracts/token/ERC20/ERC20.sol\":8658:8676  _balances[account] */\n  dup1\n    /* \"@openzeppelin/contracts/token/ERC20/ERC20.sol\":8668:8675  account */\n  dup5\n    /* \"@openzeppelin/contracts/token/ERC20/ERC20.sol\":8658:8676  _balances[account] */\n  0xffffffffffffffffffffffffffffffffffffffff\n  and\n  0xffffffffffffffffffffffffffffffffffffffff\n  and\n  dup2\n  mstore\n  0x20\n  add\n  swap1\n  dup2\n  mstore\n  0x20\n  add\n  0x00\n  keccak256\n  0x00\n    /* \"@openzeppelin/contracts/token/ERC20/ERC20.sol\":8658:8686  _balances[account] += amount */\n  dup3\n  dup3\n  sload\n  tag_35\n  swap2\n  swap1\n  tag_34\n  jump\t// in\ntag_35:\n  swap3\n  pop\n  pop\n  dup2\n  swap1\n  sstore\n  pop\n    /* \"@openzeppelin/contracts/token/ERC20/ERC20.sol\":8722:8729  account */\n  dup2\n    /* \"@openzeppelin/contracts/token/ERC20/ERC20.sol\":8701:8738  Transfer(address(0), account, amount) */\n  0xffffffffffffffffffffffffffffffffffffffff\n  and\n    /* \"@openzeppelin/contracts/token/ERC20/ERC20.sol\":8718:8719  0 */\n  0x00\n    /* \"@openzeppelin/contracts/token/ERC20/ERC20.sol\":8701:8738  Transfer(address(0), account, amount) */\n  0xffffffffffffffffffffffffffffffffffffffff\n  and\n  0xddf252ad1be2c89b69c2b068fc378daa952ba7f163c4a11628f55a4df523b3ef\n    /* \"@openzeppelin/contracts/token/ERC20/ERC20.sol\":8731:8737  amount */\n  dup4\n    /* \"@openzeppelin/contracts/token/ERC20/ERC20.sol\":8701:8738  Transfer(address(0), account, amount) */\n  mload(0x40)\n  tag_36\n  swap2\n  swap1\n  tag_37\n  jump\t// in\ntag_36:\n  mload(0x40)\n  dup1\n  swap2\n  sub\n  swap1\n  log3\n    /* \"@openzeppelin/contracts/token/ERC20/ERC20.sol\":8749:8797  _afterTokenTransfer(address(0), account, amount) */\n  tag_38\n    /* \"@openzeppelin/contracts/token/ERC20/ERC20.sol\":8777:8778  0 */\n  0x00\n    /* \"@openzeppelin/contracts/token/ERC20/ERC20.sol\":8781:8788  account */\n  dup4\n    /* \"@openzeppelin/contracts/token/ERC20/ERC20.sol\":8790:8796  amount */\n  dup4\n    /* \"@openzeppelin/contracts/token/ERC20/ERC20.sol\":8749:8768  _afterTokenTransfer */\n  shl(0x20, tag_39)\n    /* \"@openzeppelin/contracts/token/ERC20/ERC20.sol\":8749:8797  _afterTokenTransfer(address(0), account, amount) */\n  0x20\n  shr\n  jump\t// in\ntag_38:\n    /* \"@openzeppelin/contracts/token/ERC20/ERC20.sol\":8415:8804  function _mint(address account, uint256 amount) internal virtual {... */\n  pop\n  pop\n  jump\t// out\n    /* \"@openzeppelin/contracts/token/ERC20/ERC20.sol\":11795:11916  function _beforeTokenTransfer(... */\ntag_32:\n  pop\n  pop\n  pop\n  jump\t// out\n    /* \"@openzeppelin/contracts/token/ERC20/ERC20.sol\":12504:12624  function _afterTokenTransfer(... */\ntag_39:\n  pop\n  pop\n  pop\n  jump\t// out\n    /* \"contracts/ERC20stake&reward.sol\":168:1981  contract Vintagecrypto is ERC20, Ownable {... */\ntag_7:\n  dup3\n  dup1\n  sload\n  tag_42\n  swap1\n  tag_43\n  jump\t// in\ntag_42:\n  swap1\n  0x00\n  mstore\n  keccak256(0x00, 0x20)\n  swap1\n  0x1f\n  add\n  0x20\n  swap1\n  div\n  dup2\n  add\n  swap3\n  dup3\n  tag_45\n  jumpi\n  0x00\n  dup6\n  sstore\n  jump(tag_44)\ntag_45:\n  dup3\n  0x1f\n  lt\n  tag_46\n  jumpi\n  dup1\n  mload\n  not(0xff)\n  and\n  dup4\n  dup1\n  add\n  or\n  dup6\n  sstore\n  jump(tag_44)\ntag_46:\n  dup3\n  dup1\n  add\n  0x01\n  add\n  dup6\n  sstore\n  dup3\n  iszero\n  tag_44\n  jumpi\n  swap2\n  dup3\n  add\ntag_47:\n  dup3\n  dup2\n  gt\n  iszero\n  tag_48\n  jumpi\n  dup3\n  mload\n  dup3\n  sstore\n  swap2\n  0x20\n  add\n  swap2\n  swap1\n  0x01\n  add\n  swap1\n  jump(tag_47)\ntag_48:\ntag_44:\n  pop\n  swap1\n  pop\n  tag_49\n  swap2\n  swap1\n  tag_50\n  jump\t// in\ntag_49:\n  pop\n  swap1\n  jump\t// out\ntag_50:\ntag_51:\n  dup1\n  dup3\n  gt\n  iszero\n  tag_52\n  jumpi\n  0x00\n  dup2\n  0x00\n  swap1\n  sstore\n  pop\n  0x01\n  add\n  jump(tag_51)\ntag_52:\n  pop\n  swap1\n  jump\t// out\n    /* \"#utility.yul\":7:336   */\ntag_54:\n  0x00\n    /* \"#utility.yul\":170:237   */\n  tag_56\n    /* \"#utility.yul\":234:236   */\n  0x1f\n    /* \"#utility.yul\":229:232   */\n  dup4\n    /* \"#utility.yul\":170:237   */\n  tag_57\n  jump\t// in\ntag_56:\n    /* \"#utility.yul\":163:237   */\n  swap2\n  pop\n    /* \"#utility.yul\":267:300   */\n  0x45524332303a206d696e7420746f20746865207a65726f206164647265737300\n    /* \"#utility.yul\":263:264   */\n  0x00\n    /* \"#utility.yul\":258:261   */\n  dup4\n    /* \"#utility.yul\":254:265   */\n  add\n    /* \"#utility.yul\":247:301   */\n  mstore\n    /* \"#utility.yul\":327:329   */\n  0x20\n    /* \"#utility.yul\":322:325   */\n  dup3\n    /* \"#utility.yul\":318:330   */\n  add\n    /* \"#utility.yul\":311:330   */\n  swap1\n  pop\n    /* \"#utility.yul\":153:336   */\n  swap2\n  swap1\n  pop\n  jump\t// out\n    /* \"#utility.yul\":342:460   */\ntag_58:\n    /* \"#utility.yul\":429:453   */\n  tag_60\n    /* \"#utility.yul\":447:452   */\n  dup2\n    /* \"#utility.yul\":429:453   */\n  tag_61\n  jump\t// in\ntag_60:\n    /* \"#utility.yul\":424:427   */\n  dup3\n    /* \"#utility.yul\":417:454   */\n  mstore\n    /* \"#utility.yul\":407:460   */\n  pop\n  pop\n  jump\t// out\n    /* \"#utility.yul\":466:885   */\ntag_30:\n  0x00\n    /* \"#utility.yul\":670:672   */\n  0x20\n    /* \"#utility.yul\":659:668   */\n  dup3\n    /* \"#utility.yul\":655:673   */\n  add\n    /* \"#utility.yul\":647:673   */\n  swap1\n  pop\n    /* \"#utility.yul\":719:728   */\n  dup2\n    /* \"#utility.yul\":713:717   */\n  dup2\n    /* \"#utility.yul\":709:729   */\n  sub\n    /* \"#utility.yul\":705:706   */\n  0x00\n    /* \"#utility.yul\":694:703   */\n  dup4\n    /* \"#utility.yul\":690:707   */\n  add\n    /* \"#utility.yul\":683:730   */\n  mstore\n    /* \"#utility.yul\":747:878   */\n  tag_63\n    /* \"#utility.yul\":873:877   */\n  dup2\n    /* \"#utility.yul\":747:878   */\n  tag_54\n  jump\t// in\ntag_63:\n    /* \"#utility.yul\":739:878   */\n  swap1\n  pop\n    /* \"#utility.yul\":637:885   */\n  swap2\n  swap1\n  pop\n  jump\t// out\n    /* \"#utility.yul\":891:1113   */\ntag_37:\n  0x00\n    /* \"#utility.yul\":1022:1024   */\n  0x20\n    /* \"#utility.yul\":1011:1020   */\n  dup3\n    /* \"#utility.yul\":1007:1025   */\n  add\n    /* \"#utility.yul\":999:1025   */\n  swap1\n  pop\n    /* \"#utility.yul\":1035:1106   */\n  tag_65\n    /* \"#utility.yul\":1103:1104   */\n  0x00\n    /* \"#utility.yul\":1092:1101   */\n  dup4\n    /* \"#utility.yul\":1088:1105   */\n  add\n    /* \"#utility.yul\":1079:1085   */\n  dup5\n    /* \"#utility.yul\":1035:1106   */\n  tag_58\n  jump\t// in\ntag_65:\n    /* \"#utility.yul\":989:1113   */\n  swap3\n  swap2\n  pop\n  pop\n  jump\t// out\n    /* \"#utility.yul\":1119:1288   */\ntag_57:\n  0x00\n    /* \"#utility.yul\":1237:1243   */\n  dup3\n    /* \"#utility.yul\":1232:1235   */\n  dup3\n    /* \"#utility.yul\":1225:1244   */\n  mstore\n    /* \"#utility.yul\":1277:1281   */\n  0x20\n    /* \"#utility.yul\":1272:1275   */\n  dup3\n    /* \"#utility.yul\":1268:1282   */\n  add\n    /* \"#utility.yul\":1253:1282   */\n  swap1\n  pop\n    /* \"#utility.yul\":1215:1288   */\n  swap3\n  swap2\n  pop\n  pop\n  jump\t// out\n    /* \"#utility.yul\":1294:1599   */\ntag_34:\n  0x00\n    /* \"#utility.yul\":1353:1373   */\n  tag_68\n    /* \"#utility.yul\":1371:1372   */\n  dup3\n    /* \"#utility.yul\":1353:1373   */\n  tag_61\n  jump\t// in\ntag_68:\n    /* \"#utility.yul\":1348:1373   */\n  swap2\n  pop\n    /* \"#utility.yul\":1387:1407   */\n  tag_69\n    /* \"#utility.yul\":1405:1406   */\n  dup4\n    /* \"#utility.yul\":1387:1407   */\n  tag_61\n  jump\t// in\ntag_69:\n    /* \"#utility.yul\":1382:1407   */\n  swap3\n  pop\n    /* \"#utility.yul\":1541:1542   */\n  dup3\n    /* \"#utility.yul\":1473:1539   */\n  0xffffffffffffffffffffffffffffffffffffffffffffffffffffffffffffffff\n    /* \"#utility.yul\":1469:1543   */\n  sub\n    /* \"#utility.yul\":1466:1467   */\n  dup3\n    /* \"#utility.yul\":1463:1544   */\n  gt\n    /* \"#utility.yul\":1460:1462   */\n  iszero\n  tag_70\n  jumpi\n    /* \"#utility.yul\":1547:1565   */\n  tag_71\n  tag_72\n  jump\t// in\ntag_71:\n    /* \"#utility.yul\":1460:1462   */\ntag_70:\n    /* \"#utility.yul\":1591:1592   */\n  dup3\n    /* \"#utility.yul\":1588:1589   */\n  dup3\n    /* \"#utility.yul\":1584:1593   */\n  add\n    /* \"#utility.yul\":1577:1593   */\n  swap1\n  pop\n    /* \"#utility.yul\":1338:1599   */\n  swap3\n  swap2\n  pop\n  pop\n  jump\t// out\n    /* \"#utility.yul\":1605:2453   */\ntag_73:\n  0x00\n  dup1\n    /* \"#utility.yul\":1697:1703   */\n  dup3\n    /* \"#utility.yul\":1688:1703   */\n  swap2\n  pop\n    /* \"#utility.yul\":1721:1726   */\n  dup4\n    /* \"#utility.yul\":1712:1726   */\n  swap1\n  pop\n    /* \"#utility.yul\":1735:2447   */\ntag_75:\n    /* \"#utility.yul\":1756:1757   */\n  0x01\n    /* \"#utility.yul\":1746:1754   */\n  dup6\n    /* \"#utility.yul\":1743:1758   */\n  gt\n    /* \"#utility.yul\":1735:2447   */\n  iszero\n  tag_77\n  jumpi\n    /* \"#utility.yul\":1851:1855   */\n  dup1\n    /* \"#utility.yul\":1846:1849   */\n  dup7\n    /* \"#utility.yul\":1842:1856   */\n  div\n    /* \"#utility.yul\":1836:1840   */\n  dup2\n    /* \"#utility.yul\":1833:1857   */\n  gt\n    /* \"#utility.yul\":1830:1832   */\n  iszero\n  tag_78\n  jumpi\n    /* \"#utility.yul\":1860:1878   */\n  tag_79\n  tag_72\n  jump\t// in\ntag_79:\n    /* \"#utility.yul\":1830:1832   */\ntag_78:\n    /* \"#utility.yul\":1910:1911   */\n  0x01\n    /* \"#utility.yul\":1900:1908   */\n  dup6\n    /* \"#utility.yul\":1896:1912   */\n  and\n    /* \"#utility.yul\":1893:1895   */\n  iszero\n  tag_80\n  jumpi\n    /* \"#utility.yul\":2325:2329   */\n  dup1\n    /* \"#utility.yul\":2318:2323   */\n  dup3\n    /* \"#utility.yul\":2314:2330   */\n  mul\n    /* \"#utility.yul\":2305:2330   */\n  swap2\n  pop\n    /* \"#utility.yul\":1893:1895   */\ntag_80:\n    /* \"#utility.yul\":2375:2379   */\n  dup1\n    /* \"#utility.yul\":2369:2373   */\n  dup2\n    /* \"#utility.yul\":2365:2380   */\n  mul\n    /* \"#utility.yul\":2357:2380   */\n  swap1\n  pop\n    /* \"#utility.yul\":2405:2437   */\n  tag_81\n    /* \"#utility.yul\":2428:2436   */\n  dup6\n    /* \"#utility.yul\":2405:2437   */\n  tag_82\n  jump\t// in\ntag_81:\n    /* \"#utility.yul\":2393:2437   */\n  swap5\n  pop\n    /* \"#utility.yul\":1735:2447   */\n  jump(tag_75)\ntag_77:\n    /* \"#utility.yul\":1678:2453   */\n  swap5\n  pop\n  swap5\n  swap3\n  pop\n  pop\n  pop\n  jump\t// out\n    /* \"#utility.yul\":2459:2740   */\ntag_19:\n  0x00\n    /* \"#utility.yul\":2541:2564   */\n  tag_84\n    /* \"#utility.yul\":2559:2563   */\n  dup3\n    /* \"#utility.yul\":2541:2564   */\n  tag_61\n  jump\t// in\ntag_84:\n    /* \"#utility.yul\":2533:2564   */\n  swap2\n  pop\n    /* \"#utility.yul\":2585:2610   */\n  tag_85\n    /* \"#utility.yul\":2601:2609   */\n  dup4\n    /* \"#utility.yul\":2585:2610   */\n  tag_86\n  jump\t// in\ntag_85:\n    /* \"#utility.yul\":2573:2610   */\n  swap3\n  pop\n    /* \"#utility.yul\":2629:2733   */\n  tag_87\n    /* \"#utility.yul\":2666:2732   */\n  0xffffffffffffffffffffffffffffffffffffffffffffffffffffffffffffffff\n    /* \"#utility.yul\":2656:2664   */\n  dup5\n    /* \"#utility.yul\":2650:2654   */\n  dup5\n    /* \"#utility.yul\":2629:2733   */\n  tag_88\n  jump\t// in\ntag_87:\n    /* \"#utility.yul\":2620:2733   */\n  swap1\n  pop\n    /* \"#utility.yul\":2523:2740   */\n  swap3\n  swap2\n  pop\n  pop\n  jump\t// out\n    /* \"#utility.yul\":2746:3819   */\ntag_88:\n  0x00\n    /* \"#utility.yul\":2991:2999   */\n  dup3\n    /* \"#utility.yul\":2981:2983   */\n  tag_90\n  jumpi\n    /* \"#utility.yul\":3012:3013   */\n  0x01\n    /* \"#utility.yul\":3003:3013   */\n  swap1\n  pop\n    /* \"#utility.yul\":3014:3019   */\n  jump(tag_89)\n    /* \"#utility.yul\":2981:2983   */\ntag_90:\n    /* \"#utility.yul\":3040:3044   */\n  dup2\n    /* \"#utility.yul\":3030:3032   */\n  tag_91\n  jumpi\n    /* \"#utility.yul\":3057:3058   */\n  0x00\n    /* \"#utility.yul\":3048:3058   */\n  swap1\n  pop\n    /* \"#utility.yul\":3059:3064   */\n  jump(tag_89)\n    /* \"#utility.yul\":3030:3032   */\ntag_91:\n    /* \"#utility.yul\":3126:3130   */\n  dup2\n    /* \"#utility.yul\":3174:3175   */\n  0x01\n    /* \"#utility.yul\":3169:3196   */\n  dup2\n  eq\n  tag_93\n  jumpi\n    /* \"#utility.yul\":3210:3211   */\n  0x02\n    /* \"#utility.yul\":3205:3396   */\n  dup2\n  eq\n  tag_94\n  jumpi\n    /* \"#utility.yul\":3119:3396   */\n  jump(tag_92)\n    /* \"#utility.yul\":3169:3196   */\ntag_93:\n    /* \"#utility.yul\":3187:3188   */\n  0x01\n    /* \"#utility.yul\":3178:3188   */\n  swap2\n  pop\n    /* \"#utility.yul\":3189:3194   */\n  pop\n  jump(tag_89)\n    /* \"#utility.yul\":3205:3396   */\ntag_94:\n    /* \"#utility.yul\":3250:3253   */\n  0xff\n    /* \"#utility.yul\":3240:3248   */\n  dup5\n    /* \"#utility.yul\":3237:3254   */\n  gt\n    /* \"#utility.yul\":3234:3236   */\n  iszero\n  tag_95\n  jumpi\n    /* \"#utility.yul\":3257:3275   */\n  tag_96\n  tag_72\n  jump\t// in\ntag_96:\n    /* \"#utility.yul\":3234:3236   */\ntag_95:\n    /* \"#utility.yul\":3306:3314   */\n  dup4\n    /* \"#utility.yul\":3303:3304   */\n  0x02\n    /* \"#utility.yul\":3299:3315   */\n  exp\n    /* \"#utility.yul\":3290:3315   */\n  swap2\n  pop\n    /* \"#utility.yul\":3341:3344   */\n  dup5\n    /* \"#utility.yul\":3334:3339   */\n  dup3\n    /* \"#utility.yul\":3331:3345   */\n  gt\n    /* \"#utility.yul\":3328:3330   */\n  iszero\n  tag_97\n  jumpi\n    /* \"#utility.yul\":3348:3366   */\n  tag_98\n  tag_72\n  jump\t// in\ntag_98:\n    /* \"#utility.yul\":3328:3330   */\ntag_97:\n    /* \"#utility.yul\":3381:3386   */\n  pop\n  jump(tag_89)\n    /* \"#utility.yul\":3119:3396   */\ntag_92:\n  pop\n    /* \"#utility.yul\":3505:3507   */\n  0x20\n    /* \"#utility.yul\":3495:3503   */\n  dup4\n    /* \"#utility.yul\":3492:3508   */\n  lt\n    /* \"#utility.yul\":3486:3489   */\n  0x0133\n    /* \"#utility.yul\":3480:3484   */\n  dup4\n    /* \"#utility.yul\":3477:3490   */\n  lt\n    /* \"#utility.yul\":3473:3509   */\n  and\n    /* \"#utility.yul\":3455:3457   */\n  0x4e\n    /* \"#utility.yul\":3445:3453   */\n  dup5\n    /* \"#utility.yul\":3442:3458   */\n  lt\n    /* \"#utility.yul\":3437:3439   */\n  0x0b\n    /* \"#utility.yul\":3431:3435   */\n  dup5\n    /* \"#utility.yul\":3428:3440   */\n  lt\n    /* \"#utility.yul\":3424:3459   */\n  and\n    /* \"#utility.yul\":3408:3519   */\n  or\n    /* \"#utility.yul\":3405:3407   */\n  iszero\n  tag_99\n  jumpi\n    /* \"#utility.yul\":3561:3569   */\n  dup3\n    /* \"#utility.yul\":3555:3559   */\n  dup3\n    /* \"#utility.yul\":3551:3570   */\n  exp\n    /* \"#utility.yul\":3542:3570   */\n  swap1\n  pop\n    /* \"#utility.yul\":3596:3599   */\n  dup4\n    /* \"#utility.yul\":3589:3594   */\n  dup2\n    /* \"#utility.yul\":3586:3600   */\n  gt\n    /* \"#utility.yul\":3583:3585   */\n  iszero\n  tag_100\n  jumpi\n    /* \"#utility.yul\":3603:3621   */\n  tag_101\n  tag_72\n  jump\t// in\ntag_101:\n    /* \"#utility.yul\":3583:3585   */\ntag_100:\n    /* \"#utility.yul\":3636:3641   */\n  jump(tag_89)\n    /* \"#utility.yul\":3405:3407   */\ntag_99:\n    /* \"#utility.yul\":3676:3718   */\n  tag_102\n    /* \"#utility.yul\":3714:3717   */\n  dup5\n    /* \"#utility.yul\":3704:3712   */\n  dup5\n    /* \"#utility.yul\":3698:3702   */\n  dup5\n    /* \"#utility.yul\":3695:3696   */\n  0x01\n    /* \"#utility.yul\":3676:3718   */\n  tag_73\n  jump\t// in\ntag_102:\n    /* \"#utility.yul\":3661:3718   */\n  swap3\n  pop\n  swap1\n  pop\n    /* \"#utility.yul\":3750:3754   */\n  dup2\n    /* \"#utility.yul\":3745:3748   */\n  dup5\n    /* \"#utility.yul\":3741:3755   */\n  div\n    /* \"#utility.yul\":3734:3739   */\n  dup2\n    /* \"#utility.yul\":3731:3756   */\n  gt\n    /* \"#utility.yul\":3728:3730   */\n  iszero\n  tag_103\n  jumpi\n    /* \"#utility.yul\":3759:3777   */\n  tag_104\n  tag_72\n  jump\t// in\ntag_104:\n    /* \"#utility.yul\":3728:3730   */\ntag_103:\n    /* \"#utility.yul\":3808:3812   */\n  dup2\n    /* \"#utility.yul\":3801:3806   */\n  dup2\n    /* \"#utility.yul\":3797:3813   */\n  mul\n    /* \"#utility.yul\":3788:3813   */\n  swap1\n  pop\n    /* \"#utility.yul\":2806:3819   */\ntag_89:\n  swap4\n  swap3\n  pop\n  pop\n  pop\n  jump\t// out\n    /* \"#utility.yul\":3825:4173   */\ntag_21:\n  0x00\n    /* \"#utility.yul\":3888:3908   */\n  tag_106\n    /* \"#utility.yul\":3906:3907   */\n  dup3\n    /* \"#utility.yul\":3888:3908   */\n  tag_61\n  jump\t// in\ntag_106:\n    /* \"#utility.yul\":3883:3908   */\n  swap2\n  pop\n    /* \"#utility.yul\":3922:3942   */\n  tag_107\n    /* \"#utility.yul\":3940:3941   */\n  dup4\n    /* \"#utility.yul\":3922:3942   */\n  tag_61\n  jump\t// in\ntag_107:\n    /* \"#utility.yul\":3917:3942   */\n  swap3\n  pop\n    /* \"#utility.yul\":4110:4111   */\n  dup2\n    /* \"#utility.yul\":4042:4108   */\n  0xffffffffffffffffffffffffffffffffffffffffffffffffffffffffffffffff\n    /* \"#utility.yul\":4038:4112   */\n  div\n    /* \"#utility.yul\":4035:4036   */\n  dup4\n    /* \"#utility.yul\":4032:4113   */\n  gt\n    /* \"#utility.yul\":4027:4028   */\n  dup3\n    /* \"#utility.yul\":4020:4029   */\n  iszero\n    /* \"#utility.yul\":4013:4030   */\n  iszero\n    /* \"#utility.yul\":4009:4114   */\n  and\n    /* \"#utility.yul\":4006:4008   */\n  iszero\n  tag_108\n  jumpi\n    /* \"#utility.yul\":4117:4135   */\n  tag_109\n  tag_72\n  jump\t// in\ntag_109:\n    /* \"#utility.yul\":4006:4008   */\ntag_108:\n    /* \"#utility.yul\":4165:4166   */\n  dup3\n    /* \"#utility.yul\":4162:4163   */\n  dup3\n    /* \"#utility.yul\":4158:4167   */\n  mul\n    /* \"#utility.yul\":4147:4167   */\n  swap1\n  pop\n    /* \"#utility.yul\":3873:4173   */\n  swap3\n  swap2\n  pop\n  pop\n  jump\t// out\n    /* \"#utility.yul\":4179:4256   */\ntag_61:\n  0x00\n    /* \"#utility.yul\":4245:4250   */\n  dup2\n    /* \"#utility.yul\":4234:4250   */\n  swap1\n  pop\n    /* \"#utility.yul\":4224:4256   */\n  swap2\n  swap1\n  pop\n  jump\t// out\n    /* \"#utility.yul\":4262:4348   */\ntag_86:\n  0x00\n    /* \"#utility.yul\":4337:4341   */\n  0xff\n    /* \"#utility.yul\":4330:4335   */\n  dup3\n    /* \"#utility.yul\":4326:4342   */\n  and\n    /* \"#utility.yul\":4315:4342   */\n  swap1\n  pop\n    /* \"#utility.yul\":4305:4348   */\n  swap2\n  swap1\n  pop\n  jump\t// out\n    /* \"#utility.yul\":4354:4674   */\ntag_43:\n  0x00\n    /* \"#utility.yul\":4435:4436   */\n  0x02\n    /* \"#utility.yul\":4429:4433   */\n  dup3\n    /* \"#utility.yul\":4425:4437   */\n  div\n    /* \"#utility.yul\":4415:4437   */\n  swap1\n  pop\n    /* \"#utility.yul\":4482:4483   */\n  0x01\n    /* \"#utility.yul\":4476:4480   */\n  dup3\n    /* \"#utility.yul\":4472:4484   */\n  and\n    /* \"#utility.yul\":4503:4521   */\n  dup1\n    /* \"#utility.yul\":4493:4495   */\n  tag_113\n  jumpi\n    /* \"#utility.yul\":4559:4563   */\n  0x7f\n    /* \"#utility.yul\":4551:4557   */\n  dup3\n    /* \"#utility.yul\":4547:4564   */\n  and\n    /* \"#utility.yul\":4537:4564   */\n  swap2\n  pop\n    /* \"#utility.yul\":4493:4495   */\ntag_113:\n    /* \"#utility.yul\":4621:4623   */\n  0x20\n    /* \"#utility.yul\":4613:4619   */\n  dup3\n    /* \"#utility.yul\":4610:4624   */\n  lt\n    /* \"#utility.yul\":4590:4608   */\n  dup2\n    /* \"#utility.yul\":4587:4625   */\n  eq\n    /* \"#utility.yul\":4584:4586   */\n  iszero\n  tag_114\n  jumpi\n    /* \"#utility.yul\":4640:4658   */\n  tag_115\n  tag_116\n  jump\t// in\ntag_115:\n    /* \"#utility.yul\":4584:4586   */\ntag_114:\n    /* \"#utility.yul\":4405:4674   */\n  pop\n  swap2\n  swap1\n  pop\n  jump\t// out\n    /* \"#utility.yul\":4680:4860   */\ntag_72:\n    /* \"#utility.yul\":4728:4805   */\n  0x4e487b7100000000000000000000000000000000000000000000000000000000\n    /* \"#utility.yul\":4725:4726   */\n  0x00\n    /* \"#utility.yul\":4718:4806   */\n  mstore\n    /* \"#utility.yul\":4825:4829   */\n  0x11\n    /* \"#utility.yul\":4822:4823   */\n  0x04\n    /* \"#utility.yul\":4815:4830   */\n  mstore\n    /* \"#utility.yul\":4849:4853   */\n  0x24\n    /* \"#utility.yul\":4846:4847   */\n  0x00\n    /* \"#utility.yul\":4839:4854   */\n  revert\n    /* \"#utility.yul\":4866:5046   */\ntag_116:\n    /* \"#utility.yul\":4914:4991   */\n  0x4e487b7100000000000000000000000000000000000000000000000000000000\n    /* \"#utility.yul\":4911:4912   */\n  0x00\n    /* \"#utility.yul\":4904:4992   */\n  mstore\n    /* \"#utility.yul\":5011:5015   */\n  0x22\n    /* \"#utility.yul\":5008:5009   */\n  0x04\n    /* \"#utility.yul\":5001:5016   */\n  mstore\n    /* \"#utility.yul\":5035:5039   */\n  0x24\n    /* \"#utility.yul\":5032:5033   */\n  0x00\n    /* \"#utility.yul\":5025:5040   */\n  revert\n    /* \"#utility.yul\":5052:5154   */\ntag_82:\n  0x00\n    /* \"#utility.yul\":5141:5146   */\n  dup2\n    /* \"#utility.yul\":5138:5139   */\n  0x01\n    /* \"#utility.yul\":5134:5147   */\n  shr\n    /* \"#utility.yul\":5113:5147   */\n  swap1\n  pop\n    /* \"#utility.yul\":5103:5154   */\n  swap2\n  swap1\n  pop\n  jump\t// out\n    /* \"contracts/ERC20stake&reward.sol\":168:1981  contract Vintagecrypto is ERC20, Ownable {... */\ntag_23:\n  dataSize(sub_0)\n  dup1\n  dataOffset(sub_0)\n  0x00\n  codecopy\n  0x00\n  return\nstop\n\nsub_0: assembly {\n        /* \"contracts/ERC20stake&reward.sol\":168:1981  contract Vintagecrypto is ERC20, Ownable {... */\n      mstore(0x40, 0x80)\n      callvalue\n      dup1\n      iszero\n      tag_1\n      jumpi\n      0x00\n      dup1\n      revert\n    tag_1:\n      pop\n      jumpi(tag_2, lt(calldatasize, 0x04))\n      shr(0xe0, calldataload(0x00))\n      dup1\n      0x789706ae\n      gt\n      tag_27\n      jumpi\n      dup1\n      0xa9059cbb\n      gt\n      tag_28\n      jumpi\n      dup1\n      0xa9059cbb\n      eq\n      tag_21\n      jumpi\n      dup1\n      0xc93c8f34\n      eq\n      tag_22\n      jumpi\n      dup1\n      0xdbf9f652\n      eq\n      tag_23\n      jumpi\n      dup1\n      0xdd62ed3e\n      eq\n      tag_24\n      jumpi\n      dup1\n      0xf2fde38b\n      eq\n      tag_25\n      jumpi\n      dup1\n      0xf739ed9e\n      eq\n      tag_26\n      jumpi\n      jump(tag_2)\n    tag_28:\n      dup1\n      0x789706ae\n      eq\n      tag_15\n      jumpi\n      dup1\n      0x8da5cb5b\n      eq\n      tag_16\n      jumpi\n      dup1\n      0x95d89b41\n      eq\n      tag_17\n      jumpi\n      dup1\n      0xa4101788\n      eq\n      tag_18\n      jumpi\n      dup1\n      0xa457c2d7\n      eq\n      tag_19\n      jumpi\n      dup1\n      0xa6c75797\n      eq\n      tag_20\n      jumpi\n      jump(tag_2)\n    tag_27:\n      dup1\n      0x27506f53\n      gt\n      tag_29\n      jumpi\n      dup1\n      0x27506f53\n      eq\n      tag_9\n      jumpi\n      dup1\n      0x313ce567\n      eq\n      tag_10\n      jumpi\n      dup1\n      0x39509351\n      eq\n      tag_11\n      jumpi\n      dup1\n      0x68f8fc10\n      eq\n      tag_12\n      jumpi\n      dup1\n      0x70a08231\n      eq\n      tag_13\n      jumpi\n      dup1\n      0x715018a6\n      eq\n      tag_14\n      jumpi\n      jump(tag_2)\n    tag_29:\n      dup1\n      0x06fdde03\n      eq\n      tag_3\n      jumpi\n      dup1\n      0x0700037d\n      eq\n      tag_4\n      jumpi\n      dup1\n      0x095ea7b3\n      eq\n      tag_5\n      jumpi\n      dup1\n      0x174e31c4\n      eq\n      tag_6\n      jumpi\n      dup1\n      0x18160ddd\n      eq\n      tag_7\n      jumpi\n      dup1\n      0x23b872dd\n      eq\n      tag_8\n      jumpi\n    tag_2:\n      0x00\n      dup1\n      revert\n        /* \"@openzeppelin/contracts/token/ERC20/ERC20.sol\":2156:2254  function name() public view virtual override returns (string memory) {... */\n    tag_3:\n      tag_30\n      tag_31\n      jump\t// in\n    tag_30:\n      mload(0x40)\n      tag_32\n      swap2\n      swap1\n      tag_33\n      jump\t// in\n    tag_32:\n      mload(0x40)\n      dup1\n      swap2\n      sub\n      swap1\n      return\n        /* \"contracts/ERC20stake&reward.sol\":390:430  mapping (address => uint) public rewards */\n    tag_4:\n      tag_34\n      0x04\n      dup1\n      calldatasize\n      sub\n      dup2\n      add\n      swap1\n      tag_35\n      swap2\n      swap1\n      tag_36\n      jump\t// in\n    tag_35:\n      tag_37\n      jump\t// in\n    tag_34:\n      mload(0x40)\n      tag_38\n      swap2\n      swap1\n      tag_39\n      jump\t// in\n    tag_38:\n      mload(0x40)\n      dup1\n      swap2\n      sub\n      swap1\n      return\n        /* \"@openzeppelin/contracts/token/ERC20/ERC20.sol\":4433:4630  function approve(address spender, uint256 amount) public virtual override returns (bool) {... */\n    tag_5:\n      tag_40\n      0x04\n      dup1\n      calldatasize\n      sub\n      dup2\n      add\n      swap1\n      tag_41\n      swap2\n      swap1\n      tag_42\n      jump\t// in\n    tag_41:\n      tag_43\n      jump\t// in\n    tag_40:\n      mload(0x40)\n      tag_44\n      swap2\n      swap1\n      tag_45\n      jump\t// in\n    tag_44:\n      mload(0x40)\n      dup1\n      swap2\n      sub\n      swap1\n      return\n        /* \"contracts/ERC20stake&reward.sol\":1381:1627  function claimReward (address payable staker, uint amountStaked) public {... */\n    tag_6:\n      tag_46\n      0x04\n      dup1\n      calldatasize\n      sub\n      dup2\n      add\n      swap1\n      tag_47\n      swap2\n      swap1\n      tag_48\n      jump\t// in\n    tag_47:\n      tag_49\n      jump\t// in\n    tag_46:\n      stop\n        /* \"@openzeppelin/contracts/token/ERC20/ERC20.sol\":3244:3350  function totalSupply() public view virtual override returns (uint256) {... */\n    tag_7:\n      tag_50\n      tag_51\n      jump\t// in\n    tag_50:\n      mload(0x40)\n      tag_52\n      swap2\n      swap1\n      tag_39\n      jump\t// in\n    tag_52:\n      mload(0x40)\n      dup1\n      swap2\n      sub\n      swap1\n      return\n        /* \"@openzeppelin/contracts/token/ERC20/ERC20.sol\":5192:5478  function transferFrom(... */\n    tag_8:\n      tag_53\n      0x04\n      dup1\n      calldatasize\n      sub\n      dup2\n      add\n      swap1\n      tag_54\n      swap2\n      swap1\n      tag_55\n      jump\t// in\n    tag_54:\n      tag_56\n      jump\t// in\n    tag_53:\n      mload(0x40)\n      tag_57\n      swap2\n      swap1\n      tag_45\n      jump\t// in\n    tag_57:\n      mload(0x40)\n      dup1\n      swap2\n      sub\n      swap1\n      return\n        /* \"contracts/ERC20stake&reward.sol\":1633:1744  function getAllTransactions () public view returns (stakedToken[] memory) {... */\n    tag_9:\n      tag_58\n      tag_59\n      jump\t// in\n    tag_58:\n      mload(0x40)\n      tag_60\n      swap2\n      swap1\n      tag_61\n      jump\t// in\n    tag_60:\n      mload(0x40)\n      dup1\n      swap2\n      sub\n      swap1\n      return\n        /* \"@openzeppelin/contracts/token/ERC20/ERC20.sol\":3093:3184  function decimals() public view virtual override returns (uint8) {... */\n    tag_10:\n      tag_62\n      tag_63\n      jump\t// in\n    tag_62:\n      mload(0x40)\n      tag_64\n      swap2\n      swap1\n      tag_65\n      jump\t// in\n    tag_64:\n      mload(0x40)\n      dup1\n      swap2\n      sub\n      swap1\n      return\n        /* \"@openzeppelin/contracts/token/ERC20/ERC20.sol\":5873:6109  function increaseAllowance(address spender, uint256 addedValue) public virtual returns (bool) {... */\n    tag_11:\n      tag_66\n      0x04\n      dup1\n      calldatasize\n      sub\n      dup2\n      add\n      swap1\n      tag_67\n      swap2\n      swap1\n      tag_42\n      jump\t// in\n    tag_67:\n      tag_68\n      jump\t// in\n    tag_66:\n      mload(0x40)\n      tag_69\n      swap2\n      swap1\n      tag_45\n      jump\t// in\n    tag_69:\n      mload(0x40)\n      dup1\n      swap2\n      sub\n      swap1\n      return\n        /* \"contracts/ERC20stake&reward.sol\":802:899  function buyToken(address to, uint256 amount) public onlyOwner {... */\n    tag_12:\n      tag_70\n      0x04\n      dup1\n      calldatasize\n      sub\n      dup2\n      add\n      swap1\n      tag_71\n      swap2\n      swap1\n      tag_42\n      jump\t// in\n    tag_71:\n      tag_72\n      jump\t// in\n    tag_70:\n      stop\n        /* \"@openzeppelin/contracts/token/ERC20/ERC20.sol\":3408:3533  function balanceOf(address account) public view virtual override returns (uint256) {... */\n    tag_13:\n      tag_73\n      0x04\n      dup1\n      calldatasize\n      sub\n      dup2\n      add\n      swap1\n      tag_74\n      swap2\n      swap1\n      tag_36\n      jump\t// in\n    tag_74:\n      tag_75\n      jump\t// in\n    tag_73:\n      mload(0x40)\n      tag_76\n      swap2\n      swap1\n      tag_39\n      jump\t// in\n    tag_76:\n      mload(0x40)\n      dup1\n      swap2\n      sub\n      swap1\n      return\n        /* \"@openzeppelin/contracts/access/Ownable.sol\":1668:1769  function renounceOwnership() public virtual onlyOwner {... */\n    tag_14:\n      tag_77\n      tag_78\n      jump\t// in\n    tag_77:\n      stop\n        /* \"contracts/ERC20stake&reward.sol\":1750:1855  function _numberofTokensStaked () public view returns (uint) {... */\n    tag_15:\n      tag_79\n      tag_80\n      jump\t// in\n    tag_79:\n      mload(0x40)\n      tag_81\n      swap2\n      swap1\n      tag_39\n      jump\t// in\n    tag_81:\n      mload(0x40)\n      dup1\n      swap2\n      sub\n      swap1\n      return\n        /* \"@openzeppelin/contracts/access/Ownable.sol\":1036:1121  function owner() public view virtual returns (address) {... */\n    tag_16:\n      tag_82\n      tag_83\n      jump\t// in\n    tag_82:\n      mload(0x40)\n      tag_84\n      swap2\n      swap1\n      tag_85\n      jump\t// in\n    tag_84:\n      mload(0x40)\n      dup1\n      swap2\n      sub\n      swap1\n      return\n        /* \"@openzeppelin/contracts/token/ERC20/ERC20.sol\":2367:2469  function symbol() public view virtual override returns (string memory) {... */\n    tag_17:\n      tag_86\n      tag_87\n      jump\t// in\n    tag_86:\n      mload(0x40)\n      tag_88\n      swap2\n      swap1\n      tag_33\n      jump\t// in\n    tag_88:\n      mload(0x40)\n      dup1\n      swap2\n      sub\n      swap1\n      return\n        /* \"contracts/ERC20stake&reward.sol\":1861:1977  function viewTokenBalance (address staker) public view returns (uint) {... */\n    tag_18:\n      tag_89\n      0x04\n      dup1\n      calldatasize\n      sub\n      dup2\n      add\n      swap1\n      tag_90\n      swap2\n      swap1\n      tag_36\n      jump\t// in\n    tag_90:\n      tag_91\n      jump\t// in\n    tag_89:\n      mload(0x40)\n      tag_92\n      swap2\n      swap1\n      tag_39\n      jump\t// in\n    tag_92:\n      mload(0x40)\n      dup1\n      swap2\n      sub\n      swap1\n      return\n        /* \"@openzeppelin/contracts/token/ERC20/ERC20.sol\":6596:7025  function decreaseAllowance(address spender, uint256 subtractedValue) public virtual returns (bool) {... */\n    tag_19:\n      tag_93\n      0x04\n      dup1\n      calldatasize\n      sub\n      dup2\n      add\n      swap1\n      tag_94\n      swap2\n      swap1\n      tag_42\n      jump\t// in\n    tag_94:\n      tag_95\n      jump\t// in\n    tag_93:\n      mload(0x40)\n      tag_96\n      swap2\n      swap1\n      tag_45\n      jump\t// in\n    tag_96:\n      mload(0x40)\n      dup1\n      swap2\n      sub\n      swap1\n      return\n        /* \"contracts/ERC20stake&reward.sol\":258:290  uint public numberofTokensStaked */\n    tag_20:\n      tag_97\n      tag_98\n      jump\t// in\n    tag_97:\n      mload(0x40)\n      tag_99\n      swap2\n      swap1\n      tag_39\n      jump\t// in\n    tag_99:\n      mload(0x40)\n      dup1\n      swap2\n      sub\n      swap1\n      return\n        /* \"@openzeppelin/contracts/token/ERC20/ERC20.sol\":3729:3918  function transfer(address to, uint256 amount) public virtual override returns (bool) {... */\n    tag_21:\n      tag_100\n      0x04\n      dup1\n      calldatasize\n      sub\n      dup2\n      add\n      swap1\n      tag_101\n      swap2\n      swap1\n      tag_42\n      jump\t// in\n    tag_101:\n      tag_102\n      jump\t// in\n    tag_100:\n      mload(0x40)\n      tag_103\n      swap2\n      swap1\n      tag_45\n      jump\t// in\n    tag_103:\n      mload(0x40)\n      dup1\n      swap2\n      sub\n      swap1\n      return\n        /* \"contracts/ERC20stake&reward.sol\":296:338  mapping (address => bool) public hasStaked */\n    tag_22:\n      tag_104\n      0x04\n      dup1\n      calldatasize\n      sub\n      dup2\n      add\n      swap1\n      tag_105\n      swap2\n      swap1\n      tag_36\n      jump\t// in\n    tag_105:\n      tag_106\n      jump\t// in\n    tag_104:\n      mload(0x40)\n      tag_107\n      swap2\n      swap1\n      tag_45\n      jump\t// in\n    tag_107:\n      mload(0x40)\n      dup1\n      swap2\n      sub\n      swap1\n      return\n        /* \"contracts/ERC20stake&reward.sol\":216:252  uint public tokenBuyPrice = 1*10**17 */\n    tag_23:\n      tag_108\n      tag_109\n      jump\t// in\n    tag_108:\n      mload(0x40)\n      tag_110\n      swap2\n      swap1\n      tag_39\n      jump\t// in\n    tag_110:\n      mload(0x40)\n      dup1\n      swap2\n      sub\n      swap1\n      return\n        /* \"@openzeppelin/contracts/token/ERC20/ERC20.sol\":3976:4125  function allowance(address owner, address spender) public view virtual override returns (uint256) {... */\n    tag_24:\n      tag_111\n      0x04\n      dup1\n      calldatasize\n      sub\n      dup2\n      add\n      swap1\n      tag_112\n      swap2\n      swap1\n      tag_113\n      jump\t// in\n    tag_112:\n      tag_114\n      jump\t// in\n    tag_111:\n      mload(0x40)\n      tag_115\n      swap2\n      swap1\n      tag_39\n      jump\t// in\n    tag_115:\n      mload(0x40)\n      dup1\n      swap2\n      sub\n      swap1\n      return\n        /* \"@openzeppelin/contracts/access/Ownable.sol\":1918:2116  function transferOwnership(address newOwner) public virtual onlyOwner {... */\n    tag_25:\n      tag_116\n      0x04\n      dup1\n      calldatasize\n      sub\n      dup2\n      add\n      swap1\n      tag_117\n      swap2\n      swap1\n      tag_36\n      jump\t// in\n    tag_117:\n      tag_118\n      jump\t// in\n    tag_116:\n      stop\n        /* \"contracts/ERC20stake&reward.sol\":1032:1375  function stakeToken (address staker, uint amount) public {... */\n    tag_26:\n      tag_119\n      0x04\n      dup1\n      calldatasize\n      sub\n      dup2\n      add\n      swap1\n      tag_120\n      swap2\n      swap1\n      tag_42\n      jump\t// in\n    tag_120:\n      tag_121\n      jump\t// in\n    tag_119:\n      stop\n        /* \"@openzeppelin/contracts/token/ERC20/ERC20.sol\":2156:2254  function name() public view virtual override returns (string memory) {... */\n    tag_31:\n        /* \"@openzeppelin/contracts/token/ERC20/ERC20.sol\":2210:2223  string memory */\n      0x60\n        /* \"@openzeppelin/contracts/token/ERC20/ERC20.sol\":2242:2247  _name */\n      0x03\n        /* \"@openzeppelin/contracts/token/ERC20/ERC20.sol\":2235:2247  return _name */\n      dup1\n      sload\n      tag_123\n      swap1\n      tag_124\n      jump\t// in\n    tag_123:\n      dup1\n      0x1f\n      add\n      0x20\n      dup1\n      swap2\n      div\n      mul\n      0x20\n      add\n      mload(0x40)\n      swap1\n      dup2\n      add\n      0x40\n      mstore\n      dup1\n      swap3\n      swap2\n      swap1\n      dup2\n      dup2\n      mstore\n      0x20\n      add\n      dup3\n      dup1\n      sload\n      tag_125\n      swap1\n      tag_124\n      jump\t// in\n    tag_125:\n      dup1\n      iszero\n      tag_126\n      jumpi\n      dup1\n      0x1f\n      lt\n      tag_127\n      jumpi\n      0x0100\n      dup1\n      dup4\n      sload\n      div\n      mul\n      dup4\n      mstore\n      swap2\n      0x20\n      add\n      swap2\n      jump(tag_126)\n    tag_127:\n      dup3\n      add\n      swap2\n      swap1\n      0x00\n      mstore\n      keccak256(0x00, 0x20)\n      swap1\n    tag_128:\n      dup2\n      sload\n      dup2\n      mstore\n      swap1\n      0x01\n      add\n      swap1\n      0x20\n      add\n      dup1\n      dup4\n      gt\n      tag_128\n      jumpi\n      dup3\n      swap1\n      sub\n      0x1f\n      and\n      dup3\n      add\n      swap2\n    tag_126:\n      pop\n      pop\n      pop\n      pop\n      pop\n      swap1\n      pop\n        /* \"@openzeppelin/contracts/token/ERC20/ERC20.sol\":2156:2254  function name() public view virtual override returns (string memory) {... */\n      swap1\n      jump\t// out\n        /* \"contracts/ERC20stake&reward.sol\":390:430  mapping (address => uint) public rewards */\n    tag_37:\n      mstore(0x20, 0x0a)\n      dup1\n      0x00\n      mstore\n      keccak256(0x00, 0x40)\n      0x00\n      swap2\n      pop\n      swap1\n      pop\n      sload\n      dup2\n      jump\t// out\n        /* \"@openzeppelin/contracts/token/ERC20/ERC20.sol\":4433:4630  function approve(address spender, uint256 amount) public virtual override returns (bool) {... */\n    tag_43:\n        /* \"@openzeppelin/contracts/token/ERC20/ERC20.sol\":4516:4520  bool */\n      0x00\n        /* \"@openzeppelin/contracts/token/ERC20/ERC20.sol\":4532:4545  address owner */\n      dup1\n        /* \"@openzeppelin/contracts/token/ERC20/ERC20.sol\":4548:4560  _msgSender() */\n      tag_130\n        /* \"@openzeppelin/contracts/token/ERC20/ERC20.sol\":4548:4558  _msgSender */\n      tag_131\n        /* \"@openzeppelin/contracts/token/ERC20/ERC20.sol\":4548:4560  _msgSender() */\n      jump\t// in\n    tag_130:\n        /* \"@openzeppelin/contracts/token/ERC20/ERC20.sol\":4532:4560  address owner = _msgSender() */\n      swap1\n      pop\n        /* \"@openzeppelin/contracts/token/ERC20/ERC20.sol\":4570:4602  _approve(owner, spender, amount) */\n      tag_132\n        /* \"@openzeppelin/contracts/token/ERC20/ERC20.sol\":4579:4584  owner */\n      dup2\n        /* \"@openzeppelin/contracts/token/ERC20/ERC20.sol\":4586:4593  spender */\n      dup6\n        /* \"@openzeppelin/contracts/token/ERC20/ERC20.sol\":4595:4601  amount */\n      dup6\n        /* \"@openzeppelin/contracts/token/ERC20/ERC20.sol\":4570:4578  _approve */\n      tag_133\n        /* \"@openzeppelin/contracts/token/ERC20/ERC20.sol\":4570:4602  _approve(owner, spender, amount) */\n      jump\t// in\n    tag_132:\n        /* \"@openzeppelin/contracts/token/ERC20/ERC20.sol\":4619:4623  true */\n      0x01\n        /* \"@openzeppelin/contracts/token/ERC20/ERC20.sol\":4612:4623  return true */\n      swap2\n      pop\n      pop\n        /* \"@openzeppelin/contracts/token/ERC20/ERC20.sol\":4433:4630  function approve(address spender, uint256 amount) public virtual override returns (bool) {... */\n      swap3\n      swap2\n      pop\n      pop\n      jump\t// out\n        /* \"contracts/ERC20stake&reward.sol\":1381:1627  function claimReward (address payable staker, uint amountStaked) public {... */\n    tag_49:\n        /* \"contracts/ERC20stake&reward.sol\":1491:1497  24 * 7 */\n      0xa8\n        /* \"contracts/ERC20stake&reward.sol\":1472:1487  block.timestamp */\n      timestamp\n        /* \"contracts/ERC20stake&reward.sol\":1472:1497  block.timestamp == 24 * 7 */\n      eq\n        /* \"contracts/ERC20stake&reward.sol\":1463:1498  require (block.timestamp == 24 * 7) */\n      tag_135\n      jumpi\n      0x00\n      dup1\n      revert\n    tag_135:\n        /* \"contracts/ERC20stake&reward.sol\":1508:1519  uint reward */\n      0x00\n        /* \"contracts/ERC20stake&reward.sol\":1522:1529  rewards */\n      0x0a\n        /* \"contracts/ERC20stake&reward.sol\":1522:1537  rewards[staker] */\n      0x00\n        /* \"contracts/ERC20stake&reward.sol\":1530:1536  staker */\n      dup5\n        /* \"contracts/ERC20stake&reward.sol\":1522:1537  rewards[staker] */\n      0xffffffffffffffffffffffffffffffffffffffff\n      and\n      0xffffffffffffffffffffffffffffffffffffffff\n      and\n      dup2\n      mstore\n      0x20\n      add\n      swap1\n      dup2\n      mstore\n      0x20\n      add\n      0x00\n      keccak256\n      sload\n        /* \"contracts/ERC20stake&reward.sol\":1508:1537  uint reward = rewards[staker] */\n      swap1\n      pop\n        /* \"contracts/ERC20stake&reward.sol\":1578:1581  100 */\n      0x64\n        /* \"contracts/ERC20stake&reward.sol\":1565:1577  amountStaked */\n      dup3\n        /* \"contracts/ERC20stake&reward.sol\":1565:1581  amountStaked/100 */\n      tag_136\n      swap2\n      swap1\n      tag_137\n      jump\t// in\n    tag_136:\n        /* \"contracts/ERC20stake&reward.sol\":1547:1554  rewards */\n      0x0a\n        /* \"contracts/ERC20stake&reward.sol\":1547:1562  rewards[staker] */\n      0x00\n        /* \"contracts/ERC20stake&reward.sol\":1555:1561  staker */\n      dup6\n        /* \"contracts/ERC20stake&reward.sol\":1547:1562  rewards[staker] */\n      0xffffffffffffffffffffffffffffffffffffffff\n      and\n      0xffffffffffffffffffffffffffffffffffffffff\n      and\n      dup2\n      mstore\n      0x20\n      add\n      swap1\n      dup2\n      mstore\n      0x20\n      add\n      0x00\n      keccak256\n        /* \"contracts/ERC20stake&reward.sol\":1547:1581  rewards[staker] = amountStaked/100 */\n      dup2\n      swap1\n      sstore\n      pop\n        /* \"contracts/ERC20stake&reward.sol\":1595:1619  transfer(staker, reward) */\n      tag_138\n        /* \"contracts/ERC20stake&reward.sol\":1604:1610  staker */\n      dup4\n        /* \"contracts/ERC20stake&reward.sol\":1612:1618  reward */\n      dup3\n        /* \"contracts/ERC20stake&reward.sol\":1595:1603  transfer */\n      tag_102\n        /* \"contracts/ERC20stake&reward.sol\":1595:1619  transfer(staker, reward) */\n      jump\t// in\n    tag_138:\n      pop\n        /* \"contracts/ERC20stake&reward.sol\":1381:1627  function claimReward (address payable staker, uint amountStaked) public {... */\n      pop\n      pop\n      pop\n      jump\t// out\n        /* \"@openzeppelin/contracts/token/ERC20/ERC20.sol\":3244:3350  function totalSupply() public view virtual override returns (uint256) {... */\n    tag_51:\n        /* \"@openzeppelin/contracts/token/ERC20/ERC20.sol\":3305:3312  uint256 */\n      0x00\n        /* \"@openzeppelin/contracts/token/ERC20/ERC20.sol\":3331:3343  _totalSupply */\n      sload(0x02)\n        /* \"@openzeppelin/contracts/token/ERC20/ERC20.sol\":3324:3343  return _totalSupply */\n      swap1\n      pop\n        /* \"@openzeppelin/contracts/token/ERC20/ERC20.sol\":3244:3350  function totalSupply() public view virtual override returns (uint256) {... */\n      swap1\n      jump\t// out\n        /* \"@openzeppelin/contracts/token/ERC20/ERC20.sol\":5192:5478  function transferFrom(... */\n    tag_56:\n        /* \"@openzeppelin/contracts/token/ERC20/ERC20.sol\":5319:5323  bool */\n      0x00\n        /* \"@openzeppelin/contracts/token/ERC20/ERC20.sol\":5335:5350  address spender */\n      dup1\n        /* \"@openzeppelin/contracts/token/ERC20/ERC20.sol\":5353:5365  _msgSender() */\n      tag_141\n        /* \"@openzeppelin/contracts/token/ERC20/ERC20.sol\":5353:5363  _msgSender */\n      tag_131\n        /* \"@openzeppelin/contracts/token/ERC20/ERC20.sol\":5353:5365  _msgSender() */\n      jump\t// in\n    tag_141:\n        /* \"@openzeppelin/contracts/token/ERC20/ERC20.sol\":5335:5365  address spender = _msgSender() */\n      swap1\n      pop\n        /* \"@openzeppelin/contracts/token/ERC20/ERC20.sol\":5375:5413  _spendAllowance(from, spender, amount) */\n      tag_142\n        /* \"@openzeppelin/contracts/token/ERC20/ERC20.sol\":5391:5395  from */\n      dup6\n        /* \"@openzeppelin/contracts/token/ERC20/ERC20.sol\":5397:5404  spender */\n      dup3\n        /* \"@openzeppelin/contracts/token/ERC20/ERC20.sol\":5406:5412  amount */\n      dup6\n        /* \"@openzeppelin/contracts/token/ERC20/ERC20.sol\":5375:5390  _spendAllowance */\n      tag_143\n        /* \"@openzeppelin/contracts/token/ERC20/ERC20.sol\":5375:5413  _spendAllowance(from, spender, amount) */\n      jump\t// in\n    tag_142:\n        /* \"@openzeppelin/contracts/token/ERC20/ERC20.sol\":5423:5450  _transfer(from, to, amount) */\n      tag_144\n        /* \"@openzeppelin/contracts/token/ERC20/ERC20.sol\":5433:5437  from */\n      dup6\n        /* \"@openzeppelin/contracts/token/ERC20/ERC20.sol\":5439:5441  to */\n      dup6\n        /* \"@openzeppelin/contracts/token/ERC20/ERC20.sol\":5443:5449  amount */\n      dup6\n        /* \"@openzeppelin/contracts/token/ERC20/ERC20.sol\":5423:5432  _transfer */\n      tag_145\n        /* \"@openzeppelin/contracts/token/ERC20/ERC20.sol\":5423:5450  _transfer(from, to, amount) */\n      jump\t// in\n    tag_144:\n        /* \"@openzeppelin/contracts/token/ERC20/ERC20.sol\":5467:5471  true */\n      0x01\n        /* \"@openzeppelin/contracts/token/ERC20/ERC20.sol\":5460:5471  return true */\n      swap2\n      pop\n      pop\n        /* \"@openzeppelin/contracts/token/ERC20/ERC20.sol\":5192:5478  function transferFrom(... */\n      swap4\n      swap3\n      pop\n      pop\n      pop\n      jump\t// out\n        /* \"contracts/ERC20stake&reward.sol\":1633:1744  function getAllTransactions () public view returns (stakedToken[] memory) {... */\n    tag_59:\n        /* \"contracts/ERC20stake&reward.sol\":1685:1705  stakedToken[] memory */\n      0x60\n        /* \"contracts/ERC20stake&reward.sol\":1724:1737  vintageTokens */\n      0x0b\n        /* \"contracts/ERC20stake&reward.sol\":1717:1737  return vintageTokens */\n      dup1\n      sload\n      dup1\n      0x20\n      mul\n      0x20\n      add\n      mload(0x40)\n      swap1\n      dup2\n      add\n      0x40\n      mstore\n      dup1\n      swap3\n      swap2\n      swap1\n      dup2\n      dup2\n      mstore\n      0x20\n      add\n      0x00\n      swap1\n    tag_147:\n      dup3\n      dup3\n      lt\n      iszero\n      tag_148\n      jumpi\n      dup4\n      dup3\n      swap1\n      0x00\n      mstore\n      keccak256(0x00, 0x20)\n      swap1\n      0x04\n      mul\n      add\n      mload(0x40)\n      dup1\n      0x80\n      add\n      0x40\n      mstore\n      swap1\n      dup2\n      0x00\n      dup3\n      add\n      0x00\n      swap1\n      sload\n      swap1\n      0x0100\n      exp\n      swap1\n      div\n      0xffffffffffffffffffffffffffffffffffffffff\n      and\n      0xffffffffffffffffffffffffffffffffffffffff\n      and\n      0xffffffffffffffffffffffffffffffffffffffff\n      and\n      dup2\n      mstore\n      0x20\n      add\n      0x01\n      dup3\n      add\n      0x00\n      swap1\n      sload\n      swap1\n      0x0100\n      exp\n      swap1\n      div\n      0xffffffffffffffffffffffffffffffffffffffff\n      and\n      0xffffffffffffffffffffffffffffffffffffffff\n      and\n      0xffffffffffffffffffffffffffffffffffffffff\n      and\n      dup2\n      mstore\n      0x20\n      add\n      0x02\n      dup3\n      add\n      sload\n      dup2\n      mstore\n      0x20\n      add\n      0x03\n      dup3\n      add\n      sload\n      dup2\n      mstore\n      pop\n      pop\n      dup2\n      mstore\n      0x20\n      add\n      swap1\n      0x01\n      add\n      swap1\n      jump(tag_147)\n    tag_148:\n      pop\n      pop\n      pop\n      pop\n      swap1\n      pop\n        /* \"contracts/ERC20stake&reward.sol\":1633:1744  function getAllTransactions () public view returns (stakedToken[] memory) {... */\n      swap1\n      jump\t// out\n        /* \"@openzeppelin/contracts/token/ERC20/ERC20.sol\":3093:3184  function decimals() public view virtual override returns (uint8) {... */\n    tag_63:\n        /* \"@openzeppelin/contracts/token/ERC20/ERC20.sol\":3151:3156  uint8 */\n      0x00\n        /* \"@openzeppelin/contracts/token/ERC20/ERC20.sol\":3175:3177  18 */\n      0x12\n        /* \"@openzeppelin/contracts/token/ERC20/ERC20.sol\":3168:3177  return 18 */\n      swap1\n      pop\n        /* \"@openzeppelin/contracts/token/ERC20/ERC20.sol\":3093:3184  function decimals() public view virtual override returns (uint8) {... */\n      swap1\n      jump\t// out\n        /* \"@openzeppelin/contracts/token/ERC20/ERC20.sol\":5873:6109  function increaseAllowance(address spender, uint256 addedValue) public virtual returns (bool) {... */\n    tag_68:\n        /* \"@openzeppelin/contracts/token/ERC20/ERC20.sol\":5961:5965  bool */\n      0x00\n        /* \"@openzeppelin/contracts/token/ERC20/ERC20.sol\":5977:5990  address owner */\n      dup1\n        /* \"@openzeppelin/contracts/token/ERC20/ERC20.sol\":5993:6005  _msgSender() */\n      tag_152\n        /* \"@openzeppelin/contracts/token/ERC20/ERC20.sol\":5993:6003  _msgSender */\n      tag_131\n        /* \"@openzeppelin/contracts/token/ERC20/ERC20.sol\":5993:6005  _msgSender() */\n      jump\t// in\n    tag_152:\n        /* \"@openzeppelin/contracts/token/ERC20/ERC20.sol\":5977:6005  address owner = _msgSender() */\n      swap1\n      pop\n        /* \"@openzeppelin/contracts/token/ERC20/ERC20.sol\":6015:6081  _approve(owner, spender, _allowances[owner][spender] + addedValue) */\n      tag_153\n        /* \"@openzeppelin/contracts/token/ERC20/ERC20.sol\":6024:6029  owner */\n      dup2\n        /* \"@openzeppelin/contracts/token/ERC20/ERC20.sol\":6031:6038  spender */\n      dup6\n        /* \"@openzeppelin/contracts/token/ERC20/ERC20.sol\":6070:6080  addedValue */\n      dup6\n        /* \"@openzeppelin/contracts/token/ERC20/ERC20.sol\":6040:6051  _allowances */\n      0x01\n        /* \"@openzeppelin/contracts/token/ERC20/ERC20.sol\":6040:6058  _allowances[owner] */\n      0x00\n        /* \"@openzeppelin/contracts/token/ERC20/ERC20.sol\":6052:6057  owner */\n      dup7\n        /* \"@openzeppelin/contracts/token/ERC20/ERC20.sol\":6040:6058  _allowances[owner] */\n      0xffffffffffffffffffffffffffffffffffffffff\n      and\n      0xffffffffffffffffffffffffffffffffffffffff\n      and\n      dup2\n      mstore\n      0x20\n      add\n      swap1\n      dup2\n      mstore\n      0x20\n      add\n      0x00\n      keccak256\n        /* \"@openzeppelin/contracts/token/ERC20/ERC20.sol\":6040:6067  _allowances[owner][spender] */\n      0x00\n        /* \"@openzeppelin/contracts/token/ERC20/ERC20.sol\":6059:6066  spender */\n      dup10\n        /* \"@openzeppelin/contracts/token/ERC20/ERC20.sol\":6040:6067  _allowances[owner][spender] */\n      0xffffffffffffffffffffffffffffffffffffffff\n      and\n      0xffffffffffffffffffffffffffffffffffffffff\n      and\n      dup2\n      mstore\n      0x20\n      add\n      swap1\n      dup2\n      mstore\n      0x20\n      add\n      0x00\n      keccak256\n      sload\n        /* \"@openzeppelin/contracts/token/ERC20/ERC20.sol\":6040:6080  _allowances[owner][spender] + addedValue */\n      tag_154\n      swap2\n      swap1\n      tag_155\n      jump\t// in\n    tag_154:\n        /* \"@openzeppelin/contracts/token/ERC20/ERC20.sol\":6015:6023  _approve */\n      tag_133\n        /* \"@openzeppelin/contracts/token/ERC20/ERC20.sol\":6015:6081  _approve(owner, spender, _allowances[owner][spender] + addedValue) */\n      jump\t// in\n    tag_153:\n        /* \"@openzeppelin/contracts/token/ERC20/ERC20.sol\":6098:6102  true */\n      0x01\n        /* \"@openzeppelin/contracts/token/ERC20/ERC20.sol\":6091:6102  return true */\n      swap2\n      pop\n      pop\n        /* \"@openzeppelin/contracts/token/ERC20/ERC20.sol\":5873:6109  function increaseAllowance(address spender, uint256 addedValue) public virtual returns (bool) {... */\n      swap3\n      swap2\n      pop\n      pop\n      jump\t// out\n        /* \"contracts/ERC20stake&reward.sol\":802:899  function buyToken(address to, uint256 amount) public onlyOwner {... */\n    tag_72:\n        /* \"@openzeppelin/contracts/access/Ownable.sol\":1259:1271  _msgSender() */\n      tag_157\n        /* \"@openzeppelin/contracts/access/Ownable.sol\":1259:1269  _msgSender */\n      tag_131\n        /* \"@openzeppelin/contracts/access/Ownable.sol\":1259:1271  _msgSender() */\n      jump\t// in\n    tag_157:\n        /* \"@openzeppelin/contracts/access/Ownable.sol\":1248:1271  owner() == _msgSender() */\n      0xffffffffffffffffffffffffffffffffffffffff\n      and\n        /* \"@openzeppelin/contracts/access/Ownable.sol\":1248:1255  owner() */\n      tag_158\n        /* \"@openzeppelin/contracts/access/Ownable.sol\":1248:1253  owner */\n      tag_83\n        /* \"@openzeppelin/contracts/access/Ownable.sol\":1248:1255  owner() */\n      jump\t// in\n    tag_158:\n        /* \"@openzeppelin/contracts/access/Ownable.sol\":1248:1271  owner() == _msgSender() */\n      0xffffffffffffffffffffffffffffffffffffffff\n      and\n      eq\n        /* \"@openzeppelin/contracts/access/Ownable.sol\":1240:1308  require(owner() == _msgSender(), \"Ownable: caller is not the owner\") */\n      tag_159\n      jumpi\n      mload(0x40)\n      0x08c379a000000000000000000000000000000000000000000000000000000000\n      dup2\n      mstore\n      0x04\n      add\n      tag_160\n      swap1\n      tag_161\n      jump\t// in\n    tag_160:\n      mload(0x40)\n      dup1\n      swap2\n      sub\n      swap1\n      revert\n    tag_159:\n        /* \"contracts/ERC20stake&reward.sol\":875:892  _mint(to, amount) */\n      tag_163\n        /* \"contracts/ERC20stake&reward.sol\":881:883  to */\n      dup3\n        /* \"contracts/ERC20stake&reward.sol\":885:891  amount */\n      dup3\n        /* \"contracts/ERC20stake&reward.sol\":875:880  _mint */\n      tag_164\n        /* \"contracts/ERC20stake&reward.sol\":875:892  _mint(to, amount) */\n      jump\t// in\n    tag_163:\n        /* \"contracts/ERC20stake&reward.sol\":802:899  function buyToken(address to, uint256 amount) public onlyOwner {... */\n      pop\n      pop\n      jump\t// out\n        /* \"@openzeppelin/contracts/token/ERC20/ERC20.sol\":3408:3533  function balanceOf(address account) public view virtual override returns (uint256) {... */\n    tag_75:\n        /* \"@openzeppelin/contracts/token/ERC20/ERC20.sol\":3482:3489  uint256 */\n      0x00\n        /* \"@openzeppelin/contracts/token/ERC20/ERC20.sol\":3508:3517  _balances */\n      dup1\n        /* \"@openzeppelin/contracts/token/ERC20/ERC20.sol\":3508:3526  _balances[account] */\n      0x00\n        /* \"@openzeppelin/contracts/token/ERC20/ERC20.sol\":3518:3525  account */\n      dup4\n        /* \"@openzeppelin/contracts/token/ERC20/ERC20.sol\":3508:3526  _balances[account] */\n      0xffffffffffffffffffffffffffffffffffffffff\n      and\n      0xffffffffffffffffffffffffffffffffffffffff\n      and\n      dup2\n      mstore\n      0x20\n      add\n      swap1\n      dup2\n      mstore\n      0x20\n      add\n      0x00\n      keccak256\n      sload\n        /* \"@openzeppelin/contracts/token/ERC20/ERC20.sol\":3501:3526  return _balances[account] */\n      swap1\n      pop\n        /* \"@openzeppelin/contracts/token/ERC20/ERC20.sol\":3408:3533  function balanceOf(address account) public view virtual override returns (uint256) {... */\n      swap2\n      swap1\n      pop\n      jump\t// out\n        /* \"@openzeppelin/contracts/access/Ownable.sol\":1668:1769  function renounceOwnership() public virtual onlyOwner {... */\n    tag_78:\n        /* \"@openzeppelin/contracts/access/Ownable.sol\":1259:1271  _msgSender() */\n      tag_167\n        /* \"@openzeppelin/contracts/access/Ownable.sol\":1259:1269  _msgSender */\n      tag_131\n        /* \"@openzeppelin/contracts/access/Ownable.sol\":1259:1271  _msgSender() */\n      jump\t// in\n    tag_167:\n        /* \"@openzeppelin/contracts/access/Ownable.sol\":1248:1271  owner() == _msgSender() */\n      0xffffffffffffffffffffffffffffffffffffffff\n      and\n        /* \"@openzeppelin/contracts/access/Ownable.sol\":1248:1255  owner() */\n      tag_168\n        /* \"@openzeppelin/contracts/access/Ownable.sol\":1248:1253  owner */\n      tag_83\n        /* \"@openzeppelin/contracts/access/Ownable.sol\":1248:1255  owner() */\n      jump\t// in\n    tag_168:\n        /* \"@openzeppelin/contracts/access/Ownable.sol\":1248:1271  owner() == _msgSender() */\n      0xffffffffffffffffffffffffffffffffffffffff\n      and\n      eq\n        /* \"@openzeppelin/contracts/access/Ownable.sol\":1240:1308  require(owner() == _msgSender(), \"Ownable: caller is not the owner\") */\n      tag_169\n      jumpi\n      mload(0x40)\n      0x08c379a000000000000000000000000000000000000000000000000000000000\n      dup2\n      mstore\n      0x04\n      add\n      tag_170\n      swap1\n      tag_161\n      jump\t// in\n    tag_170:\n      mload(0x40)\n      dup1\n      swap2\n      sub\n      swap1\n      revert\n    tag_169:\n        /* \"@openzeppelin/contracts/access/Ownable.sol\":1732:1762  _transferOwnership(address(0)) */\n      tag_172\n        /* \"@openzeppelin/contracts/access/Ownable.sol\":1759:1760  0 */\n      0x00\n        /* \"@openzeppelin/contracts/access/Ownable.sol\":1732:1750  _transferOwnership */\n      tag_173\n        /* \"@openzeppelin/contracts/access/Ownable.sol\":1732:1762  _transferOwnership(address(0)) */\n      jump\t// in\n    tag_172:\n        /* \"@openzeppelin/contracts/access/Ownable.sol\":1668:1769  function renounceOwnership() public virtual onlyOwner {... */\n      jump\t// out\n        /* \"contracts/ERC20stake&reward.sol\":1750:1855  function _numberofTokensStaked () public view returns (uint) {... */\n    tag_80:\n        /* \"contracts/ERC20stake&reward.sol\":1805:1809  uint */\n      0x00\n        /* \"contracts/ERC20stake&reward.sol\":1828:1848  numberofTokensStaked */\n      sload(0x07)\n        /* \"contracts/ERC20stake&reward.sol\":1821:1848  return numberofTokensStaked */\n      swap1\n      pop\n        /* \"contracts/ERC20stake&reward.sol\":1750:1855  function _numberofTokensStaked () public view returns (uint) {... */\n      swap1\n      jump\t// out\n        /* \"@openzeppelin/contracts/access/Ownable.sol\":1036:1121  function owner() public view virtual returns (address) {... */\n    tag_83:\n        /* \"@openzeppelin/contracts/access/Ownable.sol\":1082:1089  address */\n      0x00\n        /* \"@openzeppelin/contracts/access/Ownable.sol\":1108:1114  _owner */\n      0x05\n      0x00\n      swap1\n      sload\n      swap1\n      0x0100\n      exp\n      swap1\n      div\n      0xffffffffffffffffffffffffffffffffffffffff\n      and\n        /* \"@openzeppelin/contracts/access/Ownable.sol\":1101:1114  return _owner */\n      swap1\n      pop\n        /* \"@openzeppelin/contracts/access/Ownable.sol\":1036:1121  function owner() public view virtual returns (address) {... */\n      swap1\n      jump\t// out\n        /* \"@openzeppelin/contracts/token/ERC20/ERC20.sol\":2367:2469  function symbol() public view virtual override returns (string memory) {... */\n    tag_87:\n        /* \"@openzeppelin/contracts/token/ERC20/ERC20.sol\":2423:2436  string memory */\n      0x60\n        /* \"@openzeppelin/contracts/token/ERC20/ERC20.sol\":2455:2462  _symbol */\n      0x04\n        /* \"@openzeppelin/contracts/token/ERC20/ERC20.sol\":2448:2462  return _symbol */\n      dup1\n      sload\n      tag_177\n      swap1\n      tag_124\n      jump\t// in\n    tag_177:\n      dup1\n      0x1f\n      add\n      0x20\n      dup1\n      swap2\n      div\n      mul\n      0x20\n      add\n      mload(0x40)\n      swap1\n      dup2\n      add\n      0x40\n      mstore\n      dup1\n      swap3\n      swap2\n      swap1\n      dup2\n      dup2\n      mstore\n      0x20\n      add\n      dup3\n      dup1\n      sload\n      tag_178\n      swap1\n      tag_124\n      jump\t// in\n    tag_178:\n      dup1\n      iszero\n      tag_179\n      jumpi\n      dup1\n      0x1f\n      lt\n      tag_180\n      jumpi\n      0x0100\n      dup1\n      dup4\n      sload\n      div\n      mul\n      dup4\n      mstore\n      swap2\n      0x20\n      add\n      swap2\n      jump(tag_179)\n    tag_180:\n      dup3\n      add\n      swap2\n      swap1\n      0x00\n      mstore\n      keccak256(0x00, 0x20)\n      swap1\n    tag_181:\n      dup2\n      sload\n      dup2\n      mstore\n      swap1\n      0x01\n      add\n      swap1\n      0x20\n      add\n      dup1\n      dup4\n      gt\n      tag_181\n      jumpi\n      dup3\n      swap1\n      sub\n      0x1f\n      and\n      dup3\n      add\n      swap2\n    tag_179:\n      pop\n      pop\n      pop\n      pop\n      pop\n      swap1\n      pop\n        /* \"@openzeppelin/contracts/token/ERC20/ERC20.sol\":2367:2469  function symbol() public view virtual override returns (string memory) {... */\n      swap1\n      jump\t// out\n        /* \"contracts/ERC20stake&reward.sol\":1861:1977  function viewTokenBalance (address staker) public view returns (uint) {... */\n    tag_91:\n        /* \"contracts/ERC20stake&reward.sol\":1925:1929  uint */\n      0x00\n        /* \"contracts/ERC20stake&reward.sol\":1948:1962  stakingBalance */\n      0x09\n        /* \"contracts/ERC20stake&reward.sol\":1948:1970  stakingBalance[staker] */\n      0x00\n        /* \"contracts/ERC20stake&reward.sol\":1963:1969  staker */\n      dup4\n        /* \"contracts/ERC20stake&reward.sol\":1948:1970  stakingBalance[staker] */\n      0xffffffffffffffffffffffffffffffffffffffff\n      and\n      0xffffffffffffffffffffffffffffffffffffffff\n      and\n      dup2\n      mstore\n      0x20\n      add\n      swap1\n      dup2\n      mstore\n      0x20\n      add\n      0x00\n      keccak256\n      sload\n        /* \"contracts/ERC20stake&reward.sol\":1941:1970  return stakingBalance[staker] */\n      swap1\n      pop\n        /* \"contracts/ERC20stake&reward.sol\":1861:1977  function viewTokenBalance (address staker) public view returns (uint) {... */\n      swap2\n      swap1\n      pop\n      jump\t// out\n        /* \"@openzeppelin/contracts/token/ERC20/ERC20.sol\":6596:7025  function decreaseAllowance(address spender, uint256 subtractedValue) public virtual returns (bool) {... */\n    tag_95:\n        /* \"@openzeppelin/contracts/token/ERC20/ERC20.sol\":6689:6693  bool */\n      0x00\n        /* \"@openzeppelin/contracts/token/ERC20/ERC20.sol\":6705:6718  address owner */\n      dup1\n        /* \"@openzeppelin/contracts/token/ERC20/ERC20.sol\":6721:6733  _msgSender() */\n      tag_184\n        /* \"@openzeppelin/contracts/token/ERC20/ERC20.sol\":6721:6731  _msgSender */\n      tag_131\n        /* \"@openzeppelin/contracts/token/ERC20/ERC20.sol\":6721:6733  _msgSender() */\n      jump\t// in\n    tag_184:\n        /* \"@openzeppelin/contracts/token/ERC20/ERC20.sol\":6705:6733  address owner = _msgSender() */\n      swap1\n      pop\n        /* \"@openzeppelin/contracts/token/ERC20/ERC20.sol\":6743:6767  uint256 currentAllowance */\n      0x00\n        /* \"@openzeppelin/contracts/token/ERC20/ERC20.sol\":6770:6781  _allowances */\n      0x01\n        /* \"@openzeppelin/contracts/token/ERC20/ERC20.sol\":6770:6788  _allowances[owner] */\n      0x00\n        /* \"@openzeppelin/contracts/token/ERC20/ERC20.sol\":6782:6787  owner */\n      dup4\n        /* \"@openzeppelin/contracts/token/ERC20/ERC20.sol\":6770:6788  _allowances[owner] */\n      0xffffffffffffffffffffffffffffffffffffffff\n      and\n      0xffffffffffffffffffffffffffffffffffffffff\n      and\n      dup2\n      mstore\n      0x20\n      add\n      swap1\n      dup2\n      mstore\n      0x20\n      add\n      0x00\n      keccak256\n        /* \"@openzeppelin/contracts/token/ERC20/ERC20.sol\":6770:6797  _allowances[owner][spender] */\n      0x00\n        /* \"@openzeppelin/contracts/token/ERC20/ERC20.sol\":6789:6796  spender */\n      dup7\n        /* \"@openzeppelin/contracts/token/ERC20/ERC20.sol\":6770:6797  _allowances[owner][spender] */\n      0xffffffffffffffffffffffffffffffffffffffff\n      and\n      0xffffffffffffffffffffffffffffffffffffffff\n      and\n      dup2\n      mstore\n      0x20\n      add\n      swap1\n      dup2\n      mstore\n      0x20\n      add\n      0x00\n      keccak256\n      sload\n        /* \"@openzeppelin/contracts/token/ERC20/ERC20.sol\":6743:6797  uint256 currentAllowance = _allowances[owner][spender] */\n      swap1\n      pop\n        /* \"@openzeppelin/contracts/token/ERC20/ERC20.sol\":6835:6850  subtractedValue */\n      dup4\n        /* \"@openzeppelin/contracts/token/ERC20/ERC20.sol\":6815:6831  currentAllowance */\n      dup2\n        /* \"@openzeppelin/contracts/token/ERC20/ERC20.sol\":6815:6850  currentAllowance >= subtractedValue */\n      lt\n      iszero\n        /* \"@openzeppelin/contracts/token/ERC20/ERC20.sol\":6807:6892  require(currentAllowance >= subtractedValue, \"ERC20: decreased allowance below zero\") */\n      tag_185\n      jumpi\n      mload(0x40)\n      0x08c379a000000000000000000000000000000000000000000000000000000000\n      dup2\n      mstore\n      0x04\n      add\n      tag_186\n      swap1\n      tag_187\n      jump\t// in\n    tag_186:\n      mload(0x40)\n      dup1\n      swap2\n      sub\n      swap1\n      revert\n    tag_185:\n        /* \"@openzeppelin/contracts/token/ERC20/ERC20.sol\":6926:6986  _approve(owner, spender, currentAllowance - subtractedValue) */\n      tag_188\n        /* \"@openzeppelin/contracts/token/ERC20/ERC20.sol\":6935:6940  owner */\n      dup3\n        /* \"@openzeppelin/contracts/token/ERC20/ERC20.sol\":6942:6949  spender */\n      dup7\n        /* \"@openzeppelin/contracts/token/ERC20/ERC20.sol\":6970:6985  subtractedValue */\n      dup7\n        /* \"@openzeppelin/contracts/token/ERC20/ERC20.sol\":6951:6967  currentAllowance */\n      dup5\n        /* \"@openzeppelin/contracts/token/ERC20/ERC20.sol\":6951:6985  currentAllowance - subtractedValue */\n      sub\n        /* \"@openzeppelin/contracts/token/ERC20/ERC20.sol\":6926:6934  _approve */\n      tag_133\n        /* \"@openzeppelin/contracts/token/ERC20/ERC20.sol\":6926:6986  _approve(owner, spender, currentAllowance - subtractedValue) */\n      jump\t// in\n    tag_188:\n        /* \"@openzeppelin/contracts/token/ERC20/ERC20.sol\":7014:7018  true */\n      0x01\n        /* \"@openzeppelin/contracts/token/ERC20/ERC20.sol\":7007:7018  return true */\n      swap3\n      pop\n      pop\n      pop\n        /* \"@openzeppelin/contracts/token/ERC20/ERC20.sol\":6596:7025  function decreaseAllowance(address spender, uint256 subtractedValue) public virtual returns (bool) {... */\n      swap3\n      swap2\n      pop\n      pop\n      jump\t// out\n        /* \"contracts/ERC20stake&reward.sol\":258:290  uint public numberofTokensStaked */\n    tag_98:\n      sload(0x07)\n      dup2\n      jump\t// out\n        /* \"@openzeppelin/contracts/token/ERC20/ERC20.sol\":3729:3918  function transfer(address to, uint256 amount) public virtual override returns (bool) {... */\n    tag_102:\n        /* \"@openzeppelin/contracts/token/ERC20/ERC20.sol\":3808:3812  bool */\n      0x00\n        /* \"@openzeppelin/contracts/token/ERC20/ERC20.sol\":3824:3837  address owner */\n      dup1\n        /* \"@openzeppelin/contracts/token/ERC20/ERC20.sol\":3840:3852  _msgSender() */\n      tag_190\n        /* \"@openzeppelin/contracts/token/ERC20/ERC20.sol\":3840:3850  _msgSender */\n      tag_131\n        /* \"@openzeppelin/contracts/token/ERC20/ERC20.sol\":3840:3852  _msgSender() */\n      jump\t// in\n    tag_190:\n        /* \"@openzeppelin/contracts/token/ERC20/ERC20.sol\":3824:3852  address owner = _msgSender() */\n      swap1\n      pop\n        /* \"@openzeppelin/contracts/token/ERC20/ERC20.sol\":3862:3890  _transfer(owner, to, amount) */\n      tag_191\n        /* \"@openzeppelin/contracts/token/ERC20/ERC20.sol\":3872:3877  owner */\n      dup2\n        /* \"@openzeppelin/contracts/token/ERC20/ERC20.sol\":3879:3881  to */\n      dup6\n        /* \"@openzeppelin/contracts/token/ERC20/ERC20.sol\":3883:3889  amount */\n      dup6\n        /* \"@openzeppelin/contracts/token/ERC20/ERC20.sol\":3862:3871  _transfer */\n      tag_145\n        /* \"@openzeppelin/contracts/token/ERC20/ERC20.sol\":3862:3890  _transfer(owner, to, amount) */\n      jump\t// in\n    tag_191:\n        /* \"@openzeppelin/contracts/token/ERC20/ERC20.sol\":3907:3911  true */\n      0x01\n        /* \"@openzeppelin/contracts/token/ERC20/ERC20.sol\":3900:3911  return true */\n      swap2\n      pop\n      pop\n        /* \"@openzeppelin/contracts/token/ERC20/ERC20.sol\":3729:3918  function transfer(address to, uint256 amount) public virtual override returns (bool) {... */\n      swap3\n      swap2\n      pop\n      pop\n      jump\t// out\n        /* \"contracts/ERC20stake&reward.sol\":296:338  mapping (address => bool) public hasStaked */\n    tag_106:\n      mstore(0x20, 0x08)\n      dup1\n      0x00\n      mstore\n      keccak256(0x00, 0x40)\n      0x00\n      swap2\n      pop\n      sload\n      swap1\n      0x0100\n      exp\n      swap1\n      div\n      0xff\n      and\n      dup2\n      jump\t// out\n        /* \"contracts/ERC20stake&reward.sol\":216:252  uint public tokenBuyPrice = 1*10**17 */\n    tag_109:\n      sload(0x06)\n      dup2\n      jump\t// out\n        /* \"@openzeppelin/contracts/token/ERC20/ERC20.sol\":3976:4125  function allowance(address owner, address spender) public view virtual override returns (uint256) {... */\n    tag_114:\n        /* \"@openzeppelin/contracts/token/ERC20/ERC20.sol\":4065:4072  uint256 */\n      0x00\n        /* \"@openzeppelin/contracts/token/ERC20/ERC20.sol\":4091:4102  _allowances */\n      0x01\n        /* \"@openzeppelin/contracts/token/ERC20/ERC20.sol\":4091:4109  _allowances[owner] */\n      0x00\n        /* \"@openzeppelin/contracts/token/ERC20/ERC20.sol\":4103:4108  owner */\n      dup5\n        /* \"@openzeppelin/contracts/token/ERC20/ERC20.sol\":4091:4109  _allowances[owner] */\n      0xffffffffffffffffffffffffffffffffffffffff\n      and\n      0xffffffffffffffffffffffffffffffffffffffff\n      and\n      dup2\n      mstore\n      0x20\n      add\n      swap1\n      dup2\n      mstore\n      0x20\n      add\n      0x00\n      keccak256\n        /* \"@openzeppelin/contracts/token/ERC20/ERC20.sol\":4091:4118  _allowances[owner][spender] */\n      0x00\n        /* \"@openzeppelin/contracts/token/ERC20/ERC20.sol\":4110:4117  spender */\n      dup4\n        /* \"@openzeppelin/contracts/token/ERC20/ERC20.sol\":4091:4118  _allowances[owner][spender] */\n      0xffffffffffffffffffffffffffffffffffffffff\n      and\n      0xffffffffffffffffffffffffffffffffffffffff\n      and\n      dup2\n      mstore\n      0x20\n      add\n      swap1\n      dup2\n      mstore\n      0x20\n      add\n      0x00\n      keccak256\n      sload\n        /* \"@openzeppelin/contracts/token/ERC20/ERC20.sol\":4084:4118  return _allowances[owner][spender] */\n      swap1\n      pop\n        /* \"@openzeppelin/contracts/token/ERC20/ERC20.sol\":3976:4125  function allowance(address owner, address spender) public view virtual override returns (uint256) {... */\n      swap3\n      swap2\n      pop\n      pop\n      jump\t// out\n        /* \"@openzeppelin/contracts/access/Ownable.sol\":1918:2116  function transferOwnership(address newOwner) public virtual onlyOwner {... */\n    tag_118:\n        /* \"@openzeppelin/contracts/access/Ownable.sol\":1259:1271  _msgSender() */\n      tag_194\n        /* \"@openzeppelin/contracts/access/Ownable.sol\":1259:1269  _msgSender */\n      tag_131\n        /* \"@openzeppelin/contracts/access/Ownable.sol\":1259:1271  _msgSender() */\n      jump\t// in\n    tag_194:\n        /* \"@openzeppelin/contracts/access/Ownable.sol\":1248:1271  owner() == _msgSender() */\n      0xffffffffffffffffffffffffffffffffffffffff\n      and\n        /* \"@openzeppelin/contracts/access/Ownable.sol\":1248:1255  owner() */\n      tag_195\n        /* \"@openzeppelin/contracts/access/Ownable.sol\":1248:1253  owner */\n      tag_83\n        /* \"@openzeppelin/contracts/access/Ownable.sol\":1248:1255  owner() */\n      jump\t// in\n    tag_195:\n        /* \"@openzeppelin/contracts/access/Ownable.sol\":1248:1271  owner() == _msgSender() */\n      0xffffffffffffffffffffffffffffffffffffffff\n      and\n      eq\n        /* \"@openzeppelin/contracts/access/Ownable.sol\":1240:1308  require(owner() == _msgSender(), \"Ownable: caller is not the owner\") */\n      tag_196\n      jumpi\n      mload(0x40)\n      0x08c379a000000000000000000000000000000000000000000000000000000000\n      dup2\n      mstore\n      0x04\n      add\n      tag_197\n      swap1\n      tag_161\n      jump\t// in\n    tag_197:\n      mload(0x40)\n      dup1\n      swap2\n      sub\n      swap1\n      revert\n    tag_196:\n        /* \"@openzeppelin/contracts/access/Ownable.sol\":2026:2027  0 */\n      0x00\n        /* \"@openzeppelin/contracts/access/Ownable.sol\":2006:2028  newOwner != address(0) */\n      0xffffffffffffffffffffffffffffffffffffffff\n      and\n        /* \"@openzeppelin/contracts/access/Ownable.sol\":2006:2014  newOwner */\n      dup2\n        /* \"@openzeppelin/contracts/access/Ownable.sol\":2006:2028  newOwner != address(0) */\n      0xffffffffffffffffffffffffffffffffffffffff\n      and\n      eq\n      iszero\n        /* \"@openzeppelin/contracts/access/Ownable.sol\":1998:2071  require(newOwner != address(0), \"Ownable: new owner is the zero address\") */\n      tag_199\n      jumpi\n      mload(0x40)\n      0x08c379a000000000000000000000000000000000000000000000000000000000\n      dup2\n      mstore\n      0x04\n      add\n      tag_200\n      swap1\n      tag_201\n      jump\t// in\n    tag_200:\n      mload(0x40)\n      dup1\n      swap2\n      sub\n      swap1\n      revert\n    tag_199:\n        /* \"@openzeppelin/contracts/access/Ownable.sol\":2081:2109  _transferOwnership(newOwner) */\n      tag_202\n        /* \"@openzeppelin/contracts/access/Ownable.sol\":2100:2108  newOwner */\n      dup2\n        /* \"@openzeppelin/contracts/access/Ownable.sol\":2081:2099  _transferOwnership */\n      tag_173\n        /* \"@openzeppelin/contracts/access/Ownable.sol\":2081:2109  _transferOwnership(newOwner) */\n      jump\t// in\n    tag_202:\n        /* \"@openzeppelin/contracts/access/Ownable.sol\":1918:2116  function transferOwnership(address newOwner) public virtual onlyOwner {... */\n      pop\n      jump\t// out\n        /* \"contracts/ERC20stake&reward.sol\":1032:1375  function stakeToken (address staker, uint amount) public {... */\n    tag_121:\n        /* \"contracts/ERC20stake&reward.sol\":1151:1195  transferFrom (staker, address(this), amount) */\n      tag_204\n        /* \"contracts/ERC20stake&reward.sol\":1165:1171  staker */\n      dup3\n        /* \"contracts/ERC20stake&reward.sol\":1181:1185  this */\n      address\n        /* \"contracts/ERC20stake&reward.sol\":1188:1194  amount */\n      dup4\n        /* \"contracts/ERC20stake&reward.sol\":1151:1163  transferFrom */\n      tag_56\n        /* \"contracts/ERC20stake&reward.sol\":1151:1195  transferFrom (staker, address(this), amount) */\n      jump\t// in\n    tag_204:\n      pop\n        /* \"contracts/ERC20stake&reward.sol\":1225:1229  true */\n      0x01\n        /* \"contracts/ERC20stake&reward.sol\":1205:1214  hasStaked */\n      0x08\n        /* \"contracts/ERC20stake&reward.sol\":1205:1222  hasStaked[staker] */\n      0x00\n        /* \"contracts/ERC20stake&reward.sol\":1215:1221  staker */\n      dup5\n        /* \"contracts/ERC20stake&reward.sol\":1205:1222  hasStaked[staker] */\n      0xffffffffffffffffffffffffffffffffffffffff\n      and\n      0xffffffffffffffffffffffffffffffffffffffff\n      and\n      dup2\n      mstore\n      0x20\n      add\n      swap1\n      dup2\n      mstore\n      0x20\n      add\n      0x00\n      keccak256\n      0x00\n        /* \"contracts/ERC20stake&reward.sol\":1205:1229  hasStaked[staker] = true */\n      0x0100\n      exp\n      dup2\n      sload\n      dup2\n      0xff\n      mul\n      not\n      and\n      swap1\n      dup4\n      iszero\n      iszero\n      mul\n      or\n      swap1\n      sstore\n      pop\n        /* \"contracts/ERC20stake&reward.sol\":1239:1252  vintageTokens */\n      0x0b\n        /* \"contracts/ERC20stake&reward.sol\":1259:1315  stakedToken(msg.sender, staker, amount, block.timestamp) */\n      mload(0x40)\n      dup1\n      0x80\n      add\n      0x40\n      mstore\n      dup1\n        /* \"contracts/ERC20stake&reward.sol\":1271:1281  msg.sender */\n      caller\n        /* \"contracts/ERC20stake&reward.sol\":1259:1315  stakedToken(msg.sender, staker, amount, block.timestamp) */\n      0xffffffffffffffffffffffffffffffffffffffff\n      and\n      dup2\n      mstore\n      0x20\n      add\n        /* \"contracts/ERC20stake&reward.sol\":1283:1289  staker */\n      dup5\n        /* \"contracts/ERC20stake&reward.sol\":1259:1315  stakedToken(msg.sender, staker, amount, block.timestamp) */\n      0xffffffffffffffffffffffffffffffffffffffff\n      and\n      dup2\n      mstore\n      0x20\n      add\n        /* \"contracts/ERC20stake&reward.sol\":1291:1297  amount */\n      dup4\n        /* \"contracts/ERC20stake&reward.sol\":1259:1315  stakedToken(msg.sender, staker, amount, block.timestamp) */\n      dup2\n      mstore\n      0x20\n      add\n        /* \"contracts/ERC20stake&reward.sol\":1299:1314  block.timestamp */\n      timestamp\n        /* \"contracts/ERC20stake&reward.sol\":1259:1315  stakedToken(msg.sender, staker, amount, block.timestamp) */\n      dup2\n      mstore\n      pop\n        /* \"contracts/ERC20stake&reward.sol\":1239:1316  vintageTokens.push (stakedToken(msg.sender, staker, amount, block.timestamp)) */\n      swap1\n      dup1\n      0x01\n      dup2\n      sload\n      add\n      dup1\n      dup3\n      sstore\n      dup1\n      swap2\n      pop\n      pop\n      0x01\n      swap1\n      sub\n      swap1\n      0x00\n      mstore\n      keccak256(0x00, 0x20)\n      swap1\n      0x04\n      mul\n      add\n      0x00\n      swap1\n      swap2\n      swap1\n      swap2\n      swap1\n      swap2\n      pop\n      0x00\n      dup3\n      add\n      mload\n      dup2\n      0x00\n      add\n      exp(0x0100, 0x00)\n      dup2\n      sload\n      dup2\n      0xffffffffffffffffffffffffffffffffffffffff\n      mul\n      not\n      and\n      swap1\n      dup4\n      0xffffffffffffffffffffffffffffffffffffffff\n      and\n      mul\n      or\n      swap1\n      sstore\n      pop\n      0x20\n      dup3\n      add\n      mload\n      dup2\n      0x01\n      add\n      exp(0x0100, 0x00)\n      dup2\n      sload\n      dup2\n      0xffffffffffffffffffffffffffffffffffffffff\n      mul\n      not\n      and\n      swap1\n      dup4\n      0xffffffffffffffffffffffffffffffffffffffff\n      and\n      mul\n      or\n      swap1\n      sstore\n      pop\n      0x40\n      dup3\n      add\n      mload\n      dup2\n      0x02\n      add\n      sstore\n      0x60\n      dup3\n      add\n      mload\n      dup2\n      0x03\n      add\n      sstore\n      pop\n      pop\n        /* \"contracts/ERC20stake&reward.sol\":1353:1359  staker */\n      dup2\n        /* \"contracts/ERC20stake&reward.sol\":1331:1368  Transfer (msg.sender, staker, amount) */\n      0xffffffffffffffffffffffffffffffffffffffff\n      and\n        /* \"contracts/ERC20stake&reward.sol\":1341:1351  msg.sender */\n      caller\n        /* \"contracts/ERC20stake&reward.sol\":1331:1368  Transfer (msg.sender, staker, amount) */\n      0xffffffffffffffffffffffffffffffffffffffff\n      and\n      0xddf252ad1be2c89b69c2b068fc378daa952ba7f163c4a11628f55a4df523b3ef\n        /* \"contracts/ERC20stake&reward.sol\":1361:1367  amount */\n      dup4\n        /* \"contracts/ERC20stake&reward.sol\":1331:1368  Transfer (msg.sender, staker, amount) */\n      mload(0x40)\n      tag_206\n      swap2\n      swap1\n      tag_39\n      jump\t// in\n    tag_206:\n      mload(0x40)\n      dup1\n      swap2\n      sub\n      swap1\n      log3\n        /* \"contracts/ERC20stake&reward.sol\":1032:1375  function stakeToken (address staker, uint amount) public {... */\n      pop\n      pop\n      jump\t// out\n        /* \"@openzeppelin/contracts/utils/Context.sol\":640:736  function _msgSender() internal view virtual returns (address) {... */\n    tag_131:\n        /* \"@openzeppelin/contracts/utils/Context.sol\":693:700  address */\n      0x00\n        /* \"@openzeppelin/contracts/utils/Context.sol\":719:729  msg.sender */\n      caller\n        /* \"@openzeppelin/contracts/utils/Context.sol\":712:729  return msg.sender */\n      swap1\n      pop\n        /* \"@openzeppelin/contracts/utils/Context.sol\":640:736  function _msgSender() internal view virtual returns (address) {... */\n      swap1\n      jump\t// out\n        /* \"@openzeppelin/contracts/token/ERC20/ERC20.sol\":10123:10493  function _approve(... */\n    tag_133:\n        /* \"@openzeppelin/contracts/token/ERC20/ERC20.sol\":10271:10272  0 */\n      0x00\n        /* \"@openzeppelin/contracts/token/ERC20/ERC20.sol\":10254:10273  owner != address(0) */\n      0xffffffffffffffffffffffffffffffffffffffff\n      and\n        /* \"@openzeppelin/contracts/token/ERC20/ERC20.sol\":10254:10259  owner */\n      dup4\n        /* \"@openzeppelin/contracts/token/ERC20/ERC20.sol\":10254:10273  owner != address(0) */\n      0xffffffffffffffffffffffffffffffffffffffff\n      and\n      eq\n      iszero\n        /* \"@openzeppelin/contracts/token/ERC20/ERC20.sol\":10246:10314  require(owner != address(0), \"ERC20: approve from the zero address\") */\n      tag_209\n      jumpi\n      mload(0x40)\n      0x08c379a000000000000000000000000000000000000000000000000000000000\n      dup2\n      mstore\n      0x04\n      add\n      tag_210\n      swap1\n      tag_211\n      jump\t// in\n    tag_210:\n      mload(0x40)\n      dup1\n      swap2\n      sub\n      swap1\n      revert\n    tag_209:\n        /* \"@openzeppelin/contracts/token/ERC20/ERC20.sol\":10351:10352  0 */\n      0x00\n        /* \"@openzeppelin/contracts/token/ERC20/ERC20.sol\":10332:10353  spender != address(0) */\n      0xffffffffffffffffffffffffffffffffffffffff\n      and\n        /* \"@openzeppelin/contracts/token/ERC20/ERC20.sol\":10332:10339  spender */\n      dup3\n        /* \"@openzeppelin/contracts/token/ERC20/ERC20.sol\":10332:10353  spender != address(0) */\n      0xffffffffffffffffffffffffffffffffffffffff\n      and\n      eq\n      iszero\n        /* \"@openzeppelin/contracts/token/ERC20/ERC20.sol\":10324:10392  require(spender != address(0), \"ERC20: approve to the zero address\") */\n      tag_212\n      jumpi\n      mload(0x40)\n      0x08c379a000000000000000000000000000000000000000000000000000000000\n      dup2\n      mstore\n      0x04\n      add\n      tag_213\n      swap1\n      tag_214\n      jump\t// in\n    tag_213:\n      mload(0x40)\n      dup1\n      swap2\n      sub\n      swap1\n      revert\n    tag_212:\n        /* \"@openzeppelin/contracts/token/ERC20/ERC20.sol\":10433:10439  amount */\n      dup1\n        /* \"@openzeppelin/contracts/token/ERC20/ERC20.sol\":10403:10414  _allowances */\n      0x01\n        /* \"@openzeppelin/contracts/token/ERC20/ERC20.sol\":10403:10421  _allowances[owner] */\n      0x00\n        /* \"@openzeppelin/contracts/token/ERC20/ERC20.sol\":10415:10420  owner */\n      dup6\n        /* \"@openzeppelin/contracts/token/ERC20/ERC20.sol\":10403:10421  _allowances[owner] */\n      0xffffffffffffffffffffffffffffffffffffffff\n      and\n      0xffffffffffffffffffffffffffffffffffffffff\n      and\n      dup2\n      mstore\n      0x20\n      add\n      swap1\n      dup2\n      mstore\n      0x20\n      add\n      0x00\n      keccak256\n        /* \"@openzeppelin/contracts/token/ERC20/ERC20.sol\":10403:10430  _allowances[owner][spender] */\n      0x00\n        /* \"@openzeppelin/contracts/token/ERC20/ERC20.sol\":10422:10429  spender */\n      dup5\n        /* \"@openzeppelin/contracts/token/ERC20/ERC20.sol\":10403:10430  _allowances[owner][spender] */\n      0xffffffffffffffffffffffffffffffffffffffff\n      and\n      0xffffffffffffffffffffffffffffffffffffffff\n      and\n      dup2\n      mstore\n      0x20\n      add\n      swap1\n      dup2\n      mstore\n      0x20\n      add\n      0x00\n      keccak256\n        /* \"@openzeppelin/contracts/token/ERC20/ERC20.sol\":10403:10439  _allowances[owner][spender] = amount */\n      dup2\n      swap1\n      sstore\n      pop\n        /* \"@openzeppelin/contracts/token/ERC20/ERC20.sol\":10470:10477  spender */\n      dup2\n        /* \"@openzeppelin/contracts/token/ERC20/ERC20.sol\":10454:10486  Approval(owner, spender, amount) */\n      0xffffffffffffffffffffffffffffffffffffffff\n      and\n        /* \"@openzeppelin/contracts/token/ERC20/ERC20.sol\":10463:10468  owner */\n      dup4\n        /* \"@openzeppelin/contracts/token/ERC20/ERC20.sol\":10454:10486  Approval(owner, spender, amount) */\n      0xffffffffffffffffffffffffffffffffffffffff\n      and\n      0x8c5be1e5ebec7d5bd14f71427d1e84f3dd0314c0f7b2291e5b200ac8c7c3b925\n        /* \"@openzeppelin/contracts/token/ERC20/ERC20.sol\":10479:10485  amount */\n      dup4\n        /* \"@openzeppelin/contracts/token/ERC20/ERC20.sol\":10454:10486  Approval(owner, spender, amount) */\n      mload(0x40)\n      tag_215\n      swap2\n      swap1\n      tag_39\n      jump\t// in\n    tag_215:\n      mload(0x40)\n      dup1\n      swap2\n      sub\n      swap1\n      log3\n        /* \"@openzeppelin/contracts/token/ERC20/ERC20.sol\":10123:10493  function _approve(... */\n      pop\n      pop\n      pop\n      jump\t// out\n        /* \"@openzeppelin/contracts/token/ERC20/ERC20.sol\":10770:11211  function _spendAllowance(... */\n    tag_143:\n        /* \"@openzeppelin/contracts/token/ERC20/ERC20.sol\":10900:10924  uint256 currentAllowance */\n      0x00\n        /* \"@openzeppelin/contracts/token/ERC20/ERC20.sol\":10927:10952  allowance(owner, spender) */\n      tag_217\n        /* \"@openzeppelin/contracts/token/ERC20/ERC20.sol\":10937:10942  owner */\n      dup5\n        /* \"@openzeppelin/contracts/token/ERC20/ERC20.sol\":10944:10951  spender */\n      dup5\n        /* \"@openzeppelin/contracts/token/ERC20/ERC20.sol\":10927:10936  allowance */\n      tag_114\n        /* \"@openzeppelin/contracts/token/ERC20/ERC20.sol\":10927:10952  allowance(owner, spender) */\n      jump\t// in\n    tag_217:\n        /* \"@openzeppelin/contracts/token/ERC20/ERC20.sol\":10900:10952  uint256 currentAllowance = allowance(owner, spender) */\n      swap1\n      pop\n        /* \"@openzeppelin/contracts/token/ERC20/ERC20.sol\":10986:11003  type(uint256).max */\n      0xffffffffffffffffffffffffffffffffffffffffffffffffffffffffffffffff\n        /* \"@openzeppelin/contracts/token/ERC20/ERC20.sol\":10966:10982  currentAllowance */\n      dup2\n        /* \"@openzeppelin/contracts/token/ERC20/ERC20.sol\":10966:11003  currentAllowance != type(uint256).max */\n      eq\n        /* \"@openzeppelin/contracts/token/ERC20/ERC20.sol\":10962:11205  if (currentAllowance != type(uint256).max) {... */\n      tag_218\n      jumpi\n        /* \"@openzeppelin/contracts/token/ERC20/ERC20.sol\":11047:11053  amount */\n      dup2\n        /* \"@openzeppelin/contracts/token/ERC20/ERC20.sol\":11027:11043  currentAllowance */\n      dup2\n        /* \"@openzeppelin/contracts/token/ERC20/ERC20.sol\":11027:11053  currentAllowance >= amount */\n      lt\n      iszero\n        /* \"@openzeppelin/contracts/token/ERC20/ERC20.sol\":11019:11087  require(currentAllowance >= amount, \"ERC20: insufficient allowance\") */\n      tag_219\n      jumpi\n      mload(0x40)\n      0x08c379a000000000000000000000000000000000000000000000000000000000\n      dup2\n      mstore\n      0x04\n      add\n      tag_220\n      swap1\n      tag_221\n      jump\t// in\n    tag_220:\n      mload(0x40)\n      dup1\n      swap2\n      sub\n      swap1\n      revert\n    tag_219:\n        /* \"@openzeppelin/contracts/token/ERC20/ERC20.sol\":11129:11180  _approve(owner, spender, currentAllowance - amount) */\n      tag_222\n        /* \"@openzeppelin/contracts/token/ERC20/ERC20.sol\":11138:11143  owner */\n      dup5\n        /* \"@openzeppelin/contracts/token/ERC20/ERC20.sol\":11145:11152  spender */\n      dup5\n        /* \"@openzeppelin/contracts/token/ERC20/ERC20.sol\":11173:11179  amount */\n      dup5\n        /* \"@openzeppelin/contracts/token/ERC20/ERC20.sol\":11154:11170  currentAllowance */\n      dup5\n        /* \"@openzeppelin/contracts/token/ERC20/ERC20.sol\":11154:11179  currentAllowance - amount */\n      sub\n        /* \"@openzeppelin/contracts/token/ERC20/ERC20.sol\":11129:11137  _approve */\n      tag_133\n        /* \"@openzeppelin/contracts/token/ERC20/ERC20.sol\":11129:11180  _approve(owner, spender, currentAllowance - amount) */\n      jump\t// in\n    tag_222:\n        /* \"@openzeppelin/contracts/token/ERC20/ERC20.sol\":10962:11205  if (currentAllowance != type(uint256).max) {... */\n    tag_218:\n        /* \"@openzeppelin/contracts/token/ERC20/ERC20.sol\":10770:11211  function _spendAllowance(... */\n      pop\n      pop\n      pop\n      pop\n      jump\t// out\n        /* \"@openzeppelin/contracts/token/ERC20/ERC20.sol\":7488:8139  function _transfer(... */\n    tag_145:\n        /* \"@openzeppelin/contracts/token/ERC20/ERC20.sol\":7630:7631  0 */\n      0x00\n        /* \"@openzeppelin/contracts/token/ERC20/ERC20.sol\":7614:7632  from != address(0) */\n      0xffffffffffffffffffffffffffffffffffffffff\n      and\n        /* \"@openzeppelin/contracts/token/ERC20/ERC20.sol\":7614:7618  from */\n      dup4\n        /* \"@openzeppelin/contracts/token/ERC20/ERC20.sol\":7614:7632  from != address(0) */\n      0xffffffffffffffffffffffffffffffffffffffff\n      and\n      eq\n      iszero\n        /* \"@openzeppelin/contracts/token/ERC20/ERC20.sol\":7606:7674  require(from != address(0), \"ERC20: transfer from the zero address\") */\n      tag_224\n      jumpi\n      mload(0x40)\n      0x08c379a000000000000000000000000000000000000000000000000000000000\n      dup2\n      mstore\n      0x04\n      add\n      tag_225\n      swap1\n      tag_226\n      jump\t// in\n    tag_225:\n      mload(0x40)\n      dup1\n      swap2\n      sub\n      swap1\n      revert\n    tag_224:\n        /* \"@openzeppelin/contracts/token/ERC20/ERC20.sol\":7706:7707  0 */\n      0x00\n        /* \"@openzeppelin/contracts/token/ERC20/ERC20.sol\":7692:7708  to != address(0) */\n      0xffffffffffffffffffffffffffffffffffffffff\n      and\n        /* \"@openzeppelin/contracts/token/ERC20/ERC20.sol\":7692:7694  to */\n      dup3\n        /* \"@openzeppelin/contracts/token/ERC20/ERC20.sol\":7692:7708  to != address(0) */\n      0xffffffffffffffffffffffffffffffffffffffff\n      and\n      eq\n      iszero\n        /* \"@openzeppelin/contracts/token/ERC20/ERC20.sol\":7684:7748  require(to != address(0), \"ERC20: transfer to the zero address\") */\n      tag_227\n      jumpi\n      mload(0x40)\n      0x08c379a000000000000000000000000000000000000000000000000000000000\n      dup2\n      mstore\n      0x04\n      add\n      tag_228\n      swap1\n      tag_229\n      jump\t// in\n    tag_228:\n      mload(0x40)\n      dup1\n      swap2\n      sub\n      swap1\n      revert\n    tag_227:\n        /* \"@openzeppelin/contracts/token/ERC20/ERC20.sol\":7759:7797  _beforeTokenTransfer(from, to, amount) */\n      tag_230\n        /* \"@openzeppelin/contracts/token/ERC20/ERC20.sol\":7780:7784  from */\n      dup4\n        /* \"@openzeppelin/contracts/token/ERC20/ERC20.sol\":7786:7788  to */\n      dup4\n        /* \"@openzeppelin/contracts/token/ERC20/ERC20.sol\":7790:7796  amount */\n      dup4\n        /* \"@openzeppelin/contracts/token/ERC20/ERC20.sol\":7759:7779  _beforeTokenTransfer */\n      tag_231\n        /* \"@openzeppelin/contracts/token/ERC20/ERC20.sol\":7759:7797  _beforeTokenTransfer(from, to, amount) */\n      jump\t// in\n    tag_230:\n        /* \"@openzeppelin/contracts/token/ERC20/ERC20.sol\":7808:7827  uint256 fromBalance */\n      0x00\n        /* \"@openzeppelin/contracts/token/ERC20/ERC20.sol\":7830:7839  _balances */\n      dup1\n        /* \"@openzeppelin/contracts/token/ERC20/ERC20.sol\":7830:7845  _balances[from] */\n      0x00\n        /* \"@openzeppelin/contracts/token/ERC20/ERC20.sol\":7840:7844  from */\n      dup6\n        /* \"@openzeppelin/contracts/token/ERC20/ERC20.sol\":7830:7845  _balances[from] */\n      0xffffffffffffffffffffffffffffffffffffffff\n      and\n      0xffffffffffffffffffffffffffffffffffffffff\n      and\n      dup2\n      mstore\n      0x20\n      add\n      swap1\n      dup2\n      mstore\n      0x20\n      add\n      0x00\n      keccak256\n      sload\n        /* \"@openzeppelin/contracts/token/ERC20/ERC20.sol\":7808:7845  uint256 fromBalance = _balances[from] */\n      swap1\n      pop\n        /* \"@openzeppelin/contracts/token/ERC20/ERC20.sol\":7878:7884  amount */\n      dup2\n        /* \"@openzeppelin/contracts/token/ERC20/ERC20.sol\":7863:7874  fromBalance */\n      dup2\n        /* \"@openzeppelin/contracts/token/ERC20/ERC20.sol\":7863:7884  fromBalance >= amount */\n      lt\n      iszero\n        /* \"@openzeppelin/contracts/token/ERC20/ERC20.sol\":7855:7927  require(fromBalance >= amount, \"ERC20: transfer amount exceeds balance\") */\n      tag_232\n      jumpi\n      mload(0x40)\n      0x08c379a000000000000000000000000000000000000000000000000000000000\n      dup2\n      mstore\n      0x04\n      add\n      tag_233\n      swap1\n      tag_234\n      jump\t// in\n    tag_233:\n      mload(0x40)\n      dup1\n      swap2\n      sub\n      swap1\n      revert\n    tag_232:\n        /* \"@openzeppelin/contracts/token/ERC20/ERC20.sol\":7993:7999  amount */\n      dup2\n        /* \"@openzeppelin/contracts/token/ERC20/ERC20.sol\":7979:7990  fromBalance */\n      dup2\n        /* \"@openzeppelin/contracts/token/ERC20/ERC20.sol\":7979:7999  fromBalance - amount */\n      sub\n        /* \"@openzeppelin/contracts/token/ERC20/ERC20.sol\":7961:7970  _balances */\n      0x00\n        /* \"@openzeppelin/contracts/token/ERC20/ERC20.sol\":7961:7976  _balances[from] */\n      dup1\n        /* \"@openzeppelin/contracts/token/ERC20/ERC20.sol\":7971:7975  from */\n      dup7\n        /* \"@openzeppelin/contracts/token/ERC20/ERC20.sol\":7961:7976  _balances[from] */\n      0xffffffffffffffffffffffffffffffffffffffff\n      and\n      0xffffffffffffffffffffffffffffffffffffffff\n      and\n      dup2\n      mstore\n      0x20\n      add\n      swap1\n      dup2\n      mstore\n      0x20\n      add\n      0x00\n      keccak256\n        /* \"@openzeppelin/contracts/token/ERC20/ERC20.sol\":7961:7999  _balances[from] = fromBalance - amount */\n      dup2\n      swap1\n      sstore\n      pop\n        /* \"@openzeppelin/contracts/token/ERC20/ERC20.sol\":8036:8042  amount */\n      dup2\n        /* \"@openzeppelin/contracts/token/ERC20/ERC20.sol\":8019:8028  _balances */\n      0x00\n        /* \"@openzeppelin/contracts/token/ERC20/ERC20.sol\":8019:8032  _balances[to] */\n      dup1\n        /* \"@openzeppelin/contracts/token/ERC20/ERC20.sol\":8029:8031  to */\n      dup6\n        /* \"@openzeppelin/contracts/token/ERC20/ERC20.sol\":8019:8032  _balances[to] */\n      0xffffffffffffffffffffffffffffffffffffffff\n      and\n      0xffffffffffffffffffffffffffffffffffffffff\n      and\n      dup2\n      mstore\n      0x20\n      add\n      swap1\n      dup2\n      mstore\n      0x20\n      add\n      0x00\n      keccak256\n      0x00\n        /* \"@openzeppelin/contracts/token/ERC20/ERC20.sol\":8019:8042  _balances[to] += amount */\n      dup3\n      dup3\n      sload\n      tag_235\n      swap2\n      swap1\n      tag_155\n      jump\t// in\n    tag_235:\n      swap3\n      pop\n      pop\n      dup2\n      swap1\n      sstore\n      pop\n        /* \"@openzeppelin/contracts/token/ERC20/ERC20.sol\":8073:8075  to */\n      dup3\n        /* \"@openzeppelin/contracts/token/ERC20/ERC20.sol\":8058:8084  Transfer(from, to, amount) */\n      0xffffffffffffffffffffffffffffffffffffffff\n      and\n        /* \"@openzeppelin/contracts/token/ERC20/ERC20.sol\":8067:8071  from */\n      dup5\n        /* \"@openzeppelin/contracts/token/ERC20/ERC20.sol\":8058:8084  Transfer(from, to, amount) */\n      0xffffffffffffffffffffffffffffffffffffffff\n      and\n      0xddf252ad1be2c89b69c2b068fc378daa952ba7f163c4a11628f55a4df523b3ef\n        /* \"@openzeppelin/contracts/token/ERC20/ERC20.sol\":8077:8083  amount */\n      dup5\n        /* \"@openzeppelin/contracts/token/ERC20/ERC20.sol\":8058:8084  Transfer(from, to, amount) */\n      mload(0x40)\n      tag_236\n      swap2\n      swap1\n      tag_39\n      jump\t// in\n    tag_236:\n      mload(0x40)\n      dup1\n      swap2\n      sub\n      swap1\n      log3\n        /* \"@openzeppelin/contracts/token/ERC20/ERC20.sol\":8095:8132  _afterTokenTransfer(from, to, amount) */\n      tag_237\n        /* \"@openzeppelin/contracts/token/ERC20/ERC20.sol\":8115:8119  from */\n      dup5\n        /* \"@openzeppelin/contracts/token/ERC20/ERC20.sol\":8121:8123  to */\n      dup5\n        /* \"@openzeppelin/contracts/token/ERC20/ERC20.sol\":8125:8131  amount */\n      dup5\n        /* \"@openzeppelin/contracts/token/ERC20/ERC20.sol\":8095:8114  _afterTokenTransfer */\n      tag_238\n        /* \"@openzeppelin/contracts/token/ERC20/ERC20.sol\":8095:8132  _afterTokenTransfer(from, to, amount) */\n      jump\t// in\n    tag_237:\n        /* \"@openzeppelin/contracts/token/ERC20/ERC20.sol\":7488:8139  function _transfer(... */\n      pop\n      pop\n      pop\n      pop\n      jump\t// out\n        /* \"@openzeppelin/contracts/token/ERC20/ERC20.sol\":8415:8804  function _mint(address account, uint256 amount) internal virtual {... */\n    tag_164:\n        /* \"@openzeppelin/contracts/token/ERC20/ERC20.sol\":8517:8518  0 */\n      0x00\n        /* \"@openzeppelin/contracts/token/ERC20/ERC20.sol\":8498:8519  account != address(0) */\n      0xffffffffffffffffffffffffffffffffffffffff\n      and\n        /* \"@openzeppelin/contracts/token/ERC20/ERC20.sol\":8498:8505  account */\n      dup3\n        /* \"@openzeppelin/contracts/token/ERC20/ERC20.sol\":8498:8519  account != address(0) */\n      0xffffffffffffffffffffffffffffffffffffffff\n      and\n      eq\n      iszero\n        /* \"@openzeppelin/contracts/token/ERC20/ERC20.sol\":8490:8555  require(account != address(0), \"ERC20: mint to the zero address\") */\n      tag_240\n      jumpi\n      mload(0x40)\n      0x08c379a000000000000000000000000000000000000000000000000000000000\n      dup2\n      mstore\n      0x04\n      add\n      tag_241\n      swap1\n      tag_242\n      jump\t// in\n    tag_241:\n      mload(0x40)\n      dup1\n      swap2\n      sub\n      swap1\n      revert\n    tag_240:\n        /* \"@openzeppelin/contracts/token/ERC20/ERC20.sol\":8566:8615  _beforeTokenTransfer(address(0), account, amount) */\n      tag_243\n        /* \"@openzeppelin/contracts/token/ERC20/ERC20.sol\":8595:8596  0 */\n      0x00\n        /* \"@openzeppelin/contracts/token/ERC20/ERC20.sol\":8599:8606  account */\n      dup4\n        /* \"@openzeppelin/contracts/token/ERC20/ERC20.sol\":8608:8614  amount */\n      dup4\n        /* \"@openzeppelin/contracts/token/ERC20/ERC20.sol\":8566:8586  _beforeTokenTransfer */\n      tag_231\n        /* \"@openzeppelin/contracts/token/ERC20/ERC20.sol\":8566:8615  _beforeTokenTransfer(address(0), account, amount) */\n      jump\t// in\n    tag_243:\n        /* \"@openzeppelin/contracts/token/ERC20/ERC20.sol\":8642:8648  amount */\n      dup1\n        /* \"@openzeppelin/contracts/token/ERC20/ERC20.sol\":8626:8638  _totalSupply */\n      0x02\n      0x00\n        /* \"@openzeppelin/contracts/token/ERC20/ERC20.sol\":8626:8648  _totalSupply += amount */\n      dup3\n      dup3\n      sload\n      tag_244\n      swap2\n      swap1\n      tag_155\n      jump\t// in\n    tag_244:\n      swap3\n      pop\n      pop\n      dup2\n      swap1\n      sstore\n      pop\n        /* \"@openzeppelin/contracts/token/ERC20/ERC20.sol\":8680:8686  amount */\n      dup1\n        /* \"@openzeppelin/contracts/token/ERC20/ERC20.sol\":8658:8667  _balances */\n      0x00\n        /* \"@openzeppelin/contracts/token/ERC20/ERC20.sol\":8658:8676  _balances[account] */\n      dup1\n        /* \"@openzeppelin/contracts/token/ERC20/ERC20.sol\":8668:8675  account */\n      dup5\n        /* \"@openzeppelin/contracts/token/ERC20/ERC20.sol\":8658:8676  _balances[account] */\n      0xffffffffffffffffffffffffffffffffffffffff\n      and\n      0xffffffffffffffffffffffffffffffffffffffff\n      and\n      dup2\n      mstore\n      0x20\n      add\n      swap1\n      dup2\n      mstore\n      0x20\n      add\n      0x00\n      keccak256\n      0x00\n        /* \"@openzeppelin/contracts/token/ERC20/ERC20.sol\":8658:8686  _balances[account] += amount */\n      dup3\n      dup3\n      sload\n      tag_245\n      swap2\n      swap1\n      tag_155\n      jump\t// in\n    tag_245:\n      swap3\n      pop\n      pop\n      dup2\n      swap1\n      sstore\n      pop\n        /* \"@openzeppelin/contracts/token/ERC20/ERC20.sol\":8722:8729  account */\n      dup2\n        /* \"@openzeppelin/contracts/token/ERC20/ERC20.sol\":8701:8738  Transfer(address(0), account, amount) */\n      0xffffffffffffffffffffffffffffffffffffffff\n      and\n        /* \"@openzeppelin/contracts/token/ERC20/ERC20.sol\":8718:8719  0 */\n      0x00\n        /* \"@openzeppelin/contracts/token/ERC20/ERC20.sol\":8701:8738  Transfer(address(0), account, amount) */\n      0xffffffffffffffffffffffffffffffffffffffff\n      and\n      0xddf252ad1be2c89b69c2b068fc378daa952ba7f163c4a11628f55a4df523b3ef\n        /* \"@openzeppelin/contracts/token/ERC20/ERC20.sol\":8731:8737  amount */\n      dup4\n        /* \"@openzeppelin/contracts/token/ERC20/ERC20.sol\":8701:8738  Transfer(address(0), account, amount) */\n      mload(0x40)\n      tag_246\n      swap2\n      swap1\n      tag_39\n      jump\t// in\n    tag_246:\n      mload(0x40)\n      dup1\n      swap2\n      sub\n      swap1\n      log3\n        /* \"@openzeppelin/contracts/token/ERC20/ERC20.sol\":8749:8797  _afterTokenTransfer(address(0), account, amount) */\n      tag_247\n        /* \"@openzeppelin/contracts/token/ERC20/ERC20.sol\":8777:8778  0 */\n      0x00\n        /* \"@openzeppelin/contracts/token/ERC20/ERC20.sol\":8781:8788  account */\n      dup4\n        /* \"@openzeppelin/contracts/token/ERC20/ERC20.sol\":8790:8796  amount */\n      dup4\n        /* \"@openzeppelin/contracts/token/ERC20/ERC20.sol\":8749:8768  _afterTokenTransfer */\n      tag_238\n        /* \"@openzeppelin/contracts/token/ERC20/ERC20.sol\":8749:8797  _afterTokenTransfer(address(0), account, amount) */\n      jump\t// in\n    tag_247:\n        /* \"@openzeppelin/contracts/token/ERC20/ERC20.sol\":8415:8804  function _mint(address account, uint256 amount) internal virtual {... */\n      pop\n      pop\n      jump\t// out\n        /* \"@openzeppelin/contracts/access/Ownable.sol\":2270:2457  function _transferOwnership(address newOwner) internal virtual {... */\n    tag_173:\n        /* \"@openzeppelin/contracts/access/Ownable.sol\":2343:2359  address oldOwner */\n      0x00\n        /* \"@openzeppelin/contracts/access/Ownable.sol\":2362:2368  _owner */\n      0x05\n      0x00\n      swap1\n      sload\n      swap1\n      0x0100\n      exp\n      swap1\n      div\n      0xffffffffffffffffffffffffffffffffffffffff\n      and\n        /* \"@openzeppelin/contracts/access/Ownable.sol\":2343:2368  address oldOwner = _owner */\n      swap1\n      pop\n        /* \"@openzeppelin/contracts/access/Ownable.sol\":2387:2395  newOwner */\n      dup2\n        /* \"@openzeppelin/contracts/access/Ownable.sol\":2378:2384  _owner */\n      0x05\n      0x00\n        /* \"@openzeppelin/contracts/access/Ownable.sol\":2378:2395  _owner = newOwner */\n      0x0100\n      exp\n      dup2\n      sload\n      dup2\n      0xffffffffffffffffffffffffffffffffffffffff\n      mul\n      not\n      and\n      swap1\n      dup4\n      0xffffffffffffffffffffffffffffffffffffffff\n      and\n      mul\n      or\n      swap1\n      sstore\n      pop\n        /* \"@openzeppelin/contracts/access/Ownable.sol\":2441:2449  newOwner */\n      dup2\n        /* \"@openzeppelin/contracts/access/Ownable.sol\":2410:2450  OwnershipTransferred(oldOwner, newOwner) */\n      0xffffffffffffffffffffffffffffffffffffffff\n      and\n        /* \"@openzeppelin/contracts/access/Ownable.sol\":2431:2439  oldOwner */\n      dup2\n        /* \"@openzeppelin/contracts/access/Ownable.sol\":2410:2450  OwnershipTransferred(oldOwner, newOwner) */\n      0xffffffffffffffffffffffffffffffffffffffff\n      and\n      0x8be0079c531659141344cd1fd0a4f28419497f9722a3daafe3b4186f6b6457e0\n      mload(0x40)\n      mload(0x40)\n      dup1\n      swap2\n      sub\n      swap1\n      log3\n        /* \"@openzeppelin/contracts/access/Ownable.sol\":2270:2457  function _transferOwnership(address newOwner) internal virtual {... */\n      pop\n      pop\n      jump\t// out\n        /* \"@openzeppelin/contracts/token/ERC20/ERC20.sol\":11795:11916  function _beforeTokenTransfer(... */\n    tag_231:\n      pop\n      pop\n      pop\n      jump\t// out\n        /* \"@openzeppelin/contracts/token/ERC20/ERC20.sol\":12504:12624  function _afterTokenTransfer(... */\n    tag_238:\n      pop\n      pop\n      pop\n      jump\t// out\n        /* \"#utility.yul\":7:146   */\n    tag_252:\n      0x00\n        /* \"#utility.yul\":91:97   */\n      dup2\n        /* \"#utility.yul\":78:98   */\n      calldataload\n        /* \"#utility.yul\":69:98   */\n      swap1\n      pop\n        /* \"#utility.yul\":107:140   */\n      tag_254\n        /* \"#utility.yul\":134:139   */\n      dup2\n        /* \"#utility.yul\":107:140   */\n      tag_255\n      jump\t// in\n    tag_254:\n        /* \"#utility.yul\":59:146   */\n      swap3\n      swap2\n      pop\n      pop\n      jump\t// out\n        /* \"#utility.yul\":152:307   */\n    tag_256:\n      0x00\n        /* \"#utility.yul\":244:250   */\n      dup2\n        /* \"#utility.yul\":231:251   */\n      calldataload\n        /* \"#utility.yul\":222:251   */\n      swap1\n      pop\n        /* \"#utility.yul\":260:301   */\n      tag_258\n        /* \"#utility.yul\":295:300   */\n      dup2\n        /* \"#utility.yul\":260:301   */\n      tag_259\n      jump\t// in\n    tag_258:\n        /* \"#utility.yul\":212:307   */\n      swap3\n      swap2\n      pop\n      pop\n      jump\t// out\n        /* \"#utility.yul\":313:452   */\n    tag_260:\n      0x00\n        /* \"#utility.yul\":397:403   */\n      dup2\n        /* \"#utility.yul\":384:404   */\n      calldataload\n        /* \"#utility.yul\":375:404   */\n      swap1\n      pop\n        /* \"#utility.yul\":413:446   */\n      tag_262\n        /* \"#utility.yul\":440:445   */\n      dup2\n        /* \"#utility.yul\":413:446   */\n      tag_263\n      jump\t// in\n    tag_262:\n        /* \"#utility.yul\":365:452   */\n      swap3\n      swap2\n      pop\n      pop\n      jump\t// out\n        /* \"#utility.yul\":458:720   */\n    tag_36:\n      0x00\n        /* \"#utility.yul\":566:568   */\n      0x20\n        /* \"#utility.yul\":554:563   */\n      dup3\n        /* \"#utility.yul\":545:552   */\n      dup5\n        /* \"#utility.yul\":541:564   */\n      sub\n        /* \"#utility.yul\":537:569   */\n      slt\n        /* \"#utility.yul\":534:536   */\n      iszero\n      tag_265\n      jumpi\n        /* \"#utility.yul\":582:583   */\n      0x00\n        /* \"#utility.yul\":579:580   */\n      dup1\n        /* \"#utility.yul\":572:584   */\n      revert\n        /* \"#utility.yul\":534:536   */\n    tag_265:\n        /* \"#utility.yul\":625:626   */\n      0x00\n        /* \"#utility.yul\":650:703   */\n      tag_266\n        /* \"#utility.yul\":695:702   */\n      dup5\n        /* \"#utility.yul\":686:692   */\n      dup3\n        /* \"#utility.yul\":675:684   */\n      dup6\n        /* \"#utility.yul\":671:693   */\n      add\n        /* \"#utility.yul\":650:703   */\n      tag_252\n      jump\t// in\n    tag_266:\n        /* \"#utility.yul\":640:703   */\n      swap2\n      pop\n        /* \"#utility.yul\":596:713   */\n      pop\n        /* \"#utility.yul\":524:720   */\n      swap3\n      swap2\n      pop\n      pop\n      jump\t// out\n        /* \"#utility.yul\":726:1149   */\n    tag_48:\n      0x00\n      dup1\n        /* \"#utility.yul\":859:861   */\n      0x40\n        /* \"#utility.yul\":847:856   */\n      dup4\n        /* \"#utility.yul\":838:845   */\n      dup6\n        /* \"#utility.yul\":834:857   */\n      sub\n        /* \"#utility.yul\":830:862   */\n      slt\n        /* \"#utility.yul\":827:829   */\n      iszero\n      tag_268\n      jumpi\n        /* \"#utility.yul\":875:876   */\n      0x00\n        /* \"#utility.yul\":872:873   */\n      dup1\n        /* \"#utility.yul\":865:877   */\n      revert\n        /* \"#utility.yul\":827:829   */\n    tag_268:\n        /* \"#utility.yul\":918:919   */\n      0x00\n        /* \"#utility.yul\":943:1004   */\n      tag_269\n        /* \"#utility.yul\":996:1003   */\n      dup6\n        /* \"#utility.yul\":987:993   */\n      dup3\n        /* \"#utility.yul\":976:985   */\n      dup7\n        /* \"#utility.yul\":972:994   */\n      add\n        /* \"#utility.yul\":943:1004   */\n      tag_256\n      jump\t// in\n    tag_269:\n        /* \"#utility.yul\":933:1004   */\n      swap3\n      pop\n        /* \"#utility.yul\":889:1014   */\n      pop\n        /* \"#utility.yul\":1053:1055   */\n      0x20\n        /* \"#utility.yul\":1079:1132   */\n      tag_270\n        /* \"#utility.yul\":1124:1131   */\n      dup6\n        /* \"#utility.yul\":1115:1121   */\n      dup3\n        /* \"#utility.yul\":1104:1113   */\n      dup7\n        /* \"#utility.yul\":1100:1122   */\n      add\n        /* \"#utility.yul\":1079:1132   */\n      tag_260\n      jump\t// in\n    tag_270:\n        /* \"#utility.yul\":1069:1132   */\n      swap2\n      pop\n        /* \"#utility.yul\":1024:1142   */\n      pop\n        /* \"#utility.yul\":817:1149   */\n      swap3\n      pop\n      swap3\n      swap1\n      pop\n      jump\t// out\n        /* \"#utility.yul\":1155:1562   */\n    tag_113:\n      0x00\n      dup1\n        /* \"#utility.yul\":1280:1282   */\n      0x40\n        /* \"#utility.yul\":1268:1277   */\n      dup4\n        /* \"#utility.yul\":1259:1266   */\n      dup6\n        /* \"#utility.yul\":1255:1278   */\n      sub\n        /* \"#utility.yul\":1251:1283   */\n      slt\n        /* \"#utility.yul\":1248:1250   */\n      iszero\n      tag_272\n      jumpi\n        /* \"#utility.yul\":1296:1297   */\n      0x00\n        /* \"#utility.yul\":1293:1294   */\n      dup1\n        /* \"#utility.yul\":1286:1298   */\n      revert\n        /* \"#utility.yul\":1248:1250   */\n    tag_272:\n        /* \"#utility.yul\":1339:1340   */\n      0x00\n        /* \"#utility.yul\":1364:1417   */\n      tag_273\n        /* \"#utility.yul\":1409:1416   */\n      dup6\n        /* \"#utility.yul\":1400:1406   */\n      dup3\n        /* \"#utility.yul\":1389:1398   */\n      dup7\n        /* \"#utility.yul\":1385:1407   */\n      add\n        /* \"#utility.yul\":1364:1417   */\n      tag_252\n      jump\t// in\n    tag_273:\n        /* \"#utility.yul\":1354:1417   */\n      swap3\n      pop\n        /* \"#utility.yul\":1310:1427   */\n      pop\n        /* \"#utility.yul\":1466:1468   */\n      0x20\n        /* \"#utility.yul\":1492:1545   */\n      tag_274\n        /* \"#utility.yul\":1537:1544   */\n      dup6\n        /* \"#utility.yul\":1528:1534   */\n      dup3\n        /* \"#utility.yul\":1517:1526   */\n      dup7\n        /* \"#utility.yul\":1513:1535   */\n      add\n        /* \"#utility.yul\":1492:1545   */\n      tag_252\n      jump\t// in\n    tag_274:\n        /* \"#utility.yul\":1482:1545   */\n      swap2\n      pop\n        /* \"#utility.yul\":1437:1555   */\n      pop\n        /* \"#utility.yul\":1238:1562   */\n      swap3\n      pop\n      swap3\n      swap1\n      pop\n      jump\t// out\n        /* \"#utility.yul\":1568:2120   */\n    tag_55:\n      0x00\n      dup1\n      0x00\n        /* \"#utility.yul\":1710:1712   */\n      0x60\n        /* \"#utility.yul\":1698:1707   */\n      dup5\n        /* \"#utility.yul\":1689:1696   */\n      dup7\n        /* \"#utility.yul\":1685:1708   */\n      sub\n        /* \"#utility.yul\":1681:1713   */\n      slt\n        /* \"#utility.yul\":1678:1680   */\n      iszero\n      tag_276\n      jumpi\n        /* \"#utility.yul\":1726:1727   */\n      0x00\n        /* \"#utility.yul\":1723:1724   */\n      dup1\n        /* \"#utility.yul\":1716:1728   */\n      revert\n        /* \"#utility.yul\":1678:1680   */\n    tag_276:\n        /* \"#utility.yul\":1769:1770   */\n      0x00\n        /* \"#utility.yul\":1794:1847   */\n      tag_277\n        /* \"#utility.yul\":1839:1846   */\n      dup7\n        /* \"#utility.yul\":1830:1836   */\n      dup3\n        /* \"#utility.yul\":1819:1828   */\n      dup8\n        /* \"#utility.yul\":1815:1837   */\n      add\n        /* \"#utility.yul\":1794:1847   */\n      tag_252\n      jump\t// in\n    tag_277:\n        /* \"#utility.yul\":1784:1847   */\n      swap4\n      pop\n        /* \"#utility.yul\":1740:1857   */\n      pop\n        /* \"#utility.yul\":1896:1898   */\n      0x20\n        /* \"#utility.yul\":1922:1975   */\n      tag_278\n        /* \"#utility.yul\":1967:1974   */\n      dup7\n        /* \"#utility.yul\":1958:1964   */\n      dup3\n        /* \"#utility.yul\":1947:1956   */\n      dup8\n        /* \"#utility.yul\":1943:1965   */\n      add\n        /* \"#utility.yul\":1922:1975   */\n      tag_252\n      jump\t// in\n    tag_278:\n        /* \"#utility.yul\":1912:1975   */\n      swap3\n      pop\n        /* \"#utility.yul\":1867:1985   */\n      pop\n        /* \"#utility.yul\":2024:2026   */\n      0x40\n        /* \"#utility.yul\":2050:2103   */\n      tag_279\n        /* \"#utility.yul\":2095:2102   */\n      dup7\n        /* \"#utility.yul\":2086:2092   */\n      dup3\n        /* \"#utility.yul\":2075:2084   */\n      dup8\n        /* \"#utility.yul\":2071:2093   */\n      add\n        /* \"#utility.yul\":2050:2103   */\n      tag_260\n      jump\t// in\n    tag_279:\n        /* \"#utility.yul\":2040:2103   */\n      swap2\n      pop\n        /* \"#utility.yul\":1995:2113   */\n      pop\n        /* \"#utility.yul\":1668:2120   */\n      swap3\n      pop\n      swap3\n      pop\n      swap3\n      jump\t// out\n        /* \"#utility.yul\":2126:2533   */\n    tag_42:\n      0x00\n      dup1\n        /* \"#utility.yul\":2251:2253   */\n      0x40\n        /* \"#utility.yul\":2239:2248   */\n      dup4\n        /* \"#utility.yul\":2230:2237   */\n      dup6\n        /* \"#utility.yul\":2226:2249   */\n      sub\n        /* \"#utility.yul\":2222:2254   */\n      slt\n        /* \"#utility.yul\":2219:2221   */\n      iszero\n      tag_281\n      jumpi\n        /* \"#utility.yul\":2267:2268   */\n      0x00\n        /* \"#utility.yul\":2264:2265   */\n      dup1\n        /* \"#utility.yul\":2257:2269   */\n      revert\n        /* \"#utility.yul\":2219:2221   */\n    tag_281:\n        /* \"#utility.yul\":2310:2311   */\n      0x00\n        /* \"#utility.yul\":2335:2388   */\n      tag_282\n        /* \"#utility.yul\":2380:2387   */\n      dup6\n        /* \"#utility.yul\":2371:2377   */\n      dup3\n        /* \"#utility.yul\":2360:2369   */\n      dup7\n        /* \"#utility.yul\":2356:2378   */\n      add\n        /* \"#utility.yul\":2335:2388   */\n      tag_252\n      jump\t// in\n    tag_282:\n        /* \"#utility.yul\":2325:2388   */\n      swap3\n      pop\n        /* \"#utility.yul\":2281:2398   */\n      pop\n        /* \"#utility.yul\":2437:2439   */\n      0x20\n        /* \"#utility.yul\":2463:2516   */\n      tag_283\n        /* \"#utility.yul\":2508:2515   */\n      dup6\n        /* \"#utility.yul\":2499:2505   */\n      dup3\n        /* \"#utility.yul\":2488:2497   */\n      dup7\n        /* \"#utility.yul\":2484:2506   */\n      add\n        /* \"#utility.yul\":2463:2516   */\n      tag_260\n      jump\t// in\n    tag_283:\n        /* \"#utility.yul\":2453:2516   */\n      swap2\n      pop\n        /* \"#utility.yul\":2408:2526   */\n      pop\n        /* \"#utility.yul\":2209:2533   */\n      swap3\n      pop\n      swap3\n      swap1\n      pop\n      jump\t// out\n        /* \"#utility.yul\":2539:2830   */\n    tag_284:\n      0x00\n        /* \"#utility.yul\":2685:2787   */\n      tag_286\n        /* \"#utility.yul\":2783:2786   */\n      dup4\n        /* \"#utility.yul\":2775:2781   */\n      dup4\n        /* \"#utility.yul\":2685:2787   */\n      tag_287\n      jump\t// in\n    tag_286:\n        /* \"#utility.yul\":2819:2823   */\n      0x80\n        /* \"#utility.yul\":2814:2817   */\n      dup4\n        /* \"#utility.yul\":2810:2824   */\n      add\n        /* \"#utility.yul\":2796:2824   */\n      swap1\n      pop\n        /* \"#utility.yul\":2675:2830   */\n      swap3\n      swap2\n      pop\n      pop\n      jump\t// out\n        /* \"#utility.yul\":2836:2944   */\n    tag_288:\n        /* \"#utility.yul\":2913:2937   */\n      tag_290\n        /* \"#utility.yul\":2931:2936   */\n      dup2\n        /* \"#utility.yul\":2913:2937   */\n      tag_291\n      jump\t// in\n    tag_290:\n        /* \"#utility.yul\":2908:2911   */\n      dup3\n        /* \"#utility.yul\":2901:2938   */\n      mstore\n        /* \"#utility.yul\":2891:2944   */\n      pop\n      pop\n      jump\t// out\n        /* \"#utility.yul\":2950:3068   */\n    tag_292:\n        /* \"#utility.yul\":3037:3061   */\n      tag_294\n        /* \"#utility.yul\":3055:3060   */\n      dup2\n        /* \"#utility.yul\":3037:3061   */\n      tag_291\n      jump\t// in\n    tag_294:\n        /* \"#utility.yul\":3032:3035   */\n      dup3\n        /* \"#utility.yul\":3025:3062   */\n      mstore\n        /* \"#utility.yul\":3015:3068   */\n      pop\n      pop\n      jump\t// out\n        /* \"#utility.yul\":3154:4110   */\n    tag_295:\n      0x00\n        /* \"#utility.yul\":3358:3440   */\n      tag_297\n        /* \"#utility.yul\":3434:3439   */\n      dup3\n        /* \"#utility.yul\":3358:3440   */\n      tag_298\n      jump\t// in\n    tag_297:\n        /* \"#utility.yul\":3456:3570   */\n      tag_299\n        /* \"#utility.yul\":3563:3569   */\n      dup2\n        /* \"#utility.yul\":3558:3561   */\n      dup6\n        /* \"#utility.yul\":3456:3570   */\n      tag_300\n      jump\t// in\n    tag_299:\n        /* \"#utility.yul\":3449:3570   */\n      swap4\n      pop\n        /* \"#utility.yul\":3594:3678   */\n      tag_301\n        /* \"#utility.yul\":3672:3677   */\n      dup4\n        /* \"#utility.yul\":3594:3678   */\n      tag_302\n      jump\t// in\n    tag_301:\n        /* \"#utility.yul\":3701:3708   */\n      dup1\n        /* \"#utility.yul\":3732:3733   */\n      0x00\n        /* \"#utility.yul\":3717:4085   */\n    tag_303:\n        /* \"#utility.yul\":3742:3748   */\n      dup4\n        /* \"#utility.yul\":3739:3740   */\n      dup2\n        /* \"#utility.yul\":3736:3749   */\n      lt\n        /* \"#utility.yul\":3717:4085   */\n      iszero\n      tag_305\n      jumpi\n        /* \"#utility.yul\":3818:3824   */\n      dup2\n        /* \"#utility.yul\":3812:3825   */\n      mload\n        /* \"#utility.yul\":3845:3964   */\n      tag_306\n        /* \"#utility.yul\":3960:3963   */\n      dup9\n        /* \"#utility.yul\":3945:3958   */\n      dup3\n        /* \"#utility.yul\":3845:3964   */\n      tag_284\n      jump\t// in\n    tag_306:\n        /* \"#utility.yul\":3838:3964   */\n      swap8\n      pop\n        /* \"#utility.yul\":3987:4075   */\n      tag_307\n        /* \"#utility.yul\":4068:4074   */\n      dup4\n        /* \"#utility.yul\":3987:4075   */\n      tag_308\n      jump\t// in\n    tag_307:\n        /* \"#utility.yul\":3977:4075   */\n      swap3\n      pop\n        /* \"#utility.yul\":3777:4085   */\n      pop\n        /* \"#utility.yul\":3764:3765   */\n      0x01\n        /* \"#utility.yul\":3761:3762   */\n      dup2\n        /* \"#utility.yul\":3757:3766   */\n      add\n        /* \"#utility.yul\":3752:3766   */\n      swap1\n      pop\n        /* \"#utility.yul\":3717:4085   */\n      jump(tag_303)\n    tag_305:\n        /* \"#utility.yul\":3721:3735   */\n      pop\n        /* \"#utility.yul\":4101:4104   */\n      dup6\n        /* \"#utility.yul\":4094:4104   */\n      swap4\n      pop\n        /* \"#utility.yul\":3334:4110   */\n      pop\n      pop\n      pop\n      swap3\n      swap2\n      pop\n      pop\n      jump\t// out\n        /* \"#utility.yul\":4116:4225   */\n    tag_309:\n        /* \"#utility.yul\":4197:4218   */\n      tag_311\n        /* \"#utility.yul\":4212:4217   */\n      dup2\n        /* \"#utility.yul\":4197:4218   */\n      tag_312\n      jump\t// in\n    tag_311:\n        /* \"#utility.yul\":4192:4195   */\n      dup3\n        /* \"#utility.yul\":4185:4219   */\n      mstore\n        /* \"#utility.yul\":4175:4225   */\n      pop\n      pop\n      jump\t// out\n        /* \"#utility.yul\":4231:4595   */\n    tag_313:\n      0x00\n        /* \"#utility.yul\":4347:4386   */\n      tag_315\n        /* \"#utility.yul\":4380:4385   */\n      dup3\n        /* \"#utility.yul\":4347:4386   */\n      tag_316\n      jump\t// in\n    tag_315:\n        /* \"#utility.yul\":4402:4473   */\n      tag_317\n        /* \"#utility.yul\":4466:4472   */\n      dup2\n        /* \"#utility.yul\":4461:4464   */\n      dup6\n        /* \"#utility.yul\":4402:4473   */\n      tag_318\n      jump\t// in\n    tag_317:\n        /* \"#utility.yul\":4395:4473   */\n      swap4\n      pop\n        /* \"#utility.yul\":4482:4534   */\n      tag_319\n        /* \"#utility.yul\":4527:4533   */\n      dup2\n        /* \"#utility.yul\":4522:4525   */\n      dup6\n        /* \"#utility.yul\":4515:4519   */\n      0x20\n        /* \"#utility.yul\":4508:4513   */\n      dup7\n        /* \"#utility.yul\":4504:4520   */\n      add\n        /* \"#utility.yul\":4482:4534   */\n      tag_320\n      jump\t// in\n    tag_319:\n        /* \"#utility.yul\":4559:4588   */\n      tag_321\n        /* \"#utility.yul\":4581:4587   */\n      dup2\n        /* \"#utility.yul\":4559:4588   */\n      tag_322\n      jump\t// in\n    tag_321:\n        /* \"#utility.yul\":4554:4557   */\n      dup5\n        /* \"#utility.yul\":4550:4589   */\n      add\n        /* \"#utility.yul\":4543:4589   */\n      swap2\n      pop\n        /* \"#utility.yul\":4323:4595   */\n      pop\n      swap3\n      swap2\n      pop\n      pop\n      jump\t// out\n        /* \"#utility.yul\":4601:4968   */\n    tag_323:\n      0x00\n        /* \"#utility.yul\":4764:4831   */\n      tag_325\n        /* \"#utility.yul\":4828:4830   */\n      0x23\n        /* \"#utility.yul\":4823:4826   */\n      dup4\n        /* \"#utility.yul\":4764:4831   */\n      tag_318\n      jump\t// in\n    tag_325:\n        /* \"#utility.yul\":4757:4831   */\n      swap2\n      pop\n        /* \"#utility.yul\":4861:4895   */\n      0x45524332303a207472616e7366657220746f20746865207a65726f2061646472\n        /* \"#utility.yul\":4857:4858   */\n      0x00\n        /* \"#utility.yul\":4852:4855   */\n      dup4\n        /* \"#utility.yul\":4848:4859   */\n      add\n        /* \"#utility.yul\":4841:4896   */\n      mstore\n        /* \"#utility.yul\":4927:4932   */\n      0x6573730000000000000000000000000000000000000000000000000000000000\n        /* \"#utility.yul\":4922:4924   */\n      0x20\n        /* \"#utility.yul\":4917:4920   */\n      dup4\n        /* \"#utility.yul\":4913:4925   */\n      add\n        /* \"#utility.yul\":4906:4933   */\n      mstore\n        /* \"#utility.yul\":4959:4961   */\n      0x40\n        /* \"#utility.yul\":4954:4957   */\n      dup3\n        /* \"#utility.yul\":4950:4962   */\n      add\n        /* \"#utility.yul\":4943:4962   */\n      swap1\n      pop\n        /* \"#utility.yul\":4747:4968   */\n      swap2\n      swap1\n      pop\n      jump\t// out\n        /* \"#utility.yul\":4974:5344   */\n    tag_326:\n      0x00\n        /* \"#utility.yul\":5137:5204   */\n      tag_328\n        /* \"#utility.yul\":5201:5203   */\n      0x26\n        /* \"#utility.yul\":5196:5199   */\n      dup4\n        /* \"#utility.yul\":5137:5204   */\n      tag_318\n      jump\t// in\n    tag_328:\n        /* \"#utility.yul\":5130:5204   */\n      swap2\n      pop\n        /* \"#utility.yul\":5234:5268   */\n      0x4f776e61626c653a206e6577206f776e657220697320746865207a65726f2061\n        /* \"#utility.yul\":5230:5231   */\n      0x00\n        /* \"#utility.yul\":5225:5228   */\n      dup4\n        /* \"#utility.yul\":5221:5232   */\n      add\n        /* \"#utility.yul\":5214:5269   */\n      mstore\n        /* \"#utility.yul\":5300:5308   */\n      0x6464726573730000000000000000000000000000000000000000000000000000\n        /* \"#utility.yul\":5295:5297   */\n      0x20\n        /* \"#utility.yul\":5290:5293   */\n      dup4\n        /* \"#utility.yul\":5286:5298   */\n      add\n        /* \"#utility.yul\":5279:5309   */\n      mstore\n        /* \"#utility.yul\":5335:5337   */\n      0x40\n        /* \"#utility.yul\":5330:5333   */\n      dup3\n        /* \"#utility.yul\":5326:5338   */\n      add\n        /* \"#utility.yul\":5319:5338   */\n      swap1\n      pop\n        /* \"#utility.yul\":5120:5344   */\n      swap2\n      swap1\n      pop\n      jump\t// out\n        /* \"#utility.yul\":5350:5716   */\n    tag_329:\n      0x00\n        /* \"#utility.yul\":5513:5580   */\n      tag_331\n        /* \"#utility.yul\":5577:5579   */\n      0x22\n        /* \"#utility.yul\":5572:5575   */\n      dup4\n        /* \"#utility.yul\":5513:5580   */\n      tag_318\n      jump\t// in\n    tag_331:\n        /* \"#utility.yul\":5506:5580   */\n      swap2\n      pop\n        /* \"#utility.yul\":5610:5644   */\n      0x45524332303a20617070726f766520746f20746865207a65726f206164647265\n        /* \"#utility.yul\":5606:5607   */\n      0x00\n        /* \"#utility.yul\":5601:5604   */\n      dup4\n        /* \"#utility.yul\":5597:5608   */\n      add\n        /* \"#utility.yul\":5590:5645   */\n      mstore\n        /* \"#utility.yul\":5676:5680   */\n      0x7373000000000000000000000000000000000000000000000000000000000000\n        /* \"#utility.yul\":5671:5673   */\n      0x20\n        /* \"#utility.yul\":5666:5669   */\n      dup4\n        /* \"#utility.yul\":5662:5674   */\n      add\n        /* \"#utility.yul\":5655:5681   */\n      mstore\n        /* \"#utility.yul\":5707:5709   */\n      0x40\n        /* \"#utility.yul\":5702:5705   */\n      dup3\n        /* \"#utility.yul\":5698:5710   */\n      add\n        /* \"#utility.yul\":5691:5710   */\n      swap1\n      pop\n        /* \"#utility.yul\":5496:5716   */\n      swap2\n      swap1\n      pop\n      jump\t// out\n        /* \"#utility.yul\":5722:6049   */\n    tag_332:\n      0x00\n        /* \"#utility.yul\":5885:5952   */\n      tag_334\n        /* \"#utility.yul\":5949:5951   */\n      0x1d\n        /* \"#utility.yul\":5944:5947   */\n      dup4\n        /* \"#utility.yul\":5885:5952   */\n      tag_318\n      jump\t// in\n    tag_334:\n        /* \"#utility.yul\":5878:5952   */\n      swap2\n      pop\n        /* \"#utility.yul\":5982:6013   */\n      0x45524332303a20696e73756666696369656e7420616c6c6f77616e6365000000\n        /* \"#utility.yul\":5978:5979   */\n      0x00\n        /* \"#utility.yul\":5973:5976   */\n      dup4\n        /* \"#utility.yul\":5969:5980   */\n      add\n        /* \"#utility.yul\":5962:6014   */\n      mstore\n        /* \"#utility.yul\":6040:6042   */\n      0x20\n        /* \"#utility.yul\":6035:6038   */\n      dup3\n        /* \"#utility.yul\":6031:6043   */\n      add\n        /* \"#utility.yul\":6024:6043   */\n      swap1\n      pop\n        /* \"#utility.yul\":5868:6049   */\n      swap2\n      swap1\n      pop\n      jump\t// out\n        /* \"#utility.yul\":6055:6425   */\n    tag_335:\n      0x00\n        /* \"#utility.yul\":6218:6285   */\n      tag_337\n        /* \"#utility.yul\":6282:6284   */\n      0x26\n        /* \"#utility.yul\":6277:6280   */\n      dup4\n        /* \"#utility.yul\":6218:6285   */\n      tag_318\n      jump\t// in\n    tag_337:\n        /* \"#utility.yul\":6211:6285   */\n      swap2\n      pop\n        /* \"#utility.yul\":6315:6349   */\n      0x45524332303a207472616e7366657220616d6f756e7420657863656564732062\n        /* \"#utility.yul\":6311:6312   */\n      0x00\n        /* \"#utility.yul\":6306:6309   */\n      dup4\n        /* \"#utility.yul\":6302:6313   */\n      add\n        /* \"#utility.yul\":6295:6350   */\n      mstore\n        /* \"#utility.yul\":6381:6389   */\n      0x616c616e63650000000000000000000000000000000000000000000000000000\n        /* \"#utility.yul\":6376:6378   */\n      0x20\n        /* \"#utility.yul\":6371:6374   */\n      dup4\n        /* \"#utility.yul\":6367:6379   */\n      add\n        /* \"#utility.yul\":6360:6390   */\n      mstore\n        /* \"#utility.yul\":6416:6418   */\n      0x40\n        /* \"#utility.yul\":6411:6414   */\n      dup3\n        /* \"#utility.yul\":6407:6419   */\n      add\n        /* \"#utility.yul\":6400:6419   */\n      swap1\n      pop\n        /* \"#utility.yul\":6201:6425   */\n      swap2\n      swap1\n      pop\n      jump\t// out\n        /* \"#utility.yul\":6431:6761   */\n    tag_338:\n      0x00\n        /* \"#utility.yul\":6594:6661   */\n      tag_340\n        /* \"#utility.yul\":6658:6660   */\n      0x20\n        /* \"#utility.yul\":6653:6656   */\n      dup4\n        /* \"#utility.yul\":6594:6661   */\n      tag_318\n      jump\t// in\n    tag_340:\n        /* \"#utility.yul\":6587:6661   */\n      swap2\n      pop\n        /* \"#utility.yul\":6691:6725   */\n      0x4f776e61626c653a2063616c6c6572206973206e6f7420746865206f776e6572\n        /* \"#utility.yul\":6687:6688   */\n      0x00\n        /* \"#utility.yul\":6682:6685   */\n      dup4\n        /* \"#utility.yul\":6678:6689   */\n      add\n        /* \"#utility.yul\":6671:6726   */\n      mstore\n        /* \"#utility.yul\":6752:6754   */\n      0x20\n        /* \"#utility.yul\":6747:6750   */\n      dup3\n        /* \"#utility.yul\":6743:6755   */\n      add\n        /* \"#utility.yul\":6736:6755   */\n      swap1\n      pop\n        /* \"#utility.yul\":6577:6761   */\n      swap2\n      swap1\n      pop\n      jump\t// out\n        /* \"#utility.yul\":6767:7136   */\n    tag_341:\n      0x00\n        /* \"#utility.yul\":6930:6997   */\n      tag_343\n        /* \"#utility.yul\":6994:6996   */\n      0x25\n        /* \"#utility.yul\":6989:6992   */\n      dup4\n        /* \"#utility.yul\":6930:6997   */\n      tag_318\n      jump\t// in\n    tag_343:\n        /* \"#utility.yul\":6923:6997   */\n      swap2\n      pop\n        /* \"#utility.yul\":7027:7061   */\n      0x45524332303a207472616e736665722066726f6d20746865207a65726f206164\n        /* \"#utility.yul\":7023:7024   */\n      0x00\n        /* \"#utility.yul\":7018:7021   */\n      dup4\n        /* \"#utility.yul\":7014:7025   */\n      add\n        /* \"#utility.yul\":7007:7062   */\n      mstore\n        /* \"#utility.yul\":7093:7100   */\n      0x6472657373000000000000000000000000000000000000000000000000000000\n        /* \"#utility.yul\":7088:7090   */\n      0x20\n        /* \"#utility.yul\":7083:7086   */\n      dup4\n        /* \"#utility.yul\":7079:7091   */\n      add\n        /* \"#utility.yul\":7072:7101   */\n      mstore\n        /* \"#utility.yul\":7127:7129   */\n      0x40\n        /* \"#utility.yul\":7122:7125   */\n      dup3\n        /* \"#utility.yul\":7118:7130   */\n      add\n        /* \"#utility.yul\":7111:7130   */\n      swap1\n      pop\n        /* \"#utility.yul\":6913:7136   */\n      swap2\n      swap1\n      pop\n      jump\t// out\n        /* \"#utility.yul\":7142:7510   */\n    tag_344:\n      0x00\n        /* \"#utility.yul\":7305:7372   */\n      tag_346\n        /* \"#utility.yul\":7369:7371   */\n      0x24\n        /* \"#utility.yul\":7364:7367   */\n      dup4\n        /* \"#utility.yul\":7305:7372   */\n      tag_318\n      jump\t// in\n    tag_346:\n        /* \"#utility.yul\":7298:7372   */\n      swap2\n      pop\n        /* \"#utility.yul\":7402:7436   */\n      0x45524332303a20617070726f76652066726f6d20746865207a65726f20616464\n        /* \"#utility.yul\":7398:7399   */\n      0x00\n        /* \"#utility.yul\":7393:7396   */\n      dup4\n        /* \"#utility.yul\":7389:7400   */\n      add\n        /* \"#utility.yul\":7382:7437   */\n      mstore\n        /* \"#utility.yul\":7468:7474   */\n      0x7265737300000000000000000000000000000000000000000000000000000000\n        /* \"#utility.yul\":7463:7465   */\n      0x20\n        /* \"#utility.yul\":7458:7461   */\n      dup4\n        /* \"#utility.yul\":7454:7466   */\n      add\n        /* \"#utility.yul\":7447:7475   */\n      mstore\n        /* \"#utility.yul\":7501:7503   */\n      0x40\n        /* \"#utility.yul\":7496:7499   */\n      dup3\n        /* \"#utility.yul\":7492:7504   */\n      add\n        /* \"#utility.yul\":7485:7504   */\n      swap1\n      pop\n        /* \"#utility.yul\":7288:7510   */\n      swap2\n      swap1\n      pop\n      jump\t// out\n        /* \"#utility.yul\":7516:7885   */\n    tag_347:\n      0x00\n        /* \"#utility.yul\":7679:7746   */\n      tag_349\n        /* \"#utility.yul\":7743:7745   */\n      0x25\n        /* \"#utility.yul\":7738:7741   */\n      dup4\n        /* \"#utility.yul\":7679:7746   */\n      tag_318\n      jump\t// in\n    tag_349:\n        /* \"#utility.yul\":7672:7746   */\n      swap2\n      pop\n        /* \"#utility.yul\":7776:7810   */\n      0x45524332303a2064656372656173656420616c6c6f77616e63652062656c6f77\n        /* \"#utility.yul\":7772:7773   */\n      0x00\n        /* \"#utility.yul\":7767:7770   */\n      dup4\n        /* \"#utility.yul\":7763:7774   */\n      add\n        /* \"#utility.yul\":7756:7811   */\n      mstore\n        /* \"#utility.yul\":7842:7849   */\n      0x207a65726f000000000000000000000000000000000000000000000000000000\n        /* \"#utility.yul\":7837:7839   */\n      0x20\n        /* \"#utility.yul\":7832:7835   */\n      dup4\n        /* \"#utility.yul\":7828:7840   */\n      add\n        /* \"#utility.yul\":7821:7850   */\n      mstore\n        /* \"#utility.yul\":7876:7878   */\n      0x40\n        /* \"#utility.yul\":7871:7874   */\n      dup3\n        /* \"#utility.yul\":7867:7879   */\n      add\n        /* \"#utility.yul\":7860:7879   */\n      swap1\n      pop\n        /* \"#utility.yul\":7662:7885   */\n      swap2\n      swap1\n      pop\n      jump\t// out\n        /* \"#utility.yul\":7891:8220   */\n    tag_350:\n      0x00\n        /* \"#utility.yul\":8054:8121   */\n      tag_352\n        /* \"#utility.yul\":8118:8120   */\n      0x1f\n        /* \"#utility.yul\":8113:8116   */\n      dup4\n        /* \"#utility.yul\":8054:8121   */\n      tag_318\n      jump\t// in\n    tag_352:\n        /* \"#utility.yul\":8047:8121   */\n      swap2\n      pop\n        /* \"#utility.yul\":8151:8184   */\n      0x45524332303a206d696e7420746f20746865207a65726f206164647265737300\n        /* \"#utility.yul\":8147:8148   */\n      0x00\n        /* \"#utility.yul\":8142:8145   */\n      dup4\n        /* \"#utility.yul\":8138:8149   */\n      add\n        /* \"#utility.yul\":8131:8185   */\n      mstore\n        /* \"#utility.yul\":8211:8213   */\n      0x20\n        /* \"#utility.yul\":8206:8209   */\n      dup3\n        /* \"#utility.yul\":8202:8214   */\n      add\n        /* \"#utility.yul\":8195:8214   */\n      swap1\n      pop\n        /* \"#utility.yul\":8037:8220   */\n      swap2\n      swap1\n      pop\n      jump\t// out\n        /* \"#utility.yul\":8302:9163   */\n    tag_287:\n        /* \"#utility.yul\":8445:8449   */\n      0x80\n        /* \"#utility.yul\":8440:8443   */\n      dup3\n        /* \"#utility.yul\":8436:8450   */\n      add\n        /* \"#utility.yul\":8533:8537   */\n      0x00\n        /* \"#utility.yul\":8526:8531   */\n      dup3\n        /* \"#utility.yul\":8522:8538   */\n      add\n        /* \"#utility.yul\":8516:8539   */\n      mload\n        /* \"#utility.yul\":8552:8615   */\n      tag_354\n        /* \"#utility.yul\":8609:8613   */\n      0x00\n        /* \"#utility.yul\":8604:8607   */\n      dup6\n        /* \"#utility.yul\":8600:8614   */\n      add\n        /* \"#utility.yul\":8586:8598   */\n      dup3\n        /* \"#utility.yul\":8552:8615   */\n      tag_288\n      jump\t// in\n    tag_354:\n        /* \"#utility.yul\":8460:8625   */\n      pop\n        /* \"#utility.yul\":8709:8713   */\n      0x20\n        /* \"#utility.yul\":8702:8707   */\n      dup3\n        /* \"#utility.yul\":8698:8714   */\n      add\n        /* \"#utility.yul\":8692:8715   */\n      mload\n        /* \"#utility.yul\":8728:8791   */\n      tag_355\n        /* \"#utility.yul\":8785:8789   */\n      0x20\n        /* \"#utility.yul\":8780:8783   */\n      dup6\n        /* \"#utility.yul\":8776:8790   */\n      add\n        /* \"#utility.yul\":8762:8774   */\n      dup3\n        /* \"#utility.yul\":8728:8791   */\n      tag_288\n      jump\t// in\n    tag_355:\n        /* \"#utility.yul\":8635:8801   */\n      pop\n        /* \"#utility.yul\":8885:8889   */\n      0x40\n        /* \"#utility.yul\":8878:8883   */\n      dup3\n        /* \"#utility.yul\":8874:8890   */\n      add\n        /* \"#utility.yul\":8868:8891   */\n      mload\n        /* \"#utility.yul\":8904:8967   */\n      tag_356\n        /* \"#utility.yul\":8961:8965   */\n      0x40\n        /* \"#utility.yul\":8956:8959   */\n      dup6\n        /* \"#utility.yul\":8952:8966   */\n      add\n        /* \"#utility.yul\":8938:8950   */\n      dup3\n        /* \"#utility.yul\":8904:8967   */\n      tag_357\n      jump\t// in\n    tag_356:\n        /* \"#utility.yul\":8811:8977   */\n      pop\n        /* \"#utility.yul\":9064:9068   */\n      0x60\n        /* \"#utility.yul\":9057:9062   */\n      dup3\n        /* \"#utility.yul\":9053:9069   */\n      add\n        /* \"#utility.yul\":9047:9070   */\n      mload\n        /* \"#utility.yul\":9083:9146   */\n      tag_358\n        /* \"#utility.yul\":9140:9144   */\n      0x60\n        /* \"#utility.yul\":9135:9138   */\n      dup6\n        /* \"#utility.yul\":9131:9145   */\n      add\n        /* \"#utility.yul\":9117:9129   */\n      dup3\n        /* \"#utility.yul\":9083:9146   */\n      tag_357\n      jump\t// in\n    tag_358:\n        /* \"#utility.yul\":8987:9156   */\n      pop\n        /* \"#utility.yul\":8414:9163   */\n      pop\n      pop\n      pop\n      jump\t// out\n        /* \"#utility.yul\":9169:9277   */\n    tag_357:\n        /* \"#utility.yul\":9246:9270   */\n      tag_360\n        /* \"#utility.yul\":9264:9269   */\n      dup2\n        /* \"#utility.yul\":9246:9270   */\n      tag_361\n      jump\t// in\n    tag_360:\n        /* \"#utility.yul\":9241:9244   */\n      dup3\n        /* \"#utility.yul\":9234:9271   */\n      mstore\n        /* \"#utility.yul\":9224:9277   */\n      pop\n      pop\n      jump\t// out\n        /* \"#utility.yul\":9283:9401   */\n    tag_362:\n        /* \"#utility.yul\":9370:9394   */\n      tag_364\n        /* \"#utility.yul\":9388:9393   */\n      dup2\n        /* \"#utility.yul\":9370:9394   */\n      tag_361\n      jump\t// in\n    tag_364:\n        /* \"#utility.yul\":9365:9368   */\n      dup3\n        /* \"#utility.yul\":9358:9395   */\n      mstore\n        /* \"#utility.yul\":9348:9401   */\n      pop\n      pop\n      jump\t// out\n        /* \"#utility.yul\":9407:9519   */\n    tag_365:\n        /* \"#utility.yul\":9490:9512   */\n      tag_367\n        /* \"#utility.yul\":9506:9511   */\n      dup2\n        /* \"#utility.yul\":9490:9512   */\n      tag_368\n      jump\t// in\n    tag_367:\n        /* \"#utility.yul\":9485:9488   */\n      dup3\n        /* \"#utility.yul\":9478:9513   */\n      mstore\n        /* \"#utility.yul\":9468:9519   */\n      pop\n      pop\n      jump\t// out\n        /* \"#utility.yul\":9525:9747   */\n    tag_85:\n      0x00\n        /* \"#utility.yul\":9656:9658   */\n      0x20\n        /* \"#utility.yul\":9645:9654   */\n      dup3\n        /* \"#utility.yul\":9641:9659   */\n      add\n        /* \"#utility.yul\":9633:9659   */\n      swap1\n      pop\n        /* \"#utility.yul\":9669:9740   */\n      tag_370\n        /* \"#utility.yul\":9737:9738   */\n      0x00\n        /* \"#utility.yul\":9726:9735   */\n      dup4\n        /* \"#utility.yul\":9722:9739   */\n      add\n        /* \"#utility.yul\":9713:9719   */\n      dup5\n        /* \"#utility.yul\":9669:9740   */\n      tag_292\n      jump\t// in\n    tag_370:\n        /* \"#utility.yul\":9623:9747   */\n      swap3\n      swap2\n      pop\n      pop\n      jump\t// out\n        /* \"#utility.yul\":9753:10238   */\n    tag_61:\n      0x00\n        /* \"#utility.yul\":9990:9992   */\n      0x20\n        /* \"#utility.yul\":9979:9988   */\n      dup3\n        /* \"#utility.yul\":9975:9993   */\n      add\n        /* \"#utility.yul\":9967:9993   */\n      swap1\n      pop\n        /* \"#utility.yul\":10039:10048   */\n      dup2\n        /* \"#utility.yul\":10033:10037   */\n      dup2\n        /* \"#utility.yul\":10029:10049   */\n      sub\n        /* \"#utility.yul\":10025:10026   */\n      0x00\n        /* \"#utility.yul\":10014:10023   */\n      dup4\n        /* \"#utility.yul\":10010:10027   */\n      add\n        /* \"#utility.yul\":10003:10050   */\n      mstore\n        /* \"#utility.yul\":10067:10231   */\n      tag_372\n        /* \"#utility.yul\":10226:10230   */\n      dup2\n        /* \"#utility.yul\":10217:10223   */\n      dup5\n        /* \"#utility.yul\":10067:10231   */\n      tag_295\n      jump\t// in\n    tag_372:\n        /* \"#utility.yul\":10059:10231   */\n      swap1\n      pop\n        /* \"#utility.yul\":9957:10238   */\n      swap3\n      swap2\n      pop\n      pop\n      jump\t// out\n        /* \"#utility.yul\":10244:10454   */\n    tag_45:\n      0x00\n        /* \"#utility.yul\":10369:10371   */\n      0x20\n        /* \"#utility.yul\":10358:10367   */\n      dup3\n        /* \"#utility.yul\":10354:10372   */\n      add\n        /* \"#utility.yul\":10346:10372   */\n      swap1\n      pop\n        /* \"#utility.yul\":10382:10447   */\n      tag_374\n        /* \"#utility.yul\":10444:10445   */\n      0x00\n        /* \"#utility.yul\":10433:10442   */\n      dup4\n        /* \"#utility.yul\":10429:10446   */\n      add\n        /* \"#utility.yul\":10420:10426   */\n      dup5\n        /* \"#utility.yul\":10382:10447   */\n      tag_309\n      jump\t// in\n    tag_374:\n        /* \"#utility.yul\":10336:10454   */\n      swap3\n      swap2\n      pop\n      pop\n      jump\t// out\n        /* \"#utility.yul\":10460:10773   */\n    tag_33:\n      0x00\n        /* \"#utility.yul\":10611:10613   */\n      0x20\n        /* \"#utility.yul\":10600:10609   */\n      dup3\n        /* \"#utility.yul\":10596:10614   */\n      add\n        /* \"#utility.yul\":10588:10614   */\n      swap1\n      pop\n        /* \"#utility.yul\":10660:10669   */\n      dup2\n        /* \"#utility.yul\":10654:10658   */\n      dup2\n        /* \"#utility.yul\":10650:10670   */\n      sub\n        /* \"#utility.yul\":10646:10647   */\n      0x00\n        /* \"#utility.yul\":10635:10644   */\n      dup4\n        /* \"#utility.yul\":10631:10648   */\n      add\n        /* \"#utility.yul\":10624:10671   */\n      mstore\n        /* \"#utility.yul\":10688:10766   */\n      tag_376\n        /* \"#utility.yul\":10761:10765   */\n      dup2\n        /* \"#utility.yul\":10752:10758   */\n      dup5\n        /* \"#utility.yul\":10688:10766   */\n      tag_313\n      jump\t// in\n    tag_376:\n        /* \"#utility.yul\":10680:10766   */\n      swap1\n      pop\n        /* \"#utility.yul\":10578:10773   */\n      swap3\n      swap2\n      pop\n      pop\n      jump\t// out\n        /* \"#utility.yul\":10779:11198   */\n    tag_229:\n      0x00\n        /* \"#utility.yul\":10983:10985   */\n      0x20\n        /* \"#utility.yul\":10972:10981   */\n      dup3\n        /* \"#utility.yul\":10968:10986   */\n      add\n        /* \"#utility.yul\":10960:10986   */\n      swap1\n      pop\n        /* \"#utility.yul\":11032:11041   */\n      dup2\n        /* \"#utility.yul\":11026:11030   */\n      dup2\n        /* \"#utility.yul\":11022:11042   */\n      sub\n        /* \"#utility.yul\":11018:11019   */\n      0x00\n        /* \"#utility.yul\":11007:11016   */\n      dup4\n        /* \"#utility.yul\":11003:11020   */\n      add\n        /* \"#utility.yul\":10996:11043   */\n      mstore\n        /* \"#utility.yul\":11060:11191   */\n      tag_378\n        /* \"#utility.yul\":11186:11190   */\n      dup2\n        /* \"#utility.yul\":11060:11191   */\n      tag_323\n      jump\t// in\n    tag_378:\n        /* \"#utility.yul\":11052:11191   */\n      swap1\n      pop\n        /* \"#utility.yul\":10950:11198   */\n      swap2\n      swap1\n      pop\n      jump\t// out\n        /* \"#utility.yul\":11204:11623   */\n    tag_201:\n      0x00\n        /* \"#utility.yul\":11408:11410   */\n      0x20\n        /* \"#utility.yul\":11397:11406   */\n      dup3\n        /* \"#utility.yul\":11393:11411   */\n      add\n        /* \"#utility.yul\":11385:11411   */\n      swap1\n      pop\n        /* \"#utility.yul\":11457:11466   */\n      dup2\n        /* \"#utility.yul\":11451:11455   */\n      dup2\n        /* \"#utility.yul\":11447:11467   */\n      sub\n        /* \"#utility.yul\":11443:11444   */\n      0x00\n        /* \"#utility.yul\":11432:11441   */\n      dup4\n        /* \"#utility.yul\":11428:11445   */\n      add\n        /* \"#utility.yul\":11421:11468   */\n      mstore\n        /* \"#utility.yul\":11485:11616   */\n      tag_380\n        /* \"#utility.yul\":11611:11615   */\n      dup2\n        /* \"#utility.yul\":11485:11616   */\n      tag_326\n      jump\t// in\n    tag_380:\n        /* \"#utility.yul\":11477:11616   */\n      swap1\n      pop\n        /* \"#utility.yul\":11375:11623   */\n      swap2\n      swap1\n      pop\n      jump\t// out\n        /* \"#utility.yul\":11629:12048   */\n    tag_214:\n      0x00\n        /* \"#utility.yul\":11833:11835   */\n      0x20\n        /* \"#utility.yul\":11822:11831   */\n      dup3\n        /* \"#utility.yul\":11818:11836   */\n      add\n        /* \"#utility.yul\":11810:11836   */\n      swap1\n      pop\n        /* \"#utility.yul\":11882:11891   */\n      dup2\n        /* \"#utility.yul\":11876:11880   */\n      dup2\n        /* \"#utility.yul\":11872:11892   */\n      sub\n        /* \"#utility.yul\":11868:11869   */\n      0x00\n        /* \"#utility.yul\":11857:11866   */\n      dup4\n        /* \"#utility.yul\":11853:11870   */\n      add\n        /* \"#utility.yul\":11846:11893   */\n      mstore\n        /* \"#utility.yul\":11910:12041   */\n      tag_382\n        /* \"#utility.yul\":12036:12040   */\n      dup2\n        /* \"#utility.yul\":11910:12041   */\n      tag_329\n      jump\t// in\n    tag_382:\n        /* \"#utility.yul\":11902:12041   */\n      swap1\n      pop\n        /* \"#utility.yul\":11800:12048   */\n      swap2\n      swap1\n      pop\n      jump\t// out\n        /* \"#utility.yul\":12054:12473   */\n    tag_221:\n      0x00\n        /* \"#utility.yul\":12258:12260   */\n      0x20\n        /* \"#utility.yul\":12247:12256   */\n      dup3\n        /* \"#utility.yul\":12243:12261   */\n      add\n        /* \"#utility.yul\":12235:12261   */\n      swap1\n      pop\n        /* \"#utility.yul\":12307:12316   */\n      dup2\n        /* \"#utility.yul\":12301:12305   */\n      dup2\n        /* \"#utility.yul\":12297:12317   */\n      sub\n        /* \"#utility.yul\":12293:12294   */\n      0x00\n        /* \"#utility.yul\":12282:12291   */\n      dup4\n        /* \"#utility.yul\":12278:12295   */\n      add\n        /* \"#utility.yul\":12271:12318   */\n      mstore\n        /* \"#utility.yul\":12335:12466   */\n      tag_384\n        /* \"#utility.yul\":12461:12465   */\n      dup2\n        /* \"#utility.yul\":12335:12466   */\n      tag_332\n      jump\t// in\n    tag_384:\n        /* \"#utility.yul\":12327:12466   */\n      swap1\n      pop\n        /* \"#utility.yul\":12225:12473   */\n      swap2\n      swap1\n      pop\n      jump\t// out\n        /* \"#utility.yul\":12479:12898   */\n    tag_234:\n      0x00\n        /* \"#utility.yul\":12683:12685   */\n      0x20\n        /* \"#utility.yul\":12672:12681   */\n      dup3\n        /* \"#utility.yul\":12668:12686   */\n      add\n        /* \"#utility.yul\":12660:12686   */\n      swap1\n      pop\n        /* \"#utility.yul\":12732:12741   */\n      dup2\n        /* \"#utility.yul\":12726:12730   */\n      dup2\n        /* \"#utility.yul\":12722:12742   */\n      sub\n        /* \"#utility.yul\":12718:12719   */\n      0x00\n        /* \"#utility.yul\":12707:12716   */\n      dup4\n        /* \"#utility.yul\":12703:12720   */\n      add\n        /* \"#utility.yul\":12696:12743   */\n      mstore\n        /* \"#utility.yul\":12760:12891   */\n      tag_386\n        /* \"#utility.yul\":12886:12890   */\n      dup2\n        /* \"#utility.yul\":12760:12891   */\n      tag_335\n      jump\t// in\n    tag_386:\n        /* \"#utility.yul\":12752:12891   */\n      swap1\n      pop\n        /* \"#utility.yul\":12650:12898   */\n      swap2\n      swap1\n      pop\n      jump\t// out\n        /* \"#utility.yul\":12904:13323   */\n    tag_161:\n      0x00\n        /* \"#utility.yul\":13108:13110   */\n      0x20\n        /* \"#utility.yul\":13097:13106   */\n      dup3\n        /* \"#utility.yul\":13093:13111   */\n      add\n        /* \"#utility.yul\":13085:13111   */\n      swap1\n      pop\n        /* \"#utility.yul\":13157:13166   */\n      dup2\n        /* \"#utility.yul\":13151:13155   */\n      dup2\n        /* \"#utility.yul\":13147:13167   */\n      sub\n        /* \"#utility.yul\":13143:13144   */\n      0x00\n        /* \"#utility.yul\":13132:13141   */\n      dup4\n        /* \"#utility.yul\":13128:13145   */\n      add\n        /* \"#utility.yul\":13121:13168   */\n      mstore\n        /* \"#utility.yul\":13185:13316   */\n      tag_388\n        /* \"#utility.yul\":13311:13315   */\n      dup2\n        /* \"#utility.yul\":13185:13316   */\n      tag_338\n      jump\t// in\n    tag_388:\n        /* \"#utility.yul\":13177:13316   */\n      swap1\n      pop\n        /* \"#utility.yul\":13075:13323   */\n      swap2\n      swap1\n      pop\n      jump\t// out\n        /* \"#utility.yul\":13329:13748   */\n    tag_226:\n      0x00\n        /* \"#utility.yul\":13533:13535   */\n      0x20\n        /* \"#utility.yul\":13522:13531   */\n      dup3\n        /* \"#utility.yul\":13518:13536   */\n      add\n        /* \"#utility.yul\":13510:13536   */\n      swap1\n      pop\n        /* \"#utility.yul\":13582:13591   */\n      dup2\n        /* \"#utility.yul\":13576:13580   */\n      dup2\n        /* \"#utility.yul\":13572:13592   */\n      sub\n        /* \"#utility.yul\":13568:13569   */\n      0x00\n        /* \"#utility.yul\":13557:13566   */\n      dup4\n        /* \"#utility.yul\":13553:13570   */\n      add\n        /* \"#utility.yul\":13546:13593   */\n      mstore\n        /* \"#utility.yul\":13610:13741   */\n      tag_390\n        /* \"#utility.yul\":13736:13740   */\n      dup2\n        /* \"#utility.yul\":13610:13741   */\n      tag_341\n      jump\t// in\n    tag_390:\n        /* \"#utility.yul\":13602:13741   */\n      swap1\n      pop\n        /* \"#utility.yul\":13500:13748   */\n      swap2\n      swap1\n      pop\n      jump\t// out\n        /* \"#utility.yul\":13754:14173   */\n    tag_211:\n      0x00\n        /* \"#utility.yul\":13958:13960   */\n      0x20\n        /* \"#utility.yul\":13947:13956   */\n      dup3\n        /* \"#utility.yul\":13943:13961   */\n      add\n        /* \"#utility.yul\":13935:13961   */\n      swap1\n      pop\n        /* \"#utility.yul\":14007:14016   */\n      dup2\n        /* \"#utility.yul\":14001:14005   */\n      dup2\n        /* \"#utility.yul\":13997:14017   */\n      sub\n        /* \"#utility.yul\":13993:13994   */\n      0x00\n        /* \"#utility.yul\":13982:13991   */\n      dup4\n        /* \"#utility.yul\":13978:13995   */\n      add\n        /* \"#utility.yul\":13971:14018   */\n      mstore\n        /* \"#utility.yul\":14035:14166   */\n      tag_392\n        /* \"#utility.yul\":14161:14165   */\n      dup2\n        /* \"#utility.yul\":14035:14166   */\n      tag_344\n      jump\t// in\n    tag_392:\n        /* \"#utility.yul\":14027:14166   */\n      swap1\n      pop\n        /* \"#utility.yul\":13925:14173   */\n      swap2\n      swap1\n      pop\n      jump\t// out\n        /* \"#utility.yul\":14179:14598   */\n    tag_187:\n      0x00\n        /* \"#utility.yul\":14383:14385   */\n      0x20\n        /* \"#utility.yul\":14372:14381   */\n      dup3\n        /* \"#utility.yul\":14368:14386   */\n      add\n        /* \"#utility.yul\":14360:14386   */\n      swap1\n      pop\n        /* \"#utility.yul\":14432:14441   */\n      dup2\n        /* \"#utility.yul\":14426:14430   */\n      dup2\n        /* \"#utility.yul\":14422:14442   */\n      sub\n        /* \"#utility.yul\":14418:14419   */\n      0x00\n        /* \"#utility.yul\":14407:14416   */\n      dup4\n        /* \"#utility.yul\":14403:14420   */\n      add\n        /* \"#utility.yul\":14396:14443   */\n      mstore\n        /* \"#utility.yul\":14460:14591   */\n      tag_394\n        /* \"#utility.yul\":14586:14590   */\n      dup2\n        /* \"#utility.yul\":14460:14591   */\n      tag_347\n      jump\t// in\n    tag_394:\n        /* \"#utility.yul\":14452:14591   */\n      swap1\n      pop\n        /* \"#utility.yul\":14350:14598   */\n      swap2\n      swap1\n      pop\n      jump\t// out\n        /* \"#utility.yul\":14604:15023   */\n    tag_242:\n      0x00\n        /* \"#utility.yul\":14808:14810   */\n      0x20\n        /* \"#utility.yul\":14797:14806   */\n      dup3\n        /* \"#utility.yul\":14793:14811   */\n      add\n        /* \"#utility.yul\":14785:14811   */\n      swap1\n      pop\n        /* \"#utility.yul\":14857:14866   */\n      dup2\n        /* \"#utility.yul\":14851:14855   */\n      dup2\n        /* \"#utility.yul\":14847:14867   */\n      sub\n        /* \"#utility.yul\":14843:14844   */\n      0x00\n        /* \"#utility.yul\":14832:14841   */\n      dup4\n        /* \"#utility.yul\":14828:14845   */\n      add\n        /* \"#utility.yul\":14821:14868   */\n      mstore\n        /* \"#utility.yul\":14885:15016   */\n      tag_396\n        /* \"#utility.yul\":15011:15015   */\n      dup2\n        /* \"#utility.yul\":14885:15016   */\n      tag_350\n      jump\t// in\n    tag_396:\n        /* \"#utility.yul\":14877:15016   */\n      swap1\n      pop\n        /* \"#utility.yul\":14775:15023   */\n      swap2\n      swap1\n      pop\n      jump\t// out\n        /* \"#utility.yul\":15029:15251   */\n    tag_39:\n      0x00\n        /* \"#utility.yul\":15160:15162   */\n      0x20\n        /* \"#utility.yul\":15149:15158   */\n      dup3\n        /* \"#utility.yul\":15145:15163   */\n      add\n        /* \"#utility.yul\":15137:15163   */\n      swap1\n      pop\n        /* \"#utility.yul\":15173:15244   */\n      tag_398\n        /* \"#utility.yul\":15241:15242   */\n      0x00\n        /* \"#utility.yul\":15230:15239   */\n      dup4\n        /* \"#utility.yul\":15226:15243   */\n      add\n        /* \"#utility.yul\":15217:15223   */\n      dup5\n        /* \"#utility.yul\":15173:15244   */\n      tag_362\n      jump\t// in\n    tag_398:\n        /* \"#utility.yul\":15127:15251   */\n      swap3\n      swap2\n      pop\n      pop\n      jump\t// out\n        /* \"#utility.yul\":15257:15471   */\n    tag_65:\n      0x00\n        /* \"#utility.yul\":15384:15386   */\n      0x20\n        /* \"#utility.yul\":15373:15382   */\n      dup3\n        /* \"#utility.yul\":15369:15387   */\n      add\n        /* \"#utility.yul\":15361:15387   */\n      swap1\n      pop\n        /* \"#utility.yul\":15397:15464   */\n      tag_400\n        /* \"#utility.yul\":15461:15462   */\n      0x00\n        /* \"#utility.yul\":15450:15459   */\n      dup4\n        /* \"#utility.yul\":15446:15463   */\n      add\n        /* \"#utility.yul\":15437:15443   */\n      dup5\n        /* \"#utility.yul\":15397:15464   */\n      tag_365\n      jump\t// in\n    tag_400:\n        /* \"#utility.yul\":15351:15471   */\n      swap3\n      swap2\n      pop\n      pop\n      jump\t// out\n        /* \"#utility.yul\":15477:15637   */\n    tag_302:\n      0x00\n        /* \"#utility.yul\":15595:15598   */\n      dup2\n        /* \"#utility.yul\":15587:15598   */\n      swap1\n      pop\n        /* \"#utility.yul\":15625:15629   */\n      0x20\n        /* \"#utility.yul\":15620:15623   */\n      dup3\n        /* \"#utility.yul\":15616:15630   */\n      add\n        /* \"#utility.yul\":15608:15630   */\n      swap1\n      pop\n        /* \"#utility.yul\":15577:15637   */\n      swap2\n      swap1\n      pop\n      jump\t// out\n        /* \"#utility.yul\":15643:15785   */\n    tag_298:\n      0x00\n        /* \"#utility.yul\":15772:15777   */\n      dup2\n        /* \"#utility.yul\":15766:15778   */\n      mload\n        /* \"#utility.yul\":15756:15778   */\n      swap1\n      pop\n        /* \"#utility.yul\":15745:15785   */\n      swap2\n      swap1\n      pop\n      jump\t// out\n        /* \"#utility.yul\":15791:15890   */\n    tag_316:\n      0x00\n        /* \"#utility.yul\":15877:15882   */\n      dup2\n        /* \"#utility.yul\":15871:15883   */\n      mload\n        /* \"#utility.yul\":15861:15883   */\n      swap1\n      pop\n        /* \"#utility.yul\":15850:15890   */\n      swap2\n      swap1\n      pop\n      jump\t// out\n        /* \"#utility.yul\":15896:16037   */\n    tag_308:\n      0x00\n        /* \"#utility.yul\":16026:16030   */\n      0x20\n        /* \"#utility.yul\":16021:16024   */\n      dup3\n        /* \"#utility.yul\":16017:16031   */\n      add\n        /* \"#utility.yul\":16009:16031   */\n      swap1\n      pop\n        /* \"#utility.yul\":15999:16037   */\n      swap2\n      swap1\n      pop\n      jump\t// out\n        /* \"#utility.yul\":16043:16255   */\n    tag_300:\n      0x00\n        /* \"#utility.yul\":16204:16210   */\n      dup3\n        /* \"#utility.yul\":16199:16202   */\n      dup3\n        /* \"#utility.yul\":16192:16211   */\n      mstore\n        /* \"#utility.yul\":16244:16248   */\n      0x20\n        /* \"#utility.yul\":16239:16242   */\n      dup3\n        /* \"#utility.yul\":16235:16249   */\n      add\n        /* \"#utility.yul\":16220:16249   */\n      swap1\n      pop\n        /* \"#utility.yul\":16182:16255   */\n      swap3\n      swap2\n      pop\n      pop\n      jump\t// out\n        /* \"#utility.yul\":16261:16430   */\n    tag_318:\n      0x00\n        /* \"#utility.yul\":16379:16385   */\n      dup3\n        /* \"#utility.yul\":16374:16377   */\n      dup3\n        /* \"#utility.yul\":16367:16386   */\n      mstore\n        /* \"#utility.yul\":16419:16423   */\n      0x20\n        /* \"#utility.yul\":16414:16417   */\n      dup3\n        /* \"#utility.yul\":16410:16424   */\n      add\n        /* \"#utility.yul\":16395:16424   */\n      swap1\n      pop\n        /* \"#utility.yul\":16357:16430   */\n      swap3\n      swap2\n      pop\n      pop\n      jump\t// out\n        /* \"#utility.yul\":16436:16741   */\n    tag_155:\n      0x00\n        /* \"#utility.yul\":16495:16515   */\n      tag_408\n        /* \"#utility.yul\":16513:16514   */\n      dup3\n        /* \"#utility.yul\":16495:16515   */\n      tag_361\n      jump\t// in\n    tag_408:\n        /* \"#utility.yul\":16490:16515   */\n      swap2\n      pop\n        /* \"#utility.yul\":16529:16549   */\n      tag_409\n        /* \"#utility.yul\":16547:16548   */\n      dup4\n        /* \"#utility.yul\":16529:16549   */\n      tag_361\n      jump\t// in\n    tag_409:\n        /* \"#utility.yul\":16524:16549   */\n      swap3\n      pop\n        /* \"#utility.yul\":16683:16684   */\n      dup3\n        /* \"#utility.yul\":16615:16681   */\n      0xffffffffffffffffffffffffffffffffffffffffffffffffffffffffffffffff\n        /* \"#utility.yul\":16611:16685   */\n      sub\n        /* \"#utility.yul\":16608:16609   */\n      dup3\n        /* \"#utility.yul\":16605:16686   */\n      gt\n        /* \"#utility.yul\":16602:16604   */\n      iszero\n      tag_410\n      jumpi\n        /* \"#utility.yul\":16689:16707   */\n      tag_411\n      tag_412\n      jump\t// in\n    tag_411:\n        /* \"#utility.yul\":16602:16604   */\n    tag_410:\n        /* \"#utility.yul\":16733:16734   */\n      dup3\n        /* \"#utility.yul\":16730:16731   */\n      dup3\n        /* \"#utility.yul\":16726:16735   */\n      add\n        /* \"#utility.yul\":16719:16735   */\n      swap1\n      pop\n        /* \"#utility.yul\":16480:16741   */\n      swap3\n      swap2\n      pop\n      pop\n      jump\t// out\n        /* \"#utility.yul\":16747:16932   */\n    tag_137:\n      0x00\n        /* \"#utility.yul\":16804:16824   */\n      tag_414\n        /* \"#utility.yul\":16822:16823   */\n      dup3\n        /* \"#utility.yul\":16804:16824   */\n      tag_361\n      jump\t// in\n    tag_414:\n        /* \"#utility.yul\":16799:16824   */\n      swap2\n      pop\n        /* \"#utility.yul\":16838:16858   */\n      tag_415\n        /* \"#utility.yul\":16856:16857   */\n      dup4\n        /* \"#utility.yul\":16838:16858   */\n      tag_361\n      jump\t// in\n    tag_415:\n        /* \"#utility.yul\":16833:16858   */\n      swap3\n      pop\n        /* \"#utility.yul\":16877:16878   */\n      dup3\n        /* \"#utility.yul\":16867:16869   */\n      tag_416\n      jumpi\n        /* \"#utility.yul\":16882:16900   */\n      tag_417\n      tag_418\n      jump\t// in\n    tag_417:\n        /* \"#utility.yul\":16867:16869   */\n    tag_416:\n        /* \"#utility.yul\":16924:16925   */\n      dup3\n        /* \"#utility.yul\":16921:16922   */\n      dup3\n        /* \"#utility.yul\":16917:16926   */\n      div\n        /* \"#utility.yul\":16912:16926   */\n      swap1\n      pop\n        /* \"#utility.yul\":16789:16932   */\n      swap3\n      swap2\n      pop\n      pop\n      jump\t// out\n        /* \"#utility.yul\":16938:17034   */\n    tag_291:\n      0x00\n        /* \"#utility.yul\":17004:17028   */\n      tag_420\n        /* \"#utility.yul\":17022:17027   */\n      dup3\n        /* \"#utility.yul\":17004:17028   */\n      tag_421\n      jump\t// in\n    tag_420:\n        /* \"#utility.yul\":16993:17028   */\n      swap1\n      pop\n        /* \"#utility.yul\":16983:17034   */\n      swap2\n      swap1\n      pop\n      jump\t// out\n        /* \"#utility.yul\":17040:17144   */\n    tag_422:\n      0x00\n        /* \"#utility.yul\":17114:17138   */\n      tag_424\n        /* \"#utility.yul\":17132:17137   */\n      dup3\n        /* \"#utility.yul\":17114:17138   */\n      tag_421\n      jump\t// in\n    tag_424:\n        /* \"#utility.yul\":17103:17138   */\n      swap1\n      pop\n        /* \"#utility.yul\":17093:17144   */\n      swap2\n      swap1\n      pop\n      jump\t// out\n        /* \"#utility.yul\":17150:17240   */\n    tag_312:\n      0x00\n        /* \"#utility.yul\":17227:17232   */\n      dup2\n        /* \"#utility.yul\":17220:17233   */\n      iszero\n        /* \"#utility.yul\":17213:17234   */\n      iszero\n        /* \"#utility.yul\":17202:17234   */\n      swap1\n      pop\n        /* \"#utility.yul\":17192:17240   */\n      swap2\n      swap1\n      pop\n      jump\t// out\n        /* \"#utility.yul\":17246:17372   */\n    tag_421:\n      0x00\n        /* \"#utility.yul\":17323:17365   */\n      0xffffffffffffffffffffffffffffffffffffffff\n        /* \"#utility.yul\":17316:17321   */\n      dup3\n        /* \"#utility.yul\":17312:17366   */\n      and\n        /* \"#utility.yul\":17301:17366   */\n      swap1\n      pop\n        /* \"#utility.yul\":17291:17372   */\n      swap2\n      swap1\n      pop\n      jump\t// out\n        /* \"#utility.yul\":17378:17455   */\n    tag_361:\n      0x00\n        /* \"#utility.yul\":17444:17449   */\n      dup2\n        /* \"#utility.yul\":17433:17449   */\n      swap1\n      pop\n        /* \"#utility.yul\":17423:17455   */\n      swap2\n      swap1\n      pop\n      jump\t// out\n        /* \"#utility.yul\":17461:17547   */\n    tag_368:\n      0x00\n        /* \"#utility.yul\":17536:17540   */\n      0xff\n        /* \"#utility.yul\":17529:17534   */\n      dup3\n        /* \"#utility.yul\":17525:17541   */\n      and\n        /* \"#utility.yul\":17514:17541   */\n      swap1\n      pop\n        /* \"#utility.yul\":17504:17547   */\n      swap2\n      swap1\n      pop\n      jump\t// out\n        /* \"#utility.yul\":17553:17860   */\n    tag_320:\n        /* \"#utility.yul\":17621:17622   */\n      0x00\n        /* \"#utility.yul\":17631:17744   */\n    tag_430:\n        /* \"#utility.yul\":17645:17651   */\n      dup4\n        /* \"#utility.yul\":17642:17643   */\n      dup2\n        /* \"#utility.yul\":17639:17652   */\n      lt\n        /* \"#utility.yul\":17631:17744   */\n      iszero\n      tag_432\n      jumpi\n        /* \"#utility.yul\":17730:17731   */\n      dup1\n        /* \"#utility.yul\":17725:17728   */\n      dup3\n        /* \"#utility.yul\":17721:17732   */\n      add\n        /* \"#utility.yul\":17715:17733   */\n      mload\n        /* \"#utility.yul\":17711:17712   */\n      dup2\n        /* \"#utility.yul\":17706:17709   */\n      dup5\n        /* \"#utility.yul\":17702:17713   */\n      add\n        /* \"#utility.yul\":17695:17734   */\n      mstore\n        /* \"#utility.yul\":17667:17669   */\n      0x20\n        /* \"#utility.yul\":17664:17665   */\n      dup2\n        /* \"#utility.yul\":17660:17670   */\n      add\n        /* \"#utility.yul\":17655:17670   */\n      swap1\n      pop\n        /* \"#utility.yul\":17631:17744   */\n      jump(tag_430)\n    tag_432:\n        /* \"#utility.yul\":17762:17768   */\n      dup4\n        /* \"#utility.yul\":17759:17760   */\n      dup2\n        /* \"#utility.yul\":17756:17769   */\n      gt\n        /* \"#utility.yul\":17753:17755   */\n      iszero\n      tag_433\n      jumpi\n        /* \"#utility.yul\":17842:17843   */\n      0x00\n        /* \"#utility.yul\":17833:17839   */\n      dup5\n        /* \"#utility.yul\":17828:17831   */\n      dup5\n        /* \"#utility.yul\":17824:17840   */\n      add\n        /* \"#utility.yul\":17817:17844   */\n      mstore\n        /* \"#utility.yul\":17753:17755   */\n    tag_433:\n        /* \"#utility.yul\":17602:17860   */\n      pop\n      pop\n      pop\n      pop\n      jump\t// out\n        /* \"#utility.yul\":17866:18186   */\n    tag_124:\n      0x00\n        /* \"#utility.yul\":17947:17948   */\n      0x02\n        /* \"#utility.yul\":17941:17945   */\n      dup3\n        /* \"#utility.yul\":17937:17949   */\n      div\n        /* \"#utility.yul\":17927:17949   */\n      swap1\n      pop\n        /* \"#utility.yul\":17994:17995   */\n      0x01\n        /* \"#utility.yul\":17988:17992   */\n      dup3\n        /* \"#utility.yul\":17984:17996   */\n      and\n        /* \"#utility.yul\":18015:18033   */\n      dup1\n        /* \"#utility.yul\":18005:18007   */\n      tag_435\n      jumpi\n        /* \"#utility.yul\":18071:18075   */\n      0x7f\n        /* \"#utility.yul\":18063:18069   */\n      dup3\n        /* \"#utility.yul\":18059:18076   */\n      and\n        /* \"#utility.yul\":18049:18076   */\n      swap2\n      pop\n        /* \"#utility.yul\":18005:18007   */\n    tag_435:\n        /* \"#utility.yul\":18133:18135   */\n      0x20\n        /* \"#utility.yul\":18125:18131   */\n      dup3\n        /* \"#utility.yul\":18122:18136   */\n      lt\n        /* \"#utility.yul\":18102:18120   */\n      dup2\n        /* \"#utility.yul\":18099:18137   */\n      eq\n        /* \"#utility.yul\":18096:18098   */\n      iszero\n      tag_436\n      jumpi\n        /* \"#utility.yul\":18152:18170   */\n      tag_437\n      tag_438\n      jump\t// in\n    tag_437:\n        /* \"#utility.yul\":18096:18098   */\n    tag_436:\n        /* \"#utility.yul\":17917:18186   */\n      pop\n      swap2\n      swap1\n      pop\n      jump\t// out\n        /* \"#utility.yul\":18192:18372   */\n    tag_412:\n        /* \"#utility.yul\":18240:18317   */\n      0x4e487b7100000000000000000000000000000000000000000000000000000000\n        /* \"#utility.yul\":18237:18238   */\n      0x00\n        /* \"#utility.yul\":18230:18318   */\n      mstore\n        /* \"#utility.yul\":18337:18341   */\n      0x11\n        /* \"#utility.yul\":18334:18335   */\n      0x04\n        /* \"#utility.yul\":18327:18342   */\n      mstore\n        /* \"#utility.yul\":18361:18365   */\n      0x24\n        /* \"#utility.yul\":18358:18359   */\n      0x00\n        /* \"#utility.yul\":18351:18366   */\n      revert\n        /* \"#utility.yul\":18378:18558   */\n    tag_418:\n        /* \"#utility.yul\":18426:18503   */\n      0x4e487b7100000000000000000000000000000000000000000000000000000000\n        /* \"#utility.yul\":18423:18424   */\n      0x00\n        /* \"#utility.yul\":18416:18504   */\n      mstore\n        /* \"#utility.yul\":18523:18527   */\n      0x12\n        /* \"#utility.yul\":18520:18521   */\n      0x04\n        /* \"#utility.yul\":18513:18528   */\n      mstore\n        /* \"#utility.yul\":18547:18551   */\n      0x24\n        /* \"#utility.yul\":18544:18545   */\n      0x00\n        /* \"#utility.yul\":18537:18552   */\n      revert\n        /* \"#utility.yul\":18564:18744   */\n    tag_438:\n        /* \"#utility.yul\":18612:18689   */\n      0x4e487b7100000000000000000000000000000000000000000000000000000000\n        /* \"#utility.yul\":18609:18610   */\n      0x00\n        /* \"#utility.yul\":18602:18690   */\n      mstore\n        /* \"#utility.yul\":18709:18713   */\n      0x22\n        /* \"#utility.yul\":18706:18707   */\n      0x04\n        /* \"#utility.yul\":18699:18714   */\n      mstore\n        /* \"#utility.yul\":18733:18737   */\n      0x24\n        /* \"#utility.yul\":18730:18731   */\n      0x00\n        /* \"#utility.yul\":18723:18738   */\n      revert\n        /* \"#utility.yul\":18750:18852   */\n    tag_322:\n      0x00\n        /* \"#utility.yul\":18842:18844   */\n      0x1f\n        /* \"#utility.yul\":18838:18845   */\n      not\n        /* \"#utility.yul\":18833:18835   */\n      0x1f\n        /* \"#utility.yul\":18826:18831   */\n      dup4\n        /* \"#utility.yul\":18822:18836   */\n      add\n        /* \"#utility.yul\":18818:18846   */\n      and\n        /* \"#utility.yul\":18808:18846   */\n      swap1\n      pop\n        /* \"#utility.yul\":18798:18852   */\n      swap2\n      swap1\n      pop\n      jump\t// out\n        /* \"#utility.yul\":18858:18980   */\n    tag_255:\n        /* \"#utility.yul\":18931:18955   */\n      tag_444\n        /* \"#utility.yul\":18949:18954   */\n      dup2\n        /* \"#utility.yul\":18931:18955   */\n      tag_291\n      jump\t// in\n    tag_444:\n        /* \"#utility.yul\":18924:18929   */\n      dup2\n        /* \"#utility.yul\":18921:18956   */\n      eq\n        /* \"#utility.yul\":18911:18913   */\n      tag_445\n      jumpi\n        /* \"#utility.yul\":18970:18971   */\n      0x00\n        /* \"#utility.yul\":18967:18968   */\n      dup1\n        /* \"#utility.yul\":18960:18972   */\n      revert\n        /* \"#utility.yul\":18911:18913   */\n    tag_445:\n        /* \"#utility.yul\":18901:18980   */\n      pop\n      jump\t// out\n        /* \"#utility.yul\":18986:19124   */\n    tag_259:\n        /* \"#utility.yul\":19067:19099   */\n      tag_447\n        /* \"#utility.yul\":19093:19098   */\n      dup2\n        /* \"#utility.yul\":19067:19099   */\n      tag_422\n      jump\t// in\n    tag_447:\n        /* \"#utility.yul\":19060:19065   */\n      dup2\n        /* \"#utility.yul\":19057:19100   */\n      eq\n        /* \"#utility.yul\":19047:19049   */\n      tag_448\n      jumpi\n        /* \"#utility.yul\":19114:19115   */\n      0x00\n        /* \"#utility.yul\":19111:19112   */\n      dup1\n        /* \"#utility.yul\":19104:19116   */\n      revert\n        /* \"#utility.yul\":19047:19049   */\n    tag_448:\n        /* \"#utility.yul\":19037:19124   */\n      pop\n      jump\t// out\n        /* \"#utility.yul\":19130:19252   */\n    tag_263:\n        /* \"#utility.yul\":19203:19227   */\n      tag_450\n        /* \"#utility.yul\":19221:19226   */\n      dup2\n        /* \"#utility.yul\":19203:19227   */\n      tag_361\n      jump\t// in\n    tag_450:\n        /* \"#utility.yul\":19196:19201   */\n      dup2\n        /* \"#utility.yul\":19193:19228   */\n      eq\n        /* \"#utility.yul\":19183:19185   */\n      tag_451\n      jumpi\n        /* \"#utility.yul\":19242:19243   */\n      0x00\n        /* \"#utility.yul\":19239:19240   */\n      dup1\n        /* \"#utility.yul\":19232:19244   */\n      revert\n        /* \"#utility.yul\":19183:19185   */\n    tag_451:\n        /* \"#utility.yul\":19173:19252   */\n      pop\n      jump\t// out\n\n    auxdata: 0xa2646970667358221220d698f39deb14a7e9f8867d80c31e6e08203b1b48013a471739b833db3668857664736f6c63430008000033\n}\n",
				"bytecode": {
					"linkReferences": {},
					"object": "608060405267016345785d8a00006006553480156200001d57600080fd5b506040518060400160405280600e81526020017f56696e746167652d63727970746f0000000000000000000000000000000000008152506040518060400160405280600481526020017f24564954000000000000000000000000000000000000000000000000000000008152508160039080519060200190620000a29291906200037c565b508060049080519060200190620000bb9291906200037c565b505050620000de620000d26200012260201b60201c565b6200012a60201b60201c565b6200011c33620000f3620001f060201b60201c565b600a62000101919062000587565b6103e8620001109190620006c4565b620001f960201b60201c565b620007dd565b600033905090565b6000600560009054906101000a900473ffffffffffffffffffffffffffffffffffffffff16905081600560006101000a81548173ffffffffffffffffffffffffffffffffffffffff021916908373ffffffffffffffffffffffffffffffffffffffff1602179055508173ffffffffffffffffffffffffffffffffffffffff168173ffffffffffffffffffffffffffffffffffffffff167f8be0079c531659141344cd1fd0a4f28419497f9722a3daafe3b4186f6b6457e060405160405180910390a35050565b60006012905090565b600073ffffffffffffffffffffffffffffffffffffffff168273ffffffffffffffffffffffffffffffffffffffff1614156200026c576040517f08c379a000000000000000000000000000000000000000000000000000000000815260040162000263906200047f565b60405180910390fd5b62000280600083836200037260201b60201c565b8060026000828254620002949190620004cf565b92505081905550806000808473ffffffffffffffffffffffffffffffffffffffff1673ffffffffffffffffffffffffffffffffffffffff1681526020019081526020016000206000828254620002eb9190620004cf565b925050819055508173ffffffffffffffffffffffffffffffffffffffff16600073ffffffffffffffffffffffffffffffffffffffff167fddf252ad1be2c89b69c2b068fc378daa952ba7f163c4a11628f55a4df523b3ef83604051620003529190620004a1565b60405180910390a36200036e600083836200037760201b60201c565b5050565b505050565b505050565b8280546200038a906200073c565b90600052602060002090601f016020900481019282620003ae5760008555620003fa565b82601f10620003c957805160ff1916838001178555620003fa565b82800160010185558215620003fa579182015b82811115620003f9578251825591602001919060010190620003dc565b5b5090506200040991906200040d565b5090565b5b80821115620004285760008160009055506001016200040e565b5090565b60006200043b601f83620004be565b91507f45524332303a206d696e7420746f20746865207a65726f2061646472657373006000830152602082019050919050565b620004798162000725565b82525050565b600060208201905081810360008301526200049a816200042c565b9050919050565b6000602082019050620004b860008301846200046e565b92915050565b600082825260208201905092915050565b6000620004dc8262000725565b9150620004e98362000725565b9250827fffffffffffffffffffffffffffffffffffffffffffffffffffffffffffffffff0382111562000521576200052062000772565b5b828201905092915050565b6000808291508390505b60018511156200057e5780860481111562000556576200055562000772565b5b6001851615620005665780820291505b80810290506200057685620007d0565b945062000536565b94509492505050565b6000620005948262000725565b9150620005a1836200072f565b9250620005d07fffffffffffffffffffffffffffffffffffffffffffffffffffffffffffffffff8484620005d8565b905092915050565b600082620005ea5760019050620006bd565b81620005fa5760009050620006bd565b81600181146200061357600281146200061e5762000654565b6001915050620006bd565b60ff84111562000633576200063262000772565b5b8360020a9150848211156200064d576200064c62000772565b5b50620006bd565b5060208310610133831016604e8410600b84101617156200068e5782820a90508381111562000688576200068762000772565b5b620006bd565b6200069d84848460016200052c565b92509050818404811115620006b757620006b662000772565b5b81810290505b9392505050565b6000620006d18262000725565b9150620006de8362000725565b9250817fffffffffffffffffffffffffffffffffffffffffffffffffffffffffffffffff04831182151516156200071a576200071962000772565b5b828202905092915050565b6000819050919050565b600060ff82169050919050565b600060028204905060018216806200075557607f821691505b602082108114156200076c576200076b620007a1565b5b50919050565b7f4e487b7100000000000000000000000000000000000000000000000000000000600052601160045260246000fd5b7f4e487b7100000000000000000000000000000000000000000000000000000000600052602260045260246000fd5b60008160011c9050919050565b61216c80620007ed6000396000f3fe608060405234801561001057600080fd5b50600436106101585760003560e01c8063789706ae116100c3578063a9059cbb1161007c578063a9059cbb146103df578063c93c8f341461040f578063dbf9f6521461043f578063dd62ed3e1461045d578063f2fde38b1461048d578063f739ed9e146104a957610158565b8063789706ae146103075780638da5cb5b1461032557806395d89b4114610343578063a410178814610361578063a457c2d714610391578063a6c75797146103c157610158565b806327506f531161011557806327506f5314610245578063313ce56714610263578063395093511461028157806368f8fc10146102b157806370a08231146102cd578063715018a6146102fd57610158565b806306fdde031461015d5780630700037d1461017b578063095ea7b3146101ab578063174e31c4146101db57806318160ddd146101f757806323b872dd14610215575b600080fd5b6101656104c5565b6040516101729190611d13565b60405180910390f35b610195600480360381019061019091906116a7565b610557565b6040516101a29190611e75565b60405180910390f35b6101c560048036038101906101c09190611797565b61056f565b6040516101d29190611cf8565b60405180910390f35b6101f560048036038101906101f091906116d0565b610592565b005b6101ff610643565b60405161020c9190611e75565b60405180910390f35b61022f600480360381019061022a9190611748565b61064d565b60405161023c9190611cf8565b60405180910390f35b61024d61067c565b60405161025a9190611cd6565b60405180910390f35b61026b61079b565b6040516102789190611e90565b60405180910390f35b61029b60048036038101906102969190611797565b6107a4565b6040516102a89190611cf8565b60405180910390f35b6102cb60048036038101906102c69190611797565b61084e565b005b6102e760048036038101906102e291906116a7565b6108d8565b6040516102f49190611e75565b60405180910390f35b610305610920565b005b61030f6109a8565b60405161031c9190611e75565b60405180910390f35b61032d6109b2565b60405161033a9190611cbb565b60405180910390f35b61034b6109dc565b6040516103589190611d13565b60405180910390f35b61037b600480360381019061037691906116a7565b610a6e565b6040516103889190611e75565b60405180910390f35b6103ab60048036038101906103a69190611797565b610ab7565b6040516103b89190611cf8565b60405180910390f35b6103c9610ba1565b6040516103d69190611e75565b60405180910390f35b6103f960048036038101906103f49190611797565b610ba7565b6040516104069190611cf8565b60405180910390f35b610429600480360381019061042491906116a7565b610bca565b6040516104369190611cf8565b60405180910390f35b610447610bea565b6040516104549190611e75565b60405180910390f35b6104776004803603810190610472919061170c565b610bf0565b6040516104849190611e75565b60405180910390f35b6104a760048036038101906104a291906116a7565b610c77565b005b6104c360048036038101906104be9190611797565b610d6f565b005b6060600380546104d490612021565b80601f016020809104026020016040519081016040528092919081815260200182805461050090612021565b801561054d5780601f106105225761010080835404028352916020019161054d565b820191906000526020600020905b81548152906001019060200180831161053057829003601f168201915b5050505050905090565b600a6020528060005260406000206000915090505481565b60008061057a610f58565b9050610587818585610f60565b600191505092915050565b60a8421461059f57600080fd5b6000600a60008473ffffffffffffffffffffffffffffffffffffffff1673ffffffffffffffffffffffffffffffffffffffff1681526020019081526020016000205490506064826105f09190611f56565b600a60008573ffffffffffffffffffffffffffffffffffffffff1673ffffffffffffffffffffffffffffffffffffffff1681526020019081526020016000208190555061063d8382610ba7565b50505050565b6000600254905090565b600080610658610f58565b905061066585828561112b565b6106708585856111b7565b60019150509392505050565b6060600b805480602002602001604051908101604052809291908181526020016000905b8282101561079257838290600052602060002090600402016040518060800160405290816000820160009054906101000a900473ffffffffffffffffffffffffffffffffffffffff1673ffffffffffffffffffffffffffffffffffffffff1673ffffffffffffffffffffffffffffffffffffffff1681526020016001820160009054906101000a900473ffffffffffffffffffffffffffffffffffffffff1673ffffffffffffffffffffffffffffffffffffffff1673ffffffffffffffffffffffffffffffffffffffff16815260200160028201548152602001600382015481525050815260200190600101906106a0565b50505050905090565b60006012905090565b6000806107af610f58565b9050610843818585600160008673ffffffffffffffffffffffffffffffffffffffff1673ffffffffffffffffffffffffffffffffffffffff16815260200190815260200160002060008973ffffffffffffffffffffffffffffffffffffffff1673ffffffffffffffffffffffffffffffffffffffff1681526020019081526020016000205461083e9190611f00565b610f60565b600191505092915050565b610856610f58565b73ffffffffffffffffffffffffffffffffffffffff166108746109b2565b73ffffffffffffffffffffffffffffffffffffffff16146108ca576040517f08c379a00000000000000000000000000000000000000000000000000000000081526004016108c190611dd5565b60405180910390fd5b6108d48282611438565b5050565b60008060008373ffffffffffffffffffffffffffffffffffffffff1673ffffffffffffffffffffffffffffffffffffffff168152602001908152602001600020549050919050565b610928610f58565b73ffffffffffffffffffffffffffffffffffffffff166109466109b2565b73ffffffffffffffffffffffffffffffffffffffff161461099c576040517f08c379a000000000000000000000000000000000000000000000000000000000815260040161099390611dd5565b60405180910390fd5b6109a66000611598565b565b6000600754905090565b6000600560009054906101000a900473ffffffffffffffffffffffffffffffffffffffff16905090565b6060600480546109eb90612021565b80601f0160208091040260200160405190810160405280929190818152602001828054610a1790612021565b8015610a645780601f10610a3957610100808354040283529160200191610a64565b820191906000526020600020905b815481529060010190602001808311610a4757829003601f168201915b5050505050905090565b6000600960008373ffffffffffffffffffffffffffffffffffffffff1673ffffffffffffffffffffffffffffffffffffffff168152602001908152602001600020549050919050565b600080610ac2610f58565b90506000600160008373ffffffffffffffffffffffffffffffffffffffff1673ffffffffffffffffffffffffffffffffffffffff16815260200190815260200160002060008673ffffffffffffffffffffffffffffffffffffffff1673ffffffffffffffffffffffffffffffffffffffff16815260200190815260200160002054905083811015610b88576040517f08c379a0000000000000000000000000000000000000000000000000000000008152600401610b7f90611e35565b60405180910390fd5b610b958286868403610f60565b60019250505092915050565b60075481565b600080610bb2610f58565b9050610bbf8185856111b7565b600191505092915050565b60086020528060005260406000206000915054906101000a900460ff1681565b60065481565b6000600160008473ffffffffffffffffffffffffffffffffffffffff1673ffffffffffffffffffffffffffffffffffffffff16815260200190815260200160002060008373ffffffffffffffffffffffffffffffffffffffff1673ffffffffffffffffffffffffffffffffffffffff16815260200190815260200160002054905092915050565b610c7f610f58565b73ffffffffffffffffffffffffffffffffffffffff16610c9d6109b2565b73ffffffffffffffffffffffffffffffffffffffff1614610cf3576040517f08c379a0000000000000000000000000000000000000000000000000000000008152600401610cea90611dd5565b60405180910390fd5b600073ffffffffffffffffffffffffffffffffffffffff168173ffffffffffffffffffffffffffffffffffffffff161415610d63576040517f08c379a0000000000000000000000000000000000000000000000000000000008152600401610d5a90611d55565b60405180910390fd5b610d6c81611598565b50565b610d7a82308361064d565b506001600860008473ffffffffffffffffffffffffffffffffffffffff1673ffffffffffffffffffffffffffffffffffffffff16815260200190815260200160002060006101000a81548160ff021916908315150217905550600b60405180608001604052803373ffffffffffffffffffffffffffffffffffffffff1681526020018473ffffffffffffffffffffffffffffffffffffffff16815260200183815260200142815250908060018154018082558091505060019003906000526020600020906004020160009091909190915060008201518160000160006101000a81548173ffffffffffffffffffffffffffffffffffffffff021916908373ffffffffffffffffffffffffffffffffffffffff16021790555060208201518160010160006101000a81548173ffffffffffffffffffffffffffffffffffffffff021916908373ffffffffffffffffffffffffffffffffffffffff160217905550604082015181600201556060820151816003015550508173ffffffffffffffffffffffffffffffffffffffff163373ffffffffffffffffffffffffffffffffffffffff167fddf252ad1be2c89b69c2b068fc378daa952ba7f163c4a11628f55a4df523b3ef83604051610f4c9190611e75565b60405180910390a35050565b600033905090565b600073ffffffffffffffffffffffffffffffffffffffff168373ffffffffffffffffffffffffffffffffffffffff161415610fd0576040517f08c379a0000000000000000000000000000000000000000000000000000000008152600401610fc790611e15565b60405180910390fd5b600073ffffffffffffffffffffffffffffffffffffffff168273ffffffffffffffffffffffffffffffffffffffff161415611040576040517f08c379a000000000000000000000000000000000000000000000000000000000815260040161103790611d75565b60405180910390fd5b80600160008573ffffffffffffffffffffffffffffffffffffffff1673ffffffffffffffffffffffffffffffffffffffff16815260200190815260200160002060008473ffffffffffffffffffffffffffffffffffffffff1673ffffffffffffffffffffffffffffffffffffffff168152602001908152602001600020819055508173ffffffffffffffffffffffffffffffffffffffff168373ffffffffffffffffffffffffffffffffffffffff167f8c5be1e5ebec7d5bd14f71427d1e84f3dd0314c0f7b2291e5b200ac8c7c3b9258360405161111e9190611e75565b60405180910390a3505050565b60006111378484610bf0565b90507fffffffffffffffffffffffffffffffffffffffffffffffffffffffffffffffff81146111b157818110156111a3576040517f08c379a000000000000000000000000000000000000000000000000000000000815260040161119a90611d95565b60405180910390fd5b6111b08484848403610f60565b5b50505050565b600073ffffffffffffffffffffffffffffffffffffffff168373ffffffffffffffffffffffffffffffffffffffff161415611227576040517f08c379a000000000000000000000000000000000000000000000000000000000815260040161121e90611df5565b60405180910390fd5b600073ffffffffffffffffffffffffffffffffffffffff168273ffffffffffffffffffffffffffffffffffffffff161415611297576040517f08c379a000000000000000000000000000000000000000000000000000000000815260040161128e90611d35565b60405180910390fd5b6112a283838361165e565b60008060008573ffffffffffffffffffffffffffffffffffffffff1673ffffffffffffffffffffffffffffffffffffffff16815260200190815260200160002054905081811015611328576040517f08c379a000000000000000000000000000000000000000000000000000000000815260040161131f90611db5565b60405180910390fd5b8181036000808673ffffffffffffffffffffffffffffffffffffffff1673ffffffffffffffffffffffffffffffffffffffff16815260200190815260200160002081905550816000808573ffffffffffffffffffffffffffffffffffffffff1673ffffffffffffffffffffffffffffffffffffffff16815260200190815260200160002060008282546113bb9190611f00565b925050819055508273ffffffffffffffffffffffffffffffffffffffff168473ffffffffffffffffffffffffffffffffffffffff167fddf252ad1be2c89b69c2b068fc378daa952ba7f163c4a11628f55a4df523b3ef8460405161141f9190611e75565b60405180910390a3611432848484611663565b50505050565b600073ffffffffffffffffffffffffffffffffffffffff168273ffffffffffffffffffffffffffffffffffffffff1614156114a8576040517f08c379a000000000000000000000000000000000000000000000000000000000815260040161149f90611e55565b60405180910390fd5b6114b46000838361165e565b80600260008282546114c69190611f00565b92505081905550806000808473ffffffffffffffffffffffffffffffffffffffff1673ffffffffffffffffffffffffffffffffffffffff168152602001908152602001600020600082825461151b9190611f00565b925050819055508173ffffffffffffffffffffffffffffffffffffffff16600073ffffffffffffffffffffffffffffffffffffffff167fddf252ad1be2c89b69c2b068fc378daa952ba7f163c4a11628f55a4df523b3ef836040516115809190611e75565b60405180910390a361159460008383611663565b5050565b6000600560009054906101000a900473ffffffffffffffffffffffffffffffffffffffff16905081600560006101000a81548173ffffffffffffffffffffffffffffffffffffffff021916908373ffffffffffffffffffffffffffffffffffffffff1602179055508173ffffffffffffffffffffffffffffffffffffffff168173ffffffffffffffffffffffffffffffffffffffff167f8be0079c531659141344cd1fd0a4f28419497f9722a3daafe3b4186f6b6457e060405160405180910390a35050565b505050565b505050565b600081359050611677816120f1565b92915050565b60008135905061168c81612108565b92915050565b6000813590506116a18161211f565b92915050565b6000602082840312156116b957600080fd5b60006116c784828501611668565b91505092915050565b600080604083850312156116e357600080fd5b60006116f18582860161167d565b925050602061170285828601611692565b9150509250929050565b6000806040838503121561171f57600080fd5b600061172d85828601611668565b925050602061173e85828601611668565b9150509250929050565b60008060006060848603121561175d57600080fd5b600061176b86828701611668565b935050602061177c86828701611668565b925050604061178d86828701611692565b9150509250925092565b600080604083850312156117aa57600080fd5b60006117b885828601611668565b92505060206117c985828601611692565b9150509250929050565b60006117df8383611c39565b60808301905092915050565b6117f481611f87565b82525050565b61180381611f87565b82525050565b600061181482611ebb565b61181e8185611ede565b935061182983611eab565b8060005b8381101561185a57815161184188826117d3565b975061184c83611ed1565b92505060018101905061182d565b5085935050505092915050565b61187081611fab565b82525050565b600061188182611ec6565b61188b8185611eef565b935061189b818560208601611fee565b6118a4816120e0565b840191505092915050565b60006118bc602383611eef565b91507f45524332303a207472616e7366657220746f20746865207a65726f206164647260008301527f65737300000000000000000000000000000000000000000000000000000000006020830152604082019050919050565b6000611922602683611eef565b91507f4f776e61626c653a206e6577206f776e657220697320746865207a65726f206160008301527f64647265737300000000000000000000000000000000000000000000000000006020830152604082019050919050565b6000611988602283611eef565b91507f45524332303a20617070726f766520746f20746865207a65726f20616464726560008301527f73730000000000000000000000000000000000000000000000000000000000006020830152604082019050919050565b60006119ee601d83611eef565b91507f45524332303a20696e73756666696369656e7420616c6c6f77616e63650000006000830152602082019050919050565b6000611a2e602683611eef565b91507f45524332303a207472616e7366657220616d6f756e742065786365656473206260008301527f616c616e636500000000000000000000000000000000000000000000000000006020830152604082019050919050565b6000611a94602083611eef565b91507f4f776e61626c653a2063616c6c6572206973206e6f7420746865206f776e65726000830152602082019050919050565b6000611ad4602583611eef565b91507f45524332303a207472616e736665722066726f6d20746865207a65726f20616460008301527f64726573730000000000000000000000000000000000000000000000000000006020830152604082019050919050565b6000611b3a602483611eef565b91507f45524332303a20617070726f76652066726f6d20746865207a65726f2061646460008301527f72657373000000000000000000000000000000000000000000000000000000006020830152604082019050919050565b6000611ba0602583611eef565b91507f45524332303a2064656372656173656420616c6c6f77616e63652062656c6f7760008301527f207a65726f0000000000000000000000000000000000000000000000000000006020830152604082019050919050565b6000611c06601f83611eef565b91507f45524332303a206d696e7420746f20746865207a65726f2061646472657373006000830152602082019050919050565b608082016000820151611c4f60008501826117eb565b506020820151611c6260208501826117eb565b506040820151611c756040850182611c8e565b506060820151611c886060850182611c8e565b50505050565b611c9781611fd7565b82525050565b611ca681611fd7565b82525050565b611cb581611fe1565b82525050565b6000602082019050611cd060008301846117fa565b92915050565b60006020820190508181036000830152611cf08184611809565b905092915050565b6000602082019050611d0d6000830184611867565b92915050565b60006020820190508181036000830152611d2d8184611876565b905092915050565b60006020820190508181036000830152611d4e816118af565b9050919050565b60006020820190508181036000830152611d6e81611915565b9050919050565b60006020820190508181036000830152611d8e8161197b565b9050919050565b60006020820190508181036000830152611dae816119e1565b9050919050565b60006020820190508181036000830152611dce81611a21565b9050919050565b60006020820190508181036000830152611dee81611a87565b9050919050565b60006020820190508181036000830152611e0e81611ac7565b9050919050565b60006020820190508181036000830152611e2e81611b2d565b9050919050565b60006020820190508181036000830152611e4e81611b93565b9050919050565b60006020820190508181036000830152611e6e81611bf9565b9050919050565b6000602082019050611e8a6000830184611c9d565b92915050565b6000602082019050611ea56000830184611cac565b92915050565b6000819050602082019050919050565b600081519050919050565b600081519050919050565b6000602082019050919050565b600082825260208201905092915050565b600082825260208201905092915050565b6000611f0b82611fd7565b9150611f1683611fd7565b9250827fffffffffffffffffffffffffffffffffffffffffffffffffffffffffffffffff03821115611f4b57611f4a612053565b5b828201905092915050565b6000611f6182611fd7565b9150611f6c83611fd7565b925082611f7c57611f7b612082565b5b828204905092915050565b6000611f9282611fb7565b9050919050565b6000611fa482611fb7565b9050919050565b60008115159050919050565b600073ffffffffffffffffffffffffffffffffffffffff82169050919050565b6000819050919050565b600060ff82169050919050565b60005b8381101561200c578082015181840152602081019050611ff1565b8381111561201b576000848401525b50505050565b6000600282049050600182168061203957607f821691505b6020821081141561204d5761204c6120b1565b5b50919050565b7f4e487b7100000000000000000000000000000000000000000000000000000000600052601160045260246000fd5b7f4e487b7100000000000000000000000000000000000000000000000000000000600052601260045260246000fd5b7f4e487b7100000000000000000000000000000000000000000000000000000000600052602260045260246000fd5b6000601f19601f8301169050919050565b6120fa81611f87565b811461210557600080fd5b50565b61211181611f99565b811461211c57600080fd5b50565b61212881611fd7565b811461213357600080fd5b5056fea2646970667358221220d698f39deb14a7e9f8867d80c31e6e08203b1b48013a471739b833db3668857664736f6c63430008000033",
					"opcodes": "PUSH1 0x80 PUSH1 0x40 MSTORE PUSH8 0x16345785D8A0000 PUSH1 0x6 SSTORE CALLVALUE DUP1 ISZERO PUSH3 0x1D JUMPI PUSH1 0x0 DUP1 REVERT JUMPDEST POP PUSH1 0x40 MLOAD DUP1 PUSH1 0x40 ADD PUSH1 0x40 MSTORE DUP1 PUSH1 0xE DUP2 MSTORE PUSH1 0x20 ADD PUSH32 0x56696E746167652D63727970746F000000000000000000000000000000000000 DUP2 MSTORE POP PUSH1 0x40 MLOAD DUP1 PUSH1 0x40 ADD PUSH1 0x40 MSTORE DUP1 PUSH1 0x4 DUP2 MSTORE PUSH1 0x20 ADD PUSH32 0x2456495400000000000000000000000000000000000000000000000000000000 DUP2 MSTORE POP DUP2 PUSH1 0x3 SWAP1 DUP1 MLOAD SWAP1 PUSH1 0x20 ADD SWAP1 PUSH3 0xA2 SWAP3 SWAP2 SWAP1 PUSH3 0x37C JUMP JUMPDEST POP DUP1 PUSH1 0x4 SWAP1 DUP1 MLOAD SWAP1 PUSH1 0x20 ADD SWAP1 PUSH3 0xBB SWAP3 SWAP2 SWAP1 PUSH3 0x37C JUMP JUMPDEST POP POP POP PUSH3 0xDE PUSH3 0xD2 PUSH3 0x122 PUSH1 0x20 SHL PUSH1 0x20 SHR JUMP JUMPDEST PUSH3 0x12A PUSH1 0x20 SHL PUSH1 0x20 SHR JUMP JUMPDEST PUSH3 0x11C CALLER PUSH3 0xF3 PUSH3 0x1F0 PUSH1 0x20 SHL PUSH1 0x20 SHR JUMP JUMPDEST PUSH1 0xA PUSH3 0x101 SWAP2 SWAP1 PUSH3 0x587 JUMP JUMPDEST PUSH2 0x3E8 PUSH3 0x110 SWAP2 SWAP1 PUSH3 0x6C4 JUMP JUMPDEST PUSH3 0x1F9 PUSH1 0x20 SHL PUSH1 0x20 SHR JUMP JUMPDEST PUSH3 0x7DD JUMP JUMPDEST PUSH1 0x0 CALLER SWAP1 POP SWAP1 JUMP JUMPDEST PUSH1 0x0 PUSH1 0x5 PUSH1 0x0 SWAP1 SLOAD SWAP1 PUSH2 0x100 EXP SWAP1 DIV PUSH20 0xFFFFFFFFFFFFFFFFFFFFFFFFFFFFFFFFFFFFFFFF AND SWAP1 POP DUP2 PUSH1 0x5 PUSH1 0x0 PUSH2 0x100 EXP DUP2 SLOAD DUP2 PUSH20 0xFFFFFFFFFFFFFFFFFFFFFFFFFFFFFFFFFFFFFFFF MUL NOT AND SWAP1 DUP4 PUSH20 0xFFFFFFFFFFFFFFFFFFFFFFFFFFFFFFFFFFFFFFFF AND MUL OR SWAP1 SSTORE POP DUP2 PUSH20 0xFFFFFFFFFFFFFFFFFFFFFFFFFFFFFFFFFFFFFFFF AND DUP2 PUSH20 0xFFFFFFFFFFFFFFFFFFFFFFFFFFFFFFFFFFFFFFFF AND PUSH32 0x8BE0079C531659141344CD1FD0A4F28419497F9722A3DAAFE3B4186F6B6457E0 PUSH1 0x40 MLOAD PUSH1 0x40 MLOAD DUP1 SWAP2 SUB SWAP1 LOG3 POP POP JUMP JUMPDEST PUSH1 0x0 PUSH1 0x12 SWAP1 POP SWAP1 JUMP JUMPDEST PUSH1 0x0 PUSH20 0xFFFFFFFFFFFFFFFFFFFFFFFFFFFFFFFFFFFFFFFF AND DUP3 PUSH20 0xFFFFFFFFFFFFFFFFFFFFFFFFFFFFFFFFFFFFFFFF AND EQ ISZERO PUSH3 0x26C JUMPI PUSH1 0x40 MLOAD PUSH32 0x8C379A000000000000000000000000000000000000000000000000000000000 DUP2 MSTORE PUSH1 0x4 ADD PUSH3 0x263 SWAP1 PUSH3 0x47F JUMP JUMPDEST PUSH1 0x40 MLOAD DUP1 SWAP2 SUB SWAP1 REVERT JUMPDEST PUSH3 0x280 PUSH1 0x0 DUP4 DUP4 PUSH3 0x372 PUSH1 0x20 SHL PUSH1 0x20 SHR JUMP JUMPDEST DUP1 PUSH1 0x2 PUSH1 0x0 DUP3 DUP3 SLOAD PUSH3 0x294 SWAP2 SWAP1 PUSH3 0x4CF JUMP JUMPDEST SWAP3 POP POP DUP2 SWAP1 SSTORE POP DUP1 PUSH1 0x0 DUP1 DUP5 PUSH20 0xFFFFFFFFFFFFFFFFFFFFFFFFFFFFFFFFFFFFFFFF AND PUSH20 0xFFFFFFFFFFFFFFFFFFFFFFFFFFFFFFFFFFFFFFFF AND DUP2 MSTORE PUSH1 0x20 ADD SWAP1 DUP2 MSTORE PUSH1 0x20 ADD PUSH1 0x0 KECCAK256 PUSH1 0x0 DUP3 DUP3 SLOAD PUSH3 0x2EB SWAP2 SWAP1 PUSH3 0x4CF JUMP JUMPDEST SWAP3 POP POP DUP2 SWAP1 SSTORE POP DUP2 PUSH20 0xFFFFFFFFFFFFFFFFFFFFFFFFFFFFFFFFFFFFFFFF AND PUSH1 0x0 PUSH20 0xFFFFFFFFFFFFFFFFFFFFFFFFFFFFFFFFFFFFFFFF AND PUSH32 0xDDF252AD1BE2C89B69C2B068FC378DAA952BA7F163C4A11628F55A4DF523B3EF DUP4 PUSH1 0x40 MLOAD PUSH3 0x352 SWAP2 SWAP1 PUSH3 0x4A1 JUMP JUMPDEST PUSH1 0x40 MLOAD DUP1 SWAP2 SUB SWAP1 LOG3 PUSH3 0x36E PUSH1 0x0 DUP4 DUP4 PUSH3 0x377 PUSH1 0x20 SHL PUSH1 0x20 SHR JUMP JUMPDEST POP POP JUMP JUMPDEST POP POP POP JUMP JUMPDEST POP POP POP JUMP JUMPDEST DUP3 DUP1 SLOAD PUSH3 0x38A SWAP1 PUSH3 0x73C JUMP JUMPDEST SWAP1 PUSH1 0x0 MSTORE PUSH1 0x20 PUSH1 0x0 KECCAK256 SWAP1 PUSH1 0x1F ADD PUSH1 0x20 SWAP1 DIV DUP2 ADD SWAP3 DUP3 PUSH3 0x3AE JUMPI PUSH1 0x0 DUP6 SSTORE PUSH3 0x3FA JUMP JUMPDEST DUP3 PUSH1 0x1F LT PUSH3 0x3C9 JUMPI DUP1 MLOAD PUSH1 0xFF NOT AND DUP4 DUP1 ADD OR DUP6 SSTORE PUSH3 0x3FA JUMP JUMPDEST DUP3 DUP1 ADD PUSH1 0x1 ADD DUP6 SSTORE DUP3 ISZERO PUSH3 0x3FA JUMPI SWAP2 DUP3 ADD JUMPDEST DUP3 DUP2 GT ISZERO PUSH3 0x3F9 JUMPI DUP3 MLOAD DUP3 SSTORE SWAP2 PUSH1 0x20 ADD SWAP2 SWAP1 PUSH1 0x1 ADD SWAP1 PUSH3 0x3DC JUMP JUMPDEST JUMPDEST POP SWAP1 POP PUSH3 0x409 SWAP2 SWAP1 PUSH3 0x40D JUMP JUMPDEST POP SWAP1 JUMP JUMPDEST JUMPDEST DUP1 DUP3 GT ISZERO PUSH3 0x428 JUMPI PUSH1 0x0 DUP2 PUSH1 0x0 SWAP1 SSTORE POP PUSH1 0x1 ADD PUSH3 0x40E JUMP JUMPDEST POP SWAP1 JUMP JUMPDEST PUSH1 0x0 PUSH3 0x43B PUSH1 0x1F DUP4 PUSH3 0x4BE JUMP JUMPDEST SWAP2 POP PUSH32 0x45524332303A206D696E7420746F20746865207A65726F206164647265737300 PUSH1 0x0 DUP4 ADD MSTORE PUSH1 0x20 DUP3 ADD SWAP1 POP SWAP2 SWAP1 POP JUMP JUMPDEST PUSH3 0x479 DUP2 PUSH3 0x725 JUMP JUMPDEST DUP3 MSTORE POP POP JUMP JUMPDEST PUSH1 0x0 PUSH1 0x20 DUP3 ADD SWAP1 POP DUP2 DUP2 SUB PUSH1 0x0 DUP4 ADD MSTORE PUSH3 0x49A DUP2 PUSH3 0x42C JUMP JUMPDEST SWAP1 POP SWAP2 SWAP1 POP JUMP JUMPDEST PUSH1 0x0 PUSH1 0x20 DUP3 ADD SWAP1 POP PUSH3 0x4B8 PUSH1 0x0 DUP4 ADD DUP5 PUSH3 0x46E JUMP JUMPDEST SWAP3 SWAP2 POP POP JUMP JUMPDEST PUSH1 0x0 DUP3 DUP3 MSTORE PUSH1 0x20 DUP3 ADD SWAP1 POP SWAP3 SWAP2 POP POP JUMP JUMPDEST PUSH1 0x0 PUSH3 0x4DC DUP3 PUSH3 0x725 JUMP JUMPDEST SWAP2 POP PUSH3 0x4E9 DUP4 PUSH3 0x725 JUMP JUMPDEST SWAP3 POP DUP3 PUSH32 0xFFFFFFFFFFFFFFFFFFFFFFFFFFFFFFFFFFFFFFFFFFFFFFFFFFFFFFFFFFFFFFFF SUB DUP3 GT ISZERO PUSH3 0x521 JUMPI PUSH3 0x520 PUSH3 0x772 JUMP JUMPDEST JUMPDEST DUP3 DUP3 ADD SWAP1 POP SWAP3 SWAP2 POP POP JUMP JUMPDEST PUSH1 0x0 DUP1 DUP3 SWAP2 POP DUP4 SWAP1 POP JUMPDEST PUSH1 0x1 DUP6 GT ISZERO PUSH3 0x57E JUMPI DUP1 DUP7 DIV DUP2 GT ISZERO PUSH3 0x556 JUMPI PUSH3 0x555 PUSH3 0x772 JUMP JUMPDEST JUMPDEST PUSH1 0x1 DUP6 AND ISZERO PUSH3 0x566 JUMPI DUP1 DUP3 MUL SWAP2 POP JUMPDEST DUP1 DUP2 MUL SWAP1 POP PUSH3 0x576 DUP6 PUSH3 0x7D0 JUMP JUMPDEST SWAP5 POP PUSH3 0x536 JUMP JUMPDEST SWAP5 POP SWAP5 SWAP3 POP POP POP JUMP JUMPDEST PUSH1 0x0 PUSH3 0x594 DUP3 PUSH3 0x725 JUMP JUMPDEST SWAP2 POP PUSH3 0x5A1 DUP4 PUSH3 0x72F JUMP JUMPDEST SWAP3 POP PUSH3 0x5D0 PUSH32 0xFFFFFFFFFFFFFFFFFFFFFFFFFFFFFFFFFFFFFFFFFFFFFFFFFFFFFFFFFFFFFFFF DUP5 DUP5 PUSH3 0x5D8 JUMP JUMPDEST SWAP1 POP SWAP3 SWAP2 POP POP JUMP JUMPDEST PUSH1 0x0 DUP3 PUSH3 0x5EA JUMPI PUSH1 0x1 SWAP1 POP PUSH3 0x6BD JUMP JUMPDEST DUP2 PUSH3 0x5FA JUMPI PUSH1 0x0 SWAP1 POP PUSH3 0x6BD JUMP JUMPDEST DUP2 PUSH1 0x1 DUP2 EQ PUSH3 0x613 JUMPI PUSH1 0x2 DUP2 EQ PUSH3 0x61E JUMPI PUSH3 0x654 JUMP JUMPDEST PUSH1 0x1 SWAP2 POP POP PUSH3 0x6BD JUMP JUMPDEST PUSH1 0xFF DUP5 GT ISZERO PUSH3 0x633 JUMPI PUSH3 0x632 PUSH3 0x772 JUMP JUMPDEST JUMPDEST DUP4 PUSH1 0x2 EXP SWAP2 POP DUP5 DUP3 GT ISZERO PUSH3 0x64D JUMPI PUSH3 0x64C PUSH3 0x772 JUMP JUMPDEST JUMPDEST POP PUSH3 0x6BD JUMP JUMPDEST POP PUSH1 0x20 DUP4 LT PUSH2 0x133 DUP4 LT AND PUSH1 0x4E DUP5 LT PUSH1 0xB DUP5 LT AND OR ISZERO PUSH3 0x68E JUMPI DUP3 DUP3 EXP SWAP1 POP DUP4 DUP2 GT ISZERO PUSH3 0x688 JUMPI PUSH3 0x687 PUSH3 0x772 JUMP JUMPDEST JUMPDEST PUSH3 0x6BD JUMP JUMPDEST PUSH3 0x69D DUP5 DUP5 DUP5 PUSH1 0x1 PUSH3 0x52C JUMP JUMPDEST SWAP3 POP SWAP1 POP DUP2 DUP5 DIV DUP2 GT ISZERO PUSH3 0x6B7 JUMPI PUSH3 0x6B6 PUSH3 0x772 JUMP JUMPDEST JUMPDEST DUP2 DUP2 MUL SWAP1 POP JUMPDEST SWAP4 SWAP3 POP POP POP JUMP JUMPDEST PUSH1 0x0 PUSH3 0x6D1 DUP3 PUSH3 0x725 JUMP JUMPDEST SWAP2 POP PUSH3 0x6DE DUP4 PUSH3 0x725 JUMP JUMPDEST SWAP3 POP DUP2 PUSH32 0xFFFFFFFFFFFFFFFFFFFFFFFFFFFFFFFFFFFFFFFFFFFFFFFFFFFFFFFFFFFFFFFF DIV DUP4 GT DUP3 ISZERO ISZERO AND ISZERO PUSH3 0x71A JUMPI PUSH3 0x719 PUSH3 0x772 JUMP JUMPDEST JUMPDEST DUP3 DUP3 MUL SWAP1 POP SWAP3 SWAP2 POP POP JUMP JUMPDEST PUSH1 0x0 DUP2 SWAP1 POP SWAP2 SWAP1 POP JUMP JUMPDEST PUSH1 0x0 PUSH1 0xFF DUP3 AND SWAP1 POP SWAP2 SWAP1 POP JUMP JUMPDEST PUSH1 0x0 PUSH1 0x2 DUP3 DIV SWAP1 POP PUSH1 0x1 DUP3 AND DUP1 PUSH3 0x755 JUMPI PUSH1 0x7F DUP3 AND SWAP2 POP JUMPDEST PUSH1 0x20 DUP3 LT DUP2 EQ ISZERO PUSH3 0x76C JUMPI PUSH3 0x76B PUSH3 0x7A1 JUMP JUMPDEST JUMPDEST POP SWAP2 SWAP1 POP JUMP JUMPDEST PUSH32 0x4E487B7100000000000000000000000000000000000000000000000000000000 PUSH1 0x0 MSTORE PUSH1 0x11 PUSH1 0x4 MSTORE PUSH1 0x24 PUSH1 0x0 REVERT JUMPDEST PUSH32 0x4E487B7100000000000000000000000000000000000000000000000000000000 PUSH1 0x0 MSTORE PUSH1 0x22 PUSH1 0x4 MSTORE PUSH1 0x24 PUSH1 0x0 REVERT JUMPDEST PUSH1 0x0 DUP2 PUSH1 0x1 SHR SWAP1 POP SWAP2 SWAP1 POP JUMP JUMPDEST PUSH2 0x216C DUP1 PUSH3 0x7ED PUSH1 0x0 CODECOPY PUSH1 0x0 RETURN INVALID PUSH1 0x80 PUSH1 0x40 MSTORE CALLVALUE DUP1 ISZERO PUSH2 0x10 JUMPI PUSH1 0x0 DUP1 REVERT JUMPDEST POP PUSH1 0x4 CALLDATASIZE LT PUSH2 0x158 JUMPI PUSH1 0x0 CALLDATALOAD PUSH1 0xE0 SHR DUP1 PUSH4 0x789706AE GT PUSH2 0xC3 JUMPI DUP1 PUSH4 0xA9059CBB GT PUSH2 0x7C JUMPI DUP1 PUSH4 0xA9059CBB EQ PUSH2 0x3DF JUMPI DUP1 PUSH4 0xC93C8F34 EQ PUSH2 0x40F JUMPI DUP1 PUSH4 0xDBF9F652 EQ PUSH2 0x43F JUMPI DUP1 PUSH4 0xDD62ED3E EQ PUSH2 0x45D JUMPI DUP1 PUSH4 0xF2FDE38B EQ PUSH2 0x48D JUMPI DUP1 PUSH4 0xF739ED9E EQ PUSH2 0x4A9 JUMPI PUSH2 0x158 JUMP JUMPDEST DUP1 PUSH4 0x789706AE EQ PUSH2 0x307 JUMPI DUP1 PUSH4 0x8DA5CB5B EQ PUSH2 0x325 JUMPI DUP1 PUSH4 0x95D89B41 EQ PUSH2 0x343 JUMPI DUP1 PUSH4 0xA4101788 EQ PUSH2 0x361 JUMPI DUP1 PUSH4 0xA457C2D7 EQ PUSH2 0x391 JUMPI DUP1 PUSH4 0xA6C75797 EQ PUSH2 0x3C1 JUMPI PUSH2 0x158 JUMP JUMPDEST DUP1 PUSH4 0x27506F53 GT PUSH2 0x115 JUMPI DUP1 PUSH4 0x27506F53 EQ PUSH2 0x245 JUMPI DUP1 PUSH4 0x313CE567 EQ PUSH2 0x263 JUMPI DUP1 PUSH4 0x39509351 EQ PUSH2 0x281 JUMPI DUP1 PUSH4 0x68F8FC10 EQ PUSH2 0x2B1 JUMPI DUP1 PUSH4 0x70A08231 EQ PUSH2 0x2CD JUMPI DUP1 PUSH4 0x715018A6 EQ PUSH2 0x2FD JUMPI PUSH2 0x158 JUMP JUMPDEST DUP1 PUSH4 0x6FDDE03 EQ PUSH2 0x15D JUMPI DUP1 PUSH4 0x700037D EQ PUSH2 0x17B JUMPI DUP1 PUSH4 0x95EA7B3 EQ PUSH2 0x1AB JUMPI DUP1 PUSH4 0x174E31C4 EQ PUSH2 0x1DB JUMPI DUP1 PUSH4 0x18160DDD EQ PUSH2 0x1F7 JUMPI DUP1 PUSH4 0x23B872DD EQ PUSH2 0x215 JUMPI JUMPDEST PUSH1 0x0 DUP1 REVERT JUMPDEST PUSH2 0x165 PUSH2 0x4C5 JUMP JUMPDEST PUSH1 0x40 MLOAD PUSH2 0x172 SWAP2 SWAP1 PUSH2 0x1D13 JUMP JUMPDEST PUSH1 0x40 MLOAD DUP1 SWAP2 SUB SWAP1 RETURN JUMPDEST PUSH2 0x195 PUSH1 0x4 DUP1 CALLDATASIZE SUB DUP2 ADD SWAP1 PUSH2 0x190 SWAP2 SWAP1 PUSH2 0x16A7 JUMP JUMPDEST PUSH2 0x557 JUMP JUMPDEST PUSH1 0x40 MLOAD PUSH2 0x1A2 SWAP2 SWAP1 PUSH2 0x1E75 JUMP JUMPDEST PUSH1 0x40 MLOAD DUP1 SWAP2 SUB SWAP1 RETURN JUMPDEST PUSH2 0x1C5 PUSH1 0x4 DUP1 CALLDATASIZE SUB DUP2 ADD SWAP1 PUSH2 0x1C0 SWAP2 SWAP1 PUSH2 0x1797 JUMP JUMPDEST PUSH2 0x56F JUMP JUMPDEST PUSH1 0x40 MLOAD PUSH2 0x1D2 SWAP2 SWAP1 PUSH2 0x1CF8 JUMP JUMPDEST PUSH1 0x40 MLOAD DUP1 SWAP2 SUB SWAP1 RETURN JUMPDEST PUSH2 0x1F5 PUSH1 0x4 DUP1 CALLDATASIZE SUB DUP2 ADD SWAP1 PUSH2 0x1F0 SWAP2 SWAP1 PUSH2 0x16D0 JUMP JUMPDEST PUSH2 0x592 JUMP JUMPDEST STOP JUMPDEST PUSH2 0x1FF PUSH2 0x643 JUMP JUMPDEST PUSH1 0x40 MLOAD PUSH2 0x20C SWAP2 SWAP1 PUSH2 0x1E75 JUMP JUMPDEST PUSH1 0x40 MLOAD DUP1 SWAP2 SUB SWAP1 RETURN JUMPDEST PUSH2 0x22F PUSH1 0x4 DUP1 CALLDATASIZE SUB DUP2 ADD SWAP1 PUSH2 0x22A SWAP2 SWAP1 PUSH2 0x1748 JUMP JUMPDEST PUSH2 0x64D JUMP JUMPDEST PUSH1 0x40 MLOAD PUSH2 0x23C SWAP2 SWAP1 PUSH2 0x1CF8 JUMP JUMPDEST PUSH1 0x40 MLOAD DUP1 SWAP2 SUB SWAP1 RETURN JUMPDEST PUSH2 0x24D PUSH2 0x67C JUMP JUMPDEST PUSH1 0x40 MLOAD PUSH2 0x25A SWAP2 SWAP1 PUSH2 0x1CD6 JUMP JUMPDEST PUSH1 0x40 MLOAD DUP1 SWAP2 SUB SWAP1 RETURN JUMPDEST PUSH2 0x26B PUSH2 0x79B JUMP JUMPDEST PUSH1 0x40 MLOAD PUSH2 0x278 SWAP2 SWAP1 PUSH2 0x1E90 JUMP JUMPDEST PUSH1 0x40 MLOAD DUP1 SWAP2 SUB SWAP1 RETURN JUMPDEST PUSH2 0x29B PUSH1 0x4 DUP1 CALLDATASIZE SUB DUP2 ADD SWAP1 PUSH2 0x296 SWAP2 SWAP1 PUSH2 0x1797 JUMP JUMPDEST PUSH2 0x7A4 JUMP JUMPDEST PUSH1 0x40 MLOAD PUSH2 0x2A8 SWAP2 SWAP1 PUSH2 0x1CF8 JUMP JUMPDEST PUSH1 0x40 MLOAD DUP1 SWAP2 SUB SWAP1 RETURN JUMPDEST PUSH2 0x2CB PUSH1 0x4 DUP1 CALLDATASIZE SUB DUP2 ADD SWAP1 PUSH2 0x2C6 SWAP2 SWAP1 PUSH2 0x1797 JUMP JUMPDEST PUSH2 0x84E JUMP JUMPDEST STOP JUMPDEST PUSH2 0x2E7 PUSH1 0x4 DUP1 CALLDATASIZE SUB DUP2 ADD SWAP1 PUSH2 0x2E2 SWAP2 SWAP1 PUSH2 0x16A7 JUMP JUMPDEST PUSH2 0x8D8 JUMP JUMPDEST PUSH1 0x40 MLOAD PUSH2 0x2F4 SWAP2 SWAP1 PUSH2 0x1E75 JUMP JUMPDEST PUSH1 0x40 MLOAD DUP1 SWAP2 SUB SWAP1 RETURN JUMPDEST PUSH2 0x305 PUSH2 0x920 JUMP JUMPDEST STOP JUMPDEST PUSH2 0x30F PUSH2 0x9A8 JUMP JUMPDEST PUSH1 0x40 MLOAD PUSH2 0x31C SWAP2 SWAP1 PUSH2 0x1E75 JUMP JUMPDEST PUSH1 0x40 MLOAD DUP1 SWAP2 SUB SWAP1 RETURN JUMPDEST PUSH2 0x32D PUSH2 0x9B2 JUMP JUMPDEST PUSH1 0x40 MLOAD PUSH2 0x33A SWAP2 SWAP1 PUSH2 0x1CBB JUMP JUMPDEST PUSH1 0x40 MLOAD DUP1 SWAP2 SUB SWAP1 RETURN JUMPDEST PUSH2 0x34B PUSH2 0x9DC JUMP JUMPDEST PUSH1 0x40 MLOAD PUSH2 0x358 SWAP2 SWAP1 PUSH2 0x1D13 JUMP JUMPDEST PUSH1 0x40 MLOAD DUP1 SWAP2 SUB SWAP1 RETURN JUMPDEST PUSH2 0x37B PUSH1 0x4 DUP1 CALLDATASIZE SUB DUP2 ADD SWAP1 PUSH2 0x376 SWAP2 SWAP1 PUSH2 0x16A7 JUMP JUMPDEST PUSH2 0xA6E JUMP JUMPDEST PUSH1 0x40 MLOAD PUSH2 0x388 SWAP2 SWAP1 PUSH2 0x1E75 JUMP JUMPDEST PUSH1 0x40 MLOAD DUP1 SWAP2 SUB SWAP1 RETURN JUMPDEST PUSH2 0x3AB PUSH1 0x4 DUP1 CALLDATASIZE SUB DUP2 ADD SWAP1 PUSH2 0x3A6 SWAP2 SWAP1 PUSH2 0x1797 JUMP JUMPDEST PUSH2 0xAB7 JUMP JUMPDEST PUSH1 0x40 MLOAD PUSH2 0x3B8 SWAP2 SWAP1 PUSH2 0x1CF8 JUMP JUMPDEST PUSH1 0x40 MLOAD DUP1 SWAP2 SUB SWAP1 RETURN JUMPDEST PUSH2 0x3C9 PUSH2 0xBA1 JUMP JUMPDEST PUSH1 0x40 MLOAD PUSH2 0x3D6 SWAP2 SWAP1 PUSH2 0x1E75 JUMP JUMPDEST PUSH1 0x40 MLOAD DUP1 SWAP2 SUB SWAP1 RETURN JUMPDEST PUSH2 0x3F9 PUSH1 0x4 DUP1 CALLDATASIZE SUB DUP2 ADD SWAP1 PUSH2 0x3F4 SWAP2 SWAP1 PUSH2 0x1797 JUMP JUMPDEST PUSH2 0xBA7 JUMP JUMPDEST PUSH1 0x40 MLOAD PUSH2 0x406 SWAP2 SWAP1 PUSH2 0x1CF8 JUMP JUMPDEST PUSH1 0x40 MLOAD DUP1 SWAP2 SUB SWAP1 RETURN JUMPDEST PUSH2 0x429 PUSH1 0x4 DUP1 CALLDATASIZE SUB DUP2 ADD SWAP1 PUSH2 0x424 SWAP2 SWAP1 PUSH2 0x16A7 JUMP JUMPDEST PUSH2 0xBCA JUMP JUMPDEST PUSH1 0x40 MLOAD PUSH2 0x436 SWAP2 SWAP1 PUSH2 0x1CF8 JUMP JUMPDEST PUSH1 0x40 MLOAD DUP1 SWAP2 SUB SWAP1 RETURN JUMPDEST PUSH2 0x447 PUSH2 0xBEA JUMP JUMPDEST PUSH1 0x40 MLOAD PUSH2 0x454 SWAP2 SWAP1 PUSH2 0x1E75 JUMP JUMPDEST PUSH1 0x40 MLOAD DUP1 SWAP2 SUB SWAP1 RETURN JUMPDEST PUSH2 0x477 PUSH1 0x4 DUP1 CALLDATASIZE SUB DUP2 ADD SWAP1 PUSH2 0x472 SWAP2 SWAP1 PUSH2 0x170C JUMP JUMPDEST PUSH2 0xBF0 JUMP JUMPDEST PUSH1 0x40 MLOAD PUSH2 0x484 SWAP2 SWAP1 PUSH2 0x1E75 JUMP JUMPDEST PUSH1 0x40 MLOAD DUP1 SWAP2 SUB SWAP1 RETURN JUMPDEST PUSH2 0x4A7 PUSH1 0x4 DUP1 CALLDATASIZE SUB DUP2 ADD SWAP1 PUSH2 0x4A2 SWAP2 SWAP1 PUSH2 0x16A7 JUMP JUMPDEST PUSH2 0xC77 JUMP JUMPDEST STOP JUMPDEST PUSH2 0x4C3 PUSH1 0x4 DUP1 CALLDATASIZE SUB DUP2 ADD SWAP1 PUSH2 0x4BE SWAP2 SWAP1 PUSH2 0x1797 JUMP JUMPDEST PUSH2 0xD6F JUMP JUMPDEST STOP JUMPDEST PUSH1 0x60 PUSH1 0x3 DUP1 SLOAD PUSH2 0x4D4 SWAP1 PUSH2 0x2021 JUMP JUMPDEST DUP1 PUSH1 0x1F ADD PUSH1 0x20 DUP1 SWAP2 DIV MUL PUSH1 0x20 ADD PUSH1 0x40 MLOAD SWAP1 DUP2 ADD PUSH1 0x40 MSTORE DUP1 SWAP3 SWAP2 SWAP1 DUP2 DUP2 MSTORE PUSH1 0x20 ADD DUP3 DUP1 SLOAD PUSH2 0x500 SWAP1 PUSH2 0x2021 JUMP JUMPDEST DUP1 ISZERO PUSH2 0x54D JUMPI DUP1 PUSH1 0x1F LT PUSH2 0x522 JUMPI PUSH2 0x100 DUP1 DUP4 SLOAD DIV MUL DUP4 MSTORE SWAP2 PUSH1 0x20 ADD SWAP2 PUSH2 0x54D JUMP JUMPDEST DUP3 ADD SWAP2 SWAP1 PUSH1 0x0 MSTORE PUSH1 0x20 PUSH1 0x0 KECCAK256 SWAP1 JUMPDEST DUP2 SLOAD DUP2 MSTORE SWAP1 PUSH1 0x1 ADD SWAP1 PUSH1 0x20 ADD DUP1 DUP4 GT PUSH2 0x530 JUMPI DUP3 SWAP1 SUB PUSH1 0x1F AND DUP3 ADD SWAP2 JUMPDEST POP POP POP POP POP SWAP1 POP SWAP1 JUMP JUMPDEST PUSH1 0xA PUSH1 0x20 MSTORE DUP1 PUSH1 0x0 MSTORE PUSH1 0x40 PUSH1 0x0 KECCAK256 PUSH1 0x0 SWAP2 POP SWAP1 POP SLOAD DUP2 JUMP JUMPDEST PUSH1 0x0 DUP1 PUSH2 0x57A PUSH2 0xF58 JUMP JUMPDEST SWAP1 POP PUSH2 0x587 DUP2 DUP6 DUP6 PUSH2 0xF60 JUMP JUMPDEST PUSH1 0x1 SWAP2 POP POP SWAP3 SWAP2 POP POP JUMP JUMPDEST PUSH1 0xA8 TIMESTAMP EQ PUSH2 0x59F JUMPI PUSH1 0x0 DUP1 REVERT JUMPDEST PUSH1 0x0 PUSH1 0xA PUSH1 0x0 DUP5 PUSH20 0xFFFFFFFFFFFFFFFFFFFFFFFFFFFFFFFFFFFFFFFF AND PUSH20 0xFFFFFFFFFFFFFFFFFFFFFFFFFFFFFFFFFFFFFFFF AND DUP2 MSTORE PUSH1 0x20 ADD SWAP1 DUP2 MSTORE PUSH1 0x20 ADD PUSH1 0x0 KECCAK256 SLOAD SWAP1 POP PUSH1 0x64 DUP3 PUSH2 0x5F0 SWAP2 SWAP1 PUSH2 0x1F56 JUMP JUMPDEST PUSH1 0xA PUSH1 0x0 DUP6 PUSH20 0xFFFFFFFFFFFFFFFFFFFFFFFFFFFFFFFFFFFFFFFF AND PUSH20 0xFFFFFFFFFFFFFFFFFFFFFFFFFFFFFFFFFFFFFFFF AND DUP2 MSTORE PUSH1 0x20 ADD SWAP1 DUP2 MSTORE PUSH1 0x20 ADD PUSH1 0x0 KECCAK256 DUP2 SWAP1 SSTORE POP PUSH2 0x63D DUP4 DUP3 PUSH2 0xBA7 JUMP JUMPDEST POP POP POP POP JUMP JUMPDEST PUSH1 0x0 PUSH1 0x2 SLOAD SWAP1 POP SWAP1 JUMP JUMPDEST PUSH1 0x0 DUP1 PUSH2 0x658 PUSH2 0xF58 JUMP JUMPDEST SWAP1 POP PUSH2 0x665 DUP6 DUP3 DUP6 PUSH2 0x112B JUMP JUMPDEST PUSH2 0x670 DUP6 DUP6 DUP6 PUSH2 0x11B7 JUMP JUMPDEST PUSH1 0x1 SWAP2 POP POP SWAP4 SWAP3 POP POP POP JUMP JUMPDEST PUSH1 0x60 PUSH1 0xB DUP1 SLOAD DUP1 PUSH1 0x20 MUL PUSH1 0x20 ADD PUSH1 0x40 MLOAD SWAP1 DUP2 ADD PUSH1 0x40 MSTORE DUP1 SWAP3 SWAP2 SWAP1 DUP2 DUP2 MSTORE PUSH1 0x20 ADD PUSH1 0x0 SWAP1 JUMPDEST DUP3 DUP3 LT ISZERO PUSH2 0x792 JUMPI DUP4 DUP3 SWAP1 PUSH1 0x0 MSTORE PUSH1 0x20 PUSH1 0x0 KECCAK256 SWAP1 PUSH1 0x4 MUL ADD PUSH1 0x40 MLOAD DUP1 PUSH1 0x80 ADD PUSH1 0x40 MSTORE SWAP1 DUP2 PUSH1 0x0 DUP3 ADD PUSH1 0x0 SWAP1 SLOAD SWAP1 PUSH2 0x100 EXP SWAP1 DIV PUSH20 0xFFFFFFFFFFFFFFFFFFFFFFFFFFFFFFFFFFFFFFFF AND PUSH20 0xFFFFFFFFFFFFFFFFFFFFFFFFFFFFFFFFFFFFFFFF AND PUSH20 0xFFFFFFFFFFFFFFFFFFFFFFFFFFFFFFFFFFFFFFFF AND DUP2 MSTORE PUSH1 0x20 ADD PUSH1 0x1 DUP3 ADD PUSH1 0x0 SWAP1 SLOAD SWAP1 PUSH2 0x100 EXP SWAP1 DIV PUSH20 0xFFFFFFFFFFFFFFFFFFFFFFFFFFFFFFFFFFFFFFFF AND PUSH20 0xFFFFFFFFFFFFFFFFFFFFFFFFFFFFFFFFFFFFFFFF AND PUSH20 0xFFFFFFFFFFFFFFFFFFFFFFFFFFFFFFFFFFFFFFFF AND DUP2 MSTORE PUSH1 0x20 ADD PUSH1 0x2 DUP3 ADD SLOAD DUP2 MSTORE PUSH1 0x20 ADD PUSH1 0x3 DUP3 ADD SLOAD DUP2 MSTORE POP POP DUP2 MSTORE PUSH1 0x20 ADD SWAP1 PUSH1 0x1 ADD SWAP1 PUSH2 0x6A0 JUMP JUMPDEST POP POP POP POP SWAP1 POP SWAP1 JUMP JUMPDEST PUSH1 0x0 PUSH1 0x12 SWAP1 POP SWAP1 JUMP JUMPDEST PUSH1 0x0 DUP1 PUSH2 0x7AF PUSH2 0xF58 JUMP JUMPDEST SWAP1 POP PUSH2 0x843 DUP2 DUP6 DUP6 PUSH1 0x1 PUSH1 0x0 DUP7 PUSH20 0xFFFFFFFFFFFFFFFFFFFFFFFFFFFFFFFFFFFFFFFF AND PUSH20 0xFFFFFFFFFFFFFFFFFFFFFFFFFFFFFFFFFFFFFFFF AND DUP2 MSTORE PUSH1 0x20 ADD SWAP1 DUP2 MSTORE PUSH1 0x20 ADD PUSH1 0x0 KECCAK256 PUSH1 0x0 DUP10 PUSH20 0xFFFFFFFFFFFFFFFFFFFFFFFFFFFFFFFFFFFFFFFF AND PUSH20 0xFFFFFFFFFFFFFFFFFFFFFFFFFFFFFFFFFFFFFFFF AND DUP2 MSTORE PUSH1 0x20 ADD SWAP1 DUP2 MSTORE PUSH1 0x20 ADD PUSH1 0x0 KECCAK256 SLOAD PUSH2 0x83E SWAP2 SWAP1 PUSH2 0x1F00 JUMP JUMPDEST PUSH2 0xF60 JUMP JUMPDEST PUSH1 0x1 SWAP2 POP POP SWAP3 SWAP2 POP POP JUMP JUMPDEST PUSH2 0x856 PUSH2 0xF58 JUMP JUMPDEST PUSH20 0xFFFFFFFFFFFFFFFFFFFFFFFFFFFFFFFFFFFFFFFF AND PUSH2 0x874 PUSH2 0x9B2 JUMP JUMPDEST PUSH20 0xFFFFFFFFFFFFFFFFFFFFFFFFFFFFFFFFFFFFFFFF AND EQ PUSH2 0x8CA JUMPI PUSH1 0x40 MLOAD PUSH32 0x8C379A000000000000000000000000000000000000000000000000000000000 DUP2 MSTORE PUSH1 0x4 ADD PUSH2 0x8C1 SWAP1 PUSH2 0x1DD5 JUMP JUMPDEST PUSH1 0x40 MLOAD DUP1 SWAP2 SUB SWAP1 REVERT JUMPDEST PUSH2 0x8D4 DUP3 DUP3 PUSH2 0x1438 JUMP JUMPDEST POP POP JUMP JUMPDEST PUSH1 0x0 DUP1 PUSH1 0x0 DUP4 PUSH20 0xFFFFFFFFFFFFFFFFFFFFFFFFFFFFFFFFFFFFFFFF AND PUSH20 0xFFFFFFFFFFFFFFFFFFFFFFFFFFFFFFFFFFFFFFFF AND DUP2 MSTORE PUSH1 0x20 ADD SWAP1 DUP2 MSTORE PUSH1 0x20 ADD PUSH1 0x0 KECCAK256 SLOAD SWAP1 POP SWAP2 SWAP1 POP JUMP JUMPDEST PUSH2 0x928 PUSH2 0xF58 JUMP JUMPDEST PUSH20 0xFFFFFFFFFFFFFFFFFFFFFFFFFFFFFFFFFFFFFFFF AND PUSH2 0x946 PUSH2 0x9B2 JUMP JUMPDEST PUSH20 0xFFFFFFFFFFFFFFFFFFFFFFFFFFFFFFFFFFFFFFFF AND EQ PUSH2 0x99C JUMPI PUSH1 0x40 MLOAD PUSH32 0x8C379A000000000000000000000000000000000000000000000000000000000 DUP2 MSTORE PUSH1 0x4 ADD PUSH2 0x993 SWAP1 PUSH2 0x1DD5 JUMP JUMPDEST PUSH1 0x40 MLOAD DUP1 SWAP2 SUB SWAP1 REVERT JUMPDEST PUSH2 0x9A6 PUSH1 0x0 PUSH2 0x1598 JUMP JUMPDEST JUMP JUMPDEST PUSH1 0x0 PUSH1 0x7 SLOAD SWAP1 POP SWAP1 JUMP JUMPDEST PUSH1 0x0 PUSH1 0x5 PUSH1 0x0 SWAP1 SLOAD SWAP1 PUSH2 0x100 EXP SWAP1 DIV PUSH20 0xFFFFFFFFFFFFFFFFFFFFFFFFFFFFFFFFFFFFFFFF AND SWAP1 POP SWAP1 JUMP JUMPDEST PUSH1 0x60 PUSH1 0x4 DUP1 SLOAD PUSH2 0x9EB SWAP1 PUSH2 0x2021 JUMP JUMPDEST DUP1 PUSH1 0x1F ADD PUSH1 0x20 DUP1 SWAP2 DIV MUL PUSH1 0x20 ADD PUSH1 0x40 MLOAD SWAP1 DUP2 ADD PUSH1 0x40 MSTORE DUP1 SWAP3 SWAP2 SWAP1 DUP2 DUP2 MSTORE PUSH1 0x20 ADD DUP3 DUP1 SLOAD PUSH2 0xA17 SWAP1 PUSH2 0x2021 JUMP JUMPDEST DUP1 ISZERO PUSH2 0xA64 JUMPI DUP1 PUSH1 0x1F LT PUSH2 0xA39 JUMPI PUSH2 0x100 DUP1 DUP4 SLOAD DIV MUL DUP4 MSTORE SWAP2 PUSH1 0x20 ADD SWAP2 PUSH2 0xA64 JUMP JUMPDEST DUP3 ADD SWAP2 SWAP1 PUSH1 0x0 MSTORE PUSH1 0x20 PUSH1 0x0 KECCAK256 SWAP1 JUMPDEST DUP2 SLOAD DUP2 MSTORE SWAP1 PUSH1 0x1 ADD SWAP1 PUSH1 0x20 ADD DUP1 DUP4 GT PUSH2 0xA47 JUMPI DUP3 SWAP1 SUB PUSH1 0x1F AND DUP3 ADD SWAP2 JUMPDEST POP POP POP POP POP SWAP1 POP SWAP1 JUMP JUMPDEST PUSH1 0x0 PUSH1 0x9 PUSH1 0x0 DUP4 PUSH20 0xFFFFFFFFFFFFFFFFFFFFFFFFFFFFFFFFFFFFFFFF AND PUSH20 0xFFFFFFFFFFFFFFFFFFFFFFFFFFFFFFFFFFFFFFFF AND DUP2 MSTORE PUSH1 0x20 ADD SWAP1 DUP2 MSTORE PUSH1 0x20 ADD PUSH1 0x0 KECCAK256 SLOAD SWAP1 POP SWAP2 SWAP1 POP JUMP JUMPDEST PUSH1 0x0 DUP1 PUSH2 0xAC2 PUSH2 0xF58 JUMP JUMPDEST SWAP1 POP PUSH1 0x0 PUSH1 0x1 PUSH1 0x0 DUP4 PUSH20 0xFFFFFFFFFFFFFFFFFFFFFFFFFFFFFFFFFFFFFFFF AND PUSH20 0xFFFFFFFFFFFFFFFFFFFFFFFFFFFFFFFFFFFFFFFF AND DUP2 MSTORE PUSH1 0x20 ADD SWAP1 DUP2 MSTORE PUSH1 0x20 ADD PUSH1 0x0 KECCAK256 PUSH1 0x0 DUP7 PUSH20 0xFFFFFFFFFFFFFFFFFFFFFFFFFFFFFFFFFFFFFFFF AND PUSH20 0xFFFFFFFFFFFFFFFFFFFFFFFFFFFFFFFFFFFFFFFF AND DUP2 MSTORE PUSH1 0x20 ADD SWAP1 DUP2 MSTORE PUSH1 0x20 ADD PUSH1 0x0 KECCAK256 SLOAD SWAP1 POP DUP4 DUP2 LT ISZERO PUSH2 0xB88 JUMPI PUSH1 0x40 MLOAD PUSH32 0x8C379A000000000000000000000000000000000000000000000000000000000 DUP2 MSTORE PUSH1 0x4 ADD PUSH2 0xB7F SWAP1 PUSH2 0x1E35 JUMP JUMPDEST PUSH1 0x40 MLOAD DUP1 SWAP2 SUB SWAP1 REVERT JUMPDEST PUSH2 0xB95 DUP3 DUP7 DUP7 DUP5 SUB PUSH2 0xF60 JUMP JUMPDEST PUSH1 0x1 SWAP3 POP POP POP SWAP3 SWAP2 POP POP JUMP JUMPDEST PUSH1 0x7 SLOAD DUP2 JUMP JUMPDEST PUSH1 0x0 DUP1 PUSH2 0xBB2 PUSH2 0xF58 JUMP JUMPDEST SWAP1 POP PUSH2 0xBBF DUP2 DUP6 DUP6 PUSH2 0x11B7 JUMP JUMPDEST PUSH1 0x1 SWAP2 POP POP SWAP3 SWAP2 POP POP JUMP JUMPDEST PUSH1 0x8 PUSH1 0x20 MSTORE DUP1 PUSH1 0x0 MSTORE PUSH1 0x40 PUSH1 0x0 KECCAK256 PUSH1 0x0 SWAP2 POP SLOAD SWAP1 PUSH2 0x100 EXP SWAP1 DIV PUSH1 0xFF AND DUP2 JUMP JUMPDEST PUSH1 0x6 SLOAD DUP2 JUMP JUMPDEST PUSH1 0x0 PUSH1 0x1 PUSH1 0x0 DUP5 PUSH20 0xFFFFFFFFFFFFFFFFFFFFFFFFFFFFFFFFFFFFFFFF AND PUSH20 0xFFFFFFFFFFFFFFFFFFFFFFFFFFFFFFFFFFFFFFFF AND DUP2 MSTORE PUSH1 0x20 ADD SWAP1 DUP2 MSTORE PUSH1 0x20 ADD PUSH1 0x0 KECCAK256 PUSH1 0x0 DUP4 PUSH20 0xFFFFFFFFFFFFFFFFFFFFFFFFFFFFFFFFFFFFFFFF AND PUSH20 0xFFFFFFFFFFFFFFFFFFFFFFFFFFFFFFFFFFFFFFFF AND DUP2 MSTORE PUSH1 0x20 ADD SWAP1 DUP2 MSTORE PUSH1 0x20 ADD PUSH1 0x0 KECCAK256 SLOAD SWAP1 POP SWAP3 SWAP2 POP POP JUMP JUMPDEST PUSH2 0xC7F PUSH2 0xF58 JUMP JUMPDEST PUSH20 0xFFFFFFFFFFFFFFFFFFFFFFFFFFFFFFFFFFFFFFFF AND PUSH2 0xC9D PUSH2 0x9B2 JUMP JUMPDEST PUSH20 0xFFFFFFFFFFFFFFFFFFFFFFFFFFFFFFFFFFFFFFFF AND EQ PUSH2 0xCF3 JUMPI PUSH1 0x40 MLOAD PUSH32 0x8C379A000000000000000000000000000000000000000000000000000000000 DUP2 MSTORE PUSH1 0x4 ADD PUSH2 0xCEA SWAP1 PUSH2 0x1DD5 JUMP JUMPDEST PUSH1 0x40 MLOAD DUP1 SWAP2 SUB SWAP1 REVERT JUMPDEST PUSH1 0x0 PUSH20 0xFFFFFFFFFFFFFFFFFFFFFFFFFFFFFFFFFFFFFFFF AND DUP2 PUSH20 0xFFFFFFFFFFFFFFFFFFFFFFFFFFFFFFFFFFFFFFFF AND EQ ISZERO PUSH2 0xD63 JUMPI PUSH1 0x40 MLOAD PUSH32 0x8C379A000000000000000000000000000000000000000000000000000000000 DUP2 MSTORE PUSH1 0x4 ADD PUSH2 0xD5A SWAP1 PUSH2 0x1D55 JUMP JUMPDEST PUSH1 0x40 MLOAD DUP1 SWAP2 SUB SWAP1 REVERT JUMPDEST PUSH2 0xD6C DUP2 PUSH2 0x1598 JUMP JUMPDEST POP JUMP JUMPDEST PUSH2 0xD7A DUP3 ADDRESS DUP4 PUSH2 0x64D JUMP JUMPDEST POP PUSH1 0x1 PUSH1 0x8 PUSH1 0x0 DUP5 PUSH20 0xFFFFFFFFFFFFFFFFFFFFFFFFFFFFFFFFFFFFFFFF AND PUSH20 0xFFFFFFFFFFFFFFFFFFFFFFFFFFFFFFFFFFFFFFFF AND DUP2 MSTORE PUSH1 0x20 ADD SWAP1 DUP2 MSTORE PUSH1 0x20 ADD PUSH1 0x0 KECCAK256 PUSH1 0x0 PUSH2 0x100 EXP DUP2 SLOAD DUP2 PUSH1 0xFF MUL NOT AND SWAP1 DUP4 ISZERO ISZERO MUL OR SWAP1 SSTORE POP PUSH1 0xB PUSH1 0x40 MLOAD DUP1 PUSH1 0x80 ADD PUSH1 0x40 MSTORE DUP1 CALLER PUSH20 0xFFFFFFFFFFFFFFFFFFFFFFFFFFFFFFFFFFFFFFFF AND DUP2 MSTORE PUSH1 0x20 ADD DUP5 PUSH20 0xFFFFFFFFFFFFFFFFFFFFFFFFFFFFFFFFFFFFFFFF AND DUP2 MSTORE PUSH1 0x20 ADD DUP4 DUP2 MSTORE PUSH1 0x20 ADD TIMESTAMP DUP2 MSTORE POP SWAP1 DUP1 PUSH1 0x1 DUP2 SLOAD ADD DUP1 DUP3 SSTORE DUP1 SWAP2 POP POP PUSH1 0x1 SWAP1 SUB SWAP1 PUSH1 0x0 MSTORE PUSH1 0x20 PUSH1 0x0 KECCAK256 SWAP1 PUSH1 0x4 MUL ADD PUSH1 0x0 SWAP1 SWAP2 SWAP1 SWAP2 SWAP1 SWAP2 POP PUSH1 0x0 DUP3 ADD MLOAD DUP2 PUSH1 0x0 ADD PUSH1 0x0 PUSH2 0x100 EXP DUP2 SLOAD DUP2 PUSH20 0xFFFFFFFFFFFFFFFFFFFFFFFFFFFFFFFFFFFFFFFF MUL NOT AND SWAP1 DUP4 PUSH20 0xFFFFFFFFFFFFFFFFFFFFFFFFFFFFFFFFFFFFFFFF AND MUL OR SWAP1 SSTORE POP PUSH1 0x20 DUP3 ADD MLOAD DUP2 PUSH1 0x1 ADD PUSH1 0x0 PUSH2 0x100 EXP DUP2 SLOAD DUP2 PUSH20 0xFFFFFFFFFFFFFFFFFFFFFFFFFFFFFFFFFFFFFFFF MUL NOT AND SWAP1 DUP4 PUSH20 0xFFFFFFFFFFFFFFFFFFFFFFFFFFFFFFFFFFFFFFFF AND MUL OR SWAP1 SSTORE POP PUSH1 0x40 DUP3 ADD MLOAD DUP2 PUSH1 0x2 ADD SSTORE PUSH1 0x60 DUP3 ADD MLOAD DUP2 PUSH1 0x3 ADD SSTORE POP POP DUP2 PUSH20 0xFFFFFFFFFFFFFFFFFFFFFFFFFFFFFFFFFFFFFFFF AND CALLER PUSH20 0xFFFFFFFFFFFFFFFFFFFFFFFFFFFFFFFFFFFFFFFF AND PUSH32 0xDDF252AD1BE2C89B69C2B068FC378DAA952BA7F163C4A11628F55A4DF523B3EF DUP4 PUSH1 0x40 MLOAD PUSH2 0xF4C SWAP2 SWAP1 PUSH2 0x1E75 JUMP JUMPDEST PUSH1 0x40 MLOAD DUP1 SWAP2 SUB SWAP1 LOG3 POP POP JUMP JUMPDEST PUSH1 0x0 CALLER SWAP1 POP SWAP1 JUMP JUMPDEST PUSH1 0x0 PUSH20 0xFFFFFFFFFFFFFFFFFFFFFFFFFFFFFFFFFFFFFFFF AND DUP4 PUSH20 0xFFFFFFFFFFFFFFFFFFFFFFFFFFFFFFFFFFFFFFFF AND EQ ISZERO PUSH2 0xFD0 JUMPI PUSH1 0x40 MLOAD PUSH32 0x8C379A000000000000000000000000000000000000000000000000000000000 DUP2 MSTORE PUSH1 0x4 ADD PUSH2 0xFC7 SWAP1 PUSH2 0x1E15 JUMP JUMPDEST PUSH1 0x40 MLOAD DUP1 SWAP2 SUB SWAP1 REVERT JUMPDEST PUSH1 0x0 PUSH20 0xFFFFFFFFFFFFFFFFFFFFFFFFFFFFFFFFFFFFFFFF AND DUP3 PUSH20 0xFFFFFFFFFFFFFFFFFFFFFFFFFFFFFFFFFFFFFFFF AND EQ ISZERO PUSH2 0x1040 JUMPI PUSH1 0x40 MLOAD PUSH32 0x8C379A000000000000000000000000000000000000000000000000000000000 DUP2 MSTORE PUSH1 0x4 ADD PUSH2 0x1037 SWAP1 PUSH2 0x1D75 JUMP JUMPDEST PUSH1 0x40 MLOAD DUP1 SWAP2 SUB SWAP1 REVERT JUMPDEST DUP1 PUSH1 0x1 PUSH1 0x0 DUP6 PUSH20 0xFFFFFFFFFFFFFFFFFFFFFFFFFFFFFFFFFFFFFFFF AND PUSH20 0xFFFFFFFFFFFFFFFFFFFFFFFFFFFFFFFFFFFFFFFF AND DUP2 MSTORE PUSH1 0x20 ADD SWAP1 DUP2 MSTORE PUSH1 0x20 ADD PUSH1 0x0 KECCAK256 PUSH1 0x0 DUP5 PUSH20 0xFFFFFFFFFFFFFFFFFFFFFFFFFFFFFFFFFFFFFFFF AND PUSH20 0xFFFFFFFFFFFFFFFFFFFFFFFFFFFFFFFFFFFFFFFF AND DUP2 MSTORE PUSH1 0x20 ADD SWAP1 DUP2 MSTORE PUSH1 0x20 ADD PUSH1 0x0 KECCAK256 DUP2 SWAP1 SSTORE POP DUP2 PUSH20 0xFFFFFFFFFFFFFFFFFFFFFFFFFFFFFFFFFFFFFFFF AND DUP4 PUSH20 0xFFFFFFFFFFFFFFFFFFFFFFFFFFFFFFFFFFFFFFFF AND PUSH32 0x8C5BE1E5EBEC7D5BD14F71427D1E84F3DD0314C0F7B2291E5B200AC8C7C3B925 DUP4 PUSH1 0x40 MLOAD PUSH2 0x111E SWAP2 SWAP1 PUSH2 0x1E75 JUMP JUMPDEST PUSH1 0x40 MLOAD DUP1 SWAP2 SUB SWAP1 LOG3 POP POP POP JUMP JUMPDEST PUSH1 0x0 PUSH2 0x1137 DUP5 DUP5 PUSH2 0xBF0 JUMP JUMPDEST SWAP1 POP PUSH32 0xFFFFFFFFFFFFFFFFFFFFFFFFFFFFFFFFFFFFFFFFFFFFFFFFFFFFFFFFFFFFFFFF DUP2 EQ PUSH2 0x11B1 JUMPI DUP2 DUP2 LT ISZERO PUSH2 0x11A3 JUMPI PUSH1 0x40 MLOAD PUSH32 0x8C379A000000000000000000000000000000000000000000000000000000000 DUP2 MSTORE PUSH1 0x4 ADD PUSH2 0x119A SWAP1 PUSH2 0x1D95 JUMP JUMPDEST PUSH1 0x40 MLOAD DUP1 SWAP2 SUB SWAP1 REVERT JUMPDEST PUSH2 0x11B0 DUP5 DUP5 DUP5 DUP5 SUB PUSH2 0xF60 JUMP JUMPDEST JUMPDEST POP POP POP POP JUMP JUMPDEST PUSH1 0x0 PUSH20 0xFFFFFFFFFFFFFFFFFFFFFFFFFFFFFFFFFFFFFFFF AND DUP4 PUSH20 0xFFFFFFFFFFFFFFFFFFFFFFFFFFFFFFFFFFFFFFFF AND EQ ISZERO PUSH2 0x1227 JUMPI PUSH1 0x40 MLOAD PUSH32 0x8C379A000000000000000000000000000000000000000000000000000000000 DUP2 MSTORE PUSH1 0x4 ADD PUSH2 0x121E SWAP1 PUSH2 0x1DF5 JUMP JUMPDEST PUSH1 0x40 MLOAD DUP1 SWAP2 SUB SWAP1 REVERT JUMPDEST PUSH1 0x0 PUSH20 0xFFFFFFFFFFFFFFFFFFFFFFFFFFFFFFFFFFFFFFFF AND DUP3 PUSH20 0xFFFFFFFFFFFFFFFFFFFFFFFFFFFFFFFFFFFFFFFF AND EQ ISZERO PUSH2 0x1297 JUMPI PUSH1 0x40 MLOAD PUSH32 0x8C379A000000000000000000000000000000000000000000000000000000000 DUP2 MSTORE PUSH1 0x4 ADD PUSH2 0x128E SWAP1 PUSH2 0x1D35 JUMP JUMPDEST PUSH1 0x40 MLOAD DUP1 SWAP2 SUB SWAP1 REVERT JUMPDEST PUSH2 0x12A2 DUP4 DUP4 DUP4 PUSH2 0x165E JUMP JUMPDEST PUSH1 0x0 DUP1 PUSH1 0x0 DUP6 PUSH20 0xFFFFFFFFFFFFFFFFFFFFFFFFFFFFFFFFFFFFFFFF AND PUSH20 0xFFFFFFFFFFFFFFFFFFFFFFFFFFFFFFFFFFFFFFFF AND DUP2 MSTORE PUSH1 0x20 ADD SWAP1 DUP2 MSTORE PUSH1 0x20 ADD PUSH1 0x0 KECCAK256 SLOAD SWAP1 POP DUP2 DUP2 LT ISZERO PUSH2 0x1328 JUMPI PUSH1 0x40 MLOAD PUSH32 0x8C379A000000000000000000000000000000000000000000000000000000000 DUP2 MSTORE PUSH1 0x4 ADD PUSH2 0x131F SWAP1 PUSH2 0x1DB5 JUMP JUMPDEST PUSH1 0x40 MLOAD DUP1 SWAP2 SUB SWAP1 REVERT JUMPDEST DUP2 DUP2 SUB PUSH1 0x0 DUP1 DUP7 PUSH20 0xFFFFFFFFFFFFFFFFFFFFFFFFFFFFFFFFFFFFFFFF AND PUSH20 0xFFFFFFFFFFFFFFFFFFFFFFFFFFFFFFFFFFFFFFFF AND DUP2 MSTORE PUSH1 0x20 ADD SWAP1 DUP2 MSTORE PUSH1 0x20 ADD PUSH1 0x0 KECCAK256 DUP2 SWAP1 SSTORE POP DUP2 PUSH1 0x0 DUP1 DUP6 PUSH20 0xFFFFFFFFFFFFFFFFFFFFFFFFFFFFFFFFFFFFFFFF AND PUSH20 0xFFFFFFFFFFFFFFFFFFFFFFFFFFFFFFFFFFFFFFFF AND DUP2 MSTORE PUSH1 0x20 ADD SWAP1 DUP2 MSTORE PUSH1 0x20 ADD PUSH1 0x0 KECCAK256 PUSH1 0x0 DUP3 DUP3 SLOAD PUSH2 0x13BB SWAP2 SWAP1 PUSH2 0x1F00 JUMP JUMPDEST SWAP3 POP POP DUP2 SWAP1 SSTORE POP DUP3 PUSH20 0xFFFFFFFFFFFFFFFFFFFFFFFFFFFFFFFFFFFFFFFF AND DUP5 PUSH20 0xFFFFFFFFFFFFFFFFFFFFFFFFFFFFFFFFFFFFFFFF AND PUSH32 0xDDF252AD1BE2C89B69C2B068FC378DAA952BA7F163C4A11628F55A4DF523B3EF DUP5 PUSH1 0x40 MLOAD PUSH2 0x141F SWAP2 SWAP1 PUSH2 0x1E75 JUMP JUMPDEST PUSH1 0x40 MLOAD DUP1 SWAP2 SUB SWAP1 LOG3 PUSH2 0x1432 DUP5 DUP5 DUP5 PUSH2 0x1663 JUMP JUMPDEST POP POP POP POP JUMP JUMPDEST PUSH1 0x0 PUSH20 0xFFFFFFFFFFFFFFFFFFFFFFFFFFFFFFFFFFFFFFFF AND DUP3 PUSH20 0xFFFFFFFFFFFFFFFFFFFFFFFFFFFFFFFFFFFFFFFF AND EQ ISZERO PUSH2 0x14A8 JUMPI PUSH1 0x40 MLOAD PUSH32 0x8C379A000000000000000000000000000000000000000000000000000000000 DUP2 MSTORE PUSH1 0x4 ADD PUSH2 0x149F SWAP1 PUSH2 0x1E55 JUMP JUMPDEST PUSH1 0x40 MLOAD DUP1 SWAP2 SUB SWAP1 REVERT JUMPDEST PUSH2 0x14B4 PUSH1 0x0 DUP4 DUP4 PUSH2 0x165E JUMP JUMPDEST DUP1 PUSH1 0x2 PUSH1 0x0 DUP3 DUP3 SLOAD PUSH2 0x14C6 SWAP2 SWAP1 PUSH2 0x1F00 JUMP JUMPDEST SWAP3 POP POP DUP2 SWAP1 SSTORE POP DUP1 PUSH1 0x0 DUP1 DUP5 PUSH20 0xFFFFFFFFFFFFFFFFFFFFFFFFFFFFFFFFFFFFFFFF AND PUSH20 0xFFFFFFFFFFFFFFFFFFFFFFFFFFFFFFFFFFFFFFFF AND DUP2 MSTORE PUSH1 0x20 ADD SWAP1 DUP2 MSTORE PUSH1 0x20 ADD PUSH1 0x0 KECCAK256 PUSH1 0x0 DUP3 DUP3 SLOAD PUSH2 0x151B SWAP2 SWAP1 PUSH2 0x1F00 JUMP JUMPDEST SWAP3 POP POP DUP2 SWAP1 SSTORE POP DUP2 PUSH20 0xFFFFFFFFFFFFFFFFFFFFFFFFFFFFFFFFFFFFFFFF AND PUSH1 0x0 PUSH20 0xFFFFFFFFFFFFFFFFFFFFFFFFFFFFFFFFFFFFFFFF AND PUSH32 0xDDF252AD1BE2C89B69C2B068FC378DAA952BA7F163C4A11628F55A4DF523B3EF DUP4 PUSH1 0x40 MLOAD PUSH2 0x1580 SWAP2 SWAP1 PUSH2 0x1E75 JUMP JUMPDEST PUSH1 0x40 MLOAD DUP1 SWAP2 SUB SWAP1 LOG3 PUSH2 0x1594 PUSH1 0x0 DUP4 DUP4 PUSH2 0x1663 JUMP JUMPDEST POP POP JUMP JUMPDEST PUSH1 0x0 PUSH1 0x5 PUSH1 0x0 SWAP1 SLOAD SWAP1 PUSH2 0x100 EXP SWAP1 DIV PUSH20 0xFFFFFFFFFFFFFFFFFFFFFFFFFFFFFFFFFFFFFFFF AND SWAP1 POP DUP2 PUSH1 0x5 PUSH1 0x0 PUSH2 0x100 EXP DUP2 SLOAD DUP2 PUSH20 0xFFFFFFFFFFFFFFFFFFFFFFFFFFFFFFFFFFFFFFFF MUL NOT AND SWAP1 DUP4 PUSH20 0xFFFFFFFFFFFFFFFFFFFFFFFFFFFFFFFFFFFFFFFF AND MUL OR SWAP1 SSTORE POP DUP2 PUSH20 0xFFFFFFFFFFFFFFFFFFFFFFFFFFFFFFFFFFFFFFFF AND DUP2 PUSH20 0xFFFFFFFFFFFFFFFFFFFFFFFFFFFFFFFFFFFFFFFF AND PUSH32 0x8BE0079C531659141344CD1FD0A4F28419497F9722A3DAAFE3B4186F6B6457E0 PUSH1 0x40 MLOAD PUSH1 0x40 MLOAD DUP1 SWAP2 SUB SWAP1 LOG3 POP POP JUMP JUMPDEST POP POP POP JUMP JUMPDEST POP POP POP JUMP JUMPDEST PUSH1 0x0 DUP2 CALLDATALOAD SWAP1 POP PUSH2 0x1677 DUP2 PUSH2 0x20F1 JUMP JUMPDEST SWAP3 SWAP2 POP POP JUMP JUMPDEST PUSH1 0x0 DUP2 CALLDATALOAD SWAP1 POP PUSH2 0x168C DUP2 PUSH2 0x2108 JUMP JUMPDEST SWAP3 SWAP2 POP POP JUMP JUMPDEST PUSH1 0x0 DUP2 CALLDATALOAD SWAP1 POP PUSH2 0x16A1 DUP2 PUSH2 0x211F JUMP JUMPDEST SWAP3 SWAP2 POP POP JUMP JUMPDEST PUSH1 0x0 PUSH1 0x20 DUP3 DUP5 SUB SLT ISZERO PUSH2 0x16B9 JUMPI PUSH1 0x0 DUP1 REVERT JUMPDEST PUSH1 0x0 PUSH2 0x16C7 DUP5 DUP3 DUP6 ADD PUSH2 0x1668 JUMP JUMPDEST SWAP2 POP POP SWAP3 SWAP2 POP POP JUMP JUMPDEST PUSH1 0x0 DUP1 PUSH1 0x40 DUP4 DUP6 SUB SLT ISZERO PUSH2 0x16E3 JUMPI PUSH1 0x0 DUP1 REVERT JUMPDEST PUSH1 0x0 PUSH2 0x16F1 DUP6 DUP3 DUP7 ADD PUSH2 0x167D JUMP JUMPDEST SWAP3 POP POP PUSH1 0x20 PUSH2 0x1702 DUP6 DUP3 DUP7 ADD PUSH2 0x1692 JUMP JUMPDEST SWAP2 POP POP SWAP3 POP SWAP3 SWAP1 POP JUMP JUMPDEST PUSH1 0x0 DUP1 PUSH1 0x40 DUP4 DUP6 SUB SLT ISZERO PUSH2 0x171F JUMPI PUSH1 0x0 DUP1 REVERT JUMPDEST PUSH1 0x0 PUSH2 0x172D DUP6 DUP3 DUP7 ADD PUSH2 0x1668 JUMP JUMPDEST SWAP3 POP POP PUSH1 0x20 PUSH2 0x173E DUP6 DUP3 DUP7 ADD PUSH2 0x1668 JUMP JUMPDEST SWAP2 POP POP SWAP3 POP SWAP3 SWAP1 POP JUMP JUMPDEST PUSH1 0x0 DUP1 PUSH1 0x0 PUSH1 0x60 DUP5 DUP7 SUB SLT ISZERO PUSH2 0x175D JUMPI PUSH1 0x0 DUP1 REVERT JUMPDEST PUSH1 0x0 PUSH2 0x176B DUP7 DUP3 DUP8 ADD PUSH2 0x1668 JUMP JUMPDEST SWAP4 POP POP PUSH1 0x20 PUSH2 0x177C DUP7 DUP3 DUP8 ADD PUSH2 0x1668 JUMP JUMPDEST SWAP3 POP POP PUSH1 0x40 PUSH2 0x178D DUP7 DUP3 DUP8 ADD PUSH2 0x1692 JUMP JUMPDEST SWAP2 POP POP SWAP3 POP SWAP3 POP SWAP3 JUMP JUMPDEST PUSH1 0x0 DUP1 PUSH1 0x40 DUP4 DUP6 SUB SLT ISZERO PUSH2 0x17AA JUMPI PUSH1 0x0 DUP1 REVERT JUMPDEST PUSH1 0x0 PUSH2 0x17B8 DUP6 DUP3 DUP7 ADD PUSH2 0x1668 JUMP JUMPDEST SWAP3 POP POP PUSH1 0x20 PUSH2 0x17C9 DUP6 DUP3 DUP7 ADD PUSH2 0x1692 JUMP JUMPDEST SWAP2 POP POP SWAP3 POP SWAP3 SWAP1 POP JUMP JUMPDEST PUSH1 0x0 PUSH2 0x17DF DUP4 DUP4 PUSH2 0x1C39 JUMP JUMPDEST PUSH1 0x80 DUP4 ADD SWAP1 POP SWAP3 SWAP2 POP POP JUMP JUMPDEST PUSH2 0x17F4 DUP2 PUSH2 0x1F87 JUMP JUMPDEST DUP3 MSTORE POP POP JUMP JUMPDEST PUSH2 0x1803 DUP2 PUSH2 0x1F87 JUMP JUMPDEST DUP3 MSTORE POP POP JUMP JUMPDEST PUSH1 0x0 PUSH2 0x1814 DUP3 PUSH2 0x1EBB JUMP JUMPDEST PUSH2 0x181E DUP2 DUP6 PUSH2 0x1EDE JUMP JUMPDEST SWAP4 POP PUSH2 0x1829 DUP4 PUSH2 0x1EAB JUMP JUMPDEST DUP1 PUSH1 0x0 JUMPDEST DUP4 DUP2 LT ISZERO PUSH2 0x185A JUMPI DUP2 MLOAD PUSH2 0x1841 DUP9 DUP3 PUSH2 0x17D3 JUMP JUMPDEST SWAP8 POP PUSH2 0x184C DUP4 PUSH2 0x1ED1 JUMP JUMPDEST SWAP3 POP POP PUSH1 0x1 DUP2 ADD SWAP1 POP PUSH2 0x182D JUMP JUMPDEST POP DUP6 SWAP4 POP POP POP POP SWAP3 SWAP2 POP POP JUMP JUMPDEST PUSH2 0x1870 DUP2 PUSH2 0x1FAB JUMP JUMPDEST DUP3 MSTORE POP POP JUMP JUMPDEST PUSH1 0x0 PUSH2 0x1881 DUP3 PUSH2 0x1EC6 JUMP JUMPDEST PUSH2 0x188B DUP2 DUP6 PUSH2 0x1EEF JUMP JUMPDEST SWAP4 POP PUSH2 0x189B DUP2 DUP6 PUSH1 0x20 DUP7 ADD PUSH2 0x1FEE JUMP JUMPDEST PUSH2 0x18A4 DUP2 PUSH2 0x20E0 JUMP JUMPDEST DUP5 ADD SWAP2 POP POP SWAP3 SWAP2 POP POP JUMP JUMPDEST PUSH1 0x0 PUSH2 0x18BC PUSH1 0x23 DUP4 PUSH2 0x1EEF JUMP JUMPDEST SWAP2 POP PUSH32 0x45524332303A207472616E7366657220746F20746865207A65726F2061646472 PUSH1 0x0 DUP4 ADD MSTORE PUSH32 0x6573730000000000000000000000000000000000000000000000000000000000 PUSH1 0x20 DUP4 ADD MSTORE PUSH1 0x40 DUP3 ADD SWAP1 POP SWAP2 SWAP1 POP JUMP JUMPDEST PUSH1 0x0 PUSH2 0x1922 PUSH1 0x26 DUP4 PUSH2 0x1EEF JUMP JUMPDEST SWAP2 POP PUSH32 0x4F776E61626C653A206E6577206F776E657220697320746865207A65726F2061 PUSH1 0x0 DUP4 ADD MSTORE PUSH32 0x6464726573730000000000000000000000000000000000000000000000000000 PUSH1 0x20 DUP4 ADD MSTORE PUSH1 0x40 DUP3 ADD SWAP1 POP SWAP2 SWAP1 POP JUMP JUMPDEST PUSH1 0x0 PUSH2 0x1988 PUSH1 0x22 DUP4 PUSH2 0x1EEF JUMP JUMPDEST SWAP2 POP PUSH32 0x45524332303A20617070726F766520746F20746865207A65726F206164647265 PUSH1 0x0 DUP4 ADD MSTORE PUSH32 0x7373000000000000000000000000000000000000000000000000000000000000 PUSH1 0x20 DUP4 ADD MSTORE PUSH1 0x40 DUP3 ADD SWAP1 POP SWAP2 SWAP1 POP JUMP JUMPDEST PUSH1 0x0 PUSH2 0x19EE PUSH1 0x1D DUP4 PUSH2 0x1EEF JUMP JUMPDEST SWAP2 POP PUSH32 0x45524332303A20696E73756666696369656E7420616C6C6F77616E6365000000 PUSH1 0x0 DUP4 ADD MSTORE PUSH1 0x20 DUP3 ADD SWAP1 POP SWAP2 SWAP1 POP JUMP JUMPDEST PUSH1 0x0 PUSH2 0x1A2E PUSH1 0x26 DUP4 PUSH2 0x1EEF JUMP JUMPDEST SWAP2 POP PUSH32 0x45524332303A207472616E7366657220616D6F756E7420657863656564732062 PUSH1 0x0 DUP4 ADD MSTORE PUSH32 0x616C616E63650000000000000000000000000000000000000000000000000000 PUSH1 0x20 DUP4 ADD MSTORE PUSH1 0x40 DUP3 ADD SWAP1 POP SWAP2 SWAP1 POP JUMP JUMPDEST PUSH1 0x0 PUSH2 0x1A94 PUSH1 0x20 DUP4 PUSH2 0x1EEF JUMP JUMPDEST SWAP2 POP PUSH32 0x4F776E61626C653A2063616C6C6572206973206E6F7420746865206F776E6572 PUSH1 0x0 DUP4 ADD MSTORE PUSH1 0x20 DUP3 ADD SWAP1 POP SWAP2 SWAP1 POP JUMP JUMPDEST PUSH1 0x0 PUSH2 0x1AD4 PUSH1 0x25 DUP4 PUSH2 0x1EEF JUMP JUMPDEST SWAP2 POP PUSH32 0x45524332303A207472616E736665722066726F6D20746865207A65726F206164 PUSH1 0x0 DUP4 ADD MSTORE PUSH32 0x6472657373000000000000000000000000000000000000000000000000000000 PUSH1 0x20 DUP4 ADD MSTORE PUSH1 0x40 DUP3 ADD SWAP1 POP SWAP2 SWAP1 POP JUMP JUMPDEST PUSH1 0x0 PUSH2 0x1B3A PUSH1 0x24 DUP4 PUSH2 0x1EEF JUMP JUMPDEST SWAP2 POP PUSH32 0x45524332303A20617070726F76652066726F6D20746865207A65726F20616464 PUSH1 0x0 DUP4 ADD MSTORE PUSH32 0x7265737300000000000000000000000000000000000000000000000000000000 PUSH1 0x20 DUP4 ADD MSTORE PUSH1 0x40 DUP3 ADD SWAP1 POP SWAP2 SWAP1 POP JUMP JUMPDEST PUSH1 0x0 PUSH2 0x1BA0 PUSH1 0x25 DUP4 PUSH2 0x1EEF JUMP JUMPDEST SWAP2 POP PUSH32 0x45524332303A2064656372656173656420616C6C6F77616E63652062656C6F77 PUSH1 0x0 DUP4 ADD MSTORE PUSH32 0x207A65726F000000000000000000000000000000000000000000000000000000 PUSH1 0x20 DUP4 ADD MSTORE PUSH1 0x40 DUP3 ADD SWAP1 POP SWAP2 SWAP1 POP JUMP JUMPDEST PUSH1 0x0 PUSH2 0x1C06 PUSH1 0x1F DUP4 PUSH2 0x1EEF JUMP JUMPDEST SWAP2 POP PUSH32 0x45524332303A206D696E7420746F20746865207A65726F206164647265737300 PUSH1 0x0 DUP4 ADD MSTORE PUSH1 0x20 DUP3 ADD SWAP1 POP SWAP2 SWAP1 POP JUMP JUMPDEST PUSH1 0x80 DUP3 ADD PUSH1 0x0 DUP3 ADD MLOAD PUSH2 0x1C4F PUSH1 0x0 DUP6 ADD DUP3 PUSH2 0x17EB JUMP JUMPDEST POP PUSH1 0x20 DUP3 ADD MLOAD PUSH2 0x1C62 PUSH1 0x20 DUP6 ADD DUP3 PUSH2 0x17EB JUMP JUMPDEST POP PUSH1 0x40 DUP3 ADD MLOAD PUSH2 0x1C75 PUSH1 0x40 DUP6 ADD DUP3 PUSH2 0x1C8E JUMP JUMPDEST POP PUSH1 0x60 DUP3 ADD MLOAD PUSH2 0x1C88 PUSH1 0x60 DUP6 ADD DUP3 PUSH2 0x1C8E JUMP JUMPDEST POP POP POP POP JUMP JUMPDEST PUSH2 0x1C97 DUP2 PUSH2 0x1FD7 JUMP JUMPDEST DUP3 MSTORE POP POP JUMP JUMPDEST PUSH2 0x1CA6 DUP2 PUSH2 0x1FD7 JUMP JUMPDEST DUP3 MSTORE POP POP JUMP JUMPDEST PUSH2 0x1CB5 DUP2 PUSH2 0x1FE1 JUMP JUMPDEST DUP3 MSTORE POP POP JUMP JUMPDEST PUSH1 0x0 PUSH1 0x20 DUP3 ADD SWAP1 POP PUSH2 0x1CD0 PUSH1 0x0 DUP4 ADD DUP5 PUSH2 0x17FA JUMP JUMPDEST SWAP3 SWAP2 POP POP JUMP JUMPDEST PUSH1 0x0 PUSH1 0x20 DUP3 ADD SWAP1 POP DUP2 DUP2 SUB PUSH1 0x0 DUP4 ADD MSTORE PUSH2 0x1CF0 DUP2 DUP5 PUSH2 0x1809 JUMP JUMPDEST SWAP1 POP SWAP3 SWAP2 POP POP JUMP JUMPDEST PUSH1 0x0 PUSH1 0x20 DUP3 ADD SWAP1 POP PUSH2 0x1D0D PUSH1 0x0 DUP4 ADD DUP5 PUSH2 0x1867 JUMP JUMPDEST SWAP3 SWAP2 POP POP JUMP JUMPDEST PUSH1 0x0 PUSH1 0x20 DUP3 ADD SWAP1 POP DUP2 DUP2 SUB PUSH1 0x0 DUP4 ADD MSTORE PUSH2 0x1D2D DUP2 DUP5 PUSH2 0x1876 JUMP JUMPDEST SWAP1 POP SWAP3 SWAP2 POP POP JUMP JUMPDEST PUSH1 0x0 PUSH1 0x20 DUP3 ADD SWAP1 POP DUP2 DUP2 SUB PUSH1 0x0 DUP4 ADD MSTORE PUSH2 0x1D4E DUP2 PUSH2 0x18AF JUMP JUMPDEST SWAP1 POP SWAP2 SWAP1 POP JUMP JUMPDEST PUSH1 0x0 PUSH1 0x20 DUP3 ADD SWAP1 POP DUP2 DUP2 SUB PUSH1 0x0 DUP4 ADD MSTORE PUSH2 0x1D6E DUP2 PUSH2 0x1915 JUMP JUMPDEST SWAP1 POP SWAP2 SWAP1 POP JUMP JUMPDEST PUSH1 0x0 PUSH1 0x20 DUP3 ADD SWAP1 POP DUP2 DUP2 SUB PUSH1 0x0 DUP4 ADD MSTORE PUSH2 0x1D8E DUP2 PUSH2 0x197B JUMP JUMPDEST SWAP1 POP SWAP2 SWAP1 POP JUMP JUMPDEST PUSH1 0x0 PUSH1 0x20 DUP3 ADD SWAP1 POP DUP2 DUP2 SUB PUSH1 0x0 DUP4 ADD MSTORE PUSH2 0x1DAE DUP2 PUSH2 0x19E1 JUMP JUMPDEST SWAP1 POP SWAP2 SWAP1 POP JUMP JUMPDEST PUSH1 0x0 PUSH1 0x20 DUP3 ADD SWAP1 POP DUP2 DUP2 SUB PUSH1 0x0 DUP4 ADD MSTORE PUSH2 0x1DCE DUP2 PUSH2 0x1A21 JUMP JUMPDEST SWAP1 POP SWAP2 SWAP1 POP JUMP JUMPDEST PUSH1 0x0 PUSH1 0x20 DUP3 ADD SWAP1 POP DUP2 DUP2 SUB PUSH1 0x0 DUP4 ADD MSTORE PUSH2 0x1DEE DUP2 PUSH2 0x1A87 JUMP JUMPDEST SWAP1 POP SWAP2 SWAP1 POP JUMP JUMPDEST PUSH1 0x0 PUSH1 0x20 DUP3 ADD SWAP1 POP DUP2 DUP2 SUB PUSH1 0x0 DUP4 ADD MSTORE PUSH2 0x1E0E DUP2 PUSH2 0x1AC7 JUMP JUMPDEST SWAP1 POP SWAP2 SWAP1 POP JUMP JUMPDEST PUSH1 0x0 PUSH1 0x20 DUP3 ADD SWAP1 POP DUP2 DUP2 SUB PUSH1 0x0 DUP4 ADD MSTORE PUSH2 0x1E2E DUP2 PUSH2 0x1B2D JUMP JUMPDEST SWAP1 POP SWAP2 SWAP1 POP JUMP JUMPDEST PUSH1 0x0 PUSH1 0x20 DUP3 ADD SWAP1 POP DUP2 DUP2 SUB PUSH1 0x0 DUP4 ADD MSTORE PUSH2 0x1E4E DUP2 PUSH2 0x1B93 JUMP JUMPDEST SWAP1 POP SWAP2 SWAP1 POP JUMP JUMPDEST PUSH1 0x0 PUSH1 0x20 DUP3 ADD SWAP1 POP DUP2 DUP2 SUB PUSH1 0x0 DUP4 ADD MSTORE PUSH2 0x1E6E DUP2 PUSH2 0x1BF9 JUMP JUMPDEST SWAP1 POP SWAP2 SWAP1 POP JUMP JUMPDEST PUSH1 0x0 PUSH1 0x20 DUP3 ADD SWAP1 POP PUSH2 0x1E8A PUSH1 0x0 DUP4 ADD DUP5 PUSH2 0x1C9D JUMP JUMPDEST SWAP3 SWAP2 POP POP JUMP JUMPDEST PUSH1 0x0 PUSH1 0x20 DUP3 ADD SWAP1 POP PUSH2 0x1EA5 PUSH1 0x0 DUP4 ADD DUP5 PUSH2 0x1CAC JUMP JUMPDEST SWAP3 SWAP2 POP POP JUMP JUMPDEST PUSH1 0x0 DUP2 SWAP1 POP PUSH1 0x20 DUP3 ADD SWAP1 POP SWAP2 SWAP1 POP JUMP JUMPDEST PUSH1 0x0 DUP2 MLOAD SWAP1 POP SWAP2 SWAP1 POP JUMP JUMPDEST PUSH1 0x0 DUP2 MLOAD SWAP1 POP SWAP2 SWAP1 POP JUMP JUMPDEST PUSH1 0x0 PUSH1 0x20 DUP3 ADD SWAP1 POP SWAP2 SWAP1 POP JUMP JUMPDEST PUSH1 0x0 DUP3 DUP3 MSTORE PUSH1 0x20 DUP3 ADD SWAP1 POP SWAP3 SWAP2 POP POP JUMP JUMPDEST PUSH1 0x0 DUP3 DUP3 MSTORE PUSH1 0x20 DUP3 ADD SWAP1 POP SWAP3 SWAP2 POP POP JUMP JUMPDEST PUSH1 0x0 PUSH2 0x1F0B DUP3 PUSH2 0x1FD7 JUMP JUMPDEST SWAP2 POP PUSH2 0x1F16 DUP4 PUSH2 0x1FD7 JUMP JUMPDEST SWAP3 POP DUP3 PUSH32 0xFFFFFFFFFFFFFFFFFFFFFFFFFFFFFFFFFFFFFFFFFFFFFFFFFFFFFFFFFFFFFFFF SUB DUP3 GT ISZERO PUSH2 0x1F4B JUMPI PUSH2 0x1F4A PUSH2 0x2053 JUMP JUMPDEST JUMPDEST DUP3 DUP3 ADD SWAP1 POP SWAP3 SWAP2 POP POP JUMP JUMPDEST PUSH1 0x0 PUSH2 0x1F61 DUP3 PUSH2 0x1FD7 JUMP JUMPDEST SWAP2 POP PUSH2 0x1F6C DUP4 PUSH2 0x1FD7 JUMP JUMPDEST SWAP3 POP DUP3 PUSH2 0x1F7C JUMPI PUSH2 0x1F7B PUSH2 0x2082 JUMP JUMPDEST JUMPDEST DUP3 DUP3 DIV SWAP1 POP SWAP3 SWAP2 POP POP JUMP JUMPDEST PUSH1 0x0 PUSH2 0x1F92 DUP3 PUSH2 0x1FB7 JUMP JUMPDEST SWAP1 POP SWAP2 SWAP1 POP JUMP JUMPDEST PUSH1 0x0 PUSH2 0x1FA4 DUP3 PUSH2 0x1FB7 JUMP JUMPDEST SWAP1 POP SWAP2 SWAP1 POP JUMP JUMPDEST PUSH1 0x0 DUP2 ISZERO ISZERO SWAP1 POP SWAP2 SWAP1 POP JUMP JUMPDEST PUSH1 0x0 PUSH20 0xFFFFFFFFFFFFFFFFFFFFFFFFFFFFFFFFFFFFFFFF DUP3 AND SWAP1 POP SWAP2 SWAP1 POP JUMP JUMPDEST PUSH1 0x0 DUP2 SWAP1 POP SWAP2 SWAP1 POP JUMP JUMPDEST PUSH1 0x0 PUSH1 0xFF DUP3 AND SWAP1 POP SWAP2 SWAP1 POP JUMP JUMPDEST PUSH1 0x0 JUMPDEST DUP4 DUP2 LT ISZERO PUSH2 0x200C JUMPI DUP1 DUP3 ADD MLOAD DUP2 DUP5 ADD MSTORE PUSH1 0x20 DUP2 ADD SWAP1 POP PUSH2 0x1FF1 JUMP JUMPDEST DUP4 DUP2 GT ISZERO PUSH2 0x201B JUMPI PUSH1 0x0 DUP5 DUP5 ADD MSTORE JUMPDEST POP POP POP POP JUMP JUMPDEST PUSH1 0x0 PUSH1 0x2 DUP3 DIV SWAP1 POP PUSH1 0x1 DUP3 AND DUP1 PUSH2 0x2039 JUMPI PUSH1 0x7F DUP3 AND SWAP2 POP JUMPDEST PUSH1 0x20 DUP3 LT DUP2 EQ ISZERO PUSH2 0x204D JUMPI PUSH2 0x204C PUSH2 0x20B1 JUMP JUMPDEST JUMPDEST POP SWAP2 SWAP1 POP JUMP JUMPDEST PUSH32 0x4E487B7100000000000000000000000000000000000000000000000000000000 PUSH1 0x0 MSTORE PUSH1 0x11 PUSH1 0x4 MSTORE PUSH1 0x24 PUSH1 0x0 REVERT JUMPDEST PUSH32 0x4E487B7100000000000000000000000000000000000000000000000000000000 PUSH1 0x0 MSTORE PUSH1 0x12 PUSH1 0x4 MSTORE PUSH1 0x24 PUSH1 0x0 REVERT JUMPDEST PUSH32 0x4E487B7100000000000000000000000000000000000000000000000000000000 PUSH1 0x0 MSTORE PUSH1 0x22 PUSH1 0x4 MSTORE PUSH1 0x24 PUSH1 0x0 REVERT JUMPDEST PUSH1 0x0 PUSH1 0x1F NOT PUSH1 0x1F DUP4 ADD AND SWAP1 POP SWAP2 SWAP1 POP JUMP JUMPDEST PUSH2 0x20FA DUP2 PUSH2 0x1F87 JUMP JUMPDEST DUP2 EQ PUSH2 0x2105 JUMPI PUSH1 0x0 DUP1 REVERT JUMPDEST POP JUMP JUMPDEST PUSH2 0x2111 DUP2 PUSH2 0x1F99 JUMP JUMPDEST DUP2 EQ PUSH2 0x211C JUMPI PUSH1 0x0 DUP1 REVERT JUMPDEST POP JUMP JUMPDEST PUSH2 0x2128 DUP2 PUSH2 0x1FD7 JUMP JUMPDEST DUP2 EQ PUSH2 0x2133 JUMPI PUSH1 0x0 DUP1 REVERT JUMPDEST POP JUMP INVALID LOG2 PUSH5 0x6970667358 0x22 SLT KECCAK256 0xD6 SWAP9 RETURN SWAP14 0xEB EQ 0xA7 0xE9 0xF8 DUP7 PUSH30 0x80C31E6E08203B1B48013A471739B833DB3668857664736F6C6343000800 STOP CALLER "
				},
				"gasEstimates": {
					"creation": {
						"codeDepositCost": "1711200",
						"executionCost": "infinite",
						"totalCost": "infinite"
					},
					"external": {
						"_numberofTokensStaked()": "1160",
						"allowance(address,address)": "infinite",
						"approve(address,uint256)": "infinite",
						"balanceOf(address)": "1652",
						"buyToken(address,uint256)": "infinite",
						"claimReward(address,uint256)": "infinite",
						"decimals()": "388",
						"decreaseAllowance(address,uint256)": "infinite",
						"getAllTransactions()": "infinite",
						"hasStaked(address)": "1589",
						"increaseAllowance(address,uint256)": "infinite",
						"name()": "infinite",
						"numberofTokensStaked()": "1262",
						"owner()": "1267",
						"renounceOwnership()": "24507",
						"rewards(address)": "1560",
						"stakeToken(address,uint256)": "infinite",
						"symbol()": "infinite",
						"tokenBuyPrice()": "1195",
						"totalSupply()": "1249",
						"transfer(address,uint256)": "infinite",
						"transferFrom(address,address,uint256)": "infinite",
						"transferOwnership(address)": "24833",
						"viewTokenBalance(address)": "1630"
					}
				},
				"methodIdentifiers": {
					"_numberofTokensStaked()": "789706ae",
					"allowance(address,address)": "dd62ed3e",
					"approve(address,uint256)": "095ea7b3",
					"balanceOf(address)": "70a08231",
					"buyToken(address,uint256)": "68f8fc10",
					"claimReward(address,uint256)": "174e31c4",
					"decimals()": "313ce567",
					"decreaseAllowance(address,uint256)": "a457c2d7",
					"getAllTransactions()": "27506f53",
					"hasStaked(address)": "c93c8f34",
					"increaseAllowance(address,uint256)": "39509351",
					"name()": "06fdde03",
					"numberofTokensStaked()": "a6c75797",
					"owner()": "8da5cb5b",
					"renounceOwnership()": "715018a6",
					"rewards(address)": "0700037d",
					"stakeToken(address,uint256)": "f739ed9e",
					"symbol()": "95d89b41",
					"tokenBuyPrice()": "dbf9f652",
					"totalSupply()": "18160ddd",
					"transfer(address,uint256)": "a9059cbb",
					"transferFrom(address,address,uint256)": "23b872dd",
					"transferOwnership(address)": "f2fde38b",
					"viewTokenBalance(address)": "a4101788"
				}
			},
			"userdoc": {
				"kind": "user",
				"methods": {},
				"version": 1
			}
		}
	}
}